:020000040800F2
:10000000A8390020BD9500083192000833920008FD
:10001000359200083792000839920008000000006D
:10002000000000000000000000000000EB9000084D
:100030003B92000800000000A59000083D920008D7
:100040004D960008519600085596000859960008EC
:100050005D9600086196000865960008699600089C
:100060006D9600087196000875960008799600084C
:100070007D960008819600088596000889960008FC
:100080008D960008919600089596000851920008F8
:100090006192000871920008999600089D960008E8
:1000A000A1960008A5960008A99600087B92000872
:1000B000AD960008B1960008B5960008B9960008FC
:1000C000BD960008C1960008C5960008C9960008AC
:1000D000CD96000885920008D1960008D5960008B4
:1000E000D9960008DD960008E196000818B585B09D
:1000F0000400002C01D10120BFE094F8A9020028DF
:1001000005D1002084F8A802200000F076FE03202C
:1001100084F8A902206800F09DFE211D83B0684686
:10012000202201F06FFB0EBC206800F08FFE00283B
:1001300004D0022084F8A90201209EE0002120685A
:1001400000F092FE00213BE001220B00DBB22820F0
:10015000434304EB030080F829200A00D2B2282090
:10016000424304EB020080F828100A00D2B20B00D0
:10017000DBB22820434304EB0300C28600220B00BD
:10018000DBB22820434304EB030080F82B2000223D
:100190000B00DBB22820434304EB03008263002200
:1001A0000B00DBB22820434304EB0300C2630022B0
:1001B0000B00DBB22820434304EB03000264491C1C
:1001C0000800C0B262689042BED3002135E0002230
:1001D0000B00DBB22820434304EB030080F86921C5
:1001E0000A00D2B22820424304EB020080F86811D2
:1001F00000220B00DBB22820434304EB030080F80D
:100200006B2100220B00DBB22820434304EB0300E8
:10021000C0F8782100220B00DBB22820434304EB16
:100220000300C0F87C2100220B00DBB228204343EE
:1002300004EB0300C0F88021491C0800C0B26268CA
:100240009042C4D3211D83B06846202201F0DAFA1F
:100250000EBC206800F00AFE002804D0022084F8BA
:10026000A902012009E0002084F82400012084F87C
:10027000A902206801F07CFA002006B010BD1FB56D
:100280000400206801F076FA000402D5200000F096
:10029000ECF8206801F06EFA40050FD52068B0F840
:1002A00044104FF6FF3001402068A0F844102000B1
:1002B00001F0EBFA0021200000F0C1F8206801F005
:1002C00059FA400408D52068B0F844104BF6FF7086
:1002D00001402068A0F84410206801F04BFA800427
:1002E00008D52068B0F844104DF6FF700140206832
:1002F000A0F84410206801F03DFAC0041DD5206824
:10030000B0F840104FF6FB7001402068A0F8401094
:100310002068B0F840104FF6F77001402068A0F850
:100320004010200001F0B2FA2068B0F844104EF6F8
:10033000FF7001402068A0F84410206801F01AFA0C
:1003400000055CD500200AE021680200D2B231F835
:1003500022106A460300DBB222F81310401C010091
:10036000C9B20829F0D32068B0F8400050F001006D
:100370002168A1F840002068B0F840104FF6FE70E8
:1003800001402068A0F840102068B0F84400400503
:10039000FAD52068B0F844104FF6FF3001402068CD
:1003A000A0F8441000200AE069460200D2B231F8F9
:1003B000121022680300DBB222F82310401C010057
:1003C000C9B20829F0D32068B0F8400050F0080006
:1003D0002168A1F840002068B0F844104FF2FF7087
:1003E00001402068A0F844102068B0F8400050F0A8
:1003F00004002168A1F84000200001F048FA2068BC
:1004000001F0B8F980050BD52068B0F844104FF61C
:10041000FF5001402068A0F84410200001F038FA95
:10042000206801F0A7F9C00508D52068B0F844108D
:100430004FF6FF6001402068A0F844101FBD10B5C2
:10044000040094F8A802012801D102200CE0012048
:1004500084F8A80284F82410C9B2206801F080F959
:10046000002084F8A802002010BD2DE9F04104000E
:1004700033E02068018848F60F70014051F40041D4
:100480002068018014F128052068B0F85000297810
:1004900010EBC100216811EB400101F20441088812
:1004A00080B28005800DE8616869E9690844686187
:1004B0000021200001F0EDF994F8240000280CD070
:1004C000A869002809D194F8240050F08000216820
:1004D000A1F84C00002084F824002068B0F8440003
:1004E000000440F1B3812068B0F8441011F00F050A
:1004F0002800C0B2002840F09C80C806B9D514F589
:10050000B47520680088010524D52068B0F8500033
:10051000297810EBC100216811EB400101F20C4178
:10052000088880B28005800DE861EB699BB2EA889B
:1005300014F52C71206801F039F92068018840F623
:100540008F70014051F0800120680180200001F08F
:10055000A1F9C2E70004C0D52068018840F68F7079
:10056000014051F08001206801802068B0F85000FF
:10057000297810EBC100216811EB400101F20C4118
:10058000088880B28005800DE861E869002811D0F4
:10059000686900280ED0EB699BB2EA886969206817
:1005A00001F004F96869E9690844686100212000E4
:1005B00001F071F92068008800058ED42168206858
:1005C000B0F85000411801F20C412869002809D107
:1005D0000A8848F2FF3002400A80088850F4004040
:1005E000088016E028693F2808D2286940082A7C3C
:1005F000D20700D5401C800208800AE02869400923
:100600002A7C12F01F0F00D1401E800250F40040DF
:100610000880206801884BF68F70014091F480516A
:1006200091F4005141F4004151F0800120680180B3
:1006300053E720682900C9B230F82160300440F146
:10064000AB8020682900C9B230F8211040F68F70C5
:10065000014051F0800120682A00D2B220F8221017
:100660002900C9B22820414304EB010010F5B477FA
:10067000387B00281CD12068B0F85000397810EB86
:10068000C100216811EB400101F20C41B1F800807A
:100690005FEA88585FEA9858404680B2002860D0E8
:1006A00043469BB2FA887969206801F07FF858E0E8
:1006B000F878022807D1320092B23900200000F009
:1006C000C8F880464DE02068397830F8211048F6A7
:1006D0008F70014041F4004151F0C00120683A7828
:1006E00020F822102068397830F8210040041CD509
:1006F0002068B0F85000397810EBC100216811EB88
:10070000400101F20441B1F800805FEA88585FEAD5
:100710009858404680B2002823D043469BB23A897D
:100720007969206801F042F81BE02068B0F85000B9
:10073000397810EBC100216811EB400101F20C4146
:10074000B1F800805FEA88585FEA9858404680B266
:10075000002806D043469BB27A897969206801F067
:1007600025F8F969404680B24118F9617869414637
:1007700089B208447861B869002804D01FFA88F863
:100780003869804504D23978200001F084F803E00C
:100790003900206800F07AFB30067FF59EAE290014
:1007A000C9B22820414304EB010010F12801206860
:1007B0002A00D2B230F8222048F60F70024052F4DC
:1007C00000422068EDB220F82520C878032807D021
:1007D000C878002804D0C878022831D1F0052FD479
:1007E0002068B0F850000A7810EBC200226812EBC3
:1007F000400202F2044212889205920D100080B26B
:100800008B69984205D28B69100080B21B1A8B61EC
:1008100001E0002088618869002804D1097820005F
:1008200001F037F859E6486913009BB21844486153
:10083000C86992B21218CA61206800F027FB4CE622
:10084000320092B2200000F0A1F846E60020BDE898
:10085000F08170B553044BD50368B3F850300C7871
:1008600013EBC403046814EB430404F20444248827
:10087000A405A40D8B692500ADB2AB4205D38D69EB
:1008800023009BB2ED1A8D6101E000238B618B691F
:10089000002B10D103680D7833F825504BF68F7379
:1008A0001D4095F4005545F4004555F0800503685A
:1008B0000E7823F8265052060ED502680B7832F8CF
:1008C000233048F68F72134043F4004353F0C003C3
:1008D00002680D7822F82530220092B2002A52D008
:1008E00023009BB20A894969006800F05FFF4AE073
:1008F0000368B3F850300C7813EBC403046814EBAE
:10090000430404F20C442488A405A40D8B6925003B
:10091000ADB2AB4205D38D6923009BB2ED1A8D6158
:1009200001E000238B618B69002B10D103680D78E7
:1009300033F825504BF68F731D4095F4005545F460
:10094000004555F0800503680E7823F826505206BE
:100950000ED402680B7832F8233048F68F721340B9
:1009600043F4004353F0C00302680D7822F82530A9
:10097000220092B2002A06D023009BB24A8949691C
:10098000006800F013FF200080B270BD70B5040055
:100990000D001600700640F101812068B0F850008B
:1009A000297810EBC100216811EB400101F20441EC
:1009B0000B889B059B0D180080B2A969884205D25F
:1009C000A969180080B2091AA96101E00020A86194
:1009D000A869002866D16878002814D121682068A9
:1009E000B0F8500041182878C00011EB400101F226
:1009F00004410A8848F2FF3002400A80088850F417
:100A0000004008800FE0687801280CD12168206838
:100A1000B0F8500041182878C00011EB400101F2F5
:100A200004410020088021686878002814D12168DA
:100A30002068B0F8500041182878C00011EB400140
:100A400001F20C410A8848F2FF3002400A8008880F
:100A500050F4004008800EE0687801280BD120682F
:100A6000B0F8500041182878C00011EB400101F2A5
:100A70000C41002008802978200000F00AFF700453
:100A800040F18B812068297830F8211048F68F706A
:100A9000014041F4404151F0800120682A7820F85B
:100AA00022107AE170040ED52068297830F82110E0
:100AB00048F68F70014041F4404151F080012068B8
:100AC0002A7820F8221095F82400012840F065814A
:100AD0006869190089B208446861E969180080B240
:100AE0004118E961286A2969884204D32B69286A78
:100AF000C01A28620DE0286A002804D19BB20020A9
:100B000085F8240005E0002085F824002B6A0020E9
:100B10002862687800282BD121682068B0F850003E
:100B200041182878C00011EB400101F20441002B6C
:100B300009D10A8848F2FF3002400A80088850F440
:100B40000040088013E03F2B07D218004008DA0766
:100B500000D5401C8002088009E01800400913F00D
:100B60001F0F00D1401E800250F4004008800EE0AC
:100B7000687801280BD121682068B0F8500041182E
:100B80002878C00011EB400101F204410B809BB2B8
:100B90002A896969206800F0F0FDFEE02068B0F85D
:100BA0005000297810EBC100216811EB400101F2DF
:100BB0000C410B889B059B0DA869190089B28842DE
:100BC00005D3A969180080B2091AA96101E00020C3
:100BD000A861A869002866D16878002814D1216826
:100BE0002068B0F8500041182878C00011EB40018F
:100BF00001F204410A8848F2FF3002400A80088866
:100C000050F4004008800FE0687801280CD121687A
:100C10002068B0F8500041182878C00011EB40015E
:100C200001F204410020088021686878002814D16E
:100C300021682068B0F8500041182878C00011EBF6
:100C4000400101F20C410A8848F2FF3002400A805C
:100C5000088850F4004008800EE0687801280BD125
:100C60002068B0F8500041182878C00011EB40010E
:100C700001F20C41002008802978200000F009FED4
:100C8000700400F18A802068297830F8211048F635
:100C90008F70014041F4404151F0800120682A7872
:100CA00020F8221079E070040ED42068297830F8FA
:100CB000211048F68F70014041F4404151F080010D
:100CC00020682A7820F8221095F82400012864D1A1
:100CD0006869190089B208446861E969180080B23E
:100CE0004118E961286A2969884204D32B69286A76
:100CF000C01A28620DE0286A002804D19BB20020A7
:100D000085F8240005E02B6A00202862002085F881
:100D100024002168687800282BD121682068B0F869
:100D2000500041182878C00011EB400101F20C413D
:100D3000002B09D10A8848F2FF3002400A80088857
:100D400050F40040088013E03F2B07D21800400801
:100D5000DA0700D5401C8002088009E0180040092D
:100D600013F01F0F00D1401E800250F40040088095
:100D70000DE0687801280AD12068B0F850004118C9
:100D80002878C00011EB400101F20C410B809BB2AE
:100D90006A896969206800F0F0FC2068297830F8D9
:100DA000211048F6BF70014091F0100191F0200130
:100DB00041F4004151F0800120682A7820F8221087
:100DC000002070BD80B51E481E49086008201D49DE
:100DD000486002201B49886000201A498861002071
:100DE0001849C8610020174908621648FFF77EF9C4
:100DF000002801D000F0B9FD01BD80B500681049A0
:100E000088421BD11048006850F400000E49086069
:100E10000D48006810F400000090009800220521A1
:100E2000132000F020FE132000F02EFE00220521EA
:100E3000142000F018FE142000F026FE01BD000072
:100E4000005C0040642900201C1002400EB4002009
:100E500003B070474FF43F41B0F8402032EA01013F
:100E6000A0F8401000207047002070470EB4012108
:100E7000A0F840100021A0F840100021A0F8441074
:100E80000021A0F85010002003B0704770B5040096
:100E90000E007078012840F0E5823069B16988421F
:100EA00001D2356900E0B569307B002812D12B00F2
:100EB0009BB2F2887169200000F05FFC2100B4F859
:100EC000500041183078C00011EB400101F204419C
:100ED0000D80B5E2F078022840F06A813069316A0D
:100EE000884280F04481307834F8201048F68F70C2
:100EF000014041F4014151F08001307824F8201084
:100F0000306A401B3062307834F82000400640F1EF
:100F100097802100707800282AD12100B4F8500071
:100F200041183078C00011EB400101F20C41002D56
:100F300009D10A8848F2FF3002400A80088850F43C
:100F40000040088013E03F2D07D228004008EA0740
:100F500000D5401C8002088009E02800400915F0F7
:100F60001F0F00D1401E800250F4004008800CE0AA
:100F70007078012809D1B4F8500041183078C000C9
:100F800011EB400101F20C410D8072892B009BB2E4
:100F900092B27169200000F0F0FB70692844706122
:100FA0003069316A884203D2306A401B306202E005
:100FB000356A00203062707800282AD12100B4F808
:100FC000500041183078C00011EB400101F204419B
:100FD000002D09D10A8848F2FF3002400A800888B3
:100FE00050F40040088013E03F2D07D2280040084D
:100FF000EA0700D5401C8002088009E0280040096B
:1010000015F01F0F00D1401E800250F400400880F0
:101010000DE0707801280AD12100B4F85000411881
:101020003078C00011EB400101F204410D8032899B
:101030002B009BB292B27169200000F09EFBFFE191
:10104000707800282AD12100B4F850004118307877
:10105000C00011EB400101F20441002D09D10A88C2
:1010600048F2FF3002400A80088850F400400880AF
:1010700013E03F2D07D228004008EA0700D5401CA6
:101080008002088009E02800400915F01F0F00D1F8
:10109000401E800250F4004008800DE07078012866
:1010A0000AD12100B4F8500041183078C00011EB8B
:1010B000400101F204410D8032892B009BB292B2B3
:1010C0007169200000F059FB706928447061306933
:1010D000316A884203D2306A401B306202E0356ACE
:1010E000002030622100707800282AD12100B4F855
:1010F000500041183078C00011EB400101F20C4162
:10110000002D09D10A8848F2FF3002400A80088881
:1011100050F40040088013E03F2D07D2280040081B
:10112000EA0700D5401C8002088009E02800400939
:1011300015F01F0F00D1401E800250F400400880BF
:101140000CE07078012809D1B4F8500041183078CB
:10115000C00011EB400101F20C410D8072892B009F
:101160009BB292B27169200000F007FB68E1336A1C
:10117000307834F8201048F68F60014041F4004187
:1011800051F08001307824F820102100B4F850008C
:1011900041183078C00011EB400101F204410B808E
:1011A00032899BB292B27169200000F0E6FA47E101
:1011B000307834F8201048F68F70014041F4014136
:1011C00051F08001307824F82010306A401B3062E2
:1011D000307834F82000400640F19A802100707881
:1011E00000282AD12100B4F8500041183078C000FE
:1011F00011EB400101F20C41002D09D10A8848F29F
:10120000FF3002400A80088850F40040088013E054
:101210003F2D07D228004008EA0700D5401C800275
:10122000088009E02800400915F01F0F00D1401E7A
:10123000800250F4004008800CE07078012809D149
:10124000B4F8500041183078C00011EB400101F2B1
:101250000C410D8072892B009BB292B27169200003
:1012600000F08BFA7069284470613069316A8842F5
:1012700003D2306A401B306202E0356A00203062DF
:10128000002D00F0DD80707800282AD12100B4F80C
:10129000500041183078C00011EB400101F20441C8
:1012A000002D09D10A8848F2FF3002400A800888E0
:1012B00050F40040088013E03F2D07D2280040087A
:1012C000EA0700D5401C8002088009E02800400998
:1012D00015F01F0F00D1401E800250F4004008801E
:1012E0000DE0707801280AD12100B4F850004118AF
:1012F0003078C00011EB400101F204410D803289C9
:101300002B009BB292B27169200000F036FA97E090
:10131000707800282AD12100B4F8500041183078A4
:10132000C00011EB400101F20441002D09D10A88EF
:1013300048F2FF3002400A80088850F400400880DC
:1013400013E03F2D07D228004008EA0700D5401CD3
:101350008002088009E02800400915F01F0F00D125
:10136000401E800250F4004008800DE07078012893
:101370000AD12100B4F8500041183078C00011EBB8
:10138000400101F204410D8032892B009BB292B2E0
:101390007169200000F0F1F97069284470613069CA
:1013A000316A884203D2306A401B306202E0356AFB
:1013B00000203062002D43D02100707800282AD10F
:1013C0002100B4F8500041183078C00011EB400102
:1013D00001F20C41002D09D10A8848F2FF30024089
:1013E0000A80088850F40040088013E03F2D07D29F
:1013F00028004008EA0700D5401C8002088009E068
:101400002800400915F01F0F00D1401E800250F443
:10141000004008800CE07078012809D1B4F8500031
:1014200041183078C00011EB400101F20C410D80F1
:1014300072892B009BB292B27169200000F09DF975
:10144000307834F8201048F6BF70014091F0100158
:1014500091F0200141F4004151F08001307824F8EE
:10146000201049E0307B002848D13069B1698842BA
:1014700004D23069B169091AB16102E0B069002192
:10148000B1612200B4F850108A183178C90012EB0B
:10149000410202F20C42002809D1118848F2FF30C3
:1014A00001401180108850F40040108013E03F2864
:1014B00007D201004908C00700D5491C88021080E6
:1014C00009E00100490910F01F0F00D1491E8802F0
:1014D00050F400401080307834F820104BF68F70B4
:1014E000014091F4805191F4005141F4004151F0D8
:1014F0008001307824F82010002070BDF078022898
:1015000040F0A380707800282ED12100B4F850005C
:1015100041183078C00011EB400101F204413069FC
:10152000002809D10A8848F2FF3002400A80088862
:1015300050F40040088016E030693F2808D2306936
:101540004008327CD20700D5401C800208800AE0A7
:1015500030694009327C12F01F0F00D1401E80021A
:1015600050F4004008800EE0707801280BD1210073
:10157000B4F8500041183078C00011EB400101F27E
:101580000441306908802100707800282ED12100A4
:10159000B4F8500041183078C00011EB400101F25E
:1015A0000C413069002809D10A8848F2FF30024016
:1015B0000A80088850F40040088016E030693F280F
:1015C00008D230694008327CD20700D5401C800226
:1015D00008800AE030694009327C12F01F0F00D108
:1015E000401E800250F4004008800DE07078012811
:1015F0000AD1B4F8500041183078C00011EB400116
:1016000001F20C4130690880F06900283FF463AFB3
:10161000307834F8200044F24001014044F24002A6
:10162000914204D044F2400108427FF454AF307834
:1016300034F8201048F68F70014041F4004151F019
:10164000C001307824F8201045E7F078012840F0F8
:1016500085803069B169884204D23069B169091A5C
:10166000B16102E0B0690021B161717800292AD12D
:101670002200B4F850108A183178C90012EB4102E8
:1016800002F20442002809D1138848F2FF310B40CE
:101690001380118851F40041118013E03F2807D2D4
:1016A00001004908C30700D5491C8902118009E0DF
:1016B0000100490910F01F0F00D1491E890251F4A1
:1016C000004111800DE0717801290AD12200B4F89F
:1016D00050108A183178C90012EB410202F204421C
:1016E00010802200717800292AD12200B4F850100D
:1016F0008A183178C90012EB410202F20C4200282C
:1017000009D1118848F2FF3001401180108850F44F
:101710000040108013E03F2807D201004908C007AD
:1017200000D5491C8802108009E00100490910F029
:101730001F0F00D1491E880250F4004010800CE0B9
:101740007178012909D1B4F850108A183178C9008C
:1017500012EB410202F20C421080BCE60120CCE602
:10176000C9B2002902D18021A0F84C100020704796
:1017700000207047B0F84400704710B49BB25B1C67
:101780005B0892B210EB420010F580600AE00A7824
:10179000491C0C782402A4B222430280801C801CC5
:1017A000491C5B1E002BF2D110BC704710B41C000A
:1017B000A4B2640892B210EB420010F5806008E019
:1017C0000288801C0A70491C120A0A70491C801C7D
:1017D000641E002CF4D1DA0701D50088087010BC13
:1017E0007047010262B38B0708D0521E11F8013B0B
:1017F00000F8013B00F024808B07F6D1830740F00E
:10180000208000BF103A07D330B4B1E83810103A46
:10181000A0E83810F9D230BC530724BFB1E8081053
:10182000A0E8081044BF51F8043B40F8043BD2073D
:1018300024BF31F8022B20F8022B44BF0B78037031
:101840007047121F17D35B0009D151F8043B20F8F1
:10185000023B1B0C121F20F8023BF6D20BE051F8A2
:10186000043B00F8013B1B0A20F8023B1B0C121F33
:1018700000F8013BF3D238BF121D521E24BF11F8ED
:10188000013B00F8013BF8D870477047704770473C
:10189000704770477047704780B500F015F900F049
:1018A00019F800F025F900F0AFF9FFF78BFA00F016
:1018B000C7FA01F0A5F801F0D7F801F03DF901F001
:1018C0008EF901F09DFB01F049FD01F07BFF01F075
:1018D00067FDFEE700B593B009A8282102F00EF8D5
:1018E00004A8142102F00AF86846102102F006F854
:1018F000092009905FF480300A9000200B900120AD
:101900000D9001200F90022010905FF48030119014
:101910005FF4E010129009A801F0F4FF002801D054
:1019200000F023F80F20049002200590002006907C
:101930004FF48060079000200890022104A802F074
:101940001EFA002801D000F010F8112000904FF48A
:101950000070019000200390684602F049FB0028C7
:1019600001D000F002F813B000BD72B6FEE701022C
:1019700010F007004B490A684FF6FF010A404A4938
:1019800051EA00210A434748026070474548006811
:10199000C0F302207047010049B2002908D4012297
:1019A00010F01F018A40414940B2400941F820200F
:1019B0007047020052B2002A04D409013C4A40B2E6
:1019C000115407E009013B4A40B210F00F001044E7
:1019D00000F8041C704710B410F00700D0F10703A2
:1019E000052B01D3042301E0D0F10703041D072CCC
:1019F00001D2002000E0C01E012414FA03F35B1E94
:101A000019408140012313FA00F0401E10400843A2
:101A100010BC7047BFF34F8F2248016811F4E0619A
:101A2000254801431F480160BFF34F8F00BFFDE70A
:101A300080B5411EB1F1807F01D301200EE0401E30
:101A40001E4908600F215FF0FF30FFF7B2FF002052
:101A50001B49086007201B490860002002BD80B5B3
:101A6000FFF786FF01BD70B504000D0016000020D1
:101A7000FFF78CFF32002900FFF7ADFF01002000C7
:101A800040B2FFF796FF70BD80B540B2FFF783FF0D
:101A900001BD80B5FFF7BEFF01BD80B5FFF7C8FFF0
:101AA00002BD00000CED00E00000FA0500E100E0DE
:101AB00000E400E018ED00E00400FA0514E000E0A6
:101AC00018E000E010E000E080B50848006850F041
:101AD0001000064908600320FFF7C1FF0F2002F045
:101AE0008FFB02F0B3FB002002BD0000002002408B
:101AF00000B585B06846102101F000FF3E4800683F
:101B000050F010003C4908603B48006810F010009D
:101B1000049004983848006850F020003649086066
:101B20003548006810F0200004900498324800689E
:101B300050F00400304908602F48006810F004009D
:101B4000049004982C48006850F008002A49086066
:101B50002948006810F0080004900498002240F220
:101B60000331264802F082FC002248F20201244898
:101B700002F07CFC00220821224802F077FC40F2AF
:101B80000330009001200190002002900220039079
:101B900069461A4802F088FB1C2000900020019042
:101BA000002002906946154802F07EFB48F20200D0
:101BB00000900120019000200290022003906946CD
:101BC0000F4802F071FB08200090012001900020D6
:101BD00002900220039069460A4802F065FBC0208B
:101BE000009012200190032003906946054802F0FE
:101BF0005BFB05B000BD00BF1810024000100140A3
:101C000000080140000C014080B58248824908600C
:101C100004208149486000207F4988605FF040705F
:101C20007D49C8605FF400207B4908615FF4E000F3
:101C3000794948610020784908760020764948763D
:101C400000207549887600207349C87600207249C3
:101C500008770020704948776F4802F031FC00286F
:101C600001D0FFF782FE01BD18B585B0040001A8C0
:101C7000102101F043FE2068664988424FD1674831
:101C8000006850F00070654908606448006810F012
:101C90000070009000986248006850F008006049A9
:101CA00008605F48006810F00800009000984FF44A
:101CB00080700190002002900020039001A95948F3
:101CC00002F0F2FA4FF4007001900220029003201B
:101CD000049001A9534802F0E7FA5348006830F431
:101CE000C04050F0E06050F480404F49086000224E
:101CF00005211320FFF7B7FE1320FFF7C5FE0022D2
:101D000005211420FFF7AFFE1420FFF7BDFE0022CF
:101D100005211520FFF7A7FE1520FFF7B5FE06B039
:101D200010BD10B592B002A84049D1E90023C0E926
:101D3000002340F2016168463D4AD2E90034C0E91F
:101D4000003440F2026000220F9200220E920C91A9
:101D500000218DF8441008211091002109910021E3
:101D60000891069000208DF82C0008200A902A483F
:101D700002F05CFC9DF80F00401C8DF80F002D4810
:101D8000008880B2000A8DF808002A4800888DF883
:101D90000900294800888DF80A002848C0798DF884
:101DA0000B002648007A8DF80C002448407A8DF804
:101DB0000D00224800788DF80000204840788DF80A
:101DC00001001E4880788DF802001C48C0788DF80C
:101DD00003001A4800798DF80400184840798DF8FE
:101DE0000500164880798DF806001448C0798DF8F2
:101DF000070005AB02AA0CA9074802F045FC04AB9A
:101E00006A4606A9044802F03FFC012001F07EFB6F
:101E1000B0E7000000640040603300201C10024066
:101E200018100240000C014004000140E495000835
:101E3000EC950008823500208435002044340020D1
:101E400080B5DFF85C0BDFF85C1B08604FF4964050
:101E5000DFF8501B48600020DFF8481B8860002036
:101E6000DFF8401BC8600020DFF8381B08610C2039
:101E7000DFF8301B48610020DFF8281B8861002153
:101E8000DFF8200B02F09EFD002801D0FFF76DFD6A
:101E900001BD18B585B0040001A8102101F02EFD88
:101EA0002068DFF8FC1A88423DD1DFF8FC0A0068A0
:101EB00050F48040DFF8F01A0860DFF8EC0A0068A0
:101EC00010F4804000900098DFF8DC0A006850F0C1
:101ED0000400DFF8D41A0860DFF8CC0A006810F0BC
:101EE0000400009000984FF40070019002200290CE
:101EF0000320049001A9DFF8B40A02F0D5F94FF4E9
:101F000080600190002002900120039001A9DFF879
:101F10009C0A02F0C9F9002206212520FFF7A3FD43
:101F20002520FFF7B1FD06B010BD80B50068DFF8D1
:101F3000701A884218D10122DFF8741ADFF8640A97
:101F400002F0B4FDDFF8680A0078DFF8681ADFF8FD
:101F5000642A127B8854DFF85C0A007B401CDFF89F
:101F6000541A087300F024F801BD10B40200507B2D
:101F70003C2802D0507B3D2801D1002000E0907B1E
:101F800000230BE01900C9B21144097C08180100B4
:101F900089B210EB112000F0FF005B1C1900D47B0C
:101FA000C9B2A142EED3C0B2C043C0B210BC7047A8
:101FB00080B500200090DFF8000A007800280AD0E1
:101FC00001281AD002282BD0032800F0B38205285C
:101FD00000F0DF82EBE20020DFF8D8190873DFF8A9
:101FE000D4090078002807D10120DFF8CC19087047
:101FF0000120DFF8C0190873DDE2DFF8B809407886
:10200000552804D10220DFF8B019087007E000203D
:10201000DFF8A41908700020DFF898190873CAE2E5
:10202000DFF890098078032869D10420DFF8881947
:1020300008700820DFF87C19C8730320DFF87419D2
:102040004873DFF87009407B10F00100012190FB1C
:10205000F1F1DFF86009407B10F00200022290FBF2
:10206000F2F04140DFF84C09407B10F004000422FC
:1020700090FBF2F04140DFF83C09407B10F010008B
:10208000102290FBF2F0414040204143DFF8240948
:10209000407B10F00200022290FBF2F2DFF81409FC
:1020A000407B10F00800082390FBF3F04240DFF87B
:1020B0000409407B10F01000102390FBF3F0424025
:1020C000DFF8F008407B10F02000202390FBF3F0B5
:1020D000424092F00102802000FB0211DFF8D40898
:1020E000407B10F03F004118DFF8C80881736A4652
:1020F0000121DFF8C808006803F097F819E2DFF85B
:10210000B4088078F52869D10420DFF8AC1808708D
:102110000820DFF8A018C8733520DFF89818487336
:10212000DFF89008407B10F00100012190FBF1F1F5
:10213000DFF88008407B10F00200022290FBF2F0F2
:102140004140DFF87008407B10F00400042290FB4F
:10215000F2F04140DFF85C08407B10F010001022E4
:1021600090FBF2F0414040204143DFF84808407BBB
:1021700010F00200022290FBF2F2DFF83808407BF8
:1021800010F00800082390FBF3F04240DFF8240829
:10219000407B10F01000102390FBF3F04240DFF87A
:1021A0001408407B10F02000202390FBF3F0424005
:1021B00092F00102802000FB0211DFF8F807407B5B
:1021C00010F03F004118DFF8EC0781736A460121E7
:1021D000DFF8E807006803F028F8AAE1DFF8D40781
:1021E0008078E22869D10420DFF8CC170870082035
:1021F000DFF8C017C8732220DFF8B8174873DFF87C
:10220000B407407B10F00100012190FBF1F1DFF8F1
:10221000A407407B10F00200022290FBF2F0414044
:10222000DFF89007407B10F00400042290FBF2F0EE
:102230004140DFF88007407B10F01000102290FB37
:10224000F2F0414040204143DFF86807407B10F046
:102250000200022290FBF2F2DFF85807407B10F0F8
:102260000800082390FBF3F04240DFF84807407B6A
:1022700010F01000102390FBF3F04240DFF8340719
:10228000407B10F02000202390FBF3F0424092F0BE
:102290000102802000FB0211DFF81807407B10F0DC
:1022A0003F004118DFF80C0781736A460121DFF80F
:1022B0000C07006802F0B9FF3BE1DFF8F806807810
:1022C000C42862D10320DFF8F01608700420DFF87C
:1022D000E4164873DFF8DC06407B10F001000121B2
:1022E00090FBF1F1DFF8CC06407B10F002000222F7
:1022F00090FBF2F04140DFF8BC06407B10F0040098
:10230000042290FBF2F04140DFF8A806407B10F079
:102310001000102290FBF2F0414040204143DFF8D2
:102320009406407B10F00200022290FBF2F2DFF8EC
:102330008406407B10F00800082390FBF3F0424035
:10234000DFF87006407B10F01000102390FBF3F0D4
:102350004240DFF86006407B10F02000202390FB15
:10236000F3F0424092F00102802000FB0211DFF8FE
:102370004406407B10F03F004118DFF838068173B7
:102380000820DFF83016C873D3E0DFF8280680781D
:10239000B42862D10320DFF8201608703420DFF85B
:1023A00014164873DFF80C06407B10F00100012181
:1023B00090FBF1F1DFF8FC05407B10F002000222F7
:1023C00090FBF2F04140DFF8EC05407B10F0040098
:1023D000042290FBF2F04140DFF8D805407B10F07A
:1023E0001000102290FBF2F0414040204143DFF802
:1023F000C405407B10F00200022290FBF2F2DFF8ED
:10240000B405407B10F00800082390FBF3F0424035
:10241000DFF8A005407B10F01000102390FBF3F0D4
:102420004240DFF89005407B10F02000202390FB15
:10243000F3F0424092F00102802000FB0211DFF82D
:102440007405407B10F03F004118DFF86805817388
:102450000820DFF86015C8736BE0DFF85805807856
:10246000612862D10320DFF8501508702120DFF8C1
:1024700044154873DFF83C05407B10F00100012152
:1024800090FBF1F1DFF82C05407B10F002000222F6
:1024900090FBF2F04140DFF81C05407B10F0040097
:1024A000042290FBF2F04140DFF80805407B10F079
:1024B0001000102290FBF2F0414040204143DFF831
:1024C000F404407B10F00200022290FBF2F2DFF8ED
:1024D000E404407B10F00800082390FBF3F0424036
:1024E000DFF8D004407B10F01000102390FBF3F0D5
:1024F0004240DFF8C004407B10F02000202390FB16
:10250000F3F0424092F00102802000FB0211DFF85C
:10251000A404407B10F03F004118DFF89804817359
:102520000820DFF89014C87303E00520DFF8881452
:10253000087040E0DFF87C04007BDFF87814C97B8A
:10254000091D884224DB00200CE0DFF8681402003B
:10255000D2B21144C978DFF85C240300DBB21A441C
:102560001174401C0100DFF84C24D27BC9B29142A7
:10257000EBD36A460221DFF84404006802F055FEFE
:102580000020DFF8341408700020DFF828140873E6
:1025900011E0DFF82004007B0C2807DB0020DFF8C7
:1025A000181408700020DFF80C14087303E00020F2
:1025B000DFF80414087001BD80B500F005F800F0E4
:1025C00056F800F089F801BD80B5DFF8E803407BDC
:1025D00004284BD100200BE0DFF8D8130200D2B260
:1025E0001144097CDFF8D8230300DBB2D154401C2E
:1025F0000100DFF8C023D27BC9B29142ECD3DFF8EF
:10260000C00300788DF80000DFF8B403B0F80100D3
:10261000ADF80200DFF8A803C078C0B2012806D1E7
:10262000DFF89C03B0F80100ADF8020003E04FF6BC
:10263000FF70ADF80200002300226946DFF8840332
:10264000006801F012F8002300220DF10201DFF80A
:102650007803006801F009F8DFF8640300790128C5
:1026600004D1012080F31388FFF713FA01BD80B570
:10267000DFF84003407B34282DD100200BE0DFF849
:1026800034130200D2B21144097CDFF84023030066
:10269000DBB2D154401C0100DFF81823D27BC9B251
:1026A0009142ECD3DFF824030078DFF8241308709C
:1026B00000230022DFF81813DFF80803006800F099
:1026C000D4FFDFF808034078012804D1012080F30B
:1026D0001388FFF7DEF901BD80B5B648407B21289D
:1026E00032D1002009E0B3490200D2B21144097C82
:1026F000B84A0300DBB2D154401C0100AD4AD27B82
:10270000C9B29142EFD3B348407901281CD1B148F6
:10271000B0F801008DF80000AE48B0F8010080B2BA
:10272000000A8DF80100AB48B0F803008DF80200F4
:10273000A848B0F8030080B2000A8DF8030069468B
:10274000A448007800F0C6FC01BD80B50023A24972
:10275000A248006800F0D2FF9F48018840F6485028
:10276000414349F6F67091FBF0F09D4908609A48A4
:1027700000889C4908709848008880B2000A9949EE
:102780004870974800689749887095480068000A23
:102790009449C87001BD80B503F064F8924908708F
:1027A00003F05AF89049497860F303018E4841706C
:1027B00003F055F88C49497860F304118A48417058
:1027C00011208949C87101BD80B588480078082862
:1027D00005DA86480078401C8449087002E0002031
:1027E0008249087069468148007800F0A3FC7F4860
:1027F00000787F4908709DF800109DF801204FF483
:10280000807000FB02117A48A0F801109DF80210B8
:102810009DF803204FF4807000FB02117448A0F86B
:10282000031001BDE0B501220821724801F01EFE2F
:10283000012201A95B4802F066FA02F0EBFB5F4956
:10284000086002215D48006802F088FC29E06549C3
:102850000200D2B2895C574A0300DBB21A441174F9
:10286000401C0100534AD27BC9B29142EFD3514878
:10287000FFF77BFB4F4908764E48C27B92B25E4918
:10288000484802F0E9F80028F6D101225B494548A2
:1028900002F0E2F80028F8D1012201A9414802F033
:1028A00032FA0120009000230122032143480068EE
:1028B00002F0C0FBC1076DD53E48407B032803D121
:1028C000FFF743FF0020CCE73A48407B35282ED164
:1028D000FFF761FF002009E043490200D2B2895CA2
:1028E000344A0300DBB21A441174401C0100314A1F
:1028F000D27BC9B29142EFD32E48FFF736FB2D4968
:1029000008762C48C27B92B23B49264802F0A4F8D4
:102910000028F6D101223949224802F09DF800280A
:10292000F8D1012201A91F4802F0EDF9B9E72148C9
:10293000407B2228B5D1FFF747FF002009E02C4952
:102940000200D2B2895C1B4A0300DBB21A44117444
:10295000401C0100174AD27BC9B29142EFD31548FF
:10296000FFF703FB134908761248C27B92B2224953
:102970000C4802F071F80028F6D101221F490948DD
:1029800002F06AF80028F8D1012201A9054802F0F6
:10299000BAF986E7800784D5FFF70EFE81E70000CD
:1029A0000038014074320020181002400008014035
:1029B000A0350020883300209F350020643500209A
:1029C00078340020CC340020C83400208834002023
:1029D000A1350020A03400208C350020C434002014
:1029E000683500208034002090340020A23500207B
:1029F00098340020000C014098330020A0330020C0
:102A000080B51548154908605FF0FF3013494860EC
:102A10004FF4807011498860104802F0D5FF0028FB
:102A200001D0FEF7A2FF01BD80B500680A498842C7
:102A300010D103F095F80A48006850F0006008498A
:102A400008600748006810F00060009000980120BE
:102A50000449086001BD000000280040A4330020A4
:102A60001C1002403C04424280B52F482F490860A8
:102A70004FF482702D4948604FF400402B49886024
:102A800000202A49C8600020284908610020274901
:102A900048614FF400702549886120202349C861AE
:102AA00000202249086200202049486200201F4976
:102AB00088620A201D49C8621C4803F057F80028A4
:102AC00001D0FEF752FF01BD18B585B0040001A882
:102AD000102100F013FF20681349884221D11448C7
:102AE000006850F48050124908601148006810F4E2
:102AF0008050009000980E48006850F004000C4987
:102B000008600B48006810F0040000900098E02076
:102B10000190022002900320049001A9054801F0D1
:102B2000C3FB06B010BD000000300140A82F0020FC
:102B3000181002400008014080B586B0DFF850044C
:102B4000D0E90023CDE9002302A8102100F0D6FE31
:102B5000DFF84004DFF8401408604720DFF838143D
:102B600048600020DFF8301488604FF6FF70DFF80F
:102B70002814C8600020DFF8201408610120DFF865
:102B8000181448610020DFF810148861DFF8080489
:102B900003F0EEF8002801D0FEF7E7FE00200090D9
:102BA000002001906946DFF8F00303F0FFFC0028E5
:102BB00001D0FEF7DAFE02200290012003900020EF
:102BC000049000200590002202A9DFF8CC0303F056
:102BD0007AFA002801D0FEF7C8FE07B000BD00B5A4
:102BE00089B0DFF8B803D0E90023CDE9002302A8BB
:102BF0001C2100F083FEDFF8A803DFF8A8130860AB
:102C00002320DFF8A01348600020DFF898138860C5
:102C10006320DFF89013C8600020DFF88813086194
:102C20000020DFF880138861DFF8780303F000F8F4
:102C3000002801D0FEF799FE0020009000200190AE
:102C40006946DFF8600303F0B1FC002801D0FEF70D
:102C50008CFE602002900020039000200490002051
:102C60000690002202A9DFF83C0303F090FA002846
:102C700001D0FEF77AFE042202A9DFF8280303F050
:102C800086FA002801D0FEF770FEDFF8180300F086
:102C900054F809B000BD18B585B0040001A8102192
:102CA00000F02CFE2068DFF8EC12884230D1DFF80B
:102CB000F802006850F40060DFF8EC120860DFF8FA
:102CC000E802006810F4006000900098DFF8D80275
:102CD000006850F00400DFF8D0120860DFF8C80286
:102CE000006810F00400009000984FF4807001908C
:102CF000002002900220039001A9AC4801F0D4FA10
:102D0000002205211B20FEF7AEFE1B20FEF7BCFEB5
:102D100006B010BD81B00068A14988420BD1A4481B
:102D2000006850F00200A2490860A148006810F055
:102D300002000090009801B0704718B585B00400FB
:102D400001A8102100F0DAFD2068954988421FD1C2
:102D50009548006850F01000934908609248006858
:102D600010F0100000900098C02001900220029006
:102D70000220049001A98F4801F096FA8E4800685D
:102D800030F4406050F0E06050F440608A490860E0
:102D900006B010BD38B584B004000D006846874900
:102DA0001022FEF72FFD03200021002207E0110072
:102DB000C9B2615C48406946C0B2085C521C11004F
:102DC0002B00C9B2DBB29942F1D3C0B205B030BD1D
:102DD00080B500686F49884240F0AE8000216E489F
:102DE00003F04DFA7649086075480068754909682E
:102DF000884207D37248016872480068091A72480D
:102E0000016008E06E48016811F580316D48006886
:102E1000091A6D4801606C480068A738032802D27F
:102E200000206A49087068480068801E0321B0FBD2
:102E3000F1F0401C6649654A127888546448634939
:102E40000978405C0D2809DB614860490978405CDD
:102E50000C385F495D4A1278885404E000205C49D0
:102E60005A4A1278885459480078082857D10621C0
:102E70005848FFF78FFF5849087057480078544961
:102E8000097A88424BD152488078102847DA504856
:102E9000C078102843DA4E48007910283FDA4C48B1
:102EA00081784FF480724A48C07880B2000102FBFA
:102EB0000101474800794118484801804748008887
:102EC00047490988884207D2454801884348008815
:102ED000091A4448018006E04048018840480088BB
:102EE000091A404801803F48008803280ADA3B4815
:102EF00001880A2041433C4801803C480088401C2E
:102F00003A4908800023002237493948006800F018
:102F1000ACFB00F0DCFA31480088314908802B48CE
:102F20000078092804DA29480078401C27490870ED
:102F3000234800682349086001BD80B50021194875
:102F400002F0ADFE0421174802F0A9FE002112484C
:102F500002F048FF5FF0FF300090012301220121C1
:102F60002448006802F066F8002300222249234822
:102F7000006800F0C3FB204800880A4909684863DC
:102F80001D484088074909688863E3E7000000009E
:102F90001C960008002C0140E43100202496000813
:102FA000000400402C3200201810024000080140AC
:102FB0001C1002400010014004000140AC950008C4
:102FC00044350020483500204C3500209D35002038
:102FD0005C3400205E3400209E35002086350020C1
:102FE000883500208A350020823500208435002075
:102FF000C4340020D834002040350020D0340020D4
:1030000080B5DFF81803DFF8181308606420DFF8D4
:10301000101348600020DFF8081388600020DFF8F4
:103020000013C8604FF48040DFF8F41208610020FC
:10303000BB4948610020BA4988610020B849C8618D
:103040000020B7490862B64803F0EEFA002801D024
:10305000FEF78BFC01BD18B585B0040001A8102156
:1030600000F04CFC2068AD49884222D1AD48006890
:1030700050F00800AB490860AA48006810F008004A
:10308000009000984FF440600190122002900320BD
:10309000049001A9A44801F007F9A448006850F47D
:1030A0008000A2490860A148006810F480000090E8
:1030B000009806B010BD10B49D4B0400E4B233F884
:1030C00024300B809A49C0B201EB80004088108008
:1030D00010BC704770B40022964BC0B20001184477
:1030E00000230AE01C00E4B20C5D45681E00F6B245
:1030F000AD5DAC4200D001225B1C1C00E4B28589AE
:10310000A4B2AC42EED3D2B2002A11D00222427055
:10311000002207E01300DBB2CB5C44681500EDB27F
:103120006355521C1300DBB284899BB2A342F1D3D6
:1031300070BC704710B47F4AC0B200011044002236
:1031400007E043681400E4B21B5D1400E4B20B55C1
:10315000521C1300DBB284899BB2A342F1D310BC92
:1031600070477FB504000D001600FF20029030006C
:1031700080B2019000950123220092B2A1216848FB
:1031800003F0FEFB0028F0D10A2000F0BFF97FBD5C
:103190007FB504000D00160040F6FF70029030006D
:1031A00080B2019000950123220092B2A0215C48D8
:1031B00003F032FB0028EFD10A2000F0A7F97FBD11
:1031C00030B402000020002405E02300DBB2D35C11
:1031D0001818C0B2641C2300DBB20D009BB2ADB264
:1031E000AB42F2D3D0F1FF00C0B2C0B230BC7047E6
:1031F0001FB52C225049F020FFF7B3FF00241EE03A
:103200004E49096889680200D2B2895C4B4A12684B
:1032100052680300DBB2D1540221484A126851704F
:10322000401C0100C9B2454A1268928989B2914294
:10323000E6D342480068103040490860641C200012
:10324000C0B20C282CDA3D480068828969463B48A8
:103250000068C089FFF785FF3848006881896846A3
:10326000FFF7AEFF34492200D2B2895CC0B2884277
:1032700014D100200100C9B2304A1268928989B283
:103280009142D6D269460200D2B2895C2B4A1268BA
:1032900052680300DBB2D154401CEBE70020C0E7CA
:1032A0001FBD80B5264800780C2830DA2548006814
:1032B0004078022820D1234800688189214800688D
:1032C0004068FFF77DFF8DF800001E480068828986
:1032D0001C48006841681B480068C089FFF758FF18
:1032E000002018490968487001226946144800788E
:1032F000F03080B2FFF74CFF11480078401C1049B5
:1033000008701048006810300E49086005E0002081
:103310000B49087007480B49086001BD0058004080
:103320000030002018100240000C01401C10024028
:10333000343300202C00002050340020EC0000200A
:103340008F350020F000002080B5FFF751FFFFF718
:10335000A8FF642000F0DAF8F9E70000EFF3058039
:1033600000280CD1EFF31080002808D1DFF8D40139
:103370000068022806D1EFF31180002802D07FF008
:1033800005000CE0DFF8BC010068002805D1012031
:10339000DFF8B0110860002001E05FF0FF307047F7
:1033A00080B5EFF3058000280CD1EFF310800028E2
:1033B00008D1DFF890010068022806D1EFF31180F0
:1033C000002802D07FF005000EE0DFF878010068E9
:1033D000012807D10220DFF86C11086004F057F8CB
:1033E000002001E05FF0FF3002BDF0B585B00023A2
:1033F0000493EFF30583002B66D1EFF31083002BCA
:1034000062D1DFF840311B68022B03D1EFF3118347
:10341000002B59D10300002B56D0802518230024FF
:103420008DF80C4003AC5FF0FF36002A2ED01768F1
:10343000002F00D014689769002F00D09369002BEB
:1034400004D0392B02D21779FF0701D500203CE0C8
:103450005769002F01D05569AD089768002F0AD031
:10346000D7685C2F07D31769002F04D05769002F46
:1034700001D001260BE09768002F08D1D768002FF4
:1034800005D11769002F02D1002600E00026012E89
:103490000BD1966802961269019200930B002A00E4
:1034A000210003F097FE04900EE0002E0CD104AA38
:1034B000019200930B002A0092B2210003F0CBFE90
:1034C000012801D000200490049805B0F0BDEFF36E
:1034D000058000280CD1EFF31080002808D1DFF818
:1034E00064000068022806D1EFF31180002802D0A2
:1034F0007FF0050009E000205FF08051DFF8B42084
:103500001160BFF34F8FBFF36F8F704710B5EFF3AC
:10351000058100290CD1EFF31081002908D1DFF8D3
:1035200098100968022906D1EFF31181002902D011
:103530007FF0050404E00024002801D003F081FF9F
:10354000200010BDA834002080B50021EFF30582D3
:10355000002A2DD1EFF31082002A29D1DFF84C2266
:103560001268022A03D1EFF31182002A20D15FF002
:10357000FF3300280FD08268002A04D0C268202AB6
:1035800001D3012308E08268002A05D1C268002A1D
:1035900002D1002300E00023012B04D1806801F058
:1035A00015FD010004E0002B02D101F033FD010004
:1035B000080002BD04ED00E0A83400207CB5140032
:1035C0000025EFF30582002A4DD1EFF31082002A87
:1035D00049D1DFF8D8211268022A03D1EFF3118212
:1035E000002A40D100283ED000293CD05FF0FF33B4
:1035F000002C1DD0A268002A0CD0E268502A09D302
:103600002269002A06D0626901FB00F6B24201D3AA
:1036100001230EE0A268002A0BD1E268002A08D13B
:103620002269002A05D16269002A02D1002300E044
:103630000023012B07D100220092A368226904F025
:10364000B6FB050005E0002B03D1002204F002FCCC
:103650000500002D07D0002C01D0216800E00021DA
:10366000280004F01DFF280076BD38B51C00002599
:10367000EFF30582002A0BD1EFF31082002A07D165
:103680004A4A1268022A23D1EFF31182002A1FD07E
:10369000002803D0002901D0002C02D07FF00305C0
:1036A0002AE00022009200236A4604F0D7FC012899
:1036B00002D07FF002051FE0009800281CD05FF0C8
:1036C00080503B490860BFF34F8FBFF36F8F13E00B
:1036D000002801D0002902D17FF003050CE000236F
:1036E000220004F0F0FB012806D0002C02D07FF06D
:1036F000010501E07FF00205280032BD38B51C004D
:103700000025EFF30582002A0BD1EFF31082002A87
:1037100007D1264A1268022A22D1EFF31182002A29
:103720001ED0002803D0002901D0002C02D07FF049
:10373000030528E0002200926A4604F0ADFD01284E
:1037400002D07FF002051EE0009800281BD05FF039
:10375000805017490860BFF34F8FBFF36F8F12E09F
:10376000002801D0002902D17FF003050BE02200E0
:1037700004F0E2FC012806D0002C02D07FF0010505
:1037800001E07FF00205280032BD0000094B036014
:1037900009480860802010607047084B03600848A3
:1037A00008604FF48070106070470000A83400205B
:1037B00004ED00E0F02E0020502C00204C2F0020C3
:1037C0006425002080B5314A02210120FFF7F6FE72
:1037D0002F4908602F4A02210120FFF7EFFE2E49F2
:1037E00008602E4A01210120FFF7E8FE2C490860FD
:1037F0002C4A04210120FFF7E1FE2B4908602B4AE7
:1038000000210FF25D00FFF7F0FD29490860294A09
:1038100000212948FFF7E9FD28490860284A0021CE
:103820002848FFF7E2FD28490860284A0021284877
:10383000FFF7DBFD27490860274A00212748FFF7EB
:10384000D4FD27490860274A00212748FFF7CDFD0E
:10385000264908602648FFF777FE2649086001BD23
:1038600080B501224FF48071234800F0FFFD4FF432
:10387000FA70FFF74BFE00224FF480711E4800F0F3
:10388000F5FD4FF4FA70FFF741FEEAE7E89400080F
:10389000C434002000950008C834002018950008A2
:1038A000CC34002030950008D03400204C93000820
:1038B000AC34002070930008231D0008B0340020B1
:1038C0009493000825280008B4340020B893000819
:1038D0003B2F0008B8340020DC9300086B58000828
:1038E000BC3400200094000849330008C034002094
:1038F0006C950008D834002000100140002204F02C
:1039000009BE00007CB50400002C01D1012035E285
:103910002078C00740F18480DFF89006006810F03E
:103920000C0004280BD0DFF88406006810F00C00AF
:1039300008280ED1DFF874060068C00309D5DFF847
:103940006806006880036BD56068002868D1012094
:1039500014E26068B0F5803F08D1DFF84C060068DB
:1039600050F48030DFF84016086038E060680028C6
:1039700010D1DFF83406006830F48030DFF8281604
:103980000860DFF82406006830F48020DFF818169D
:10399000086024E06068B0F5A02F10D1DFF80806B9
:1039A000006850F48020DFF800160860DFF8F805A2
:1039B000006850F48030DFF8F01508600FE0DFF8A1
:1039C000E805006830F48030DFF8DC150860DFF8C7
:1039D000D805006830F48020DFF8CC1508606068F6
:1039E00000280ED004F0B0FD0500DFF8BC0500682B
:1039F000800315D404F0A8FD401B6528F5D30320EF
:103A0000BCE104F0A1FD0500DFF89C05006880031F
:103A100006D504F099FD401B6528F5D30320ADE1E0
:103A20002078800726D5DFF88405006810F00C0F99
:103A30000BD0DFF87805006810F00C00082833D1AF
:103A4000DFF868050068C0032ED4DFF85C05006865
:103A5000800704D52069012801D001208EE1DFF81C
:103A60004805006830F0F800616950EAC100DFF8ED
:103A700038150860207800074ED5A069002800F0AE
:103A800081800120DFF83815086004F05DFD050035
:103A9000DFF82805006880073BD404F055FD401B83
:103AA0000328F5D3032069E1206900281ED00120F6
:103AB000DFF81015086004F047FD0500DFF8E804A2
:103AC0000068800706D404F03FFD401B0328F5D3AF
:103AD000032053E1DFF8D004006830F0F80061699A
:103AE00050EAC100DFF8C0140860C3E70020DFF827
:103AF000D414086004F028FD0500DFF8AC04006869
:103B00008007B7D504F020FD401B0328F5D3032020
:103B100034E1012000F035FA2078400740F1B98007
:103B20000025DFF8A4040068C0000FD4DFF8980473
:103B3000006850F08050DFF890140860DFF88804C7
:103B4000006810F08050009000980125DFF87C0498
:103B50000068C00529D4DFF87404006850F4807050
:103B6000DFF86814086004F0EFFC0600DFF85C047E
:103B70000068C00519D404F0E7FC801B6528F5D364
:103B80000320FBE00020DFF83814086004F0DCFCC0
:103B90000500DFF8280400688007BDD504F0D4FCD8
:103BA000401B0328F5D30320E8E0E068012808D192
:103BB000DFF81C04006850F00100DFF814140860FE
:103BC00037E0E068002810D1DFF8040400684008FE
:103BD0004000DFF8FC130860DFF8F403006830F001
:103BE0000400DFF8EC13086023E0E068052810D13A
:103BF000DFF8DC03006850F00400DFF8D41308603D
:103C0000DFF8CC03006850F00100DFF8C41308604F
:103C10000FE0DFF8BC03006840084000DFF8B01395
:103C20000860DFF8AC03006830F00400DFF8A01390
:103C30000860E068002810D004F086FC0600DFF879
:103C400090030068800719D404F07EFC801B41F2C9
:103C500089318842F3D3032090E004F075FC06001C
:103C6000DFF86C030068800708D504F06DFC801B4A
:103C700041F289318842F3D303207FE0EDB2012D78
:103C800007D1DFF84403006830F08050DFF83813C4
:103C90000860E069002870D0DFF81003006810F0B9
:103CA0000C00082855D0E06902283FD10020DFF839
:103CB0002413086004F048FC0500DFF8EC020068FB
:103CC000800106D504F040FC401B0328F5D30320F7
:103CD00054E0206AB0F5803F09D1DFF8D0020168D6
:103CE00031F40031A0680143DFF8C0020160DFF861
:103CF000BC02016831F47411206A0143606A014317
:103D0000DFF8A80201600120DFF8C812086004F0A3
:103D10001BFC0400DFF89002006880012DD404F041
:103D200013FC001B0328F5D3032027E00020DFF855
:103D3000A412086004F008FC0400DFF86C020068BC
:103D400080011AD504F000FC001B0328F5D30320E2
:103D500014E0E069012801D101200FE0DFF84C02F6
:103D6000006810F48031226A914204D110F470107E
:103D7000616A884201D0012000E0002076BD70B564
:103D800004000D00002C01D10120AEE0DFF8480254
:103D9000006810F00700A84211D2DFF83C0200686A
:103DA000C008C0002843DFF830120860DFF828029E
:103DB000006810F00700A84201D0012095E02078AB
:103DC00080071FD52078400707D5DFF8E00100689D
:103DD00050F4E060DFF8D41108602078000707D5C0
:103DE000DFF8C801006850F46050DFF8C0110860C7
:103DF000DFF8B801016831F0F001A0680143DFF895
:103E0000AC0101602078C00733D56068012805D176
:103E100065480068800310D4012066E060680228CD
:103E200005D161480068800107D401205DE05E484B
:103E30000068800701D4012057E05C4801688908C8
:103E40008900606801435948016004F07DFB060069
:103E50005648006810F00C006168B0EB810F08D084
:103E600004F072FB801B41F289318842F0D30320B9
:103E70003BE05948006810F0070085420ED25648D2
:103E80000068C008C00028435349086052480068D1
:103E900010F00700A84201D0012026E0207840075A
:103EA00007D54248016831F4E061E06801433F48CA
:103EB00001602078000708D53C48006830F4605065
:103EC000216950EAC1003949086000F00FF8434900
:103ED000364A1268C2F30312895CC840354908604B
:103EE0003548006800F08CF9002070BD00B585B041
:103EF00001A83B491022FDF785FC3A480088ADF83F
:103F00000000002000200020002000202748016839
:103F100011F00C00042802D0082802D015E0244833
:103F200014E001A8C1F38342805CC9030AD5694645
:103F30001E4A1268C2F340428A5C1D494843B0FBE6
:103F4000F2F001E02849484300E0194805B000BDFF
:103F500018480068704780B5FFF7FAFF2349134AF5
:103F60001268C2F30222895CC84002BD80B5FFF727
:103F7000EFFF1E490D4A1268C2F3C222895CC84095
:103F800002BD81B00B490968C9084FF47A72B1FBD0
:103F9000F2F14843009000BF0098411E00910028B4
:103FA000F9D101B070470000001002400410024037
:103FB00000127A00FC000020F800002024100240CB
:103FC00080044242000042421C1002400070004047
:103FD0002010024060004242002002409C950008F0
:103FE0007C950008E217000800093D000C960008C7
:103FF0007CB50400002000202078C00763D5002590
:1040000074480068C0000CD47248006850F08050BA
:10401000704908606F48006810F080500090009868
:1040200001256D480068C00513D46B48006850F442
:1040300080706949086004F087FA060066480068E5
:10404000C00506D404F080FA801B6528F6D303204F
:1040500050E06248006810F44070002822D0616887
:1040600011F4407188421DD05C48006830F4407003
:1040700001215B4A11600021594A116057490860CB
:10408000C0070FD504F060FA0600544800688007A6
:1040900008D404F059FA801B41F289318842F4D3E4
:1040A000032027E04D48016831F440716068014306
:1040B0004A480160EDB2012D05D14648006830F054
:1040C0008050444908602078800707D5454801683A
:1040D00031F44041A0680143424801602078C006A5
:1040E00007D54048016831F48001E06801433D484C
:1040F0000160002076BD18B585B0040001A83A49DA
:104100001022FDF77FFB39480088ADF80000002041
:104110000021002000200020012C2AD0022C4BD0AE
:10412000102C54D12F4A1268314B1B68DB011FD56C
:1041300001A8C2F38343C35CD0030CD56846294C65
:104140002468C4F34044005DD20307D52949B1FB7C
:10415000F0F1594302E01900274841432148006823
:10416000400201D5080003E048000321B0FBF1F054
:104170002DE01A49096840F202320A40B2F5817F07
:1041800002D14FF4004016E011F44072B2F5007F06
:1041900006D11A4A1268920702D549F640400AE051
:1041A00011F44071B1F5407F05D1114909688903C7
:1041B00001D54FF224400AE0FFF7D8FE094909680B
:1041C000C1F38131491C4900B0FBF1F0FFE706B0B3
:1041D00010BD00001C100240007000402010024082
:1041E00040044242041002408C9500086E190008F9
:1041F0000010024000127A0000093D002410024025
:1042000010B504004FF47A700D490978B0FBF1F055
:104210000C490968B1FBF0F0FDF73FFC002801D024
:1042200001200CE0102C09D2002221005FF0FF30A9
:10423000FDF719FC04480460002000E0012010BDD7
:1042400002010020FC000020F800002080B5134887
:10425000006850F00100114908601048006810F033
:104260000100009000980E48006850F080500C4902
:1042700008600B48006810F0805000900098002201
:104280000F217FF00100FDF7EEFB0648006830F0DB
:10429000E06050F000700349086001BD1810024052
:1042A0001C10024004000140F8B402000023002565
:1042B0001AE0DFF8CC01006830EA0404DFF8C0013E
:1042C000046010E0DFF8BC010068A043DFF8B461CF
:1042D000306048688002ECD5DFF8A4010068044330
:1042E000DFF89C0104605B1C0868D840002800F0DF
:1042F000BB8001269E400C683440B442F3D148682C
:10430000002827D001281AD002281DD003282FD03A
:10431000112816D012281AD05B4FB8421AD05B4F22
:10432000B84217D05A4FB84214D05A4FB84211D0A1
:10433000594FB8420ED0594FB8420BD01AE0CD6851
:1043400018E0CD682D1D15E0CD68083512E0CD6868
:104350000C350FE08868002801D1042507E0886843
:10436000012802D10825166101E00825566101E007
:104370000025FFE7B4F5807F01D2100000E0101D9A
:10438000B4F5807F01D29E0002E0B3F10806B600CA
:1043900007685FF00F0C1CFA06FC37EA0C0715FAE9
:1043A00006F63E4306604868C0009CD53C4800685D
:1043B00050F001003A4E30603948006810F00100BA
:1043C0000090009837481E00B60850F826600F2766
:1043D00013F00300C0B280008740BE4332488242DF
:1043E00001D100270FE03148824201D101270AE0C4
:1043F0002F48824201D1022705E02E48824201D196
:10440000032700E0042713F00300C0B280008740B8
:104410003E4324481F00BF0840F827604868C00397
:1044200005D5254800682043234E306004E022482B
:104430000068A043204E30604868800305D51F48BF
:10444000006820431D4E306004E01C480068A04313
:104450001A4E30604868C0027FF534AF09480068E2
:104460002043084E306034E7F1BC7047D2B2002AD6
:1044700002D089B2016102E089B20904016170478A
:104480000C0401400804014000001110000012104B
:104490000000211000002210000031100000321036
:1044A000181002400800014000080140000C0140C3
:1044B00000100140001401400004014004040140C8
:1044C00038B50400002C01D10120AEE094F82000A2
:1044D000002802D12000FDF7C7FB2068006850F0DB
:1044E00001002168086004F02FF80500206840688A
:1044F000C0070DD404F028F8401B0B28F6D3606ADF
:1045000050F400306062052084F8200001208CE027
:104510002068006830F002002168086004F014F898
:1045200005002068406880070DD504F00DF8401B99
:104530000B28F6D3606A50F400306062052084F8DE
:104540002000012071E0207E012806D1206800684B
:1045500050F080002168086005E02068006830F0B5
:10456000800021680860607E012806D1206800680C
:1045700050F040002168086005E02068006830F0D5
:10458000400021680860A07E012806D120680068EC
:1045900050F020002168086005E02068006830F0D5
:1045A000200021680860E07E012806D120680068AC
:1045B00030F010002168086005E02068006850F0C5
:1045C000100021680860207F012806D1206800685B
:1045D00050F008002168086005E02068006830F0AD
:1045E000080021680860607F012806D12068006803
:1045F00050F004002168086005E02068006830F091
:10460000040021680860A168E06801432069014353
:10461000606901436068401E01432068C161002059
:104620006062012084F82000002032BD38B504000B
:1046300094F82000012821D1022084F8200020686D
:104640000068400840002168086003F07DFF050015
:1046500020684068C0070DD503F076FF401B0B288B
:10466000F6D3606A50F400306062052084F82000C0
:10467000012008E000206062002004E0606A50F43D
:1046800000206062012032BD70B490F820500468B0
:10469000A6688C68002CFFD02C00E4B2012C02D05C
:1046A000EDB2022D6ED116F0E05F65D0C6F3016465
:1046B000032C05D3416A51F400014162012066E0F8
:1046C0000125A5401D608B68002B09D10B68CD68C2
:1046D00055EA4355036826013344C3F880510AE084
:1046E0004B688D6855EAC305CB681D4303682601F6
:1046F0003344C3F880510B69056826013544C5F879
:104700008431097D01290BD1016823011944D1F8B5
:10471000841151F48071036825012B44C3F884117E
:10472000D17993791B0453EA0163517953EA012348
:1047300011790B43016825012944C1F88C31D178E6
:1047400093781B0453EA0163517853EA01231178EB
:104750000B43016822011144C1F88831016822012C
:104760001144D1F8801151F0010100682201104478
:10477000C0F8801100200AE0416A51F40011416242
:10478000012004E0416A51F480214162012070BCA3
:1047900070472DE9F84F050000242868466928680D
:1047A00047682868D0F808802868D0F80C902868F6
:1047B000D0F810A02868D0F818B0F00755D55FEAF7
:1047C000C87018D50120296888605FEA887003D511
:1047D000280003F0BFFE0EE05FEA487002D554F4F3
:1047E000006408E05FEA087002D554F4805402E0E7
:1047F000280003F0B0FE5FEAC85019D54FF480706E
:10480000296888605FEA885003D5280003F0A4FE79
:104810000EE05FEA485002D554F4005408E05FEA25
:10482000085002D554F4804402E0280003F095FEBD
:104830005FEAC83019D55FF48030296888605FEA84
:10484000883003D5280003F089FE0EE05FEA483087
:1048500002D554F4004408E05FEA083002D554F46D
:10486000803402E0280003F07AFE300707D55FEAC3
:10487000C96004D554F4007410202968C86070071A
:1048800008D55FEA097005D508202968C8602800A6
:1048900003F066FEB00707D52868C06810F0030F64
:1048A00002D0280003F05DFE700607D55FEACA60FB
:1048B00004D554F48064102029680861B00608D536
:1048C0005FEA0A7005D5082029680861280003F00E
:1048D00049FEF00607D52868006910F0030F02D0E2
:1048E000280003F040FEB00307D5F80605D51020D8
:1048F00029684860280003F037FEF00307D5380721
:1049000005D5082029684860280003F02EFE3004F1
:104910004DD5780748D5F00506D51BF00100C0B28B
:10492000002801D054F00104B00504D55FEA8B7073
:1049300001D554F00204700504D55FEA4B7001D52F
:1049400054F0040430052FD51BF0700F2CD01BF051
:10495000700BBBF1100F0FD0BBF1200F0FD0BBF1CC
:10496000300F0FD0BBF1400F0FD0BBF1500F0FD065
:10497000BBF1600F0FD011E054F008040EE054F0CA
:1049800010040BE054F0200408E054F0400405E06B
:1049900054F0800402E054F48074FFE728688069D2
:1049A00030F0700029688861042029684860002C74
:1049B00005D0686A04436C62280003F0D7FDBDE8A7
:1049C000F18F000038B504000D00002C01D101204A
:1049D00041E094F83D00002805D1002084F83C0017
:1049E0002000FDF756FA242084F83D002068C068B6
:1049F00030F400502168C860200000F076FA20688A
:104A0000006930F40060216808612068406930F076
:104A10002A00216848612068006950F480402168BC
:104A200008612068006930F0200021680861206872
:104A300000690543206805612068C06850F4005093
:104A40002168C86000202064202084F83D002020D8
:104A500084F83E00002032BD90F83D30202B23D159
:104A6000002903D013009BB2002B01D101201CE0D0
:104A700090F83C30012B01D1022016E0012380F890
:104A80003C3001628284C28400210164212180F8CB
:104A90003D10002180F83C100168C96851F0800188
:104AA0000068C160002000E00220704780B590F8E7
:104AB0003E30202B16D1002903D013009BB2002BCF
:104AC00001D101200FE090F83C30012B01D10220F0
:104AD00009E0012380F83C300023036392B200F028
:104AE00012F900E0022002BD38B504002068016818
:104AF0002068C268206843690020002011F00F0080
:104B0000002807D18D0605D5950603D5200000F0B5
:104B10007EF9F7E0002872D0D80702D412F4907F13
:104B20006DD011F00100C0B2002805D0D00503D52A
:104B3000206C50F001002064480708D513F00100F4
:104B4000C0B2002803D0206C50F002002064880717
:104B500008D513F00100C0B2002803D0206C50F03B
:104B60000400206408070AD5900604D413F001035A
:104B7000DBB2002B03D0206C50F008002064206CC6
:104B800000283BD0880604D5900602D5200000F00E
:104B90003EF920684069800910F00100216C090786
:104BA00001D4002825D0200000F0CCF8206840690E
:104BB00040061AD52068406930F0400021684861FD
:104BC000A06B00280DD00FF2B510A16B4863A06B4D
:104BD00003F0F4FC002811D0A06BA16B496B88474F
:104BE0000CE0200003F050FD08E0200003F04CFD35
:104BF00004E0200003F048FD0020206482E0206BE8
:104C000001286FD1C8066DD5D0066BD50020009065
:104C10002068006800902068406800900098206834
:104C20004069400638D5A06B00684168080080B232
:104C3000002830D00800A28D80B290422BD2E185AE
:104C4000A06B806920281FD02068C06830F4807075
:104C50002168C860206840694008400021684861B8
:104C60002068406930F0400021684861202084F8C5
:104C70003E00002020632068C06830F010002168EA
:104C8000C860A06B03F074FCA18DE08D091A89B295
:104C9000200003F0FAFC35E0A08DE18D411AE08D93
:104CA00000281ED0080080B200281AD02068C068F2
:104CB00030F490702268D06020684069400840005D
:104CC00022685061202084F83E0000202063206884
:104CD000C06830F010002268D06089B2200003F074
:104CE000D4FC0FE0080605D5100603D5200000F01F
:104CF0004FF807E0480605D5500603D5200000F020
:104D000078F8FFE731BD81628285C28500210164A8
:104D1000222180F83E10002180F83C100168C9680B
:104D200051F480710268D1600168496951F0010154
:104D3000026851610168C96851F020010068C160D2
:104D4000002070470168C96831F490710268D16031
:104D5000016849694908490002685161016B0129EC
:104D600005D10168C96831F010010268D1602021C5
:104D700080F83E10002101637047000080B5406A52
:104D80000021C1850021C18403F07EFC01BD00002B
:104D900090F83D1021292AD18168B1F5805F0CD1AE
:104DA0000169002909D1016A0988C905C90D02688C
:104DB0005160016A891C016205E0016A4A1C0262B5
:104DC000097802685160C18C491EC18489B20029EA
:104DD0000BD10168C96831F080010268D1600168B7
:104DE000C96851F040010068C160002000E0022065
:104DF000704780B50168C96831F040010268D16030
:104E0000202180F83D1003F041FC002002BD80B558
:104E100090F83E10222966D18168B1F5805F0DD1EE
:104E2000016900290AD10021816A02685268D2050D
:104E3000D20D0A80816A891C816217E0826A002192
:104E40008168B1F5805F05D08168002906D10169CC
:104E5000002903D101684968117004E001684968BC
:104E600011F07F011170816A491C8162C18D491E58
:104E7000C18589B2002934D10168C96831F02001A7
:104E80000268D1600168C96831F480710268D1603C
:104E9000016849694908490002685161202180F888
:104EA0003E10016B012918D1002101630168C96816
:104EB00031F010010268D16001680968C90608D59F
:104EC000002100910168096800910168496800911A
:104ED0000099818D03F0D9FB01E0FDF726F8002051
:104EE00002E0002000E0022002BD38B50400206886
:104EF000016931F44051E068014320680161A16813
:104F000020690143606901432068C2682D4802405E
:104F100011432068C1602068416931F44071A06983
:104F200001432068416120682749884202D1FFF788
:104F30001DF801E0FFF70FF8192101FB00F162688D
:104F40009200B1FBF2F16422B1FBF2F2192101FBF4
:104F500000F163689B00B1FBF3F3192101FB00F141
:104F60006568AD00B1FBF5F16425B1FBF5F5642191
:104F700001FB1533190132316423B1FBF3F313F054
:104F8000F00313EB0213192101FB00F16268920098
:104F9000B1FBF2F21921484361688900B0FBF1F0DE
:104FA0006421B0FBF1F1642000FB112210013230CA
:104FB0006421B0FBF1F010F00F00C318206883608B
:104FC00031BD0000F3E9FFFF003801401CB50400CB
:104FD000002C07D1502080F31188BFF34F8FBFF30F
:104FE0006F8FFEE7202000900098202807D05020E7
:104FF00080F31188BFF34F8FBFF36F8FFEE7002C54
:1050000006D000202060201D03F041FB0120207706
:10501000200016BD10B5202003F086FB0400002CF4
:1050200006D000202060201D03F031FB00202077F7
:10503000200010BD2DE9F047070014001E005FF0AE
:10504000000A0020002F07D1502080F31188BFF301
:105050004F8FBFF36F8FFEE7884618F07F4F07D062
:10506000502080F31188BFF34F8FBFF36F8FFEE79F
:10507000B8F1000F07D1502080F31188BFF34F8F94
:10508000BFF36F8FFEE7089D02F07CFD002801D181
:10509000002D01D1012000E00020C0B2002807D17E
:1050A000502080F31188BFF34F8FBFF36F8FFEE75F
:1050B00002F03AFAD7F8009032004146484600F034
:1050C000A7F8002807D00025002C19D0386830EA4E
:1050D0000800386014E0002D01D1012010E0002C00
:1050E00001D05AF0807A002E01D05AF0806A2A004E
:1050F0005AEA080A5146381D02F07EFB5FF00009AB
:1051000002F01AFA002D26D0002807D15FF0805057
:105110004A490860BFF34F8FBFF36F8F02F092FDD3
:1051200081465FEA891014D403F0A2FCD7F80090FE
:1051300032004146484600F06BF8002806D0002CAB
:1051400004D0386830EA0808C7F80080012003F06E
:10515000ACFC29F07F494846BDE8F0872DE9F041D5
:1051600004000F0000250020002C07D1502080F300
:105170001188BFF34F8FBFF36F8FFEE717F07F4F9C
:1051800007D0502080F31188BFF34F8FBFF36F8F8C
:10519000FEE714F1040818F1080602F0C5F9D8F882
:1051A0000C2020680743276023E0D4F800C01CEAE5
:1051B000010C8C4511D101200FE0576811680020C7
:1051C00011F07F4321F07F415FEA431CEDD4D4F816
:1051D00000C011EA0C0F00D00120002808D0D8012F
:1051E00000D50D43216851F00071100002F098FBCA
:1051F0003A00B242E1D1206830EA0505256002F0AC
:105200009BF92068BDE8F08180B5FFF7A7FF01BDDD
:1052100003000020002A03D10B4205D0012003E047
:105220000B408B4200D10120704780B513000A006B
:105230000100034803F0D2FE02BD000004ED00E0CF
:1052400009520008FF20DFF8F41608700020DFF88C
:10525000F01608700020DFF8EC1608700020DFF868
:10526000E81608600020DFF8E41608600020DFF888
:10527000E01608800020DFF8D81648800420DFF808
:10528000D4160870FF20DFF8D01608700020DFF871
:10529000CC1608707047DFF8C8060078002803D0E5
:1052A000022817D005D327E00120DFF8B4160870D4
:1052B00022E00220DFF8A8160870DFF8A8060188AF
:1052C0000A204143DFF8840601600120DFF88C16D4
:1052D000087011E0DFF884060078002804D0DFF8B9
:1052E0007C060078042807D10020DFF874160870C7
:1052F0000020DFF84C160870704780B5DFF86806AC
:105300000078002806D0022856D02FD3042875D064
:1053100065D38FE0DFF824060078092821DADFF86A
:105320004C26DFF84C16DFF814060078FDF7C3FEB4
:10533000DFF83C0601880A204143DFF8340601808B
:10534000DFF8280601880A204143DFF820060180A3
:105350000120DFF8141608700020DFF8E815087047
:1053600003E00020DFF8D815087063E0DFF80006DE
:10537000008800F529405F30DFF8D0150860DFF8BD
:10538000CC050168DFF8C0050068091A4AF65F100D
:10539000814208D2DFF8B405006800F529405F308B
:1053A000DFF8A81508600120DFF8B01508700220AA
:1053B000DFF8B41508703DE0DFF8A005007800289C
:1053C00004D0DFF898050078042807D10320DFF81F
:1053D000981508700020DFF86C1508702AE0DFF8D7
:1053E0008C050088DFF8641508600120DFF86C1573
:1053F00008700420DFF8701508701BE0DFF85C050A
:105400000078002804D0DFF854050078042811D172
:105410000020DFF8541508700020DFF8241508700C
:105420000020DFF820150870DFF810050078DFF89D
:105430002815087001BD80B5DFF838050078002810
:1054400009D0022800F0D08053D3042800F0558101
:10545000C0F043815DE100220121DFF81C05FFF768
:1054600005F800220221DFF81005FEF7FFFF0020FB
:10547000DFF808150880DFF8E4040078012837D148
:10548000DFF8C40400686430DFF8C014096888429B
:1054900010D20020DFF8B81408806420DFF8B014C0
:1054A00048800120DFF8CC1408700220DFF8AC142B
:1054B00008701DE0DFF8940400686430DFF8881499
:1054C0000968884210D26420DFF884140880002024
:1054D000DFF87C1448800220DFF89814087002205E
:1054E000DFF87814087003E00420DFF888140870EF
:1054F0000FE1DFF88C040088DFF84C14096888425B
:105500000AD2DFF844040168DFF874040088091A3D
:10551000DFF87004018009E0DFF864040188DFF837
:1055200028040068091ADFF85C040180DFF85404DD
:105530000088642857DA002010E0DFF84C140200DD
:10554000D2B2524201EB4201098FDFF83C24030042
:10555000DBB25B4202EB43025187401C0100C9B23F
:105560001D29EAD3DFF81C040088DFF81C1408802A
:105570000020DFF81814088000210DE0DFF80C048B
:105580000288DFF804040B00DBB230F81300821845
:10559000DFF8F8030280491C0800C0B21E28EDD3D2
:1055A000DFF8E80300881E21B0FBF1F0DFF8DC1320
:1055B0000880DFF898030168DFF88C030268DFF8E1
:1055C000CC0303880F2000FB032291420BD203205F
:1055D000DFF8A01308706420DFF8741308806420DB
:1055E000DFF86C13488094E0DFF894030088DFF85C
:1055F0005813096888420AD2DFF84C030168DFF8C3
:1056000080030088091ADFF87C03018009E0DFF8D5
:1056100070030188DFF830030068091ADFF86403BB
:105620000180DFF860030088642855DA002010E06C
:10563000DFF854130200D2B2524201EB4201098F4B
:10564000DFF844230300DBB25B4202EB43025187E5
:10565000401C0100C9B21D29EAD3DFF828030088E5
:10566000DFF8241308800020DFF8201308800021D1
:105670000DE0DFF818030288DFF80C030B00DBB243
:1056800030F813008218DFF804030280491C080078
:10569000C0B21E28EDD3DFF8F40200881E21B0FB53
:1056A000F1F0DFF8E8120880A7480168A74802680F
:1056B000DFF8D80203880F2000FB032291420BD2AF
:1056C0000320AC4908700020AC4908806420A04940
:1056D000088064209E4948801BE0A848008840F26A
:1056E000F511884203D30420A249087004E0A348BE
:1056F0000088401CA14908800BE0002094490880E4
:1057000000209349488000209A490870042093495A
:1057100008709F4800888E490988884205D19C48B6
:1057200040888B494988884213D089480088994924
:1057300008608748408897494860002300228449D0
:1057400095480068FDF791FF012194480068FFF734
:1057500005FD7D4800688A4908807D4800888C499D
:1057600008807B4840888A49488001BD10B50023E5
:1057700022008B498B480068FDF7C0FF0023220000
:10578000784989480068FDF7B9FF6D48007800281E
:1057900023D17148007882490978884207D080482F
:1057A00000786649087001206549087015E07F4857
:1057B00000886C49098888420CD06A4800884FF6F6
:1057C000FF71884206D0FF205C49087002205C49C6
:1057D000087002E0FF2059490870594800780028F5
:1057E00006D0022808D004D3042809D007D308E043
:1057F00007E0FFF782FD04E0FFF74DFD01E000E068
:10580000FFE74F480078002817D0FFF714FE032069
:10581000504908706648008842F21171884203DBE3
:105820000120644908700EE061480088401C60490E
:10583000088000205F49087005E004204549087091
:1058400000205B490880564800785B49087045484D
:1058500000885649088010BD3E480078704755487A
:10586000007870473C480078704710B5FFF7EAFCB5
:105870004FF47A70FDF74AFE50480488504800887B
:1058800049F69271884208D3200080B2652804D27C
:105890002C480078401C2B490870200080B249F643
:1058A000927188420CD346480088652808D2254862
:1058B0000078002804D023480078401E2149087051
:1058C000204801784AF65F12200080B202FB0101F5
:1058D0001D480160FFF74AFF3948048018480078E6
:1058E000384908701D4800783649487021480078CA
:1058F000344988701C4800783249C87013480068E1
:105900003049087111480068000A2E4948710F4853
:105910000068000C2B4988710B4800682949C87140
:1059200009480068000A2749087207480068000C07
:10593000244948720120FDF7E9FD9DE791350020DB
:105940009435002093350020EC340020F034002002
:10595000F434002097350020923500209635002041
:1059600099350020703500209035002074350020D6
:10597000723500209535002000100140763500205A
:105980007C35002078350020F83200207A35002060
:10599000F834002070340020D0340020D8340020A7
:1059A0009A350020CC340020C834002000010020AB
:1059B0007E350020983500209B3500208235002060
:1059C000803500204434002010B504000020002C55
:1059D00001D1012068E0607C002804D100202074FF
:1059E0002000FDF721F802206074200000F062F82A
:1059F000002803D004206074012055E0200000F04E
:105A000078F8002803D00420607401204CE020685E
:105A10004068C008C00021684860A068002807D01E
:105A2000DFF88800006840084000DFF88010086058
:105A3000DFF87C00016831F46071A0680143DFF891
:105A400070000160606810F1010F01D0606809E02A
:105A50000120FEF750FB002803D1042060740120D0
:105A600022E0401E216889680909090151EA1041B4
:105A7000226891602168C968090C090480B2084352
:105A80002168C860200000F04FF8002803D00420EF
:105A90006074012008E00020E073012060730120A1
:105AA000A07301206074002010BD0000306C004025
:105AB0002C6C004038B504000020002C01D10120DE
:105AC00016E02068406830F008002168486002F065
:105AD0003BFD050020684068000708D402F034FD53
