:020000040800F2
:1000000018280020657B0008ED770008EF770008CE
:10001000F1770008F3770008F5770008000000008A
:100020000000000000000000000000007B720008DB
:10003000F77700080000000035720008F977000823
:10004000ED7B0008F17B0008F57B0008F97B0008D8
:10005000FD7B0008017C0008057C0008097C000885
:100060000D7C0008117C0008157C0008197C000834
:100070001D7C0008217C0008257C0008297C0008E4
:100080002D7C0008317C0008357C00080D780008C4
:100090001D7800082D780008397C00083D7C000898
:1000A000417C0008457C0008497C0008377800083E
:1000B0004D7C0008517C0008557C0008597C0008E4
:1000C0005D7C0008617C0008657C0008697C000894
:1000D0006D7C000841780008717C0008757C000880
:1000E000797C00087D7C0008817C000818B585B00B
:1000F0000400002C01D10120BFE094F8A9020028DF
:1001000005D1002084F8A802200000F076FE03202C
:1001100084F8A902206800F09DFE211D83B0684686
:10012000202201F06FFB0EBC206800F08FFE00283B
:1001300004D0022084F8A90201209EE0002120685A
:1001400000F092FE00213BE001220B00DBB22820F0
:10015000434304EB030080F829200A00D2B2282090
:10016000424304EB020080F828100A00D2B20B00D0
:10017000DBB22820434304EB0300C28600220B00BD
:10018000DBB22820434304EB030080F82B2000223D
:100190000B00DBB22820434304EB03008263002200
:1001A0000B00DBB22820434304EB0300C2630022B0
:1001B0000B00DBB22820434304EB03000264491C1C
:1001C0000800C0B262689042BED3002135E0002230
:1001D0000B00DBB22820434304EB030080F86921C5
:1001E0000A00D2B22820424304EB020080F86811D2
:1001F00000220B00DBB22820434304EB030080F80D
:100200006B2100220B00DBB22820434304EB0300E8
:10021000C0F8782100220B00DBB22820434304EB16
:100220000300C0F87C2100220B00DBB228204343EE
:1002300004EB0300C0F88021491C0800C0B26268CA
:100240009042C4D3211D83B06846202201F0DAFA1F
:100250000EBC206800F00AFE002804D0022084F8BA
:10026000A902012009E0002084F82400012084F87C
:10027000A902206801F07CFA002006B010BD1FB56D
:100280000400206801F076FA000402D5200000F096
:10029000ECF8206801F06EFA40050FD52068B0F840
:1002A00044104FF6FF3001402068A0F844102000B1
:1002B00001F0EBFA0021200000F0C1F8206801F005
:1002C00059FA400408D52068B0F844104BF6FF7086
:1002D00001402068A0F84410206801F04BFA800427
:1002E00008D52068B0F844104DF6FF700140206832
:1002F000A0F84410206801F03DFAC0041DD5206824
:10030000B0F840104FF6FB7001402068A0F8401094
:100310002068B0F840104FF6F77001402068A0F850
:100320004010200001F0B2FA2068B0F844104EF6F8
:10033000FF7001402068A0F84410206801F01AFA0C
:1003400000055CD500200AE021680200D2B231F835
:1003500022106A460300DBB222F81310401C010091
:10036000C9B20829F0D32068B0F8400050F001006D
:100370002168A1F840002068B0F840104FF6FE70E8
:1003800001402068A0F840102068B0F84400400503
:10039000FAD52068B0F844104FF6FF3001402068CD
:1003A000A0F8441000200AE069460200D2B231F8F9
:1003B000121022680300DBB222F82310401C010057
:1003C000C9B20829F0D32068B0F8400050F0080006
:1003D0002168A1F840002068B0F844104FF2FF7087
:1003E00001402068A0F844102068B0F8400050F0A8
:1003F00004002168A1F84000200001F048FA2068BC
:1004000001F0B8F980050BD52068B0F844104FF61C
:10041000FF5001402068A0F84410200001F038FA95
:10042000206801F0A7F9C00508D52068B0F844108D
:100430004FF6FF6001402068A0F844101FBD10B5C2
:10044000040094F8A802012801D102200CE0012048
:1004500084F8A80284F82410C9B2206801F080F959
:10046000002084F8A802002010BD2DE9F04104000E
:1004700033E02068018848F60F70014051F40041D4
:100480002068018014F128052068B0F85000297810
:1004900010EBC100216811EB400101F20441088812
:1004A00080B28005800DE8616869E9690844686187
:1004B0000021200001F0EDF994F8240000280CD070
:1004C000A869002809D194F8240050F08000216820
:1004D000A1F84C00002084F824002068B0F8440003
:1004E000000440F1B3812068B0F8441011F00F050A
:1004F0002800C0B2002840F09C80C806B9D514F589
:10050000B47520680088010524D52068B0F8500033
:10051000297810EBC100216811EB400101F20C4178
:10052000088880B28005800DE861EB699BB2EA889B
:1005300014F52C71206801F039F92068018840F623
:100540008F70014051F0800120680180200001F08F
:10055000A1F9C2E70004C0D52068018840F68F7079
:10056000014051F08001206801802068B0F85000FF
:10057000297810EBC100216811EB400101F20C4118
:10058000088880B28005800DE861E869002811D0F4
:10059000686900280ED0EB699BB2EA886969206817
:1005A00001F004F96869E9690844686100212000E4
:1005B00001F071F92068008800058ED42168206858
:1005C000B0F85000411801F20C412869002809D107
:1005D0000A8848F2FF3002400A80088850F4004040
:1005E000088016E028693F2808D2286940082A7C3C
:1005F000D20700D5401C800208800AE02869400923
:100600002A7C12F01F0F00D1401E800250F40040DF
:100610000880206801884BF68F70014091F480516A
:1006200091F4005141F4004151F0800120680180B3
:1006300053E720682900C9B230F82160300440F146
:10064000AB8020682900C9B230F8211040F68F70C5
:10065000014051F0800120682A00D2B220F8221017
:100660002900C9B22820414304EB010010F5B477FA
:10067000387B00281CD12068B0F85000397810EB86
:10068000C100216811EB400101F20C41B1F800807A
:100690005FEA88585FEA9858404680B2002860D0E8
:1006A00043469BB2FA887969206801F07FF858E0E8
:1006B000F878022807D1320092B23900200000F009
:1006C000C8F880464DE02068397830F8211048F6A7
:1006D0008F70014041F4004151F0C00120683A7828
:1006E00020F822102068397830F8210040041CD509
:1006F0002068B0F85000397810EBC100216811EB88
:10070000400101F20441B1F800805FEA88585FEAD5
:100710009858404680B2002823D043469BB23A897D
:100720007969206801F042F81BE02068B0F85000B9
:10073000397810EBC100216811EB400101F20C4146
:10074000B1F800805FEA88585FEA9858404680B266
:10075000002806D043469BB27A897969206801F067
:1007600025F8F969404680B24118F9617869414637
:1007700089B208447861B869002804D01FFA88F863
:100780003869804504D23978200001F084F803E00C
:100790003900206800F07AFB30067FF59EAE290014
:1007A000C9B22820414304EB010010F12801206860
:1007B0002A00D2B230F8222048F60F70024052F4DC
:1007C00000422068EDB220F82520C878032807D021
:1007D000C878002804D0C878022831D1F0052FD479
:1007E0002068B0F850000A7810EBC200226812EBC3
:1007F000400202F2044212889205920D100080B26B
:100800008B69984205D28B69100080B21B1A8B61EC
:1008100001E0002088618869002804D1097820005F
:1008200001F037F859E6486913009BB21844486153
:10083000C86992B21218CA61206800F027FB4CE622
:10084000320092B2200000F0A1F846E60020BDE898
:10085000F08170B553044BD50368B3F850300C7871
:1008600013EBC403046814EB430404F20444248827
:10087000A405A40D8B692500ADB2AB4205D38D69EB
:1008800023009BB2ED1A8D6101E000238B618B691F
:10089000002B10D103680D7833F825504BF68F7379
:1008A0001D4095F4005545F4004555F0800503685A
:1008B0000E7823F8265052060ED502680B7832F8CF
:1008C000233048F68F72134043F4004353F0C003C3
:1008D00002680D7822F82530220092B2002A52D008
:1008E00023009BB20A894969006800F05FFF4AE073
:1008F0000368B3F850300C7813EBC403046814EBAE
:10090000430404F20C442488A405A40D8B6925003B
:10091000ADB2AB4205D38D6923009BB2ED1A8D6158
:1009200001E000238B618B69002B10D103680D78E7
:1009300033F825504BF68F731D4095F4005545F460
:10094000004555F0800503680E7823F826505206BE
:100950000ED402680B7832F8233048F68F721340B9
:1009600043F4004353F0C00302680D7822F82530A9
:10097000220092B2002A06D023009BB24A8949691C
:10098000006800F013FF200080B270BD70B5040055
:100990000D001600700640F101812068B0F850008B
:1009A000297810EBC100216811EB400101F20441EC
:1009B0000B889B059B0D180080B2A969884205D25F
:1009C000A969180080B2091AA96101E00020A86194
:1009D000A869002866D16878002814D121682068A9
:1009E000B0F8500041182878C00011EB400101F226
:1009F00004410A8848F2FF3002400A80088850F417
:100A0000004008800FE0687801280CD12168206838
:100A1000B0F8500041182878C00011EB400101F2F5
:100A200004410020088021686878002814D12168DA
:100A30002068B0F8500041182878C00011EB400140
:100A400001F20C410A8848F2FF3002400A8008880F
:100A500050F4004008800EE0687801280BD120682F
:100A6000B0F8500041182878C00011EB400101F2A5
:100A70000C41002008802978200000F00AFF700453
:100A800040F18B812068297830F8211048F68F706A
:100A9000014041F4404151F0800120682A7820F85B
:100AA00022107AE170040ED52068297830F82110E0
:100AB00048F68F70014041F4404151F080012068B8
:100AC0002A7820F8221095F82400012840F065814A
:100AD0006869190089B208446861E969180080B240
:100AE0004118E961286A2969884204D32B69286A78
:100AF000C01A28620DE0286A002804D19BB20020A9
:100B000085F8240005E0002085F824002B6A0020E9
:100B10002862687800282BD121682068B0F850003E
:100B200041182878C00011EB400101F20441002B6C
:100B300009D10A8848F2FF3002400A80088850F440
:100B40000040088013E03F2B07D218004008DA0766
:100B500000D5401C8002088009E01800400913F00D
:100B60001F0F00D1401E800250F4004008800EE0AC
:100B7000687801280BD121682068B0F8500041182E
:100B80002878C00011EB400101F204410B809BB2B8
:100B90002A896969206800F0F0FDFEE02068B0F85D
:100BA0005000297810EBC100216811EB400101F2DF
:100BB0000C410B889B059B0DA869190089B28842DE
:100BC00005D3A969180080B2091AA96101E00020C3
:100BD000A861A869002866D16878002814D1216826
:100BE0002068B0F8500041182878C00011EB40018F
:100BF00001F204410A8848F2FF3002400A80088866
:100C000050F4004008800FE0687801280CD121687A
:100C10002068B0F8500041182878C00011EB40015E
:100C200001F204410020088021686878002814D16E
:100C300021682068B0F8500041182878C00011EBF6
:100C4000400101F20C410A8848F2FF3002400A805C
:100C5000088850F4004008800EE0687801280BD125
:100C60002068B0F8500041182878C00011EB40010E
:100C700001F20C41002008802978200000F009FED4
:100C8000700400F18A802068297830F8211048F635
:100C90008F70014041F4404151F0800120682A7872
:100CA00020F8221079E070040ED42068297830F8FA
:100CB000211048F68F70014041F4404151F080010D
:100CC00020682A7820F8221095F82400012864D1A1
:100CD0006869190089B208446861E969180080B23E
:100CE0004118E961286A2969884204D32B69286A76
:100CF000C01A28620DE0286A002804D19BB20020A7
:100D000085F8240005E02B6A00202862002085F881
:100D100024002168687800282BD121682068B0F869
:100D2000500041182878C00011EB400101F20C413D
:100D3000002B09D10A8848F2FF3002400A80088857
:100D400050F40040088013E03F2B07D21800400801
:100D5000DA0700D5401C8002088009E0180040092D
:100D600013F01F0F00D1401E800250F40040088095
:100D70000DE0687801280AD12068B0F850004118C9
:100D80002878C00011EB400101F20C410B809BB2AE
:100D90006A896969206800F0F0FC2068297830F8D9
:100DA000211048F6BF70014091F0100191F0200130
:100DB00041F4004151F0800120682A7820F8221087
:100DC000002070BD80B51E481E49086008201D49DE
:100DD000486002201B49886000201A498861002071
:100DE0001849C8610020174908621648FFF77EF9C4
:100DF000002801D000F0B7FD01BD80B500681049A2
:100E000088421BD11048006850F400000E49086069
:100E10000D48006810F400000090009800220521A1
:100E2000132000F010FE132000F01EFE002205210A
:100E3000142000F008FE142000F016FE01BD000092
:100E4000005C0040901800201C1002400EB40020EE
:100E500003B070474FF43F41B0F8402032EA01013F
:100E6000A0F8401000207047002070470EB4012108
:100E7000A0F840100021A0F840100021A0F8441074
:100E80000021A0F85010002003B0704770B5040096
:100E90000E007078012840F0E5823069B16988421F
:100EA00001D2356900E0B569307B002812D12B00F2
:100EB0009BB2F2887169200000F05FFC2100B4F859
:100EC000500041183078C00011EB400101F204419C
:100ED0000D80B5E2F078022840F06A813069316A0D
:100EE000884280F04481307834F8201048F68F70C2
:100EF000014041F4014151F08001307824F8201084
:100F0000306A401B3062307834F82000400640F1EF
:100F100097802100707800282AD12100B4F8500071
:100F200041183078C00011EB400101F20C41002D56
:100F300009D10A8848F2FF3002400A80088850F43C
:100F40000040088013E03F2D07D228004008EA0740
:100F500000D5401C8002088009E02800400915F0F7
:100F60001F0F00D1401E800250F4004008800CE0AA
:100F70007078012809D1B4F8500041183078C000C9
:100F800011EB400101F20C410D8072892B009BB2E4
:100F900092B27169200000F0F0FB70692844706122
:100FA0003069316A884203D2306A401B306202E005
:100FB000356A00203062707800282AD12100B4F808
:100FC000500041183078C00011EB400101F204419B
:100FD000002D09D10A8848F2FF3002400A800888B3
:100FE00050F40040088013E03F2D07D2280040084D
:100FF000EA0700D5401C8002088009E0280040096B
:1010000015F01F0F00D1401E800250F400400880F0
:101010000DE0707801280AD12100B4F85000411881
:101020003078C00011EB400101F204410D8032899B
:101030002B009BB292B27169200000F09EFBFFE191
:10104000707800282AD12100B4F850004118307877
:10105000C00011EB400101F20441002D09D10A88C2
:1010600048F2FF3002400A80088850F400400880AF
:1010700013E03F2D07D228004008EA0700D5401CA6
:101080008002088009E02800400915F01F0F00D1F8
:10109000401E800250F4004008800DE07078012866
:1010A0000AD12100B4F8500041183078C00011EB8B
:1010B000400101F204410D8032892B009BB292B2B3
:1010C0007169200000F059FB706928447061306933
:1010D000316A884203D2306A401B306202E0356ACE
:1010E000002030622100707800282AD12100B4F855
:1010F000500041183078C00011EB400101F20C4162
:10110000002D09D10A8848F2FF3002400A80088881
:1011100050F40040088013E03F2D07D2280040081B
:10112000EA0700D5401C8002088009E02800400939
:1011300015F01F0F00D1401E800250F400400880BF
:101140000CE07078012809D1B4F8500041183078CB
:10115000C00011EB400101F20C410D8072892B009F
:101160009BB292B27169200000F007FB68E1336A1C
:10117000307834F8201048F68F60014041F4004187
:1011800051F08001307824F820102100B4F850008C
:1011900041183078C00011EB400101F204410B808E
:1011A00032899BB292B27169200000F0E6FA47E101
:1011B000307834F8201048F68F70014041F4014136
:1011C00051F08001307824F82010306A401B3062E2
:1011D000307834F82000400640F19A802100707881
:1011E00000282AD12100B4F8500041183078C000FE
:1011F00011EB400101F20C41002D09D10A8848F29F
:10120000FF3002400A80088850F40040088013E054
:101210003F2D07D228004008EA0700D5401C800275
:10122000088009E02800400915F01F0F00D1401E7A
:10123000800250F4004008800CE07078012809D149
:10124000B4F8500041183078C00011EB400101F2B1
:101250000C410D8072892B009BB292B27169200003
:1012600000F08BFA7069284470613069316A8842F5
:1012700003D2306A401B306202E0356A00203062DF
:10128000002D00F0DD80707800282AD12100B4F80C
:10129000500041183078C00011EB400101F20441C8
:1012A000002D09D10A8848F2FF3002400A800888E0
:1012B00050F40040088013E03F2D07D2280040087A
:1012C000EA0700D5401C8002088009E02800400998
:1012D00015F01F0F00D1401E800250F4004008801E
:1012E0000DE0707801280AD12100B4F850004118AF
:1012F0003078C00011EB400101F204410D803289C9
:101300002B009BB292B27169200000F036FA97E090
:10131000707800282AD12100B4F8500041183078A4
:10132000C00011EB400101F20441002D09D10A88EF
:1013300048F2FF3002400A80088850F400400880DC
:1013400013E03F2D07D228004008EA0700D5401CD3
:101350008002088009E02800400915F01F0F00D125
:10136000401E800250F4004008800DE07078012893
:101370000AD12100B4F8500041183078C00011EBB8
:10138000400101F204410D8032892B009BB292B2E0
:101390007169200000F0F1F97069284470613069CA
:1013A000316A884203D2306A401B306202E0356AFB
:1013B00000203062002D43D02100707800282AD10F
:1013C0002100B4F8500041183078C00011EB400102
:1013D00001F20C41002D09D10A8848F2FF30024089
:1013E0000A80088850F40040088013E03F2D07D29F
:1013F00028004008EA0700D5401C8002088009E068
:101400002800400915F01F0F00D1401E800250F443
:10141000004008800CE07078012809D1B4F8500031
:1014200041183078C00011EB400101F20C410D80F1
:1014300072892B009BB292B27169200000F09DF975
:10144000307834F8201048F6BF70014091F0100158
:1014500091F0200141F4004151F08001307824F8EE
:10146000201049E0307B002848D13069B1698842BA
:1014700004D23069B169091AB16102E0B069002192
:10148000B1612200B4F850108A183178C90012EB0B
:10149000410202F20C42002809D1118848F2FF30C3
:1014A00001401180108850F40040108013E03F2864
:1014B00007D201004908C00700D5491C88021080E6
:1014C00009E00100490910F01F0F00D1491E8802F0
:1014D00050F400401080307834F820104BF68F70B4
:1014E000014091F4805191F4005141F4004151F0D8
:1014F0008001307824F82010002070BDF078022898
:1015000040F0A380707800282ED12100B4F850005C
:1015100041183078C00011EB400101F204413069FC
:10152000002809D10A8848F2FF3002400A80088862
:1015300050F40040088016E030693F2808D2306936
:101540004008327CD20700D5401C800208800AE0A7
:1015500030694009327C12F01F0F00D1401E80021A
:1015600050F4004008800EE0707801280BD1210073
:10157000B4F8500041183078C00011EB400101F27E
:101580000441306908802100707800282ED12100A4
:10159000B4F8500041183078C00011EB400101F25E
:1015A0000C413069002809D10A8848F2FF30024016
:1015B0000A80088850F40040088016E030693F280F
:1015C00008D230694008327CD20700D5401C800226
:1015D00008800AE030694009327C12F01F0F00D108
:1015E000401E800250F4004008800DE07078012811
:1015F0000AD1B4F8500041183078C00011EB400116
:1016000001F20C4130690880F06900283FF463AFB3
:10161000307834F8200044F24001014044F24002A6
:10162000914204D044F2400108427FF454AF307834
:1016300034F8201048F68F70014041F4004151F019
:10164000C001307824F8201045E7F078012840F0F8
:1016500085803069B169884204D23069B169091A5C
:10166000B16102E0B0690021B161717800292AD12D
:101670002200B4F850108A183178C90012EB4102E8
:1016800002F20442002809D1138848F2FF310B40CE
:101690001380118851F40041118013E03F2807D2D4
:1016A00001004908C30700D5491C8902118009E0DF
:1016B0000100490910F01F0F00D1491E890251F4A1
:1016C000004111800DE0717801290AD12200B4F89F
:1016D00050108A183178C90012EB410202F204421C
:1016E00010802200717800292AD12200B4F850100D
:1016F0008A183178C90012EB410202F20C4200282C
:1017000009D1118848F2FF3001401180108850F44F
:101710000040108013E03F2807D201004908C007AD
:1017200000D5491C8802108009E00100490910F029
:101730001F0F00D1491E880250F4004010800CE0B9
:101740007178012909D1B4F850108A183178C9008C
:1017500012EB410202F20C421080BCE60120CCE602
:10176000C9B2002902D18021A0F84C100020704796
:1017700000207047B0F84400704710B49BB25B1C67
:101780005B0892B210EB420010F580600AE00A7824
:10179000491C0C782402A4B222430280801C801CC5
:1017A000491C5B1E002BF2D110BC704710B41C000A
:1017B000A4B2640892B210EB420010F5806008E019
:1017C0000288801C0A70491C120A0A70491C801C7D
:1017D000641E002CF4D1DA0701D50088087010BC13
:1017E0007047010262B38B0708D0521E11F8013B0B
:1017F00000F8013B00F024808B07F6D1830740F00E
:10180000208000BF103A07D330B4B1E83810103A46
:10181000A0E83810F9D230BC530724BFB1E8081053
:10182000A0E8081044BF51F8043B40F8043BD2073D
:1018300024BF31F8022B20F8022B44BF0B78037031
:101840007047121F17D35B0009D151F8043B20F8F1
:10185000023B1B0C121F20F8023BF6D20BE051F8A2
:10186000043B00F8013B1B0A20F8023B1B0C121F33
:1018700000F8013BF3D238BF121D521E24BF11F8ED
:10188000013B00F8013BF8D870477047704770473C
:10189000704770477047704780B500F0FFF800F060
:1018A00017F800F00FF900F099F9FFF78BFA00F044
:1018B00063FA00F01BFD00F04DFD00F0B3FD00F0F9
:1018C00004FE00F0B7FF01F0E9F900F0D5FFFEE7F4
:1018D00000B593B009A8282101F070FA04A81421DA
:1018E00001F06CFA6846102101F068FA05200990B1
:1018F0005FF480300A9000200B9001200C900120B2
:101900000D90022010905FF4803011905FF4E01091
:10191000129009A801F056FA002801D000F023F82F
:101920000F20049002200590002006904FF4806064
:10193000079000200890022104A801F080FC0028F4
:1019400001D000F010F8112000904FF48070019049
:1019500000200390684601F0ABFD002801D000F0A4
:1019600002F813B000BD72B6FEE7010210F00700E6
:1019700042490A684FF6FF010A40414951EA0021F5
:101980000A433E48026070473C480068C0F30220AA
:101990007047010049B2002908D4012210F01F014C
:1019A0008A40384940B2400941F82020704702007F
:1019B00052B2002A04D40901334A40B2115407E05C
:1019C0000901324A40B210F00F00104400F8041C24
:1019D000704710B410F00700D0F10703052B01D3B6
:1019E000042301E0D0F10703041D072C01D20020DD
:1019F00000E0C01E012414FA03F35B1E194081406D
:101A0000012313FA00F0401E1040084310BC704739
:101A100080B5411EB1F1807F01D301200EE0401E50
:101A20001B4908600F215FF0FF30FFF7C0FF002067
:101A300018490860072018490860002002BD80B5D9
:101A4000FFF794FF01BD70B504000D0016000020E3
:101A5000FFF79AFF32002900FFF7BBFF01002000CB
:101A600040B2FFF7A4FF70BD80B540B2FFF791FF11
:101A700001BD80B5FFF7CCFF02BD00000CED00E01A
:101A80000000FA0500E100E000E400E018ED00E0ED
:101A900014E000E018E000E010E000E080B5084845
:101AA000006850F01000064908600320FFF7C7FFE8
:101AB0000F2001F005FE01F029FE002002BD00000C
:101AC0000020024000B585B06846102101F076F98B
:101AD0003E48006850F010003C4908603B480068F0
:101AE00010F01000049004983848006850F020006E
:101AF000364908603548006810F0200004900498CA
:101B00003248006850F00400304908602F480068EF
:101B100010F00400049004982C48006850F008006D
:101B20002A4908602948006810F0080004900498C9
:101B3000002240F20331264801F0F8FE002248F26C
:101B40000201244801F0F2FE00220821224801F09F
:101B5000EDFE40F203300090012001900020029041
:101B60000220039069461A4801F0FEFD1C200090F7
:101B700000200190002002906946154801F0F4FD14
:101B800048F2020000900120019000200290022003
:101B9000039069460F4801F0E7FD4FF44C60009058
:101BA000122001900320039069460B4801F0DCFDF0
:101BB0000820009001200190002002900220039054
:101BC0006946054801F0D0FD05B000BD181002407F
:101BD0000010014000080140000C014080B55E4843
:101BE0005E49086004205D49486000205B498860C8
:101BF0005FF040705949C8605FF4002057490861A0
:101C00005FF4E000554948610020544908760020FF
:101C10005249487600205149887600204F49C876BD
:101C200000204E49087700204C4948774B4801F086
:101C3000A7FE002801D0FFF796FE01BD18B585B0BC
:101C4000040001A8102101F0B9F820684249884237
:101C50004FD14348006850F0007041490860404847
:101C6000006810F00070009000983E48006850F046
:101C700008003C4908603B48006810F008000090EC
:101C800000984FF480700190002002900020039093
:101C900001A9354801F068FD4FF400700190022061
:101CA00002900320049001A92F4801F05DFD2F4808
:101CB000006830F4C04050F0E06050F480402B49A0
:101CC0000860002205211320FFF7BDFE1320FFF757
:101CD000CBFE002205211420FFF7B5FE1420FFF7EC
:101CE000C3FE002205211520FFF7ADFE1520FFF7EA
:101CF000BBFE06B010BD00B589B068461C49D1E9ED
:101D00000023C0E9002340F2016000210691002178
:101D10000591039000208DF82000082007900F48BF
:101D200001F0E4FE9DF80700401C8DF80700114803
:101D3000008880B2000A8DF800000E4800888DF8F7
:101D4000010002AB6A4603A9044801F0FDFE012030
:101D500000F048FEE6E70000006400400C2200208E
:101D60001C10024018100240000C01400400014009
:101D70008C7B00080024002080B5DFF82405DFF804
:101D8000241508604FF49640DFF8181548600020CD
:101D9000DFF8101588600020DFF80815C860002003
:101DA000DFF8001508610C20DFF8F8144861002006
:101DB000DFF8F01488610021DFF8E80402F062F82F
:101DC000002801D0FFF7CFFD01BD18B585B0040094
:101DD00001A8102100F0F2FF2068DFF8C414884247
:101DE0003DD1DFF8C404006850F48040DFF8B81437
:101DF0000860DFF8B404006810F480400090009898
:101E0000DFF8A404006850F00400DFF89C140860B8
:101E1000DFF89404006810F00400009000984FF47C
:101E200000700190022002900320049001A9DFF8C5
:101E30007C0401F099FC4FF4806001900020029036
:101E40000120039001A9DFF8640401F08DFC002259
:101E500006212520FFF7F7FD2520FFF705FE06B038
:101E600010BD80B50068DFF83814884218D101220F
:101E7000DFF83C14DFF82C0402F078F8DFF83004C7
:101E80000078DFF83014DFF82C24127B8854DFF858
:101E90002404007B401CDFF81C14087300F024F8B5
:101EA00001BD10B40200507B3C2802D0507B3D287D
:101EB00001D1002000E0907B00230BE01900C9B2A3
:101EC0001144097C0818010089B210EB112000F0C0
:101ED000FF005B1C1900D47BC9B2A142EED3C0B293
:101EE000C043C0B210BC704780B500200090DFF83E
:101EF000C803007800280AD001281AD002282BD065
:101F0000032800F0EE80052800F012811BE100207C
:101F1000DFF8A0130873DFF89C030078002807D1CE
:101F20000120DFF8941308700120DFF8881308738C
:101F30000CE1DFF880034078552804D10220DFF857
:101F40007813087007E00020DFF86C130870002099
:101F5000DFF860130873F9E0DFF85803807803288E
:101F600061D10420DFF8501308700820DFF8441313
:101F7000C8730320DFF83C134873DFF83803407B55
:101F800010F00100012190FBF1F1DFF82803407B04
:101F900010F00200022290FBF2F04140DFF814033F
:101FA000407B10F00400042290FBF2F04140C14855
:101FB000407B10F01000102290FBF2F041404020D6
:101FC0004143BC48407B10F00200022290FBF2F239
:101FD000B848407B10F00800082390FBF3F0424023
:101FE000B448407B10F01000102390FBF3F0424007
:101FF000B048407B10F02000202390FBF3F04240DB
:1020000092F00102802000FB0211AA48407B10F0F0
:102010003F004118A74881736A460121A74800681C
:1020200002F063FB5CE0A3488078C42855D103200C
:10203000A149087004209F4948739E48407B10F0D6
:102040000100012190FBF1F19A48407B10F0020061
:10205000022290FBF2F041409648407B10F00400D1
:10206000042290FBF2F041409248407B10F01000B7
:10207000102290FBF2F04140402041438D48407BCC
:1020800010F00200022290FBF2F28A48407B10F02E
:102090000800082390FBF3F042408648407B10F094
:1020A0001000102390FBF3F042408248407B10F078
:1020B0002000202390FBF3F0424092F001028020A8
:1020C00000FB02117B48407B10F03F00411879482B
:1020D000817308207749C87302E0052076490870AB
:1020E00034E07448007B7349C97B091D88421EDBBC
:1020F00000200AE06F490200D2B21144C9786D4A4B
:102100000300DBB21A441174401C0100694AD27BFF
:10211000C9B29142EED36A4602216848006802F0D3
:10212000E4FA0020644908700020624908730DE059
:102130006048007B0C2805DB00205F490870002008
:102140005C49087302E000205B49087001BD5948F2
:10215000407B04281CD1002009E056490200D2B27D
:102160001144097C564A0300DBB2D154401C0100E3
:10217000504AD27BC9B29142EFD3514800785149BD
:1021800008804F48B0F801100A2041434E480180B2
:10219000704780B500234D494D48006800F01AFD96
:1021A0004A48018840F64850414349F6F67091FB91
:1021B000F0F048490860454800884749087043489E
:1021C000008880B2000A4449487042480068424989
:1021D000887040480068000A3F49C87001BDE0B5FA
:1021E000012208213D4801F0A1FB012201A92D484F
:1021F00001F0E9FF02F06EF93049086002212F4832
:10220000006802F00BFA36E035480078800730D5D8
:102210002848407B04282CD1FFF799FF29E02E495C
:102220000200D2B2895C234A0300DBB21A44117463
:10223000401C01001F4AD27BC9B29142EFD31D4816
:10224000FFF72FFE1B4908761A48C27B92B2254938
:10225000144801F061FE0028F6D1012222491148FC
:1022600001F05AFE0028F8D1012201A90D4801F021
:10227000AAFFFFF78EFF0120009000230122032117
:102280000E48006802F036F91549086014480078D5
:10229000C007B9D50748407B0328EAD10020C8E72A
:1022A000003801404C210020181002400008014075
:1022B000152400205422002014240020E4230020B0
:1022C00018230020062400200424002008240020D5
:1022D00040230020E823002020230020000C0140A0
:1022E000E0230020642200206C22002080B51548E5
:1022F000154908605FF0FF30134948604FF4807063
:1023000011498860104802F0FDF9002801D0FFF75C
:102310002AFB01BD80B500680A49884210D102F04D
:10232000BDFA0A48006850F0006008490860074894
:10233000006810F0006000900098012004490860D7
:1023400001BD000000280040702200201C10024047
:102350003C04424280B52F482F4908604FF48270F8
:102360002D4948604FF400402B49886000202A49DD
:10237000C8600020284908610020274948614FF4BF
:1023800000702549886120202349C8610020224926
:10239000086200202049486200201F4988620A2004
:1023A0001D49C8621C4802F07FFA002801D0FFF7DF
:1023B000DAFA01BD18B585B0040001A8102100F0BB
:1023C000FDFC20681349884221D11448006850F46C
:1023D0008050124908601148006810F48050009045
:1023E00000980E48006850F004000C4908600B4843
:1023F000006810F0040000900098E0200190022096
:1024000002900320049001A9054801F0ADF906B03F
:1024100010BD000000300140D41E00201810024002
:102420000008014080B586B0DFF8AC03D0E9002396
:10243000CDE9002302A8102100F0C0FCDFF89C03C6
:10244000DFF89C1308604720DFF8941348600020F1
:10245000DFF88C1388604FF6FF70DFF88413C860D4
:102460000020DFF87C1308610120DFF87413486155
:102470000020DFF86C138861DFF8640302F016FBBC
:10248000002801D0FFF76FFA002000900020019093
:102490006946DFF84C0302F027FF002801D0FFF760
:1024A00062FA022002900120039000200490002094
:1024B0000590002202A9DFF8280302F0A2FC002800
:1024C00001D0FFF750FA07B000BD00B589B0DFF8C2
:1024D0001403D0E90023CDE9002302A81C2100F059
:1024E0006DFCDFF80403DFF8041308602320DFF835
:1024F000FC1248600020DFF8F41288606320DFF8E7
:10250000EC12C8600020DFF8E41208610020DFF858
:10251000DC128861DFF8D40202F028FA002801D02A
:10252000FFF721FA00200090002001906946AF4893
:1025300002F0DAFE002801D0FFF715FA60200290C1
:10254000002003900020049000200690002202A9A1
:10255000A64802F0BAFC002801D0FFF704FA0422D2
:1025600002A9A24802F0B1FC002801D0FFF7FBF954
:102570009E4800F04DF809B000BD18B585B00400C4
:1025800001A8102100F01AFC2068944988422AD141
:102590009748006850F400609549086094480068C6
:1025A00010F40060009000989148006850F004001A
:1025B0008F4908608E48006810F004000090009871
:1025C0004FF480700190002002900220039001A936
:1025D000884801F0C9F8002205211B20FFF733FAD3
:1025E0001B20FFF741FA06B010BD81B000687E499C
:1025F00088420BD18048006850F002007E49086094
:102600007D48006810F002000090009801B070470B
:1026100018B585B0040001A8102100F0CFFB206898
:10262000714988421FD17248006850F0100070490B
:1026300008606F48006810F0100000900098C020FB
:102640000190022002900220049001A96B4801F041
:102650008BF86B48006830F4406050F0E06050F454
:1026600040606749086006B010BD38B584B004000A
:102670000D00684663491022FFF7C4F803200021CB
:10268000002207E01100C9B2615C48406946C0B24F
:10269000085C521C11002B00C9B2DBB29942F1D385
:1026A000C0B205B030BD80B500684C49884267D1E2
:1026B00000214B4802F081FC5349086053480068F0
:1026C00051490968884207D24F4801684F4800685D
:1026D000091A4F48016008E04B48016811F5803144
:1026E0004A480068091A4A480160494800689F380A
:1026F000132802D200204749087045480068401E50
:102700000321B0FBF1F00B384349424A1278885458
:102710004048007808282EDB06214048FFF7A5FF37
:102720003D4948773C48407F3B49097A884222D15D
:10273000394881784FF480723748C07880B2000100
:1027400002FB0101344800794118354801803448C2
:1027500001880A2041433248018032480088401CE9
:1027600030490880002300222D492F48006800F0DE
:10277000E8F900F018F927480078401C254908704E
:10278000214800682149086001BD80B50021174833
:1027900002F023F90421154802F01FF90021104826
:1027A00002F0BEF901F096FE204908605FF0FF30AC
:1027B00000900123012201211C48006801F09AFECB
:1027C0001B48008809490968486319484088074937
:1027D00009688863EAE70000BC7B0008002C014020
:1027E000BC200020C47B000800040040042100201D
:1027F00018100240000801401C1002400010014067
:1028000004000140547B0008C0230020C4230020A2
:10281000C823002013240020342200203622002068
:10282000002400200224002040230020BC2300209C
:10283000B8230020EFF3058000280CD1EFF31080BF
:10284000002808D1DFF8D4010068022806D1EFF390
:102850001180002802D07FF005000CE0DFF8BC01F9
:102860000068002805D10120DFF8B01108600020C1
:1028700001E05FF0FF30704780B5EFF3058000287E
:102880000CD1EFF31080002808D1DFF89001006828
:10289000022806D1EFF31180002802D07FF0050056
:1028A0000EE0DFF878010068012807D10220DFF888
:1028B0006C11086002F0B3FE002001E05FF0FF3011
:1028C00002BDF0B585B000230493EFF30583002B20
:1028D00066D1EFF31083002B62D1DFF840311B6823
:1028E000022B03D1EFF31183002B59D10300002BEE
:1028F00056D08025182300248DF80C4003AC5FF0DF
:10290000FF36002A2ED01768002F00D01468976970
:10291000002F00D09369002B04D0392B02D21779F5
:10292000FF0701D500203CE05769002F01D0556911
:10293000AD089768002F0AD0D7685C2F07D31769B6
:10294000002F04D05769002F01D001260BE09768B3
:10295000002F08D1D768002F05D11769002F02D1A9
:10296000002600E00026012E0BD19668029612691F
:10297000019200930B002A00210002F0F3FC049066
:102980000EE0002E0CD104AA019200930B002A0045
:1029900092B2210002F027FD012801D0002004900E
:1029A000049805B0F0BDEFF3058000280CD1EFF3DB
:1029B0001080002808D1DFF864000068022806D1E2
:1029C000EFF31180002802D07FF0050009E000201D
:1029D0005FF08051DFF8B4201160BFF34F8FBFF379
:1029E0006F8F704710B5EFF3058100290CD1EFF31D
:1029F0001081002908D1DFF898100968022906D152
:102A0000EFF31181002902D07FF0050404E00024D7
:102A1000002801D002F0DDFD200010BD2823002099
:102A200080B50021EFF30582002A2DD1EFF310824B
:102A3000002A29D1DFF84C221268022A03D1EFF3D1
:102A40001182002A20D15FF0FF3300280FD0826866
:102A5000002A04D0C268202A01D3012308E082683A
:102A6000002A05D1C268002A02D1002300E0002319
:102A7000012B04D1806801F009FD010004E0002B66
:102A800002D101F027FD0100080002BD04ED00E0C5
:102A9000282300207CB514000025EFF30582002ACE
:102AA0004DD1EFF31082002A49D1DFF8D821126806
:102AB000022A03D1EFF31182002A40D100283ED030
:102AC00000293CD05FF0FF33002C1DD0A268002A03
:102AD0000CD0E268502A09D32269002A06D0626924
:102AE00001FB00F6B24201D301230EE0A268002AE6
:102AF0000BD1E268002A08D12269002A05D1626957
:102B0000002A02D1002300E00023012B07D100227C
:102B10000092A368226903F012FA050005E0002B79
:102B200003D1002203F05EFA0500002D07D0002C2F
:102B300001D0216800E00021280003F079FD280081
:102B400076BD38B51C000025EFF30582002A0BD1B5
:102B5000EFF31082002A07D14A4A1268022A23D1D1
:102B6000EFF31182002A1FD0002803D0002901D0E2
:102B7000002C02D07FF003052AE0002200920023FF
:102B80006A4603F033FB012802D07FF002051FE004
:102B9000009800281CD05FF080503B490860BFF3CC
:102BA0004F8FBFF36F8F13E0002801D0002902D1AF
:102BB0007FF003050CE00023220003F04CFA01280B
:102BC00006D0002C02D07FF0010501E07FF0020565
:102BD000280032BD38B51C000025EFF30582002A1D
:102BE0000BD1EFF31082002A07D1264A1268022A7D
:102BF00022D1EFF31182002A1ED0002803D0002931
:102C000001D0002C02D07FF0030528E000220092C2
:102C10006A4603F009FC012802D07FF002051EE09D
:102C2000009800281BD05FF0805017490860BFF360
:102C30004F8FBFF36F8F12E0002801D0002902D11F
:102C40007FF003050BE0220003F03EFB012806D0D5
:102C5000002C02D07FF0010501E07FF00205280082
:102C600032BD0000094B03600948086080201060F5
:102C70007047084B0360084808604FF4807010608C
:102C8000704700002823002004ED00E01C1E0020F7
:102C90007C1B0020781E00209014002080B52E4A56
:102CA00002210120FFF7F6FE2C4908602C4A022180
:102CB0000120FFF7EFFE2B4908602B4A012101207C
:102CC000FFF7E8FE29490860294A02210220FFF7A0
:102CD000E1FE28490860284A00210FF25100FFF761
:102CE000F0FD26490860264A00212648FFF7E9FD45
:102CF00025490860254A00212548FFF7E2FD2549BE
:102D00000860254A00212548FFF7DBFD24490860BB
:102D1000244A00212448FFF7D4FD244908602448B0
:102D2000FFF77EFE2349086001BD000080B5012247
:102D30004FF48071204800F0F9FD4FF4FA70FFF76E
:102D400051FE00224FF480711B4800F0EFFD4FF45C
:102D5000FA70FFF747FEEAE7A47A00084023002054
:102D6000BC7A000844230020D47A000848230020BD
:102D7000EC7A00084C230020387900082C2300202E
:102D80005C790008F71C00083023002080790008D7
:102D9000DF21000834230020A47900088B270008D5
:102DA00038230020C87900080D7700083C23002054
:102DB000147B00085423002000100140002203F07F
:102DC00071BC00007CB50400002C01D1012035E26B
:102DD0002078C00740F18480DFF89006006810F08A
:102DE0000C0004280BD0DFF88406006810F00C00FB
:102DF00008280ED1DFF874060068C00309D5DFF893
:102E00006806006880036BD56068002868D10120DF
:102E100014E26068B0F5803F08D1DFF84C06006826
:102E200050F48030DFF84016086038E06068002811
:102E300010D1DFF83406006830F48030DFF828164F
:102E40000860DFF82406006830F48020DFF81816E8
:102E5000086024E06068B0F5A02F10D1DFF8080604
:102E6000006850F48020DFF800160860DFF8F805ED
:102E7000006850F48030DFF8F01508600FE0DFF8EC
:102E8000E805006830F48030DFF8DC150860DFF812
:102E9000D805006830F48020DFF8CC150860606841
:102EA00000280ED003F018FC0500DFF8BC05006810
:102EB000800315D403F010FC401B6528F5D30320D4
:102EC000BCE103F009FC0500DFF89C050068800305
:102ED00006D503F001FC401B6528F5D30320ADE1C6
:102EE0002078800726D5DFF88405006810F00C0FE5
:102EF0000BD0DFF87805006810F00C00082833D1FB
:102F0000DFF868050068C0032ED4DFF85C050068B0
:102F1000800704D52069012801D001208EE1DFF867
:102F20004805006830F0F800616950EAC100DFF838
:102F300038150860207800074ED5A069002800F0F9
:102F400081800120DFF83815086003F0C5FB05001B
:102F5000DFF82805006880073BD403F0BDFB401B69
:102F60000328F5D3032069E1206900281ED0012041
:102F7000DFF81015086003F0AFFB0500DFF8E80488
:102F80000068800706D403F0A7FB401B0328F5D395
:102F9000032053E1DFF8D004006830F0F8006169E5
:102FA00050EAC100DFF8C0140860C3E70020DFF872
:102FB000D414086003F090FB0500DFF8AC0400684F
:102FC0008007B7D503F088FB401B0328F5D3032007
:102FD00034E1012000F035FA2078400740F1B98053
:102FE0000025DFF8A4040068C0000FD4DFF89804BF
:102FF000006850F08050DFF890140860DFF8880413
:10300000006810F08050009000980125DFF87C04E3
:103010000068C00529D4DFF87404006850F480709B
:10302000DFF86814086003F057FB0600DFF85C0463
:103030000068C00519D403F04FFB801B6528F5D349
:103040000320FBE00020DFF83814086003F044FBA5
:103050000500DFF8280400688007BDD503F03CFBBD
:10306000401B0328F5D30320E8E0E068012808D1DD
:10307000DFF81C04006850F00100DFF81414086049
:1030800037E0E068002810D1DFF804040068400849
:103090004000DFF8FC130860DFF8F403006830F04C
:1030A0000400DFF8EC13086023E0E068052810D185
:1030B000DFF8DC03006850F00400DFF8D413086088
:1030C000DFF8CC03006850F00100DFF8C41308609B
:1030D0000FE0DFF8BC03006840084000DFF8B013E1
:1030E0000860DFF8AC03006830F00400DFF8A013DC
:1030F0000860E068002810D003F0EEFA0600DFF860
:1031000090030068800719D403F0E6FA801B41F2AF
:1031100089318842F3D3032090E003F0DDFA060002
:10312000DFF86C030068800708D503F0D5FA801B30
:1031300041F289318842F3D303207FE0EDB2012DC3
:1031400007D1DFF84403006830F08050DFF838130F
:103150000860E069002870D0DFF81003006810F004
:103160000C00082855D0E06902283FD10020DFF884
:103170002413086003F0B0FA0500DFF8EC020068E1
:10318000800106D503F0A8FA401B0328F5D30320DD
:1031900054E0206AB0F5803F09D1DFF8D002016821
:1031A00031F40031A0680143DFF8C0020160DFF8AC
:1031B000BC02016831F47411206A0143606A014362
:1031C000DFF8A80201600120DFF8C812086003F0F0
:1031D00083FA0400DFF89002006880012DD403F028
:1031E0007BFA001B0328F5D3032027E00020DFF83B
:1031F000A412086003F070FA0400DFF86C020068A3
:1032000080011AD503F068FA001B0328F5D30320C8
:1032100014E0E069012801D101200FE0DFF84C0241
:10322000006810F48031226A914204D110F47010C9
:10323000616A884201D0012000E0002076BD70B5AF
:1032400004000D00002C01D10120AEE0DFF848029F
:10325000006810F00700A84211D2DFF83C020068B5
:10326000C008C0002843DFF830120860DFF82802E9
:10327000006810F00700A84201D0012095E02078F6
:1032800080071FD52078400707D5DFF8E0010068E8
:1032900050F4E060DFF8D41108602078000707D50B
:1032A000DFF8C801006850F46050DFF8C011086012
:1032B000DFF8B801016831F0F001A0680143DFF8E0
:1032C000AC0101602078C00733D56068012805D1C2
:1032D00065480068800310D4012066E06068022819
:1032E00005D161480068800107D401205DE05E4897
:1032F0000068800701D4012057E05C480168890814
:103300008900606801435948016003F0E5F906004F
:103310005648006810F00C006168B0EB810F08D0CF
:1033200003F0DAF9801B41F289318842F0D303209F
:103330003BE05948006810F0070085420ED256481D
:103340000068C008C000284353490860524800681C
:1033500010F00700A84201D0012026E020784007A5
:1033600007D54248016831F4E061E06801433F4815
:1033700001602078000708D53C48006830F46050B0
:10338000216950EAC1003949086000F00FF843494B
:10339000364A1268C2F30312895CC8403549086096
:1033A0003548006800F08CF9002070BD00B585B08C
:1033B00001A83B491022FEF725FA3A480088ADF8EB
:1033C0000000002000200020002000202748016885
:1033D00011F00C00042802D0082802D015E024487F
:1033E00014E001A8C1F38342805CC9030AD5694691
:1033F0001E4A1268C2F340428A5C1D494843B0FB32
:10340000F2F001E02849484300E0194805B000BD4A
:1034100018480068704780B5FFF7FAFF2349134A40
:103420001268C2F30222895CC84002BD80B5FFF772
:10343000EFFF1E490D4A1268C2F3C222895CC840E0
:1034400002BD81B00B490968C9084FF47A72B1FB1B
:10345000F2F14843009000BF0098411E00910028FF
:10346000F9D101B070470000001002400410024082
:1034700000127A00280000202400002024100240BE
:1034800080044242000042421C1002400070004092
:10349000201002406000424200200240447B0008AD
:1034A000247B0008E217000800093D00AC7B0008FF
:1034B0007CB50400002000202078C00763D50025DB
:1034C00074480068C0000CD47248006850F0805006
:1034D000704908606F48006810F0805000900098B4
:1034E00001256D480068C00513D46B48006850F48E
:1034F00080706949086003F0EFF8060066480068CC
:10350000C00506D403F0E8F8801B6528F6D3032035
:1035100050E06248006810F44070002822D06168D2
:1035200011F4407188421DD05C48006830F440704E
:1035300001215B4A11600021594A11605749086016
:10354000C0070FD503F0C8F806005448006880078C
:1035500008D403F0C1F8801B41F289318842F4D3CA
:10356000032027E04D48016831F440716068014351
:103570004A480160EDB2012D05D14648006830F09F
:103580008050444908602078800707D54548016885
:1035900031F44041A0680143424801602078C006F0
:1035A00007D54048016831F48001E06801433D4897
:1035B0000160002076BD18B585B0040001A83A4925
:1035C0001022FEF71FF939480088ADF800000020EE
:1035D0000021002000200020012C2AD0022C4BD0FA
:1035E000102C54D12F4A1268314B1B68DB011FD5B8
:1035F00001A8C2F38343C35CD0030CD56846294CB1
:103600002468C4F34044005DD20307D52949B1FBC7
:10361000F0F1594302E0190027484143214800686E
:10362000400201D5080003E048000321B0FBF1F09F
:103630002DE01A49096840F202320A40B2F5817F52
:1036400002D14FF4004016E011F44072B2F5007F51
:1036500006D11A4A1268920702D549F640400AE09C
:1036600011F44071B1F5407F05D111490968890312
:1036700001D54FF224400AE0FFF7D8FE0949096856
:10368000C1F38131491C4900B0FBF1F0FFE706B0FE
:1036900010BD00001C1002400070004020100240CD
:1036A0004004424204100240347B00086A190008BA
:1036B0000010024000127A0000093D002410024070
:1036C00010B504004FF47A700D490978B0FBF1F0A1
:1036D0000C490968B1FBF0F0FEF7CBF9002801D0E6
:1036E00001200CE0102C09D2002221005FF0FF30F5
:1036F000FEF7A9F904480460002000E0012010BD95
:103700002C000020280000202400002080B5134851
:10371000006850F00100114908601048006810F07E
:103720000100009000980E48006850F080500C494D
:1037300008600B48006810F080500090009800224C
:103740000F217FF00100FEF77EF90648006830F097
:10375000E06050F000700349086001BD181002409D
:103760001C10024004000140F8B4020000230025B0
:103770001AE0DFF8CC01006830EA0404DFF8C00189
:10378000046010E0DFF8BC010068A043DFF8B4611A
:10379000306048688002ECD5DFF8A401006804437B
:1037A000DFF89C0104605B1C0868D840002800F02A
:1037B000BB8001269E400C683440B442F3D1486877
:1037C000002827D001281AD002281DD003282FD086
:1037D000112816D012281AD05B4FB8421AD05B4F6E
:1037E000B84217D05A4FB84214D05A4FB84211D0ED
:1037F000594FB8420ED0594FB8420BD01AE0CD689D
:1038000018E0CD682D1D15E0CD68083512E0CD68B3
:103810000C350FE08868002801D1042507E088688E
:10382000012802D10825166101E00825566101E052
:103830000025FFE7B4F5807F01D2100000E0101DE5
:10384000B4F5807F01D29E0002E0B3F10806B60015
:1038500007685FF00F0C1CFA06FC37EA0C0715FA34
:1038600006F63E4306604868C0009CD53C480068A8
:1038700050F001003A4E30603948006810F0010005
:103880000090009837481E00B60850F826600F27B1
:1038900013F00300C0B280008740BE43324882422A
:1038A00001D100270FE03148824201D101270AE00F
:1038B0002F48824201D1022705E02E48824201D1E1
:1038C000032700E0042713F00300C0B28000874004
:1038D0003E4324481F00BF0840F827604868C003E3
:1038E00005D5254800682043234E306004E0224877
:1038F0000068A043204E30604868800305D51F480B
:10390000006820431D4E306004E01C480068A0435E
:103910001A4E30604868C0027FF534AF094800682D
:103920002043084E306034E7F1BC7047D2B2002A21
:1039300002D089B2016102E089B2090401617047D5
:103940000C04014008040140000011100000121096
:103950000000211000002210000031100000321081
:10396000181002400800014000080140000C01400E
:103970000010014000140140000401400404014013
:1039800038B50400002C01D10120AEE094F82000ED
:10399000002802D12000FEF751F92068006850F09D
:1039A00001002168086002F097FE05002068406869
:1039B000C0070DD402F090FE401B0B28F6D3606ABE
:1039C00050F400306062052084F8200001208CE073
:1039D0002068006830F002002168086002F07CFE78
:1039E00005002068406880070DD502F075FE401B79
:1039F0000B28F6D3606A50F400306062052084F82A
:103A00002000012071E0207E012806D12068006896
:103A100050F080002168086005E02068006830F000
:103A2000800021680860607E012806D12068006857
:103A300050F040002168086005E02068006830F020
:103A4000400021680860A07E012806D12068006837
:103A500050F020002168086005E02068006830F020
:103A6000200021680860E07E012806D120680068F7
:103A700030F010002168086005E02068006850F010
:103A8000100021680860207F012806D120680068A6
:103A900050F008002168086005E02068006830F0F8
:103AA000080021680860607F012806D1206800684E
:103AB00050F004002168086005E02068006830F0DC
:103AC000040021680860A168E0680143206901439F
:103AD000606901436068401E01432068C1610020A5
:103AE0006062012084F82000002032BD38B5040057
:103AF00094F82000012821D1022084F820002068B9
:103B00000068400840002168086002F0E5FD0500FB
:103B100020684068C0070DD502F0DEFD401B0B2871
:103B2000F6D3606A50F400306062052084F820000B
:103B3000012008E000206062002004E0606A50F488
:103B400000206062012032BD70B490F820500468FB
:103B5000A6688C68002CFFD02C00E4B2012C02D0A7
:103B6000EDB2022D6ED116F0E05F65D0C6F30164B0
:103B7000032C05D3416A51F400014162012066E043
:103B80000125A5401D608B68002B09D10B68CD680D
:103B900055EA4355036826013344C3F880510AE0CF
:103BA0004B688D6855EAC305CB681D430368260141
:103BB0003344C3F880510B69056826013544C5F8C4
:103BC0008431097D01290BD1016823011944D1F801
:103BD000841151F48071036825012B44C3F88411CA
:103BE000D17993791B0453EA0163517953EA012394
:103BF00011790B43016825012944C1F88C31D17832
:103C000093781B0453EA0163517853EA0123117836
:103C10000B43016822011144C1F888310168220177
:103C20001144D1F8801151F00101006822011044C3
:103C3000C0F8801100200AE0416A51F4001141628D
:103C4000012004E0416A51F480214162012070BCEE
:103C500070472DE9F84F0500002428684669286858
:103C600047682868D0F808802868D0F80C90286841
:103C7000D0F810A02868D0F818B0F00755D55FEA42
:103C8000C87018D50120296888605FEA887003D55C
:103C9000280002F027FD0EE05FEA487002D554F4D8
:103CA000006408E05FEA087002D554F4805402E032
:103CB000280002F018FD5FEAC85019D54FF4807053
:103CC000296888605FEA885003D5280002F00CFD5F
:103CD0000EE05FEA485002D554F4005408E05FEA71
:103CE000085002D554F4804402E0280002F0FDFCA4
:103CF0005FEAC83019D55FF48030296888605FEAD0
:103D0000883003D5280002F0F1FC0EE05FEA48306D
:103D100002D554F4004408E05FEA083002D554F4B8
:103D2000803402E0280002F0E2FC300707D55FEAA9
:103D3000C96004D554F4007410202968C860700765
:103D400008D55FEA097005D508202968C8602800F1
:103D500002F0CEFCB00707D52868C06810F0030F4A
:103D600002D0280002F0C5FC700607D55FEACA60E1
:103D700004D554F48064102029680861B00608D581
:103D80005FEA0A7005D5082029680861280002F05A
:103D9000B1FCF00607D52868006910F0030F02D0C7
:103DA000280002F0A8FCB00307D5F80605D51020BE
:103DB00029684860280002F09FFCF00307D5380707
:103DC00005D5082029684860280002F096FC3004D8
:103DD0004DD5780748D5F00506D51BF00100C0B2D7
:103DE000002801D054F00104B00504D55FEA8B70BF
:103DF00001D554F00204700504D55FEA4B7001D57B
:103E000054F0040430052FD51BF0700F2CD01BF09C
:103E1000700BBBF1100F0FD0BBF1200F0FD0BBF117
:103E2000300F0FD0BBF1400F0FD0BBF1500F0FD0B0
:103E3000BBF1600F0FD011E054F008040EE054F015
:103E400010040BE054F0200408E054F0400405E0B6
:103E500054F0800402E054F48074FFE7286880691D
:103E600030F0700029688861042029684860002CBF
:103E700005D0686A04436C62280002F03FFCBDE88C
:103E8000F18F000038B504000D00002C01D1012095
:103E900041E094F83D00002805D1002084F83C0062
:103EA0002000FDF792FF242084F83D002068C068C0
:103EB00030F400502168C860200000F076FA2068D5
:103EC000006930F40060216808612068406930F0C2
:103ED0002A00216848612068006950F48040216808
:103EE00008612068006930F02000216808612068BE
:103EF00000690543206805612068C06850F40050DF
:103F00002168C86000202064202084F83D00202023
:103F100084F83E00002032BD90F83D30202B23D1A4
:103F2000002903D013009BB2002B01D101201CE01B
:103F300090F83C30012B01D1022016E0012380F8DB
:103F40003C3001628284C28400210164212180F816
:103F50003D10002180F83C100168C96851F08001D3
:103F60000068C160002000E00220704780B590F832
:103F70003E30202B16D1002903D013009BB2002B1A
:103F800001D101200FE090F83C30012B01D102203B
:103F900009E0012380F83C300023036392B200F073
:103FA00012F900E0022002BD38B504002068016863
:103FB0002068C268206843690020002011F00F00CB
:103FC000002807D18D0605D5950603D5200000F001
:103FD0007EF9F7E0002872D0D80702D412F4907F5F
:103FE0006DD011F00100C0B2002805D0D00503D576
:103FF000206C50F001002064480708D513F0010040
:10400000C0B2002803D0206C50F002002064880762
:1040100008D513F00100C0B2002803D0206C50F086
:104020000400206408070AD5900604D413F00103A5
:10403000DBB2002B03D0206C50F008002064206C11
:1040400000283BD0880604D5900602D5200000F059
:104050003EF920684069800910F00100216C0907D1
:1040600001D4002825D0200000F0CCF82068406959
:1040700040061AD52068406930F040002168486148
:10408000A06B00280DD00FF2B510A16B4863A06B98
:1040900002F05CFB002811D0A06BA16B496B884734
:1040A0000CE0200002F0B8FB08E0200002F0B4FBB6
:1040B00004E0200002F0B0FB0020206482E0206BCE
:1040C00001286FD1C8066DD5D0066BD500200090B1
:1040D0002068006800902068406800900098206880
:1040E0004069400638D5A06B00684168080080B27E
:1040F000002830D00800A28D80B290422BD2E185FA
:10410000A06B806920281FD02068C06830F48070C0
:104110002168C86020684069400840002168486103
:104120002068406930F0400021684861202084F810
:104130003E00002020632068C06830F01000216835
:10414000C860A06B02F0DCFAA18DE08D091A89B27B
:10415000200002F062FB35E0A08DE18D411AE08D78
:1041600000281ED0080080B200281AD02068C0683D
:1041700030F490702268D0602068406940084000A8
:1041800022685061202084F83E00002020632068CF
:10419000C06830F010002268D06089B2200002F0C0
:1041A0003CFB0FE0080605D5100603D5200000F003
:1041B0004FF807E0480605D5500603D5200000F06B
:1041C00078F8FFE731BD81628285C28500210164F4
:1041D000222180F83E10002180F83C100168C96857
:1041E00051F480710268D1600168496951F00101A0
:1041F000026851610168C96851F020010068C1601E
:10420000002070470168C96831F490710268D1607C
:10421000016849694908490002685161016B012937
:1042200005D10168C96831F010010268D160202110
:1042300080F83E10002101637047000080B5406A9D
:104240000021C1850021C18402F0E6FA01BD000011
:1042500090F83D1021292AD18168B1F5805F0CD1F9
:104260000169002909D1016A0988C905C90D0268D7
:104270005160016A891C016205E0016A4A1C026200
:10428000097802685160C18C491EC18489B2002935
:104290000BD10168C96831F080010268D160016802
:1042A000C96851F040010068C160002000E00220B0
:1042B000704780B50168C96831F040010268D1607B
:1042C000202180F83D1002F0A9FA002002BD80B53F
:1042D00090F83E10222966D18168B1F5805F0DD13A
:1042E000016900290AD10021816A02685268D20559
:1042F000D20D0A80816A891C816217E0826A0021DE
:104300008168B1F5805F05D08168002906D1016917
:10431000002903D101684968117004E00168496807
:1043200011F07F011170816A491C8162C18D491EA3
:10433000C18589B2002934D10168C96831F02001F2
:104340000268D1600168C96831F480710268D16087
:10435000016849694908490002685161202180F8D3
:104360003E10016B012918D1002101630168C96861
:1043700031F010010268D16001680968C90608D5EA
:104380000021009101680968009101684968009165
:104390000099818D02F041FA01E0FDF762FD0020F5
:1043A00002E0002000E0022002BD38B504002068D1
:1043B000016931F44051E068014320680161A1685E
:1043C00020690143606901432068C2682D480240AA
:1043D00011432068C1602068416931F44071A069CF
:1043E00001432068416120682749884202D1FFF7D4
:1043F0001DF801E0FFF70FF8192101FB00F16268D9
:104400009200B1FBF2F16422B1FBF2F2192101FB3F
:1044100000F163689B00B1FBF3F3192101FB00F18C
:104420006568AD00B1FBF5F16425B1FBF5F56421DC
:1044300001FB1533190132316423B1FBF3F313F09F
:10444000F00313EB0213192101FB00F162689200E3
:10445000B1FBF2F21921484361688900B0FBF1F029
:104460006421B0FBF1F1642000FB11221001323015
:104470006421B0FBF1F010F00F00C31820688360D6
:1044800031BD0000F3E9FFFF003801401CB5040016
:10449000002C07D1502080F31188BFF34F8FBFF35A
:1044A0006F8FFEE7202000900098202807D0502032
:1044B00080F31188BFF34F8FBFF36F8FFEE7002C9F
:1044C00006D000202060201D02F0A9F901202077ED
:1044D000200016BD10B5202002F0EEF90400002CDB
:1044E00006D000202060201D02F099F900202077DE
:1044F000200010BD2DE9F047070014001E005FF0FA
:10450000000A0020002F07D1502080F31188BFF34C
:104510004F8FBFF36F8FFEE7884618F07F4F07D0AD
:10452000502080F31188BFF34F8FBFF36F8FFEE7EA
:10453000B8F1000F07D1502080F31188BFF34F8FDF
:10454000BFF36F8FFEE7089D01F0E4FB002801D167
:10455000002D01D1012000E00020C0B2002807D1C9
:10456000502080F31188BFF34F8FBFF36F8FFEE7AA
:1045700001F0A2F8D7F8009032004146484600F01A
:10458000A7F8002807D00025002C19D0386830EA99
:104590000800386014E0002D01D1012010E0002C4B
:1045A00001D05AF0807A002E01D05AF0806A2A0099
:1045B0005AEA080A5146381D01F0E6F95FF0000991
:1045C00001F082F8002D26D0002807D15FF080503E
:1045D0004A490860BFF34F8FBFF36F8F01F0FAFBBA
:1045E00081465FEA891014D402F00AFBD7F80090E4
:1045F00032004146484600F06BF8002806D0002CF7
:1046000004D0386830EA0808C7F80080012002F0BA
:1046100014FB29F07F494846BDE8F0872DE9F041B9
:1046200004000F0000250020002C07D1502080F34B
:104630001188BFF34F8FBFF36F8FFEE717F07F4FE7
:1046400007D0502080F31188BFF34F8FBFF36F8FD7
:10465000FEE714F1040818F1080601F02DF8D8F867
:104660000C2020680743276023E0D4F800C01CEA30
:10467000010C8C4511D101200FE057681168002012
:1046800011F07F4321F07F415FEA431CEDD4D4F861
:1046900000C011EA0C0F00D00120002808D0D8017A
:1046A00000D50D43216851F00071100001F000FAAF
:1046B0003A00B242E1D1206830EA0505256001F0F8
:1046C00003F82068BDE8F08180B5FFF7A7FF01BDC2
:1046D00003000020002A03D10B4205D0012003E093
:1046E0000B408B4200D10120704780B513000A00B7
:1046F0000100034802F03AFD02BD000004ED00E0B5
:10470000C946000810B504000020002C01D101208A
:1047100068E0607C002804D1002020742000FDF7B0
:10472000F9FD02206074200000F062F8002803D038
:1047300004206074012055E0200000F078F8002883
:1047400003D00420607401204CE020684068C00859
:10475000C00021684860A068002807D0DFF8880002
:10476000006840084000DFF880100860DFF87C0037
:10477000016831F46071A0680143DFF870000160E6
:10478000606810F1010F01D0606809E00120FEF7B8
:1047900012FF002803D104206074012022E0401E93
:1047A000216889680909090151EA1041226891606C
:1047B0002168C968090C090480B208432168C860EF
:1047C000200000F04FF8002803D00420607401207E
:1047D00008E00020E073012060730120A073012035
:1047E0006074002010BD0000306C00402C6C004054
:1047F00038B504000020002C01D1012016E020680B
:10480000406830F008002168486001F065FF05004D
:1048100020684068000708D401F05EFF401B40F2AA
:10482000E9318842F4D3032000E0002032BD38B5DE
:104830000400002001F050FF050020684068800659
:1048400008D401F049FF401B40F2E9318842F4D31B
:10485000032006E02068406850F01000216848609E
:10486000002032BD38B5040000202068406830F0D8
:1048700010002168486001F02FFF050020684068A3
:10488000800608D401F028FF401B40F2E93188423D
:10489000F4D3032000E0002032BD000001200149D4
:1048A0000860704720000E4210B50400002C01D1B2
:1048B00001205AE0606A002806D16068B0F5827F66
:1048C00006D00020E06103E000202061002060614C
:1048D0000020A06294F85100002805D1002084F83F
:1048E00050002000FDF766FD022084F8510020688A
:1048F000006830F0400021680860606810F4827041
:10490000A16811F404410843E16811F4006108430F
:10491000217C11F002010843217D11F001010843BF
:10492000A16911F400710843217F11F03801084397
:1049300094F8201011F080010843A16A11F400518D
:10494000084321680860A069000C10F00400216889
:1049500048602068C06930F400602168C8610020A8
:104960006065012084F85100002010BD10B50400DE
:10497000002C01D101202FE094F83D00002805D142
:10498000002084F83C002000FDF72FFE022084F870
:104990003D00211D206800F028FB012084F846001E
:1049A000012084F83E00012084F83F00012084F8B3
:1049B0004000012084F84100012084F842000120D9
:1049C00084F84300012084F84400012084F8450065
:1049D000012084F83D00002010BD10B5040000291E
:1049E00002D194F83E000BE0042902D194F83F0074
:1049F00006E0082902D194F8400001E094F8410053
:104A0000012801D001204BE0002904D1022084F8C4
:104A10003E00C0B211E0042904D1022084F83F0016
:104A2000C0B20AE0082904D1022084F84000C0B2D4
:104A300003E0022084F84100C0B20122206800F0A7
:104A40003FFC20681749884205D12068406C50F42B
:104A50000040216848642068124988420CD02068D0
:104A6000B0F1804F08D020680F49884204D02068F8
:104A7000DFF8A81088420CD12068806810F0070089
:104A800006280CD02068006850F0010021680860FA
:104A900005E02068006850F00100216808600020EF
:104AA00010BD0000002C01400004004010B50400BF
:104AB000002C01D101202FE094F83D00002805D101
:104AC000002084F83C002000FDF757FD022084F808
:104AD0003D00211D206800F088FA012084F846007E
:104AE000012084F83E00012084F83F00012084F872
:104AF0004000012084F84100012084F84200012098
:104B000084F84300012084F84400012084F8450023
:104B1000012084F83D00002010BD00000008004086
:104B200010B50400002902D194F83E000BE00429DE
:104B300002D194F83F0006E0082902D194F8400021
:104B400001E094F84100002902D194F842200BE0E2
:104B5000042902D194F8432006E0082902D194F8F0
:104B6000442001E094F84520C0B2012802D1D2B21D
:104B7000012A01D0012081E0002904D1022084F81B
:104B80003E00C0B211E0042904D1022084F83F00A5
:104B9000C0B20AE0082904D1022084F84000C0B263
:104BA00003E0022084F84100C0B2002904D10220B1
:104BB00084F84200C0B211E0042904D1022084F834
:104BC0004300C0B20AE0082904D1022084F844005E
:104BD000C0B203E0022084F84500C0B208000028FB
:104BE00006D004280BD0082810D00C2815D01BE0C4
:104BF0002068C06850F002002268D06014E020688D
:104C0000C06850F004002268D0600DE02068C068E1
:104C100050F008002268D06006E02068C06850F0BC
:104C200010002268D060FFE70122206800F048FBF6
:104C30002068134988420DD02068B0F1804F09D018
:104C40002068DFF84010884204D02068DFF8381070
:104C500088420CD12068806810F0070006280CD02C
:104C60002068006850F001002168086005E02068B5
:104C7000006850F0010021680860002010BD0000AD
:104C8000002C0140000400400008004010B5040062
:104C90002068006980071AD52068C068800716D58B
:104CA0007FF0020021680861012020772068806978
:104CB00010F0030F03D02000FDF7F5FC05E0200005
:104CC00002F07EFA200002F07CFA002020772068B3
:104CD000006940071AD52068C068400716D57FF0E4
:104CE000040021680861022020772068806910F4A0
:104CF000407F03D02000FDF7D6FC05E0200002F045
:104D00005FFA200002F05DFA002020772068006939
:104D100000071AD52068C068000716D57FF0080084
:104D200021680861042020772068C06910F0030F13
:104D300003D02000FDF7B7FC05E0200002F040FAA8
:104D4000200002F03EFA0020207720680069C006AB
:104D50001AD52068C068C00616D57FF010002168FB
:104D60000861082020772068C06910F4407F03D0D4
:104D70002000FDF798FC05E0200002F021FA200059
:104D800002F01FFA0020207720680069C0070AD5CA
:104D90002068C068C00706D57FF00100216808615F
:104DA000200002F00FFA2068006900060AD520688A
:104DB000C068000606D57FF08000216808612000E9
:104DC00002F001FA2068006940060AD52068C06830
:104DD000400606D57FF0400021680861200002F0FF
:104DE000F3F92068006980060AD52068C06880064B
:104DF00006D57FF0200021680861200002F0E5F967
:104E000010BD38B504000D0094F83C00012801D114
:104E1000022059E0012084F83C00002A12D1EB68FE
:104E20006A682968206800F0C5F92068806930F058
:104E30000C002168886120688169A86801432068A6
:104E400081613DE0042A13D1EB686A682968206813
:104E500000F0E6F92068806930F4406021688861DC
:104E600020688069A96850EA01202168886127E0EC
:104E7000082A12D1EB686A682968206800F0EBF90B
:104E80002068C06930F00C002168C8612068C169E1
:104E9000A86801432068C16112E0EB686A6829686C
:104EA000206800F0F2F92068C06930F440602168A1
:104EB000C8612068C069A96850EA01202168C861FA
:104EC000002084F83C00002032BD38B504000D00FD
:104ED00094F83C00012801D102206DE0012084F803
:104EE0003C00002A06D0042A1BD0082A31D00C2A04
:104EF00046D05DE02900206800F0A9F820688069AC
:104F000050F00800216888612068806930F0040052
:104F1000216888612068816928690143206881616E
:104F200046E02900206800F0BFF82068806950F44E
:104F30000060216888612068806930F480602168A1
:104F4000886120688069296950EA012021688861A8
:104F50002EE02900206800F0D9F82068C06950F0E0
:104F600008002168C8612068C06930F00400216829
:104F7000C8612068C169286901432068C16117E0E0
:104F80002900206800F0F3F82068C06950F4006040
:104F90002168C8612068C06930F480602168C861F8
:104FA0002068C069296950EA01202168C861FFE7CB
:104FB000002084F83C00002032BD020000200029BF
:104FC00006D0042907D0082908D00C2909D00BE005
:104FD0001068406B08E01068806B05E01068C06BDB
:104FE00002E01068006CFFE770470368894A90424E
:104FF00008D0B0F1804F05D0874A904202D0874A4E
:10500000904203D133F070034A681343814A9042BF
:1050100008D0B0F1804F05D07F4A904202D07F4A3D
:10502000904203D133F44073CA68134333F08003D2
:105030004A69134303608A68C2620A688262754AD9
:10504000904201D10969016301214161704730B487
:10505000026A520852000262046A4568836933F0AA
:1050600070039B089B000A68134334F002048A68AB
:105070001443684A904205D134F00804CA681443C6
:1050800034F00404634A904207D135F4807535F456
:1050900000754A6915438A6915434560836149680B
:1050A0004163046230BC704730B4026A32F01002CF
:1050B0000262036A4468826932F4E04232F4407268
:1050C0000D6852EA052233F020038D6853EA051378
:1050D000504DA84206D133F08003CD6853EA051342
:1050E00033F040034B4DA84209D134F4806434F4CA
:1050F00000644D6954EA85048D6954EA850444606E
:10510000826149688163036230BC704730B4026ACF
:1051100032F480720262046A4568C36933F0700336
:105120009B089B000A68134334F400748A6854EAAD
:105130000224384A904206D134F40064CA6854EA22
:10514000022434F48064334A904209D135F4805506
:1051500035F400554A6955EA02158A6955EA02157F
:105160004560C3614968C163046230BC704730B4B4
:10517000026A32F480520262036A4468C26932F4FD
:10518000E04232F440720D6852EA052233F40053D3
:105190008D6853EA05331F4DA84204D134F480448E
:1051A0004D6954EA85144460C26149680164036230
:1051B00030BC704770B4046A640864000462856996
:1051C000066A144CA04208D0B0F1804F05D0124CB2
:1051D000A04202D0114CA04201D1012400E00024E1
:1051E000E4B2002C03D0AD08AD002A4302E02A004F
:1051F00052F0010232F0F0021B0113F0F0031A43E7
:1052000036F00A0611F00A0131438261016270BC76
:1052100070470000002C01400004004000080040DE
:1052200030B4046A34F0100404628469056A34F40A
:10523000407454EA022434F470441B0313F47043A2
:10524000234335F0A005090111F0A0012943836132
:10525000016230BC704730B4046A34F48074046274
:10526000C469056AA408A400224332F0F0021B01BD
:1052700013F0F0031A4335F40075090211F40071BC
:105280002943C261016230BC704730B4046A34F40F
:1052900080540462C469056A34F4407454EA0224F8
:1052A00034F470441B0313F47043234335F4005566
:1052B000090311F400512943C361016230BC7047F6
:1052C00010B4012411F01F0314FA03F3046A34EA42
:1052D00003030362036A11F01F0112FA01F119437B
:1052E000016210BC7047000010B490F83C20012A05
:1052F00001D102202CE0012280F83C20022280F81B
:105300003D20026854680268936834F070040A68AB
:105310001443026854600268104CA2420BD0026829
:10532000B2F1804F07D002680D4CA24203D0026850
:10533000094CA24205D133F0800349680B43016850
:105340008B60012180F83D10002180F83C10002086
:1053500010BC70470000000000080040002C014015
:105360000004004078B585B005000B98002807D1EF
:10537000502080F31188BFF34F8FBFF36F8FFEE78C
:105380000C9C002C07D1502080F31188BFF34F8F65
:10539000BFF36F8FFEE75C260096009E5C2E07D061
:1053A000502080F31188BFF34F8FBFF36F8FFEE75C
:1053B000002C13D0002811D00A9E2063022084F80C
:1053C000590000200390029404A801900096280040
:1053D00000F043F8200000F09BF801E0002004906A
:1053E000049806B070BD2DE9F84384B006000F00A4
:1053F00091469846484680B2800001F05DFA05006B
:10540000002D0BD05C2001F057FA0400002C01D0D5
:10541000256304E0280001F0D6FA00E00024002C07
:1054200016D00D990C98002284F85920002203927E
:1054300002940191009043461FFA89F94A463900C7
:10544000300000F00AF8200000F062F8012001E0CE
:105450005FF0FF3005B0BDE8F0832DE9F8438046EA
:105460000C0017001D000A9EB900A522D6F8309046
:10547000484601F0ABFE306B00EB8700071FFF08CA
:10548000FF0017F00700002807D0502080F3118894
:10549000BFF34F8FBFF36F8FFEE7002100E0491C81
:1054A000102907D2605C06EB010282F83400605CD0
:1054B0000028F4D1DDF82090002086F84300B9F1EF
:1054C000380F01D35FF03709099CC6F82C90C6F855
:1054D0004C9000203065301D01F0B0F916F1180035
:1054E00001F0ACF93661D9F13809C6F81890766246
:1054F00000207065002086F858002A0041463800D8
:1055000001F008FB3060002C00D02660BDE8F1837C
:1055100010B5040001F074FBDFF868040068401C5B
:10552000DFF860140860DFF8B404006800280AD1CE
:10553000DFF8A8040460DFF84C040068012811D1EA
:1055400000F062FB0EE0DFF898040068002809D143
:10555000E06ADFF888140968C96A884202D3DFF874
:105560007C040460DFF8B4040068401CDFF8AC146D
:105570000860DFF8A80400686064DFF8A40400682D
:10558000E16A884203D2E06ADFF894140860211DC2
:10559000DFF89024E36A1420434302EB030001F098
:1055A00050F901F04AFBDFF83804006800280FD0FA
:1055B000DFF828040068C06AE16A884208D25FF018
:1055C0008050DFF884150860BFF34F8FBFF36F8FF3
:1055D00010BD10B504000020002C14D0DFF8CC045E
:1055E0000068002807D0502080F31188BFF34F8F48
:1055F000BFF36F8FFEE700F05FF80021200000F09E
:1056000001FC00F061F8002808D15FF08050DFF85D
:1056100038150860BFF34F8FBFF36F8F10BD80B593
:1056200086B0002004900020039005AA03A904A8D6
:10563000FDF718FB04980290039801900020009059
:105640000023059ADFF880170FF29150FFF78AFECA
:10565000DFF878170860DFF874070068002801D0C9
:10566000012000E00020012801D101F065FB0128A4
:1056700017D1502080F31188BFF34F8FBFF36F8F86
:105680005FF0FF30DFF8481708600120DFF85013A3
:1056900008600020DFF8B414086001F060FA07B079
:1056A00000BD10F1010FFAD1502080F31188BFF333
:1056B0004F8FBFF36F8FFEE7DFF8F0030068401CE9
:1056C000DFF8E8130860704738B500240025DFF8DC
:1056D000DC030068002807D1502080F31188BFF355
:1056E0004F8FBFF36F8FFEE701F08AFADFF8BC033C
:1056F0000068401EDFF8B4130860DFF8B0030068EC
:1057000000285BD1DFF87C02006800282AD155E030
:10571000DFF8B006C068C46814F1180001F0B8F8EA
:10572000201D01F0B5F8DFF8F8020068E16A884250
:1057300003D2E06ADFF8E8120860211DDFF8E422F6
:10574000E36A1420434302EB030001F07AF8E06AB5
:10575000DFF888120968C96A884203D30120DFF89C
:1057600098160860DFF85C0600680028D0D1002C8D
:1057700001D000F0BBFADFF87C060468002C0ED0E4
:1057800000F024F8002803D00120DFF86C16086030
:10579000641E002CF4D10020DFF858160860DFF8F2
:1057A00058060068002809D001255FF08050DFF816
:1057B00098130860BFF34F8FBFF36F8F01F03DFA6E
:1057C000280032BDDFF884030068704770B50025FB
:1057D000B6480068002875D1DFF870030468641CBF
:1057E000DFF868030460002C22D1DFF8140400689D
:1057F0000068002807D0502080F31188BFF34F8F36
:10580000BFF36F8FFEE7DFF8F8030068DFF8F413EB
:105810000968DFF8EC231160DFF8E8130860DFF8AF
:10582000DC050068401CDFF8D415086000F05EFA63
:10583000DFF89C050068844233D321E0301D01F07D
:1058400027F8B06A002803D016F1180001F020F8FC
:1058500073480068F16A884202D2F06A70490860B1
:10586000311D704AF36A1420434302EB030000F039
:10587000E8FFF06A59490968C96A884200D30125DE
:10588000DFF87C0300680068002815D0DFF870039B
:105890000068C068C66870688442CFD2DFF83015EF
:1058A00008604E4800685F49C26A14204243885825
:1058B00002280ED301250CE05FF0FF30DFF8101551
:1058C0000860EEE7DFF82C050068401CDFF82415BF
:1058D0000860DFF824050068002800D001252800B2
:1058E00070BD72480068002804D00120DFF8081558
:1058F00008602EE00020DFF80015086048480068C6
:1059000000E0401E4749142202FB00F2895800299A
:1059100009D10028F5D1502080F31188BFF34F8FB3
:10592000BFF36F8FFEE73F49142202FB00F21144E0
:105930004A6852684A604A6811F108039A4202D1E3
:105940004A6852684A604968C968244A1160344903
:105950000860704710B50C00002807D1502080F374
:105960001188BFF34F8FBFF36F8FFEE7DFF8F81496
:105970000968183100F071FF0121200000F042FA9F
:1059800010BD00008C23002010B51400002807D1A2
:10599000502080F31188BFF34F8FBFF36F8FFEE766
:1059A000424A1268002A07D1502080F31188BFF3C1
:1059B0004F8FBFF36F8FFEE751F00041DFF8A8244F
:1059C00012689161DFF8A0140968183100F039FFFE
:1059D0000121200000F016FA10BD00007C230020F9
:1059E0009823002038B50D001400002807D150205E
:1059F00080F31188BFF34F8FBFF36F8FFEE7DFF89F
:105A000068140968183100F01CFF002C01D05FF009
:105A1000FF352100280000F0F5F931BDA823002052
:105A2000942300203010002010B5C068C468002CFA
:105A300007D1502080F31188BFF34F8FBFF36F8FD2
:105A4000FEE714F1180000F023FF18480068002852
:105A500017D1201D00F01CFFDFF810040068E16A78
:105A6000884203D2E06ADFF804140860211DDFF8E1
:105A70000024E36A1420434302EB030000F0E1FE3C
:105A800005E014F11801DFF83C0300F0DAFEDFF85E
:105A9000D8030068C06AE16A884205D2012001216A
:105AA000DFF85C23116000E0002010BDB42300206B
:105AB00010B5DFF8C0231268002A07D1502080F308
:105AC0001188BFF34F8FBFF36F8FFEE751F0004196
:105AD0000160C468002C07D1502080F31188BFF307
