:020000040800F2
:1000000098390020CD9300084190000843900008E3
:100010004590000847900008499000080000000043
:10002000000000000000000000000000FB8E00083F
:100030004B90000800000000B58E00084D900008AD
:1000400055940008599400085D94000861940008D4
:1000500065940008699400086D9400087194000884
:1000600075940008799400087D9400088194000834
:1000700085940008899400088D94000891940008E4
:1000800095940008999400089D94000861900008D8
:100090007190000881900008A1940008A5940008C0
:1000A000A9940008AD940008B19400088B90000852
:1000B000B5940008B9940008BD940008C1940008E4
:1000C000C5940008C9940008CD940008D194000894
:1000D000D594000895900008D9940008DD94000894
:1000E000E1940008E5940008E994000818B585B08B
:1000F0000400002C01D10120BFE094F8A9020028DF
:1001000005D1002084F8A802200000F076FE03202C
:1001100084F8A902206800F09DFE211D83B0684686
:10012000202201F06FFB0EBC206800F08FFE00283B
:1001300004D0022084F8A90201209EE0002120685A
:1001400000F092FE00213BE001220B00DBB22820F0
:10015000434304EB030080F829200A00D2B2282090
:10016000424304EB020080F828100A00D2B20B00D0
:10017000DBB22820434304EB0300C28600220B00BD
:10018000DBB22820434304EB030080F82B2000223D
:100190000B00DBB22820434304EB03008263002200
:1001A0000B00DBB22820434304EB0300C2630022B0
:1001B0000B00DBB22820434304EB03000264491C1C
:1001C0000800C0B262689042BED3002135E0002230
:1001D0000B00DBB22820434304EB030080F86921C5
:1001E0000A00D2B22820424304EB020080F86811D2
:1001F00000220B00DBB22820434304EB030080F80D
:100200006B2100220B00DBB22820434304EB0300E8
:10021000C0F8782100220B00DBB22820434304EB16
:100220000300C0F87C2100220B00DBB228204343EE
:1002300004EB0300C0F88021491C0800C0B26268CA
:100240009042C4D3211D83B06846202201F0DAFA1F
:100250000EBC206800F00AFE002804D0022084F8BA
:10026000A902012009E0002084F82400012084F87C
:10027000A902206801F07CFA002006B010BD1FB56D
:100280000400206801F076FA000402D5200000F096
:10029000ECF8206801F06EFA40050FD52068B0F840
:1002A00044104FF6FF3001402068A0F844102000B1
:1002B00001F0EBFA0021200000F0C1F8206801F005
:1002C00059FA400408D52068B0F844104BF6FF7086
:1002D00001402068A0F84410206801F04BFA800427
:1002E00008D52068B0F844104DF6FF700140206832
:1002F000A0F84410206801F03DFAC0041DD5206824
:10030000B0F840104FF6FB7001402068A0F8401094
:100310002068B0F840104FF6F77001402068A0F850
:100320004010200001F0B2FA2068B0F844104EF6F8
:10033000FF7001402068A0F84410206801F01AFA0C
:1003400000055CD500200AE021680200D2B231F835
:1003500022106A460300DBB222F81310401C010091
:10036000C9B20829F0D32068B0F8400050F001006D
:100370002168A1F840002068B0F840104FF6FE70E8
:1003800001402068A0F840102068B0F84400400503
:10039000FAD52068B0F844104FF6FF3001402068CD
:1003A000A0F8441000200AE069460200D2B231F8F9
:1003B000121022680300DBB222F82310401C010057
:1003C000C9B20829F0D32068B0F8400050F0080006
:1003D0002168A1F840002068B0F844104FF2FF7087
:1003E00001402068A0F844102068B0F8400050F0A8
:1003F00004002168A1F84000200001F048FA2068BC
:1004000001F0B8F980050BD52068B0F844104FF61C
:10041000FF5001402068A0F84410200001F038FA95
:10042000206801F0A7F9C00508D52068B0F844108D
:100430004FF6FF6001402068A0F844101FBD10B5C2
:10044000040094F8A802012801D102200CE0012048
:1004500084F8A80284F82410C9B2206801F080F959
:10046000002084F8A802002010BD2DE9F04104000E
:1004700033E02068018848F60F70014051F40041D4
:100480002068018014F128052068B0F85000297810
:1004900010EBC100216811EB400101F20441088812
:1004A00080B28005800DE8616869E9690844686187
:1004B0000021200001F0EDF994F8240000280CD070
:1004C000A869002809D194F8240050F08000216820
:1004D000A1F84C00002084F824002068B0F8440003
:1004E000000440F1B3812068B0F8441011F00F050A
:1004F0002800C0B2002840F09C80C806B9D514F589
:10050000B47520680088010524D52068B0F8500033
:10051000297810EBC100216811EB400101F20C4178
:10052000088880B28005800DE861EB699BB2EA889B
:1005300014F52C71206801F039F92068018840F623
:100540008F70014051F0800120680180200001F08F
:10055000A1F9C2E70004C0D52068018840F68F7079
:10056000014051F08001206801802068B0F85000FF
:10057000297810EBC100216811EB400101F20C4118
:10058000088880B28005800DE861E869002811D0F4
:10059000686900280ED0EB699BB2EA886969206817
:1005A00001F004F96869E9690844686100212000E4
:1005B00001F071F92068008800058ED42168206858
:1005C000B0F85000411801F20C412869002809D107
:1005D0000A8848F2FF3002400A80088850F4004040
:1005E000088016E028693F2808D2286940082A7C3C
:1005F000D20700D5401C800208800AE02869400923
:100600002A7C12F01F0F00D1401E800250F40040DF
:100610000880206801884BF68F70014091F480516A
:1006200091F4005141F4004151F0800120680180B3
:1006300053E720682900C9B230F82160300440F146
:10064000AB8020682900C9B230F8211040F68F70C5
:10065000014051F0800120682A00D2B220F8221017
:100660002900C9B22820414304EB010010F5B477FA
:10067000387B00281CD12068B0F85000397810EB86
:10068000C100216811EB400101F20C41B1F800807A
:100690005FEA88585FEA9858404680B2002860D0E8
:1006A00043469BB2FA887969206801F07FF858E0E8
:1006B000F878022807D1320092B23900200000F009
:1006C000C8F880464DE02068397830F8211048F6A7
:1006D0008F70014041F4004151F0C00120683A7828
:1006E00020F822102068397830F8210040041CD509
:1006F0002068B0F85000397810EBC100216811EB88
:10070000400101F20441B1F800805FEA88585FEAD5
:100710009858404680B2002823D043469BB23A897D
:100720007969206801F042F81BE02068B0F85000B9
:10073000397810EBC100216811EB400101F20C4146
:10074000B1F800805FEA88585FEA9858404680B266
:10075000002806D043469BB27A897969206801F067
:1007600025F8F969404680B24118F9617869414637
:1007700089B208447861B869002804D01FFA88F863
:100780003869804504D23978200001F084F803E00C
:100790003900206800F07AFB30067FF59EAE290014
:1007A000C9B22820414304EB010010F12801206860
:1007B0002A00D2B230F8222048F60F70024052F4DC
:1007C00000422068EDB220F82520C878032807D021
:1007D000C878002804D0C878022831D1F0052FD479
:1007E0002068B0F850000A7810EBC200226812EBC3
:1007F000400202F2044212889205920D100080B26B
:100800008B69984205D28B69100080B21B1A8B61EC
:1008100001E0002088618869002804D1097820005F
:1008200001F037F859E6486913009BB21844486153
:10083000C86992B21218CA61206800F027FB4CE622
:10084000320092B2200000F0A1F846E60020BDE898
:10085000F08170B553044BD50368B3F850300C7871
:1008600013EBC403046814EB430404F20444248827
:10087000A405A40D8B692500ADB2AB4205D38D69EB
:1008800023009BB2ED1A8D6101E000238B618B691F
:10089000002B10D103680D7833F825504BF68F7379
:1008A0001D4095F4005545F4004555F0800503685A
:1008B0000E7823F8265052060ED502680B7832F8CF
:1008C000233048F68F72134043F4004353F0C003C3
:1008D00002680D7822F82530220092B2002A52D008
:1008E00023009BB20A894969006800F05FFF4AE073
:1008F0000368B3F850300C7813EBC403046814EBAE
:10090000430404F20C442488A405A40D8B6925003B
:10091000ADB2AB4205D38D6923009BB2ED1A8D6158
:1009200001E000238B618B69002B10D103680D78E7
:1009300033F825504BF68F731D4095F4005545F460
:10094000004555F0800503680E7823F826505206BE
:100950000ED402680B7832F8233048F68F721340B9
:1009600043F4004353F0C00302680D7822F82530A9
:10097000220092B2002A06D023009BB24A8949691C
:10098000006800F013FF200080B270BD70B5040055
:100990000D001600700640F101812068B0F850008B
:1009A000297810EBC100216811EB400101F20441EC
:1009B0000B889B059B0D180080B2A969884205D25F
:1009C000A969180080B2091AA96101E00020A86194
:1009D000A869002866D16878002814D121682068A9
:1009E000B0F8500041182878C00011EB400101F226
:1009F00004410A8848F2FF3002400A80088850F417
:100A0000004008800FE0687801280CD12168206838
:100A1000B0F8500041182878C00011EB400101F2F5
:100A200004410020088021686878002814D12168DA
:100A30002068B0F8500041182878C00011EB400140
:100A400001F20C410A8848F2FF3002400A8008880F
:100A500050F4004008800EE0687801280BD120682F
:100A6000B0F8500041182878C00011EB400101F2A5
:100A70000C41002008802978200000F00AFF700453
:100A800040F18B812068297830F8211048F68F706A
:100A9000014041F4404151F0800120682A7820F85B
:100AA00022107AE170040ED52068297830F82110E0
:100AB00048F68F70014041F4404151F080012068B8
:100AC0002A7820F8221095F82400012840F065814A
:100AD0006869190089B208446861E969180080B240
:100AE0004118E961286A2969884204D32B69286A78
:100AF000C01A28620DE0286A002804D19BB20020A9
:100B000085F8240005E0002085F824002B6A0020E9
:100B10002862687800282BD121682068B0F850003E
:100B200041182878C00011EB400101F20441002B6C
:100B300009D10A8848F2FF3002400A80088850F440
:100B40000040088013E03F2B07D218004008DA0766
:100B500000D5401C8002088009E01800400913F00D
:100B60001F0F00D1401E800250F4004008800EE0AC
:100B7000687801280BD121682068B0F8500041182E
:100B80002878C00011EB400101F204410B809BB2B8
:100B90002A896969206800F0F0FDFEE02068B0F85D
:100BA0005000297810EBC100216811EB400101F2DF
:100BB0000C410B889B059B0DA869190089B28842DE
:100BC00005D3A969180080B2091AA96101E00020C3
:100BD000A861A869002866D16878002814D1216826
:100BE0002068B0F8500041182878C00011EB40018F
:100BF00001F204410A8848F2FF3002400A80088866
:100C000050F4004008800FE0687801280CD121687A
:100C10002068B0F8500041182878C00011EB40015E
:100C200001F204410020088021686878002814D16E
:100C300021682068B0F8500041182878C00011EBF6
:100C4000400101F20C410A8848F2FF3002400A805C
:100C5000088850F4004008800EE0687801280BD125
:100C60002068B0F8500041182878C00011EB40010E
:100C700001F20C41002008802978200000F009FED4
:100C8000700400F18A802068297830F8211048F635
:100C90008F70014041F4404151F0800120682A7872
:100CA00020F8221079E070040ED42068297830F8FA
:100CB000211048F68F70014041F4404151F080010D
:100CC00020682A7820F8221095F82400012864D1A1
:100CD0006869190089B208446861E969180080B23E
:100CE0004118E961286A2969884204D32B69286A76
:100CF000C01A28620DE0286A002804D19BB20020A7
:100D000085F8240005E02B6A00202862002085F881
:100D100024002168687800282BD121682068B0F869
:100D2000500041182878C00011EB400101F20C413D
:100D3000002B09D10A8848F2FF3002400A80088857
:100D400050F40040088013E03F2B07D21800400801
:100D5000DA0700D5401C8002088009E0180040092D
:100D600013F01F0F00D1401E800250F40040088095
:100D70000DE0687801280AD12068B0F850004118C9
:100D80002878C00011EB400101F20C410B809BB2AE
:100D90006A896969206800F0F0FC2068297830F8D9
:100DA000211048F6BF70014091F0100191F0200130
:100DB00041F4004151F0800120682A7820F8221087
:100DC000002070BD80B51E481E49086008201D49DE
:100DD000486002201B49886000201A498861002071
:100DE0001849C8610020174908621648FFF77EF9C4
:100DF000002801D000F0B9FD01BD80B500681049A0
:100E000088421BD11048006850F400000E49086069
:100E10000D48006810F400000090009800220521A1
:100E2000132000F012FE132000F020FE0022052106
:100E3000142000F00AFE142000F018FE01BD00008E
:100E4000005C0040642900201C1002400EB4002009
:100E500003B070474FF43F41B0F8402032EA01013F
:100E6000A0F8401000207047002070470EB4012108
:100E7000A0F840100021A0F840100021A0F8441074
:100E80000021A0F85010002003B0704770B5040096
:100E90000E007078012840F0E5823069B16988421F
:100EA00001D2356900E0B569307B002812D12B00F2
:100EB0009BB2F2887169200000F05FFC2100B4F859
:100EC000500041183078C00011EB400101F204419C
:100ED0000D80B5E2F078022840F06A813069316A0D
:100EE000884280F04481307834F8201048F68F70C2
:100EF000014041F4014151F08001307824F8201084
:100F0000306A401B3062307834F82000400640F1EF
:100F100097802100707800282AD12100B4F8500071
:100F200041183078C00011EB400101F20C41002D56
:100F300009D10A8848F2FF3002400A80088850F43C
:100F40000040088013E03F2D07D228004008EA0740
:100F500000D5401C8002088009E02800400915F0F7
:100F60001F0F00D1401E800250F4004008800CE0AA
:100F70007078012809D1B4F8500041183078C000C9
:100F800011EB400101F20C410D8072892B009BB2E4
:100F900092B27169200000F0F0FB70692844706122
:100FA0003069316A884203D2306A401B306202E005
:100FB000356A00203062707800282AD12100B4F808
:100FC000500041183078C00011EB400101F204419B
:100FD000002D09D10A8848F2FF3002400A800888B3
:100FE00050F40040088013E03F2D07D2280040084D
:100FF000EA0700D5401C8002088009E0280040096B
:1010000015F01F0F00D1401E800250F400400880F0
:101010000DE0707801280AD12100B4F85000411881
:101020003078C00011EB400101F204410D8032899B
:101030002B009BB292B27169200000F09EFBFFE191
:10104000707800282AD12100B4F850004118307877
:10105000C00011EB400101F20441002D09D10A88C2
:1010600048F2FF3002400A80088850F400400880AF
:1010700013E03F2D07D228004008EA0700D5401CA6
:101080008002088009E02800400915F01F0F00D1F8
:10109000401E800250F4004008800DE07078012866
:1010A0000AD12100B4F8500041183078C00011EB8B
:1010B000400101F204410D8032892B009BB292B2B3
:1010C0007169200000F059FB706928447061306933
:1010D000316A884203D2306A401B306202E0356ACE
:1010E000002030622100707800282AD12100B4F855
:1010F000500041183078C00011EB400101F20C4162
:10110000002D09D10A8848F2FF3002400A80088881
:1011100050F40040088013E03F2D07D2280040081B
:10112000EA0700D5401C8002088009E02800400939
:1011300015F01F0F00D1401E800250F400400880BF
:101140000CE07078012809D1B4F8500041183078CB
:10115000C00011EB400101F20C410D8072892B009F
:101160009BB292B27169200000F007FB68E1336A1C
:10117000307834F8201048F68F60014041F4004187
:1011800051F08001307824F820102100B4F850008C
:1011900041183078C00011EB400101F204410B808E
:1011A00032899BB292B27169200000F0E6FA47E101
:1011B000307834F8201048F68F70014041F4014136
:1011C00051F08001307824F82010306A401B3062E2
:1011D000307834F82000400640F19A802100707881
:1011E00000282AD12100B4F8500041183078C000FE
:1011F00011EB400101F20C41002D09D10A8848F29F
:10120000FF3002400A80088850F40040088013E054
:101210003F2D07D228004008EA0700D5401C800275
:10122000088009E02800400915F01F0F00D1401E7A
:10123000800250F4004008800CE07078012809D149
:10124000B4F8500041183078C00011EB400101F2B1
:101250000C410D8072892B009BB292B27169200003
:1012600000F08BFA7069284470613069316A8842F5
:1012700003D2306A401B306202E0356A00203062DF
:10128000002D00F0DD80707800282AD12100B4F80C
:10129000500041183078C00011EB400101F20441C8
:1012A000002D09D10A8848F2FF3002400A800888E0
:1012B00050F40040088013E03F2D07D2280040087A
:1012C000EA0700D5401C8002088009E02800400998
:1012D00015F01F0F00D1401E800250F4004008801E
:1012E0000DE0707801280AD12100B4F850004118AF
:1012F0003078C00011EB400101F204410D803289C9
:101300002B009BB292B27169200000F036FA97E090
:10131000707800282AD12100B4F8500041183078A4
:10132000C00011EB400101F20441002D09D10A88EF
:1013300048F2FF3002400A80088850F400400880DC
:1013400013E03F2D07D228004008EA0700D5401CD3
:101350008002088009E02800400915F01F0F00D125
:10136000401E800250F4004008800DE07078012893
:101370000AD12100B4F8500041183078C00011EBB8
:10138000400101F204410D8032892B009BB292B2E0
:101390007169200000F0F1F97069284470613069CA
:1013A000316A884203D2306A401B306202E0356AFB
:1013B00000203062002D43D02100707800282AD10F
:1013C0002100B4F8500041183078C00011EB400102
:1013D00001F20C41002D09D10A8848F2FF30024089
:1013E0000A80088850F40040088013E03F2D07D29F
:1013F00028004008EA0700D5401C8002088009E068
:101400002800400915F01F0F00D1401E800250F443
:10141000004008800CE07078012809D1B4F8500031
:1014200041183078C00011EB400101F20C410D80F1
:1014300072892B009BB292B27169200000F09DF975
:10144000307834F8201048F6BF70014091F0100158
:1014500091F0200141F4004151F08001307824F8EE
:10146000201049E0307B002848D13069B1698842BA
:1014700004D23069B169091AB16102E0B069002192
:10148000B1612200B4F850108A183178C90012EB0B
:10149000410202F20C42002809D1118848F2FF30C3
:1014A00001401180108850F40040108013E03F2864
:1014B00007D201004908C00700D5491C88021080E6
:1014C00009E00100490910F01F0F00D1491E8802F0
:1014D00050F400401080307834F820104BF68F70B4
:1014E000014091F4805191F4005141F4004151F0D8
:1014F0008001307824F82010002070BDF078022898
:1015000040F0A380707800282ED12100B4F850005C
:1015100041183078C00011EB400101F204413069FC
:10152000002809D10A8848F2FF3002400A80088862
:1015300050F40040088016E030693F2808D2306936
:101540004008327CD20700D5401C800208800AE0A7
:1015500030694009327C12F01F0F00D1401E80021A
:1015600050F4004008800EE0707801280BD1210073
:10157000B4F8500041183078C00011EB400101F27E
:101580000441306908802100707800282ED12100A4
:10159000B4F8500041183078C00011EB400101F25E
:1015A0000C413069002809D10A8848F2FF30024016
:1015B0000A80088850F40040088016E030693F280F
:1015C00008D230694008327CD20700D5401C800226
:1015D00008800AE030694009327C12F01F0F00D108
:1015E000401E800250F4004008800DE07078012811
:1015F0000AD1B4F8500041183078C00011EB400116
:1016000001F20C4130690880F06900283FF463AFB3
:10161000307834F8200044F24001014044F24002A6
:10162000914204D044F2400108427FF454AF307834
:1016300034F8201048F68F70014041F4004151F019
:10164000C001307824F8201045E7F078012840F0F8
:1016500085803069B169884204D23069B169091A5C
:10166000B16102E0B0690021B161717800292AD12D
:101670002200B4F850108A183178C90012EB4102E8
:1016800002F20442002809D1138848F2FF310B40CE
:101690001380118851F40041118013E03F2807D2D4
:1016A00001004908C30700D5491C8902118009E0DF
:1016B0000100490910F01F0F00D1491E890251F4A1
:1016C000004111800DE0717801290AD12200B4F89F
:1016D00050108A183178C90012EB410202F204421C
:1016E00010802200717800292AD12200B4F850100D
:1016F0008A183178C90012EB410202F20C4200282C
:1017000009D1118848F2FF3001401180108850F44F
:101710000040108013E03F2807D201004908C007AD
:1017200000D5491C8802108009E00100490910F029
:101730001F0F00D1491E880250F4004010800CE0B9
:101740007178012909D1B4F850108A183178C9008C
:1017500012EB410202F20C421080BCE60120CCE602
:10176000C9B2002902D18021A0F84C100020704796
:1017700000207047B0F84400704710B49BB25B1C67
:101780005B0892B210EB420010F580600AE00A7824
:10179000491C0C782402A4B222430280801C801CC5
:1017A000491C5B1E002BF2D110BC704710B41C000A
:1017B000A4B2640892B210EB420010F5806008E019
:1017C0000288801C0A70491C120A0A70491C801C7D
:1017D000641E002CF4D1DA0701D50088087010BC13
:1017E0007047010262B38B0708D0521E11F8013B0B
:1017F00000F8013B00F024808B07F6D1830740F00E
:10180000208000BF103A07D330B4B1E83810103A46
:10181000A0E83810F9D230BC530724BFB1E8081053
:10182000A0E8081044BF51F8043B40F8043BD2073D
:1018300024BF31F8022B20F8022B44BF0B78037031
:101840007047121F17D35B0009D151F8043B20F8F1
:10185000023B1B0C121F20F8023BF6D20BE051F8A2
:10186000043B00F8013B1B0A20F8023B1B0C121F33
:1018700000F8013BF3D238BF121D521E24BF11F8ED
:10188000013B00F8013BF8D870477047704770473C
:10189000704770477047704780B500F001F900F05D
:1018A00019F800F011F900F09BF9FFF78BFA00F03E
:1018B00065FA01F01DF801F04FF801F0B5F801F0FC
:1018C00006F901F0F1FA01F09DFC01F0CFFE01F004
:1018D000BBFCFEE700B593B009A8282101F062FF28
:1018E00004A8142101F05EFF6846102101F05AFFA0
:1018F000052009905FF480300A9000200B900120B1
:101900000C9001200D90022010905FF48030119017
:101910005FF4E010129009A801F048FF002801D000
:1019200000F023F80F20049002200590002006907C
:101930004FF48060079000200890022104A802F074
:1019400072F9002801D000F010F8112000904FF437
:101950008070019000200390684602F09DFA0028F4
:1019600001D000F002F813B000BD72B6FEE701022C
:1019700010F0070042490A684FF6FF010A4041494A
:1019800051EA00210A433E48026070473C48006823
:10199000C0F302207047010049B2002908D4012297
:1019A00010F01F018A40384940B2400941F8202018
:1019B0007047020052B2002A04D40901334A40B2EF
:1019C000115407E00901324A40B210F00F001044F0
:1019D00000F8041C704710B410F00700D0F10703A2
:1019E000052B01D3042301E0D0F10703041D072CCC
:1019F00001D2002000E0C01E012414FA03F35B1E94
:101A000019408140012313FA00F0401E10400843A2
:101A100010BC704780B5411EB1F1807F01D3012019
:101A20000EE0401E1B4908600F215FF0FF30FFF7FA
:101A3000C0FF0020184908600720184908600020EE
:101A400002BD80B5FFF794FF01BD70B504000D0025
:101A500016000020FFF79AFF32002900FFF7BBFFB6
:101A60000100200040B2FFF7A4FF70BD80B540B276
:101A7000FFF791FF01BD80B5FFF7CCFF02BD00006D
:101A80000CED00E00000FA0500E100E000E400E0F9
:101A900018ED00E014E000E018E000E010E000E0E5
:101AA00080B50848006850F010000649086003201F
:101AB000FFF7C7FF0F2002F0F7FA02F01BFB002030
:101AC00002BD00000020024000B585B0684610212C
:101AD00001F068FE3E48006850F010003C49086084
:101AE0003B48006810F010000490049838480068E3
:101AF00050F02000364908603548006810F020009A
:101B0000049004983248006850F00400304908609E
:101B10002F48006810F00400049004982C480068D6
:101B200050F008002A4908602948006810F00800B1
:101B300004900498002240F20331264802F0EAFBA8
:101B4000002248F20201244802F0E4FB00220821AE
:101B5000224802F0DFFB40F20330009001200190A8
:101B6000002002900220039069461A4802F0F0FA21
:101B70001C2000900020019000200290694615482A
:101B800002F0E6FA48F202000090012001900020E5
:101B900002900220039069460F4802F0D9FA08200B
:101BA00000900120019000200290022003906946DD
:101BB0000A4802F0CDFAC0200090122001900320C4
:101BC00003906946054802F0C3FA05B000BD00BFA6
:101BD000181002400010014000080140000C0140B4
:101BE00080B55E485E49086004205D494860002079
:101BF0005B4988605FF040705949C8605FF400201D
:101C0000574908615FF4E000554948610020544994
:101C100008760020524948760020514988760020F5
:101C20004F49C87600204E49087700204C49487734
:101C30004B4802F099FB002801D0FFF796FE01BD4A
:101C400018B585B0040001A8102101F0ABFD206893
:101C5000424988424FD14348006850F000704149E2
:101C600008604048006810F00070009000983E48FE
:101C7000006850F008003C4908603B48006810F0DC
:101C80000800009000984FF48070019000200290AE
:101C90000020039001A9354802F05AFA4FF4007071
:101CA0000190022002900320049001A92F4802F025
:101CB0004FFA2F48006830F4C04050F0E06050F414
:101CC00080402B490860002205211320FFF7BDFE4C
:101CD0001320FFF7CBFE002205211420FFF7B5FEED
:101CE0001420FFF7C3FE002205211520FFF7ADFEEB
:101CF0001520FFF7BBFE06B010BD00B589B06846E1
:101D00001C49D1E90023C0E9002340F20160002111
:101D1000069100210591039000208DF820000820F5
:101D200007900F4802F0D6FB9DF80700401C8DF885
:101D300007001148008880B2000A8DF800000E48A4
:101D400000888DF8010002AB6A4603A9044802F03E
:101D5000EFFB012001F02EFBE6E7000000640040ED
:101D6000603300201C10024018100240000C01409B
:101D700004000140F49300087635002080B5DFF8B8
:101D8000100BDFF8101B08604FF49640DFF8041BBF
:101D900048600020DFF8FC1A88600020DFF8F41AA1
:101DA000C8600020DFF8EC1A08610C20DFF8E41AA4
:101DB00048610020DFF8DC1A88610021DFF8D40ACE
:101DC00002F054FD002801D0FFF7CFFD01BD18B58A
:101DD00085B0040001A8102101F0E4FC2068DFF8C0
:101DE000B01A88423DD1DFF8B00A006850F4804054
:101DF000DFF8A41A0860DFF8A00A006810F4804039
:101E000000900098DFF8900A006850F00400DFF8B6
:101E1000881A0860DFF8800A006810F0040000905B
:101E200000984FF40070019002200290032004906B
:101E300001A9DFF8680A02F08BF94FF48060019085
:101E4000002002900120039001A9DFF8500A02F05F
:101E50007FF9002206212520FFF7F7FD2520FFF757
:101E600005FE06B010BD80B50068DFF8241A884270
:101E700018D10122DFF8281ADFF8180A02F06AFDEB
:101E8000DFF81C0A0078DFF81C1ADFF8182A127B2A
:101E90008854DFF8100A007B401CDFF8081A08732A
:101EA00000F024F801BD10B40200507B3C2802D0A1
:101EB000507B3D2801D1002000E0907B00230BE007
:101EC0001900C9B21144097C0818010089B210EB4D
:101ED000112000F0FF005B1C1900D47BC9B2A142A5
:101EE000EED3C0B2C043C0B210BC704780B5002072
:101EF0000090DFF8B409007800280AD001281AD031
:101F000002282BD0032800F0B382052800F0DF82DE
:101F1000EBE20020DFF88C190873DFF888090078FD
:101F2000002807D10120DFF8801908700120DFF8B0
:101F300074190873DDE2DFF86C094078552804D184
:101F40000220DFF86419087007E00020DFF8581954
:101F500008700020DFF84C190873CAE2DFF8440962
:101F60008078032869D10420DFF83C190870082024
:101F7000DFF83019C8730320DFF828194873DFF839
:101F80002409407B10F00100012190FBF1F1DFF802
:101F90001409407B10F00200022290FBF2F0414055
:101FA000DFF80009407B10F00400042290FBF2F0FF
:101FB0004140DFF8F008407B10F01000102290FB49
:101FC000F2F0414040204143DFF8D808407B10F058
:101FD0000200022290FBF2F2DFF8C808407B10F00A
:101FE0000800082390FBF3F04240DFF8B808407B7C
:101FF00010F01000102390FBF3F04240DFF8A4082B
:10200000407B10F02000202390FBF3F0424092F040
:102010000102802000FB0211DFF88808407B10F0ED
:102020003F004118DFF87C0881736A460121DFF820
:102030007C08006803F04DF819E2DFF86808807842
:10204000F52869D10420DFF8601808700820DFF84F
:102050005418C8733520DFF84C184873DFF844086B
:10206000407B10F00100012190FBF1F1DFF8340812
:10207000407B10F00200022290FBF2F04140DFF8BA
:102080002408407B10F00400042290FBF2F0414051
:10209000DFF81008407B10F01000102290FBF2F0E7
:1020A000414040204143DFF8FC07407B10F0020034
:1020B000022290FBF2F2DFF8EC07407B10F0080000
:1020C000082390FBF3F04240DFF8D807407B10F084
:1020D0001000102390FBF3F04240DFF8C807407B6C
:1020E00010F02000202390FBF3F0424092F0010218
:1020F000802000FB0211DFF8AC07407B10F03F00AE
:102100004118DFF8A00781736A460121DFF89C07B8
:10211000006802F0DEFFAAE1DFF888078078E22895
:1021200069D10420DFF8801708700820DFF87417E1
:10213000C8732220DFF86C174873DFF86807407B0C
:1021400010F00100012190FBF1F1DFF85807407B0E
:1021500010F00200022290FBF2F04140DFF8440749
:10216000407B10F00400042290FBF2F04140DFF8C5
:102170003407407B10F01000102290FBF2F0414039
:1021800040204143DFF81C07407B10F00200022290
:1021900090FBF2F2DFF80C07407B10F008000823F8
:1021A00090FBF3F04240DFF8FC06407B10F010009B
:1021B000102390FBF3F04240DFF8E806407B10F07C
:1021C0002000202390FBF3F0424092F00102802097
:1021D00000FB0211DFF8CC06407B10F03F004118F5
:1021E000DFF8C00681736A460121DFF8C006006887
:1021F00002F06FFF3BE1DFF8AC068078C42862D1C3
:102200000320DFF8A41608700420DFF8981648733E
:10221000DFF89006407B10F00100012190FBF1F106
:10222000DFF88006407B10F00200022290FBF2F003
:102230004140DFF87006407B10F00400042290FB60
:10224000F2F04140DFF85C06407B10F010001022F5
:1022500090FBF2F0414040204143DFF84806407BCC
:1022600010F00200022290FBF2F2DFF83806407B09
:1022700010F00800082390FBF3F04240DFF824063A
:10228000407B10F01000102390FBF3F04240DFF889
:102290001406407B10F02000202390FBF3F0424016
:1022A00092F00102802000FB0211DFF8F805407B6C
:1022B00010F03F004118DFF8EC0581730820DFF8CB
:1022C000E415C873D3E0DFF8DC058078B42862D168
:1022D0000320DFF8D41508703420DFF8C8154873E0
:1022E000DFF8C005407B10F00100012190FBF1F107
:1022F000DFF8B005407B10F00200022290FBF2F004
:102300004140DFF8A005407B10F00400042290FB60
:10231000F2F04140DFF88C05407B10F010001022F5
:1023200090FBF2F0414040204143DFF87805407BCC
:1023300010F00200022290FBF2F2DFF86805407B09
:1023400010F00800082390FBF3F04240DFF854053A
:10235000407B10F01000102390FBF3F04240DFF8B8
:102360004405407B10F02000202390FBF3F0424016
:1023700092F00102802000FB0211DFF82805407B6B
:1023800010F03F004118DFF81C0581730820DFF8CA
:102390001415C8736BE0DFF80C058078612862D1F2
:1023A0000320DFF8041508702120DFF8F8144873C3
:1023B000DFF8F004407B10F00100012190FBF1F107
:1023C000DFF8E004407B10F00200022290FBF2F004
:1023D0004140DFF8D004407B10F00400042290FB61
:1023E000F2F04140DFF8BC04407B10F010001022F6
:1023F00090FBF2F0414040204143DFF8A804407BCD
:1024000010F00200022290FBF2F2DFF89804407B09
:1024100010F00800082390FBF3F04240DFF884043A
:10242000407B10F01000102390FBF3F04240DFF8E7
:102430007404407B10F02000202390FBF3F0424016
:1024400092F00102802000FB0211DFF85804407B6B
:1024500010F03F004118DFF84C0481730820DFF8CA
:102460004414C87303E00520DFF83C14087040E012
:10247000DFF83004007BDFF82C14C97B091D88428B
:1024800024DB00200CE0DFF81C140200D2B211445F
:10249000C978DFF810240300DBB21A441174401C21
:1024A0000100DFF80024D27BC9B29142EBD36A4627
:1024B0000221DFF8F803006802F00BFE0020DFF8CD
:1024C000E81308700020DFF8DC13087311E0DFF870
:1024D000D403007B0C2807DB0020DFF8CC13087046
:1024E0000020DFF8C013087303E00020DFF8B81302
:1024F000087001BD80B500F005F800F03BF800F071
:1025000064F801BD80B5DFF89C03407B042830D11E
:1025100000200BE0DFF88C130200D2B21144097CDA
:10252000DFF88C230300DBB2D154401C0100DFF83C
:102530007423D27BC9B29142ECD3DFF874030078E4
:102540008DF80000DFF86803B0F80100ADF8020074
:10255000002300226946DFF85C03006800F0D9FF21
:10256000002300220DF10201DFF84C03006800F0A7
:10257000D0FF01BD80B5DFF82C03407B342823D188
:1025800000200BE0DFF81C130200D2B21144097CDA
:10259000DFF828230300DBB2D154401C0100DFF830
:1025A0000423D27BC9B29142ECD3DFF81003007848
:1025B000DFF80C13087000230022DFF80413DFF8A3
:1025C000F402006800F0A5FF01BD80B5B548407B6E
:1025D000212832D1002009E0B2490200D2B21144D0
:1025E000097CB84A0300DBB2D154401C0100AD4A5B
:1025F000D27BC9B29142EFD3B248407901281CD1B5
:10260000B048B0F801008DF80000AE48B0F8010005
:1026100080B2000A8DF80100AA48B0F803008DF8D6
:102620000200A848B0F8030080B2000A8DF8030049
:102630006946A448007800F0A1FC01BD80B50023E4
:10264000A149A248006800F0ADFF9F48018840F60C
:102650004850414349F6F67091FBF0F09C49086000
:10266000994800889B4908709748008880B2000A02
:102670009849487096480068964988709448006860
:10268000000A9449C87001BD80B503F021F8924951
:10269000087003F017F89049497860F303018E48F9
:1026A000417003F012F88C49497860F304118A48AC
:1026B000417010208849C87101BD80B587480078F5
:1026C000082805DA85480078401C8449087002E033
:1026D00000208249087069468048007800F07EFC3E
:1026E0007E4800787E4908709DF800109DF8012012
:1026F0004FF4807000FB02117948A0F801109DF89A
:1027000002109DF803204FF4807000FB0211744802
:10271000A0F8031001BDE0B501220821714801F0C5
:10272000F9FD012201A95B4802F041FA02F0C6FB63
:102730005E49086002215D48006802F063FC29E000
:1027400064490200D2B2895C564A0300DBB21A44E3
:102750001174401C0100534AD27BC9B29142EFD39D
:102760005048FFF7A0FB4F4908764E48C27B92B213
:102770005D49484802F0C4F80028F6D101225B49BF
:10278000444802F0BDF80028F8D1012201A94148CF
:1027900002F00DFA0120009000230122032143489A
:1027A000006802F09BFBC1076DD53E48407B0328C3
:1027B00003D1FFF743FF0020CCE73A48407B3528A0
:1027C0002ED1FFF761FF002009E043490200D2B299
:1027D000895C344A0300DBB21A441174401C0100C6
:1027E000304AD27BC9B29142EFD32E48FFF75BFB50
:1027F0002C4908762B48C27B92B23B49254802F00F
:102800007FF80028F6D101223849224802F078F8F2
:102810000028F8D1012201A91E4802F0C8F9B9E741
:102820002048407B2228B5D1FFF747FF002009E070
:102830002B490200D2B2895C1A4A0300DBB21A4467
:102840001174401C0100174AD27BC9B29142EFD3E8
:102850001448FFF728FB134908761248C27B92B24E
:1028600021490C4802F04CF80028F6D101221F49FA
:10287000084802F045F80028F8D1012201A90548CE
:1028800002F095F986E7800784D5FFF733FE81E7EC
:102890000038014074320020181002400008014046
:1028A0008E350020883300208D35002058350020DB
:1028B0006C340020C0340020BC3400207C34002064
:1028C0008F350020943400207A350020B834002061
:1028D0005C350020743400208434002090350020C2
:1028E0008C340020000C014098330020A0330020DD
:1028F00080B51548154908605FF0FF3013494860FE
:102900004FF4807011498860104802F065FF00287C
:1029100001D0FFF72AF801BD80B500680A49884256
:1029200010D103F025F80A48006850F0006008490B
:1029300008600748006810F00060009000980120CF
:102940000449086001BD000000280040A4330020B5
:102950001C1002403C04424280B52F482F490860B9
:102960004FF482702D4948604FF400402B49886035
:1029700000202A49C8600020284908610020274912
:1029800048614FF400702549886120202349C861BF
:1029900000202249086200202049486200201F4987
:1029A00088620A201D49C8621C4802F0E7FF00281F
:1029B00001D0FEF7DAFF01BD18B585B0040001A80B
:1029C000102100F0EFFE20681349884221D11448FD
:1029D000006850F48050124908601148006810F4F3
:1029E0008050009000980E48006850F004000C4998
:1029F00008600B48006810F0040000900098E02088
:102A00000190022002900320049001A9054801F0E2
:102A10009FFB06B010BD000000300140A82F002031
:102A2000181002400008014080B586B0DFF8140499
:102A3000D0E90023CDE9002302A8102100F0B2FE66
:102A4000DFF80404DFF8041408604720DFF8FC1303
:102A500048600020DFF8F41388604FF6FF70DFF85D
:102A6000EC13C8600020DFF8E41308610120DFF8F0
:102A7000DC1348610020DFF8D4138861DFF8CC0351
:102A800003F07EF8002801D0FEF76FFF00200090D1
:102A9000002001906946DFF8B40303F08FFC0028A2
:102AA00001D0FEF762FF0220029001200390002077
:102AB000049000200590002202A9DFF8900303F0A3
:102AC0000AFA002801D0FEF750FF07B000BD00B59C
:102AD00089B0DFF87C03D0E90023CDE9002302A808
:102AE0001C2100F05FFEDFF86C03DFF86C13086058
:102AF0002320DFF8641348600020DFF85C1388604F
:102B00006320DFF85413C8600020DFF84C1308611D
:102B10000020DFF844138861DFF83C0302F090FFE7
:102B2000002801D0FEF721FF002000900020019036
:102B30006946DFF8240303F041FC002801D0FEF7CA
:102B400014FF6020029000200390002004900020D9
:102B50000690002202A9DFF8000303F020FA002803
:102B600001D0FEF702FF042202A9DFF8EC0203F015
:102B700016FA002801D0FEF7F8FEDFF8DC0200F0BC
:102B80004DF809B000BD18B585B0040001A81021AA
:102B900000F008FE2068AC4988422AD1AF4800689E
:102BA00050F40060AD490860AC48006810F4006063
:102BB00000900098A948006850F00400A7490860F8
:102BC000A648006810F00400009000984FF4807050
:102BD0000190002002900220039001A9A04801F07A
:102BE000B7FA002205211B20FEF72FFF1B20FEF75E
:102BF0003DFF06B010BD81B00068964988420BD1F8
:102C00009848006850F002009649086095480068AE
:102C100010F002000090009801B0704718B585B020
:102C2000040001A8102100F0BDFD206889498842F8
:102C30001FD18A48006850F0100088490860874812
:102C4000006810F0100000900098C0200190022051
:102C500002900220049001A9834801F079FA834888
:102C6000006830F4406050F0E06050F440607F490C
:102C7000086006B010BD38B584B004000D00684689
:102C80007B491022FEF7BEFD03200021002207E051
:102C90001100C9B2615C48406946C0B2085C521C70
:102CA00011002B00C9B2DBB29942F1D3C0B205B01A
:102CB00030BD80B500686449884240F094800021AE
:102CC000624803F0E4F96B4908606B4800686949A1
:102CD0000968884207D26748016867480068091A8E
:102CE0006648016008E06348016811F58031624878
:102CF0000068091A61480160604800689F3813281D
:102D000002D200205E4908705C48006840F2F5116C
:102D1000884204D359480068401C58490860574805
:102D20000068801E0321B0FBF1F0401C5549544A55
:102D300012788854534852490978405C0D2809DBC1
:102D400050484F490978405C0C384E494C4A12783B
:102D5000885404E000204B49494A12788854484876
:102D6000007808283ADB06214748FFF784FF4749E7
:102D70000870464800784349097A88422ED1414874
:102D8000807810282ADA3F48C078102826DA3D4893
:102D90000079102822DA3B4881784FF48072394854
:102DA000C07880B2000102FB010136480079411869
:102DB00037480180364801880A2041433448018061
:102DC00034480088401C33490880002300223049E1
:102DD0003148006800F09DFB00F0CDFA28480078EB
:102DE000401C27490870234800682349086001BD3A
:102DF00080B50021184802F05AFE0421164802F05E
:102E000056FE0021114802F0F5FE5FF0FF30009001
:102E10000123012201212148006802F05FF800230C
:102E200000221F491F48006800F0BCFB1C480088B6
:102E30000949096848631A4840880749096888634E
:102E4000E3E7000024940008002C0140E431002056
:102E50002C940008000400402C320020181002407E
:102E6000000801401C100240001001400400014015
:102E7000BC930008383500203C3500204035002048
:102E80008B35002050340020523400208C35002037
:102E90007635002078350020B8340020CC3400206E
:102EA00034350020C434002080B5DFF81803DFF883
:102EB000181308606420DFF8101348600020DFF862
:102EC000081388600020DFF80013C8604FF48040CA
:102ED000DFF8F41208610020BB4948610020BA49BC
:102EE00088610020B849C8610020B7490862B64827
:102EF00003F0A2FA002801D0FEF737FD01BD18B596
:102F000085B0040001A8102100F04CFC2068AD49F8
:102F1000884222D1AD48006850F00800AB490860F3
:102F2000AA48006810F00800009000984FF4406034
:102F30000190122002900320049001A9A44801F0FE
:102F400007F9A448006850F48000A2490860A1482D
:102F5000006810F480000090009806B010BD10B416
:102F60009D4B0400E4B233F824300B809A49C0B280
:102F700001EB80004088108010BC704770B40022C4
:102F8000964BC0B20001184400230AE01C00E4B2D2
:102F90000C5D45681E00F6B2AD5DAC4200D001226A
:102FA0005B1C1C00E4B28589A4B2AC42EED3D2B261
:102FB000002A11D002224270002207E01300DBB287
:102FC000CB5C44681500EDB26355521C1300DBB2B4
:102FD00084899BB2A342F1D370BC704710B47F4A7E
:102FE000C0B200011044002207E043681400E4B2BC
:102FF0001B5D1400E4B20B55521C1300DBB2848934
:103000009BB2A342F1D310BC70477FB504000D0002
:103010001600FF200290300080B20190009501233D
:10302000220092B2A121684803F0B2FB0028F0D13F
:103030000A2000F0BFF97FBD7FB504000D00160027
:1030400040F6FF700290300080B20190009501239D
:10305000220092B2A0215C4803F0E6FA0028EFD1EA
:103060000A2000F0A7F97FBD30B402000020002440
:1030700005E02300DBB2D35C1818C0B2641C230047
:10308000DBB20D009BB2ADB2AB42F2D3D0F1FF0088
:10309000C0B2C0B230BC70471FB52C225049F020DE
:1030A000FFF7B3FF00241EE04E490968896802005B
:1030B000D2B2895C4B4A126852680300DBB2D15429
:1030C0000221484A12685170401C0100C9B2454AA9
:1030D0001268928989B29142E6D342480068103062
:1030E00040490860641C2000C0B20C282CDA3D481E
:1030F0000068828969463B480068C089FFF785FF00
:103100003848006881896846FFF7AEFF34492200DD
:10311000D2B2895CC0B2884214D100200100C9B289
:10312000304A1268928989B29142D6D26946020029
:10313000D2B2895C2B4A126852680300DBB2D154C8
:10314000401CEBE70020C0E71FBD80B52648007893
:103150000C2830DA254800684078022820D123481E
:1031600000688189214800684068FFF77DFF8DF87D
:1031700000001E48006882891C48006841681B489E
:103180000068C089FFF758FF002018490968487097
:103190000122694614480078F03080B2FFF74CFFF6
:1031A00011480078401C1049087010480068103021
:1031B0000E49086005E000200B49087007480B49DC
:1031C000086001BD00580040003000201810024087
:1031D000000C01401C100240343300202C00002061
:1031E00044340020EC0000207D350020F000002059
:1031F00080B5FFF751FFFFF7A8FF642000F0DAF871
:10320000F9E70000EFF3058000280CD1EFF3108000
:10321000002808D1DFF8D4010068022806D1EFF3B6
:103220001180002802D07FF005000CE0DFF8BC011F
:103230000068002805D10120DFF8B01108600020E7
:1032400001E05FF0FF30704780B5EFF305800028A4
:103250000CD1EFF31080002808D1DFF8900100684E
:10326000022806D1EFF31180002802D07FF005007C
:103270000EE0DFF878010068012807D10220DFF8AE
:103280006C11086004F00BF8002001E05FF0FF30E3
:1032900002BDF0B585B000230493EFF30583002B46
:1032A00066D1EFF31083002B62D1DFF840311B6849
:1032B000022B03D1EFF31183002B59D10300002B14
:1032C00056D08025182300248DF80C4003AC5FF005
:1032D000FF36002A2ED01768002F00D01468976997
:1032E000002F00D09369002B04D0392B02D217791C
:1032F000FF0701D500203CE05769002F01D0556938
:10330000AD089768002F0AD0D7685C2F07D31769DC
:10331000002F04D05769002F01D001260BE09768D9
:10332000002F08D1D768002F05D11769002F02D1CF
:10333000002600E00026012E0BD196680296126945
:10334000019200930B002A00210003F04BFE049031
:103350000EE0002E0CD104AA019200930B002A006B
:1033600092B2210003F07FFE012801D000200490DA
:10337000049805B0F0BDEFF3058000280CD1EFF301
:103380001080002808D1DFF864000068022806D108
:10339000EFF31180002802D07FF0050009E0002043
:1033A0005FF08051DFF8B4201160BFF34F8FBFF39F
:1033B0006F8F704710B5EFF3058100290CD1EFF343
:1033C0001081002908D1DFF898100968022906D178
:1033D000EFF31181002902D07FF0050404E00024FE
:1033E000002801D003F035FF200010BD9C340020E0
:1033F00080B50021EFF30582002A2DD1EFF3108272
:10340000002A29D1DFF84C221268022A03D1EFF3F7
:103410001182002A20D15FF0FF3300280FD082688C
:10342000002A04D0C268202A01D3012308E0826860
:10343000002A05D1C268002A02D1002300E000233F
:10344000012B04D1806801F015FD010004E0002B80
:1034500002D101F033FD0100080002BD04ED00E0DF
:103460009C3400207CB514000025EFF30582002A6F
:103470004DD1EFF31082002A49D1DFF8D82112682C
:10348000022A03D1EFF31182002A40D100283ED056
:1034900000293CD05FF0FF33002C1DD0A268002A29
:1034A0000CD0E268502A09D32269002A06D062694A
:1034B00001FB00F6B24201D301230EE0A268002A0C
:1034C0000BD1E268002A08D12269002A05D162697D
:1034D000002A02D1002300E00023012B07D10022A3
:1034E0000092A368226904F06AFB050005E0002B46
:1034F00003D1002204F0B6FB0500002D07D0002CFC
:1035000001D0216800E00021280004F0D1FE28004D
:1035100076BD38B51C000025EFF30582002A0BD1DB
:10352000EFF31082002A07D14A4A1268022A23D1F7
:10353000EFF31182002A1FD0002803D0002901D008
:10354000002C02D07FF003052AE000220092002325
:103550006A4604F08BFC012802D07FF002051FE0D0
:10356000009800281CD05FF080503B490860BFF3F2
:103570004F8FBFF36F8F13E0002801D0002902D1D5
:103580007FF003050CE00023220004F0A4FB0128D7
:1035900006D0002C02D07FF0010501E07FF002058B
:1035A000280032BD38B51C000025EFF30582002A43
:1035B0000BD1EFF31082002A07D1264A1268022AA3
:1035C00022D1EFF31182002A1ED0002803D0002957
:1035D00001D0002C02D07FF0030528E000220092E9
:1035E0006A4604F061FD012802D07FF002051EE06A
:1035F000009800281BD05FF0805017490860BFF387
:103600004F8FBFF36F8F12E0002801D0002902D145
:103610007FF003050BE0220004F096FC012806D0A1
:10362000002C02D07FF0010501E07FF002052800A8
:1036300032BD0000094B036009480860802010601B
:103640007047084B0360084808604FF480701060B2
:10365000704700009C34002004ED00E0F02E0020B4
:10366000502C00204C2F00206425002080B5314ACA
:1036700002210120FFF7F6FE2F4908602F4A0221A0
:103680000120FFF7EFFE2E4908602E4A012101209C
:10369000FFF7E8FE2C4908602C4A04210120FFF7BF
:1036A000E1FE2B4908602B4A00210FF25D00FFF775
:1036B000F0FD29490860294A00212948FFF7E9FD62
:1036C00028490860284A00212848FFF7E2FD2849D8
:1036D0000860284A00212848FFF7DBFD27490860D9
:1036E000274A00212748FFF7D4FD27490860274AC9
:1036F00000212748FFF7CDFD264908602648FFF73F
:1037000077FE2649086001BD80B501224FF4807123
:10371000234800F0FFFD4FF4FA70FFF74BFE002244
:103720004FF480711E4800F0F5FD4FF4FA70FFF77A
:1037300041FEEAE7F8920008B83400201093000830
:10374000BC34002028930008C034002040930008B7
:10375000C43400205C910008A0340020809100084F
:10376000FB1C0008A4340020A491000817270008BF
:10377000A8340020C8910008F12D0008AC340020C6
:10378000EC910008D7560008B034002010920008D1
:10379000F1310008B43400207C930008CC340020C0
:1037A00000100140002204F0BDBD00007CB5040003
:1037B000002C01D1012035E22078C00740F184803F
:1037C000DFF89006006810F00C0004280BD0DFF83A
:1037D0008406006810F00C0008280ED1DFF874068B
:1037E0000068C00309D5DFF86806006880036BD560
:1037F0006068002868D1012014E26068B0F5803F5D
:1038000008D1DFF84C06006850F48030DFF840162D
:10381000086038E06068002810D1DFF834060068DE
:1038200030F48030DFF828160860DFF824060068DE
:1038300030F48020DFF81816086024E06068B0F5E6
:10384000A02F10D1DFF80806006850F48020DFF8C0
:1038500000160860DFF8F805006850F48030DFF8E3
:10386000F01508600FE0DFF8E805006830F48030FC
:10387000DFF8DC150860DFF8D805006830F4802038
:10388000DFF8CC150860606800280ED004F064FDF5
:103890000500DFF8BC050068800315D404F05CFD6A
:1038A000401B6528F5D30320BCE104F055FD05005D
:1038B000DFF89C050068800306D504F04DFD401B31
:1038C0006528F5D30320ADE12078800726D5DFF801
:1038D0008405006810F00C0F0BD0DFF87805006845
:1038E00010F00C00082833D1DFF868050068C00329
:1038F0002ED4DFF85C050068800704D52069012814
:1039000001D001208EE1DFF84805006830F0F800B2
:10391000616950EAC100DFF83815086020780007B7
:103920004ED5A069002800F081800120DFF838150D
:10393000086004F011FD0500DFF828050068800725
:103940003BD404F009FD401B0328F5D3032069E1B3
:10395000206900281ED00120DFF81015086004F04F
:10396000FBFC0500DFF8E8040068800706D404F0DB
:10397000F3FC401B0328F5D3032053E1DFF8D00408
:10398000006830F0F800616950EAC100DFF8C01447
:103990000860C3E70020DFF8D414086004F0DCFC02
:1039A0000500DFF8AC0400688007B7D504F0D4FC4C
:1039B000401B0328F5D3032034E1012000F035FA41
:1039C0002078400740F1B9800025DFF8A4040068A2
:1039D000C0000FD4DFF89804006850F08050DFF882
:1039E00090140860DFF88804006810F080500090A0
:1039F00000980125DFF87C040068C00529D4DFF8B1
:103A00007404006850F48070DFF86814086004F0F3
:103A1000A3FC0600DFF85C040068C00519D404F0BC
:103A20009BFC801B6528F5D30320FBE00020DFF81A
:103A30003814086004F090FC0500DFF828040068E2
:103A40008007BDD504F088FC401B0328F5D3032074
:103A5000E8E0E068012808D1DFF81C04006850F0B5
:103A60000100DFF81414086037E0E068002810D186
:103A7000DFF80404006840084000DFF8FC13086029
:103A8000DFF8F403006830F00400DFF8EC1308609E
:103A900023E0E068052810D1DFF8DC03006850F06F
:103AA0000400DFF8D4130860DFF8CC03006850F09E
:103AB0000100DFF8C41308600FE0DFF8BC03006802
:103AC00040084000DFF8B0130860DFF8AC0300687E
:103AD00030F00400DFF8A0130860E068002810D080
:103AE00004F03AFC0600DFF890030068800719D460
:103AF00004F032FC801B41F289318842F3D3032069
:103B000090E004F029FC0600DFF86C0300688007F1
:103B100008D504F021FC801B41F289318842F3D39F
:103B200003207FE0EDB2012D07D1DFF844030068E8
:103B300030F08050DFF838130860E069002870D05A
:103B4000DFF81003006810F00C00082855D0E06979
:103B500002283FD10020DFF82413086004F0FCFBAA
:103B60000500DFF8EC020068800106D504F0F4FBE4
:103B7000401B0328F5D3032054E0206AB0F5803FB2
:103B800009D1DFF8D002016831F40031A0680143A7
:103B9000DFF8C0020160DFF8BC02016831F4741183
:103BA000206A0143606A0143DFF8A8020160012036
:103BB000DFF8C812086004F0CFFB0400DFF89002C1
:103BC000006880012DD404F0C7FB001B0328F5D347
:103BD000032027E00020DFF8A412086004F0BCFBFB
:103BE0000400DFF86C02006880011AD504F0B4FB11
:103BF000001B0328F5D3032014E0E069012801D15C
:103C000001200FE0DFF84C02006810F48031226AD6
:103C1000914204D110F47010616A884201D00120F1
:103C200000E0002076BD70B504000D00002C01D12D
:103C30000120AEE0DFF84802006810F00700A8425B
:103C400011D2DFF83C020068C008C0002843DFF84A
:103C500030120860DFF82802006810F00700A84260
:103C600001D0012095E0207880071FD520784007FB
:103C700007D5DFF8E001006850F4E060DFF8D41108
:103C800008602078000707D5DFF8C801006850F405
:103C90006050DFF8C0110860DFF8B801016831F04A
:103CA000F001A0680143DFF8AC0101602078C00793
:103CB00033D56068012805D165480068800310D4B9
:103CC000012066E06068022805D161480068800133
:103CD00007D401205DE05E480068800701D4012020
:103CE00057E05C48016889088900606801435948C9
:103CF000016004F031FB06005648006810F00C002B
:103D00006168B0EB810F08D004F026FB801B41F204
:103D100089318842F0D303203BE05948006810F015
:103D2000070085420ED256480068C008C0002843EC
:103D3000534908605248006810F00700A84201D0BB
:103D4000012026E02078400707D54248016831F479
:103D5000E061E06801433F4801602078000708D532
:103D60003C48006830F46050216950EAC10039498C
:103D7000086000F00FF84349364A1268C2F3031294
:103D8000895CC840354908603548006800F08CF906
:103D9000002070BD00B585B001A83B491022FDF799
:103DA00031FD3A480088ADF80000002000200020D6
:103DB000002000202748016811F00C00042802D0E0
:103DC000082802D015E0244814E001A8C1F383427A
:103DD000805CC9030AD569461E4A1268C2F3404294
:103DE0008A5C1D494843B0FBF2F001E02849484392
:103DF00000E0194805B000BD18480068704780B55C
:103E0000FFF7FAFF2349134A1268C2F30222895CC2
:103E1000C84002BD80B5FFF7EFFF1E490D4A12688A
:103E2000C2F3C222895CC84002BD81B00B49096857
:103E3000C9084FF47A72B1FBF2F14843009000BF19
:103E40000098411E00910028F9D101B07047000090
:103E5000001002400410024000127A00FC00002012
:103E6000F800002024100240800442420000424238
:103E70001C100240007000402010024060004242CE
:103E800000200240AC9300088C930008E217000861
:103E900000093D00149400087CB5040000200020B7
:103EA0002078C00763D5002574480068C0000CD492
:103EB0007248006850F08050704908606F48006890
:103EC00010F080500090009801256D480068C005F2
:103ED00013D46B48006850F480706949086004F09E
:103EE0003BFA060066480068C00506D404F034FAC0
:103EF000801B6528F6D3032050E06248006810F468
:103F00004070002822D0616811F4407188421DD0B1
:103F10005C48006830F4407001215B4A1160002168
:103F2000594A116057490860C0070FD504F014FAC8
:103F3000060054480068800708D404F00DFA801B7E
:103F400041F289318842F4D3032027E04D480168CB
:103F500031F44071606801434A480160EDB2012DBF
:103F600005D14648006830F0805044490860207808
:103F7000800707D54548016831F44041A0680143F6
:103F8000424801602078C00607D54048016831F4F6
:103F90008001E06801433D480160002076BD18B50E
:103FA00085B0040001A83A491022FDF72BFC3948DE
:103FB0000088ADF800000020002100200020002033
:103FC000012C2AD0022C4BD0102C54D12F4A12682D
:103FD000314B1B68DB011FD501A8C2F38343C35CCF
:103FE000D0030CD56846294C2468C4F34044005DD6
:103FF000D20307D52949B1FBF0F1594302E019007A
:104000002748414321480068400201D5080003E0E9
:1040100048000321B0FBF1F02DE01A49096840F295
:1040200002320A40B2F5817F02D14FF4004016E01F
:1040300011F44072B2F5007F06D11A4A1268920755
:1040400002D549F640400AE011F44071B1F5407FD5
:1040500005D111490968890301D54FF224400AE0CE
:10406000FFF7D8FE09490968C1F38131491C4900AD
:10407000B0FBF1F0FFE706B010BD00001C100240DD
:1040800000700040201002404004424204100240F0
:104090009C9300086E1900080010024000127A007C
:1040A00000093D002410024010B504004FF47A705E
:1040B0000D490978B0FBF1F00C490968B1FBF0F04B
:1040C000FDF7D9FC002801D001200CE0102C09D20A
:1040D000002221005FF0FF30FDF7B7FC04480460C8
:1040E000002000E0012010BD02010020FC000020A3
:1040F000F800002080B51348006850F00100114915
:1041000008601048006810F00100009000980E4808
:10411000006850F080500C4908600B48006810F0AF
:1041200080500090009800220F217FF00100FDF7E1
:104130008CFC0648006830F0E06050F000700349E5
:10414000086001BD181002401C100240040001402C
:10415000F8B40200002300251AE0DFF8CC01006863
:1041600030EA0404DFF8C001046010E0DFF8BC01AD
:104170000068A043DFF8B461306048688002ECD585
:10418000DFF8A40100680443DFF89C0104605B1CB5
:104190000868D840002800F0BB8001269E400C68CB
:1041A0003440B442F3D14868002827D001281AD0FF
:1041B00002281DD003282FD0112816D012281AD07B
:1041C0005B4FB8421AD05B4FB84217D05A4FB84233
:1041D00014D05A4FB84211D0594FB8420ED0594F4F
:1041E000B8420BD01AE0CD6818E0CD682D1D15E05F
:1041F000CD68083512E0CD680C350FE088680028DE
:1042000001D1042507E08868012802D1082516613C
:1042100001E00825566101E00025FFE7B4F5807F45
:1042200001D2100000E0101DB4F5807F01D29E0085
:1042300002E0B3F10806B60007685FF00F0C1CFA45
:1042400006FC37EA0C0715FA06F63E430660486896
:10425000C0009CD53C48006850F001003A4E3060E8
:104260003948006810F001000090009837481E009F
:10427000B60850F826600F2713F00300C0B2800084
:104280008740BE433248824201D100270FE03148C7
:10429000824201D101270AE02F48824201D1022740
:1042A00005E02E48824201D1032700E0042713F0E5
:1042B0000300C0B2800087403E4324481F00BF086F
:1042C00040F827604868C00305D5254800682043AA
:1042D000234E306004E022480068A043204E306046
:1042E0004868800305D51F48006820431D4E306094
:1042F00004E01C480068A0431A4E30604868C002C1
:104300007FF534AF094800682043084E306034E739
:10431000F1BC7047D2B2002A02D089B2016102E03A
:1043200089B20904016170470C040140080401408E
:1043300000001110000012100000211000002210D7
:104340000000311000003210181002400800014037
:1043500000080140000C0140001001400014014021
:10436000000401400404014038B50400002C01D1D0
:104370000120AEE094F82000002802D12000FDF7D3
:104380005FFC2068006850F001002168086003F0BD
:10439000E3FF050020684068C0070DD403F0DCFF90
:1043A000401B0B28F6D3606A50F400306062052091
:1043B00084F8200001208CE02068006830F00200C2
:1043C0002168086003F0C8FF050020684068800786
:1043D0000DD503F0C1FF401B0B28F6D3606A50F4E3
:1043E00000306062052084F82000012071E0207E0A
:1043F000012806D12068006850F08000216808601C
:1044000005E02068006830F0800021680860607E68
:10441000012806D12068006850F04000216808603B
:1044200005E02068006830F0400021680860A07E48
:10443000012806D12068006850F02000216808603B
:1044400005E02068006830F0200021680860E07E08
:10445000012806D12068006830F01000216808604B
:1044600005E02068006850F0100021680860207F97
:10447000012806D12068006850F008002168086013
:1044800005E02068006830F0080021680860607F5F
:10449000012806D12068006850F0040021680860F7
:1044A00005E02068006830F0040021680860A16819
:1044B000E068014320690143606901436068401E70
:1044C00001432068C16100206062012084F820005F
:1044D000002032BD38B5040094F82000012821D115
:1044E000022084F82000206800684008400021680D
:1044F000086003F031FF050020684068C0070DD553
:1045000003F02AFF401B0B28F6D3606A50F40030FA
:104510006062052084F82000012008E0002060622D
:10452000002004E0606A50F400206062012032BD87
:1045300070B490F820500468A6688C68002CFFD0F6
:104540002C00E4B2012C02D0EDB2022D6ED116F097
:10455000E05F65D0C6F30164032C05D3416A51F4D2
:1045600000014162012066E00125A5401D608B68C5
:10457000002B09D10B68CD6855EA43550368260125
:104580003344C3F880510AE04B688D6855EAC3058F
:10459000CB681D43036826013344C3F880510B697F
:1045A000056826013544C5F88431097D01290BD100
:1045B000016823011944D1F8841151F48071036812
:1045C00025012B44C3F88411D17993791B0453EA54
:1045D0000163517953EA012311790B4301682501E5
:1045E0002944C1F88C31D17893781B0453EA0163D4
:1045F000517853EA012311780B43016822011144D9
:10460000C1F88831016822011144D1F8801151F0BC
:104610000101006822011044C0F8801100200AE066
:10462000416A51F400114162012004E0416A51F4F1
:1046300080214162012070BC70472DE9F84F0500D0
:10464000002428684669286847682868D0F80880E8
:104650002868D0F80C902868D0F810A02868D0F806
:1046600018B0F00755D55FEAC87018D50120296841
:1046700088605FEA887003D5280003F073FE0EE0BF
:104680005FEA487002D554F4006408E05FEA0870FD
:1046900002D554F4805402E0280003F064FE5FEA7F
:1046A000C85019D54FF48070296888605FEA885037
:1046B00003D5280003F058FE0EE05FEA485002D50B
:1046C00054F4005408E05FEA085002D554F48044E2
:1046D00002E0280003F049FE5FEAC83019D55FF414
:1046E0008030296888605FEA883003D5280003F0AD
:1046F0003DFE0EE05FEA483002D554F4004408E085
:104700005FEA083002D554F4803402E0280003F058
:104710002EFE300707D55FEAC96004D554F4007453
:1047200010202968C860700708D55FEA097005D5B0
:1047300008202968C860280003F01AFEB00707D5D2
:104740002868C06810F0030F02D0280003F011FEA3
:10475000700607D55FEACA6004D554F4806410205F
:1047600029680861B00608D55FEA0A7005D50820F7
:1047700029680861280003F0FDFDF00607D52868C8
:10478000006910F0030F02D0280003F0F4FDB0031D
:1047900007D5F80605D5102029684860280003F0E1
:1047A000EBFDF00307D5380705D5082029684860D8
:1047B000280003F0E2FD30044DD5780748D5F00518
:1047C00006D51BF00100C0B2002801D054F001044E
:1047D000B00504D55FEA8B7001D554F00204700572
:1047E00004D55FEA4B7001D554F0040430052FD591
:1047F0001BF0700F2CD01BF0700BBBF1100F0FD003
:10480000BBF1200F0FD0BBF1300F0FD0BBF1400F29
:104810000FD0BBF1500F0FD0BBF1600F0FD011E0E4
:1048200054F008040EE054F010040BE054F020049F
:1048300008E054F0400405E054F0800402E054F431
:104840008074FFE72868806930F07000296888610B
:10485000042029684860002C05D0686A04436C6213
:10486000280003F08BFDBDE8F18F000038B504008F
:104870000D00002C01D1012041E094F83D000028FA
:1048800005D1002084F83C002000FDF7A0FA242088
:1048900084F83D002068C06830F400502168C8608A
:1048A000200000F076FA2068006930F4006021688A
:1048B00008612068406930F02A002168486120685A
:1048C000006950F48040216808612068006930F078
:1048D000200021680861206800690543206805619F
:1048E0002068C06850F400502168C860002020642F
:1048F000202084F83D00202084F83E00002032BDB6
:1049000090F83D30202B23D1002903D013009BB217
:10491000002B01D101201CE090F83C30012B01D18B
:10492000022016E0012380F83C3001628284C284B8
:1049300000210164212180F83D10002180F83C1005
:104940000168C96851F080010068C160002000E082
:104950000220704780B590F83E30202B16D10029F8
:1049600003D013009BB2002B01D101200FE090F87F
:104970003C30012B01D1022009E0012380F83C30BA
:104980000023036392B200F012F900E0022002BD9E
:1049900038B50400206801682068C268206843694F
:1049A0000020002011F00F00002807D18D0605D54A
:1049B000950603D5200000F07EF9F7E0002872D0BC
:1049C000D80702D412F4907F6DD011F00100C0B26C
:1049D000002805D0D00503D5206C50F001002064DC
:1049E000480708D513F00100C0B2002803D0206C9E
:1049F00050F002002064880708D513F00100C0B20F
:104A0000002803D0206C50F00400206408070AD569
:104A1000900604D413F00103DBB2002B03D0206C0A
:104A200050F008002064206C00283BD0880604D594
:104A3000900602D5200000F03EF920684069800908
:104A400010F00100216C090701D4002825D02000B6
:104A500000F0CCF82068406940061AD5206840690B
:104A600030F0400021684861A06B00280DD00FF2A3
:104A7000B510A16B4863A06B03F0A8FC002811D00F
:104A8000A06BA16B496B88470CE0200003F004FD8C
:104A900008E0200003F000FD04E0200003F0FCFC2F
:104AA0000020206482E0206B01286FD1C8066DD5FC
:104AB000D0066BD500200090206800680090206828
:104AC00040680090009820684069400638D5A06B87
:104AD00000684168080080B2002830D00800A28D2C
:104AE00080B290422BD2E185A06B806920281FD034
:104AF0002068C06830F480702168C8602068406910
:104B000040084000216848612068406930F040005A
:104B100021684861202084F83E000020206320683E
:104B2000C06830F010002168C860A06B03F028FC5A
:104B3000A18DE08D091A89B2200003F0AEFC35E0AA
:104B4000A08DE18D411AE08D00281ED0080080B2B2
:104B500000281AD02068C06830F490702268D060B5
:104B6000206840694008400022685061202084F895
:104B70003E00002020632068C06830F010002268EA
:104B8000D06089B2200003F088FC0FE0080605D54C
:104B9000100603D5200000F04FF807E0480605D5C1
:104BA000500603D5200000F078F8FFE731BD8162A0
:104BB0008285C28500210164222180F83E100021F7
:104BC00080F83C100168C96851F480710268D160B6
:104BD0000168496951F00101026851610168C968C1
:104BE00051F020010068C160002070470168C96869
:104BF00031F490710268D16001684969490849003F
:104C000002685161016B012905D10168C96831F061
:104C100010010268D160202180F83E10002101635C
:104C20007047000080B5406A0021C1850021C18421
:104C300003F032FC01BD000090F83D1021292AD17B
:104C40008168B1F5805F0CD10169002909D1016A41
:104C50000988C905C90D02685160016A891C016291
:104C600005E0016A4A1C0262097802685160C18C41
:104C7000491EC18489B200290BD10168C96831F08D
:104C800080010268D1600168C96851F04001006884
:104C9000C160002000E00220704780B50168C9684B
:104CA00031F040010268D160202180F83D1003F00E
:104CB000F5FB002002BD80B590F83E10222966D198
:104CC0008168B1F5805F0DD1016900290AD1002109
:104CD000816A02685268D205D20D0A80816A891CF5
:104CE000816217E0826A00218168B1F5805F05D09A
:104CF0008168002906D10169002903D1016849684A
:104D0000117004E00168496811F07F011170816A37
:104D1000491C8162C18D491EC18589B2002934D1E7
:104D20000168C96831F020010268D1600168C96872
:104D300031F480710268D16001684969490849000D
:104D400002685161202180F83E10016B012918D1C1
:104D5000002101630168C96831F010010268D16067
:104D600001680968C90608D5002100910168096831
:104D700000910168496800910099818D03F08DFBD5
:104D800001E0FDF770F8002002E0002000E00220C2
:104D900002BD38B504002068016931F44051E06873
:104DA000014320680161A1682069014360690143F2
:104DB0002068C2682D48024011432068C160206805
:104DC000416931F44071A069014320684161206864
:104DD0002749884202D1FFF71DF801E0FFF70FF8DD
:104DE000192101FB00F162689200B1FBF2F164222B
:104DF000B1FBF2F2192101FB00F163689B00B1FBEA
:104E0000F3F3192101FB00F16568AD00B1FBF5F189
:104E10006425B1FBF5F5642101FB1533190132312D
:104E20006423B1FBF3F313F0F00313EB0213192126
:104E300001FB00F162689200B1FBF2F219214843D4
:104E400061688900B0FBF1F06421B0FBF1F16420EE
:104E500000FB1122100132306421B0FBF1F010F0A0
:104E60000F00C3182068836031BD0000F3E9FFFF25
:104E7000003801401CB50400002C07D1502080F3FD
:104E80001188BFF34F8FBFF36F8FFEE72020009094
:104E90000098202807D0502080F31188BFF34F8F4F
:104EA000BFF36F8FFEE7002C06D000202060201D8E
:104EB00003F0F5FA01202077200016BD10B5202060
:104EC00003F03AFB0400002C06D000202060201DD7
:104ED00003F0E5FA00202077200010BD2DE9F0470F
:104EE000070014001E005FF0000A0020002F07D109
:104EF000502080F31188BFF34F8FBFF36F8FFEE711
:104F0000884618F07F4F07D0502080F31188BFF3F8
:104F10004F8FBFF36F8FFEE7B8F1000F07D150201E
:104F200080F31188BFF34F8FBFF36F8FFEE7089DAB
:104F300002F030FD002801D1002D01D1012000E058
:104F40000020C0B2002807D1502080F31188BFF3A1
:104F50004F8FBFF36F8FFEE702F0EEF9D7F80090A6
:104F600032004146484600F0A7F8002807D0002547
:104F7000002C19D0386830EA0800386014E0002DA1
:104F800001D1012010E0002C01D05AF0807A002ECF
:104F900001D05AF0806A2A005AEA080A5146381DA0
:104FA00002F032FB5FF0000902F0CEF9002D26D0AE
:104FB000002807D15FF080504A490860BFF34F8F47
:104FC000BFF36F8F02F046FD81465FEA891014D46B
:104FD00003F056FCD7F8009032004146484600F0F6
:104FE0006BF8002806D0002C04D0386830EA080896
:104FF000C7F80080012003F060FC29F07F49484693
:10500000BDE8F0872DE9F04104000F0000250020E5
:10501000002C07D1502080F31188BFF34F8FBFF3CE
:105020006F8FFEE717F07F4F07D0502080F3118875
:10503000BFF34F8FBFF36F8FFEE714F1040818F131
:10504000080602F079F9D8F80C2020680743276099
:1050500023E0D4F800C01CEA010C8C4511D10120DA
:105060000FE057681168002011F07F4321F07F4165
:105070005FEA431CEDD4D4F800C011EA0C0F00D055
:105080000120002808D0D80100D50D43216851F037
:105090000071100002F04CFB3A00B242E1D12068EE
:1050A00030EA0505256002F04FF92068BDE8F0817F
:1050B00080B5FFF7A7FF01BD03000020002A03D140
:1050C0000B4205D0012003E00B408B4200D10120B0
:1050D000704780B513000A000100034803F086FE04
:1050E00002BD000004ED00E0B1500008FF20DFF831
:1050F000601608700020DFF85C1608700020DFF8EA
:10510000581608700020DFF8541608600020DFF8F9
:10511000501608600020DFF84C1608800020DFF8E9
:10512000441648800420DFF840160870FF20DFF89E
:105130003C1608707047DFF838060078002803D066
:10514000022813D005D31EE00120DFF824160870D2
:1051500019E00220DFF818160870DFF81806018839
:105160000A204143DFF8F80501600CE0DFF808068B
:105170000078002807D10020DFF8F415087000201F
:10518000DFF8D0150870704780B5DFF8F0050078BB
:10519000002806D0022856D02FD3042870D060D320
:1051A00085E0DFF8AC050078092821DADFF8D025A2
:1051B000DFF8D015DFF898050078FDF7D0FEDFF8AE
:1051C000C40501880A204143DFF8B8050180DFF8F3
:1051D000B00501880A204143DFF8A40501800120C1
:1051E000DFF8981508700020DFF86C15087003E0F0
:1051F0000020DFF86015087059E0DFF888050088A6
:1052000000F529405F30DFF858150860DFF85005D9
:105210000168DFF848050068091A4AF65F10814204
:1052200008D2DFF83C05006800F529405F30DFF860
:10523000301508600120DFF8401508700220DFF803
:105240003C15087033E0DFF830050078002807D1FE
:105250000320DFF8281508700020DFF8FC14087020
:1052600025E0DFF81C050088DFF8F4140860012051
:10527000DFF8041508700420DFF80015087016E048
:10528000DFF8F4040078002811D10020DFF8EC14D6
:1052900008700020DFF8BC1408700020DFF8B81494
:1052A0000870DFF8AC040078DFF8C014087001BDA6
:1052B00080B5DFF8D4040078002809D0022800F077
:1052C000CA804DD3042800F04881C0F0368150E1F7
:1052D00000220121DFF8B404FFF71CF800220221AC
:1052E000DFF8A804FFF716F80020DFF88C14087028
:1052F0000020DFF89C140880DFF86004006832307A
:10530000DFF85C140968884210D20020DFF85414DA
:1053100008806420DFF84C1448800120DFF868140E
:1053200008700220DFF85014087018E0DFF830042D
:1053300000683230DFF82414096888420FD26420F4
:10534000DFF8201408800020DFF8181448800220BD
:10535000DFF8341408700220DFF81C14087008E12C
:10536000DFF830040088DFF8F413096888420AD2B5
:10537000DFF8E8030168DFF81C040088091ADFF889
:105380001804018009E0DFF80C040188DFF8CC0381
:105390000068091ADFF800040180DFF8FC030088C8
:1053A000642857DA002010E0DFF8F0130200D2B2D0
:1053B000524201EB4201098FDFF8E0230300DBB228
:1053C0005B4202EB43025187401C0100C9B21D2918
:1053D000EAD3DFF8C4030088DFF8C0130880002098
:1053E000DFF8BC13088000210DE0DFF8B403028869
:1053F000DFF8A8030B00DBB230F813008218DFF8E7
:10540000A0030280491C0800C0B21E28EDD3DFF8BB
:10541000900300881E21B0FBF1F0DFF884130880B0
:10542000DFF83C030168DFF834030268DFF870033B
:1054300003880F2000FB032291420BD20320DFF8E8
:10544000481308706420DFF81C1308806420DFF81C
:10545000141348808DE0DFF83C030088DFF8FC126D
:10546000096888420AD2DFF8F4020168DFF82403F1
:105470000088091ADFF82003018009E0DFF814032F
:105480000188DFF8D8020068091ADFF80C030180F0
:10549000DFF80403008864284EDA002010E0DFF80B
:1054A000FC120200D2B2524201EB4201098FDFF836
:1054B000EC220300DBB25B4202EB43025187401C4B
:1054C0000100C9B21D29EAD3DFF8CC020088DFF859
:1054D000CC1208800020B249088000210AE0B048C0
:1054E0000288AE480B00DBB230F813008218AC48DB
:1054F0000280491C0800C0B21E28F0D3A8480088CA
:105500001E21B0FBF1F0A649088094480168944838
:105510000268A34803880F2000FB032291420BD2AC
:1055200003209949087000209949088064208D491A
:10553000088064208B4948801BE09548008840F231
:10554000F511884203D304208F49087004E0904885
:105550000088401C8E4908800BE0002081490880AB
:105560000020804948800020874908700420824933
:1055700008708C4800887B490988884205D1894891
:10558000408878494988884213D0764800888649FF
:1055900008607448408884494860002300227149AB
:1055A00082480068FDF7B5FF012181480068FFF7D8
:1055B00029FD6A480068774908806A480088794967
:1055C0000880684840887749488001BD10B50023AD
:1055D0002200784978480068FDF7E4FF00232200A4
:1055E000644976480068FDF7DDFF5A4800780028D6
:1055F00029D1734800786F490978884205D07148ED
:1056000000884FF6FF71884205D1584800786949F3
:105610000978884207D0674800784D490870012012
:105620004C4908700FE06748008852490988884251
:1056300006D0FF204649087002204649087002E063
:10564000FF204349087043480078002806D002280C
:1056500008D004D3042809D007D308E007E0FFF7F7
:1056600093FD04E0FFF767FD01E000E0FFE7394844
:105670000078002817D0FFF71BFE03203A49087076
:105680005148008842F21171884203DB01204F49E2
:1056900008700EE04C480088401C4B4908800020F0
:1056A0004A49087005E004202F4908700020464947
:1056B000088040480078424908702E4800884149D7
:1056C000088010BD2848007870474048007870472F
:1056D00026480078704710B5FFF708FD4FF47A7040
:1056E000FDF768FE3A4804883A48008849F6927106
:1056F000884208D3200080B2652804D2164800787A
:10570000401C15490870200080B249F69271884209
:105710000CD330480088652808D20F48007800284C
:1057200004D00D480078401E0B4908700A480178E3
:105730004AF65F12200080B202FB010107480160B7
:10574000FFF744FF234804800120FDF733FEC9E73B
:105750007E3500208135002080350020E034002097
:10576000E4340020E8340020843500207F35002018
:1057700086350020643500208335002087350020E1
:105780006835002066350020823500200010014079
:105790006A350020703500206C350020F83200207A
:1057A0006E350020EC34002064340020C434002026
:1057B000CC34002088350020C0340020BC340020C8
:1057C0008935002000010020723500208535002039
:1057D000763500207435002010B504000020002C20
:1057E00001D1012068E0607C002804D100202074F1
:1057F0002000FDF791F802206074200000F062F8AC
:10580000002803D004206074012055E0200000F03F
:1058100078F8002803D00420607401204CE0206850
:105820004068C008C00021684860A068002807D010
:10583000DFF88800006840084000DFF8801008604A
:10584000DFF87C00016831F46071A0680143DFF883
:1058500070000160606810F1010F01D0606809E01C
:105860000120FEF79CFB002803D104206074012076
:1058700022E0401E216889680909090151EA1041A6
:10588000226891602168C968090C090480B2084344
:105890002168C860200000F04FF8002803D00420E1
:1058A0006074012008E00020E07301206073012093
:1058B000A07301206074002010BD0000306C004017
:1058C0002C6C004038B504000020002C01D10120D0
:1058D00016E02068406830F008002168486002F057
:1058E0003BFD050020684068000708D402F034FD45
:1058F000401B40F2E9318842F4D3032000E000204D
:1059000032BD38B50400002002F026FD05002068F5
:105910004068800608D402F01FFD401B40F2E931C8
:105920008842F4D3032006E02068406850F010005D
:1059300021684860002032BD38B50400002020688E
:10594000406830F010002168486002F005FD050055
:1059500020684068800608D402F0FEFC401B40F23C
:10596000E9318842F4D3032000E0002032BD00007A
:10597000012001490860704720000E4210B5040064
:10598000002C01D101205AE0606A002806D160682D
:10599000B0F5827F06D00020E06103E000202061A6
:1059A000002060610020A06294F85100002805D119
:1059B000002084F850002000FCF7FEFF022084F84D
:1059C00051002068006830F040002168086060687D
:1059D00010F48270A16811F404410843E16811F4E5
:1059E00000610843217C11F002010843217D11F080
:1059F00001010843A16911F400710843217F11F0EE
:105A00003801084394F8201011F080010843A16A7E
:105A100011F40051084321680860A069000C10F0DF
:105A20000400216848602068C06930F40060216883
:105A3000C86100206065012084F85100002010BD7D
:105A400010B50400002C01D101202FE094F83D0096
:105A5000002805D1002084F83C002000FDF7CBF899
:105A6000022084F83D00211D206800F028FB012061
:105A700084F84600012084F83E00012084F83F00AD
:105A8000012084F84000012084F84100012084F8BE
:105A90004200012084F84300012084F844000120E2
:105AA00084F84500012084F83D00002010BD10B5A9
:105AB0000400002902D194F83E000BE0042902D131
:105AC00094F83F0006E0082902D194F8400001E074
:105AD00094F84100012801D001204BE0002904D1B5
