:020000040800F2
:1000000068390020E98F00085D8C00085F8C0008CB
:10001000618C0008638C0008658C000800000000FB
:100020000000000000000000000000002B85000818
:10003000678C000800000000E5840008698C000857
:100040007190000875900008799000087D90000874
:100050008190000885900008899000088D90000824
:100060009190000895900008999000089D900008D4
:10007000A1900008A5900008A9900008AD90000884
:10008000B1900008B5900008B99000087D8C000878
:100090008D8C00089D8C0008BD900008C190000860
:1000A000C5900008C9900008CD900008A78C0008F2
:1000B000D1900008D5900008D9900008DD90000884
:1000C000E1900008E5900008E9900008ED90000834
:1000D000F1900008B18C0008F5900008F990000834
:1000E000FD900008019100080591000818B585B041
:1000F0000400002C01D10120BFE094F8A9020028DF
:1001000005D1002084F8A802200000F076FE03202C
:1001100084F8A902206800F09DFE211D83B0684686
:10012000202201F06FFB0EBC206800F08FFE00283B
:1001300004D0022084F8A90201209EE0002120685A
:1001400000F092FE00213BE001220B00DBB22820F0
:10015000434304EB030080F829200A00D2B2282090
:10016000424304EB020080F828100A00D2B20B00D0
:10017000DBB22820434304EB0300C28600220B00BD
:10018000DBB22820434304EB030080F82B2000223D
:100190000B00DBB22820434304EB03008263002200
:1001A0000B00DBB22820434304EB0300C2630022B0
:1001B0000B00DBB22820434304EB03000264491C1C
:1001C0000800C0B262689042BED3002135E0002230
:1001D0000B00DBB22820434304EB030080F86921C5
:1001E0000A00D2B22820424304EB020080F86811D2
:1001F00000220B00DBB22820434304EB030080F80D
:100200006B2100220B00DBB22820434304EB0300E8
:10021000C0F8782100220B00DBB22820434304EB16
:100220000300C0F87C2100220B00DBB228204343EE
:1002300004EB0300C0F88021491C0800C0B26268CA
:100240009042C4D3211D83B06846202201F0DAFA1F
:100250000EBC206800F00AFE002804D0022084F8BA
:10026000A902012009E0002084F82400012084F87C
:10027000A902206801F07CFA002006B010BD1FB56D
:100280000400206801F076FA000402D5200000F096
:10029000ECF8206801F06EFA40050FD52068B0F840
:1002A00044104FF6FF3001402068A0F844102000B1
:1002B00001F0EBFA0021200000F0C1F8206801F005
:1002C00059FA400408D52068B0F844104BF6FF7086
:1002D00001402068A0F84410206801F04BFA800427
:1002E00008D52068B0F844104DF6FF700140206832
:1002F000A0F84410206801F03DFAC0041DD5206824
:10030000B0F840104FF6FB7001402068A0F8401094
:100310002068B0F840104FF6F77001402068A0F850
:100320004010200001F0B2FA2068B0F844104EF6F8
:10033000FF7001402068A0F84410206801F01AFA0C
:1003400000055CD500200AE021680200D2B231F835
:1003500022106A460300DBB222F81310401C010091
:10036000C9B20829F0D32068B0F8400050F001006D
:100370002168A1F840002068B0F840104FF6FE70E8
:1003800001402068A0F840102068B0F84400400503
:10039000FAD52068B0F844104FF6FF3001402068CD
:1003A000A0F8441000200AE069460200D2B231F8F9
:1003B000121022680300DBB222F82310401C010057
:1003C000C9B20829F0D32068B0F8400050F0080006
:1003D0002168A1F840002068B0F844104FF2FF7087
:1003E00001402068A0F844102068B0F8400050F0A8
:1003F00004002168A1F84000200001F048FA2068BC
:1004000001F0B8F980050BD52068B0F844104FF61C
:10041000FF5001402068A0F84410200001F038FA95
:10042000206801F0A7F9C00508D52068B0F844108D
:100430004FF6FF6001402068A0F844101FBD10B5C2
:10044000040094F8A802012801D102200CE0012048
:1004500084F8A80284F82410C9B2206801F080F959
:10046000002084F8A802002010BD2DE9F04104000E
:1004700033E02068018848F60F70014051F40041D4
:100480002068018014F128052068B0F85000297810
:1004900010EBC100216811EB400101F20441088812
:1004A00080B28005800DE8616869E9690844686187
:1004B0000021200001F0EDF994F8240000280CD070
:1004C000A869002809D194F8240050F08000216820
:1004D000A1F84C00002084F824002068B0F8440003
:1004E000000440F1B3812068B0F8441011F00F050A
:1004F0002800C0B2002840F09C80C806B9D514F589
:10050000B47520680088010524D52068B0F8500033
:10051000297810EBC100216811EB400101F20C4178
:10052000088880B28005800DE861EB699BB2EA889B
:1005300014F52C71206801F039F92068018840F623
:100540008F70014051F0800120680180200001F08F
:10055000A1F9C2E70004C0D52068018840F68F7079
:10056000014051F08001206801802068B0F85000FF
:10057000297810EBC100216811EB400101F20C4118
:10058000088880B28005800DE861E869002811D0F4
:10059000686900280ED0EB699BB2EA886969206817
:1005A00001F004F96869E9690844686100212000E4
:1005B00001F071F92068008800058ED42168206858
:1005C000B0F85000411801F20C412869002809D107
:1005D0000A8848F2FF3002400A80088850F4004040
:1005E000088016E028693F2808D2286940082A7C3C
:1005F000D20700D5401C800208800AE02869400923
:100600002A7C12F01F0F00D1401E800250F40040DF
:100610000880206801884BF68F70014091F480516A
:1006200091F4005141F4004151F0800120680180B3
:1006300053E720682900C9B230F82160300440F146
:10064000AB8020682900C9B230F8211040F68F70C5
:10065000014051F0800120682A00D2B220F8221017
:100660002900C9B22820414304EB010010F5B477FA
:10067000387B00281CD12068B0F85000397810EB86
:10068000C100216811EB400101F20C41B1F800807A
:100690005FEA88585FEA9858404680B2002860D0E8
:1006A00043469BB2FA887969206801F07FF858E0E8
:1006B000F878022807D1320092B23900200000F009
:1006C000C8F880464DE02068397830F8211048F6A7
:1006D0008F70014041F4004151F0C00120683A7828
:1006E00020F822102068397830F8210040041CD509
:1006F0002068B0F85000397810EBC100216811EB88
:10070000400101F20441B1F800805FEA88585FEAD5
:100710009858404680B2002823D043469BB23A897D
:100720007969206801F042F81BE02068B0F85000B9
:10073000397810EBC100216811EB400101F20C4146
:10074000B1F800805FEA88585FEA9858404680B266
:10075000002806D043469BB27A897969206801F067
:1007600025F8F969404680B24118F9617869414637
:1007700089B208447861B869002804D01FFA88F863
:100780003869804504D23978200001F084F803E00C
:100790003900206800F07AFB30067FF59EAE290014
:1007A000C9B22820414304EB010010F12801206860
:1007B0002A00D2B230F8222048F60F70024052F4DC
:1007C00000422068EDB220F82520C878032807D021
:1007D000C878002804D0C878022831D1F0052FD479
:1007E0002068B0F850000A7810EBC200226812EBC3
:1007F000400202F2044212889205920D100080B26B
:100800008B69984205D28B69100080B21B1A8B61EC
:1008100001E0002088618869002804D1097820005F
:1008200001F037F859E6486913009BB21844486153
:10083000C86992B21218CA61206800F027FB4CE622
:10084000320092B2200000F0A1F846E60020BDE898
:10085000F08170B553044BD50368B3F850300C7871
:1008600013EBC403046814EB430404F20444248827
:10087000A405A40D8B692500ADB2AB4205D38D69EB
:1008800023009BB2ED1A8D6101E000238B618B691F
:10089000002B10D103680D7833F825504BF68F7379
:1008A0001D4095F4005545F4004555F0800503685A
:1008B0000E7823F8265052060ED502680B7832F8CF
:1008C000233048F68F72134043F4004353F0C003C3
:1008D00002680D7822F82530220092B2002A52D008
:1008E00023009BB20A894969006800F05FFF4AE073
:1008F0000368B3F850300C7813EBC403046814EBAE
:10090000430404F20C442488A405A40D8B6925003B
:10091000ADB2AB4205D38D6923009BB2ED1A8D6158
:1009200001E000238B618B69002B10D103680D78E7
:1009300033F825504BF68F731D4095F4005545F460
:10094000004555F0800503680E7823F826505206BE
:100950000ED402680B7832F8233048F68F721340B9
:1009600043F4004353F0C00302680D7822F82530A9
:10097000220092B2002A06D023009BB24A8949691C
:10098000006800F013FF200080B270BD70B5040055
:100990000D001600700640F101812068B0F850008B
:1009A000297810EBC100216811EB400101F20441EC
:1009B0000B889B059B0D180080B2A969884205D25F
:1009C000A969180080B2091AA96101E00020A86194
:1009D000A869002866D16878002814D121682068A9
:1009E000B0F8500041182878C00011EB400101F226
:1009F00004410A8848F2FF3002400A80088850F417
:100A0000004008800FE0687801280CD12168206838
:100A1000B0F8500041182878C00011EB400101F2F5
:100A200004410020088021686878002814D12168DA
:100A30002068B0F8500041182878C00011EB400140
:100A400001F20C410A8848F2FF3002400A8008880F
:100A500050F4004008800EE0687801280BD120682F
:100A6000B0F8500041182878C00011EB400101F2A5
:100A70000C41002008802978200000F00AFF700453
:100A800040F18B812068297830F8211048F68F706A
:100A9000014041F4404151F0800120682A7820F85B
:100AA00022107AE170040ED52068297830F82110E0
:100AB00048F68F70014041F4404151F080012068B8
:100AC0002A7820F8221095F82400012840F065814A
:100AD0006869190089B208446861E969180080B240
:100AE0004118E961286A2969884204D32B69286A78
:100AF000C01A28620DE0286A002804D19BB20020A9
:100B000085F8240005E0002085F824002B6A0020E9
:100B10002862687800282BD121682068B0F850003E
:100B200041182878C00011EB400101F20441002B6C
:100B300009D10A8848F2FF3002400A80088850F440
:100B40000040088013E03F2B07D218004008DA0766
:100B500000D5401C8002088009E01800400913F00D
:100B60001F0F00D1401E800250F4004008800EE0AC
:100B7000687801280BD121682068B0F8500041182E
:100B80002878C00011EB400101F204410B809BB2B8
:100B90002A896969206800F0F0FDFEE02068B0F85D
:100BA0005000297810EBC100216811EB400101F2DF
:100BB0000C410B889B059B0DA869190089B28842DE
:100BC00005D3A969180080B2091AA96101E00020C3
:100BD000A861A869002866D16878002814D1216826
:100BE0002068B0F8500041182878C00011EB40018F
:100BF00001F204410A8848F2FF3002400A80088866
:100C000050F4004008800FE0687801280CD121687A
:100C10002068B0F8500041182878C00011EB40015E
:100C200001F204410020088021686878002814D16E
:100C300021682068B0F8500041182878C00011EBF6
:100C4000400101F20C410A8848F2FF3002400A805C
:100C5000088850F4004008800EE0687801280BD125
:100C60002068B0F8500041182878C00011EB40010E
:100C700001F20C41002008802978200000F009FED4
:100C8000700400F18A802068297830F8211048F635
:100C90008F70014041F4404151F0800120682A7872
:100CA00020F8221079E070040ED42068297830F8FA
:100CB000211048F68F70014041F4404151F080010D
:100CC00020682A7820F8221095F82400012864D1A1
:100CD0006869190089B208446861E969180080B23E
:100CE0004118E961286A2969884204D32B69286A76
:100CF000C01A28620DE0286A002804D19BB20020A7
:100D000085F8240005E02B6A00202862002085F881
:100D100024002168687800282BD121682068B0F869
:100D2000500041182878C00011EB400101F20C413D
:100D3000002B09D10A8848F2FF3002400A80088857
:100D400050F40040088013E03F2B07D21800400801
:100D5000DA0700D5401C8002088009E0180040092D
:100D600013F01F0F00D1401E800250F40040088095
:100D70000DE0687801280AD12068B0F850004118C9
:100D80002878C00011EB400101F20C410B809BB2AE
:100D90006A896969206800F0F0FC2068297830F8D9
:100DA000211048F6BF70014091F0100191F0200130
:100DB00041F4004151F0800120682A7820F8221087
:100DC000002070BD80B51E481E49086008201D49DE
:100DD000486002201B49886000201A498861002071
:100DE0001849C8610020174908621648FFF77EF9C4
:100DF000002801D000F0B9FD01BD80B500681049A0
:100E000088421BD11048006850F400000E49086069
:100E10000D48006810F400000090009800220521A1
:100E2000132000F012FE132000F020FE0022052106
:100E3000142000F00AFE142000F018FE01BD00008E
:100E4000005C0040502900201C1002400EB400201D
:100E500003B070474FF43F41B0F8402032EA01013F
:100E6000A0F8401000207047002070470EB4012108
:100E7000A0F840100021A0F840100021A0F8441074
:100E80000021A0F85010002003B0704770B5040096
:100E90000E007078012840F0E5823069B16988421F
:100EA00001D2356900E0B569307B002812D12B00F2
:100EB0009BB2F2887169200000F05FFC2100B4F859
:100EC000500041183078C00011EB400101F204419C
:100ED0000D80B5E2F078022840F06A813069316A0D
:100EE000884280F04481307834F8201048F68F70C2
:100EF000014041F4014151F08001307824F8201084
:100F0000306A401B3062307834F82000400640F1EF
:100F100097802100707800282AD12100B4F8500071
:100F200041183078C00011EB400101F20C41002D56
:100F300009D10A8848F2FF3002400A80088850F43C
:100F40000040088013E03F2D07D228004008EA0740
:100F500000D5401C8002088009E02800400915F0F7
:100F60001F0F00D1401E800250F4004008800CE0AA
:100F70007078012809D1B4F8500041183078C000C9
:100F800011EB400101F20C410D8072892B009BB2E4
:100F900092B27169200000F0F0FB70692844706122
:100FA0003069316A884203D2306A401B306202E005
:100FB000356A00203062707800282AD12100B4F808
:100FC000500041183078C00011EB400101F204419B
:100FD000002D09D10A8848F2FF3002400A800888B3
:100FE00050F40040088013E03F2D07D2280040084D
:100FF000EA0700D5401C8002088009E0280040096B
:1010000015F01F0F00D1401E800250F400400880F0
:101010000DE0707801280AD12100B4F85000411881
:101020003078C00011EB400101F204410D8032899B
:101030002B009BB292B27169200000F09EFBFFE191
:10104000707800282AD12100B4F850004118307877
:10105000C00011EB400101F20441002D09D10A88C2
:1010600048F2FF3002400A80088850F400400880AF
:1010700013E03F2D07D228004008EA0700D5401CA6
:101080008002088009E02800400915F01F0F00D1F8
:10109000401E800250F4004008800DE07078012866
:1010A0000AD12100B4F8500041183078C00011EB8B
:1010B000400101F204410D8032892B009BB292B2B3
:1010C0007169200000F059FB706928447061306933
:1010D000316A884203D2306A401B306202E0356ACE
:1010E000002030622100707800282AD12100B4F855
:1010F000500041183078C00011EB400101F20C4162
:10110000002D09D10A8848F2FF3002400A80088881
:1011100050F40040088013E03F2D07D2280040081B
:10112000EA0700D5401C8002088009E02800400939
:1011300015F01F0F00D1401E800250F400400880BF
:101140000CE07078012809D1B4F8500041183078CB
:10115000C00011EB400101F20C410D8072892B009F
:101160009BB292B27169200000F007FB68E1336A1C
:10117000307834F8201048F68F60014041F4004187
:1011800051F08001307824F820102100B4F850008C
:1011900041183078C00011EB400101F204410B808E
:1011A00032899BB292B27169200000F0E6FA47E101
:1011B000307834F8201048F68F70014041F4014136
:1011C00051F08001307824F82010306A401B3062E2
:1011D000307834F82000400640F19A802100707881
:1011E00000282AD12100B4F8500041183078C000FE
:1011F00011EB400101F20C41002D09D10A8848F29F
:10120000FF3002400A80088850F40040088013E054
:101210003F2D07D228004008EA0700D5401C800275
:10122000088009E02800400915F01F0F00D1401E7A
:10123000800250F4004008800CE07078012809D149
:10124000B4F8500041183078C00011EB400101F2B1
:101250000C410D8072892B009BB292B27169200003
:1012600000F08BFA7069284470613069316A8842F5
:1012700003D2306A401B306202E0356A00203062DF
:10128000002D00F0DD80707800282AD12100B4F80C
:10129000500041183078C00011EB400101F20441C8
:1012A000002D09D10A8848F2FF3002400A800888E0
:1012B00050F40040088013E03F2D07D2280040087A
:1012C000EA0700D5401C8002088009E02800400998
:1012D00015F01F0F00D1401E800250F4004008801E
:1012E0000DE0707801280AD12100B4F850004118AF
:1012F0003078C00011EB400101F204410D803289C9
:101300002B009BB292B27169200000F036FA97E090
:10131000707800282AD12100B4F8500041183078A4
:10132000C00011EB400101F20441002D09D10A88EF
:1013300048F2FF3002400A80088850F400400880DC
:1013400013E03F2D07D228004008EA0700D5401CD3
:101350008002088009E02800400915F01F0F00D125
:10136000401E800250F4004008800DE07078012893
:101370000AD12100B4F8500041183078C00011EBB8
:10138000400101F204410D8032892B009BB292B2E0
:101390007169200000F0F1F97069284470613069CA
:1013A000316A884203D2306A401B306202E0356AFB
:1013B00000203062002D43D02100707800282AD10F
:1013C0002100B4F8500041183078C00011EB400102
:1013D00001F20C41002D09D10A8848F2FF30024089
:1013E0000A80088850F40040088013E03F2D07D29F
:1013F00028004008EA0700D5401C8002088009E068
:101400002800400915F01F0F00D1401E800250F443
:10141000004008800CE07078012809D1B4F8500031
:1014200041183078C00011EB400101F20C410D80F1
:1014300072892B009BB292B27169200000F09DF975
:10144000307834F8201048F6BF70014091F0100158
:1014500091F0200141F4004151F08001307824F8EE
:10146000201049E0307B002848D13069B1698842BA
:1014700004D23069B169091AB16102E0B069002192
:10148000B1612200B4F850108A183178C90012EB0B
:10149000410202F20C42002809D1118848F2FF30C3
:1014A00001401180108850F40040108013E03F2864
:1014B00007D201004908C00700D5491C88021080E6
:1014C00009E00100490910F01F0F00D1491E8802F0
:1014D00050F400401080307834F820104BF68F70B4
:1014E000014091F4805191F4005141F4004151F0D8
:1014F0008001307824F82010002070BDF078022898
:1015000040F0A380707800282ED12100B4F850005C
:1015100041183078C00011EB400101F204413069FC
:10152000002809D10A8848F2FF3002400A80088862
:1015300050F40040088016E030693F2808D2306936
:101540004008327CD20700D5401C800208800AE0A7
:1015500030694009327C12F01F0F00D1401E80021A
:1015600050F4004008800EE0707801280BD1210073
:10157000B4F8500041183078C00011EB400101F27E
:101580000441306908802100707800282ED12100A4
:10159000B4F8500041183078C00011EB400101F25E
:1015A0000C413069002809D10A8848F2FF30024016
:1015B0000A80088850F40040088016E030693F280F
:1015C00008D230694008327CD20700D5401C800226
:1015D00008800AE030694009327C12F01F0F00D108
:1015E000401E800250F4004008800DE07078012811
:1015F0000AD1B4F8500041183078C00011EB400116
:1016000001F20C4130690880F06900283FF463AFB3
:10161000307834F8200044F24001014044F24002A6
:10162000914204D044F2400108427FF454AF307834
:1016300034F8201048F68F70014041F4004151F019
:10164000C001307824F8201045E7F078012840F0F8
:1016500085803069B169884204D23069B169091A5C
:10166000B16102E0B0690021B161717800292AD12D
:101670002200B4F850108A183178C90012EB4102E8
:1016800002F20442002809D1138848F2FF310B40CE
:101690001380118851F40041118013E03F2807D2D4
:1016A00001004908C30700D5491C8902118009E0DF
:1016B0000100490910F01F0F00D1491E890251F4A1
:1016C000004111800DE0717801290AD12200B4F89F
:1016D00050108A183178C90012EB410202F204421C
:1016E00010802200717800292AD12200B4F850100D
:1016F0008A183178C90012EB410202F20C4200282C
:1017000009D1118848F2FF3001401180108850F44F
:101710000040108013E03F2807D201004908C007AD
:1017200000D5491C8802108009E00100490910F029
:101730001F0F00D1491E880250F4004010800CE0B9
:101740007178012909D1B4F850108A183178C9008C
:1017500012EB410202F20C421080BCE60120CCE602
:10176000C9B2002902D18021A0F84C100020704796
:1017700000207047B0F84400704710B49BB25B1C67
:101780005B0892B210EB420010F580600AE00A7824
:10179000491C0C782402A4B222430280801C801CC5
:1017A000491C5B1E002BF2D110BC704710B41C000A
:1017B000A4B2640892B210EB420010F5806008E019
:1017C0000288801C0A70491C120A0A70491C801C7D
:1017D000641E002CF4D1DA0701D50088087010BC13
:1017E0007047010262B38B0708D0521E11F8013B0B
:1017F00000F8013B00F024808B07F6D1830740F00E
:10180000208000BF103A07D330B4B1E83810103A46
:10181000A0E83810F9D230BC530724BFB1E8081053
:10182000A0E8081044BF51F8043B40F8043BD2073D
:1018300024BF31F8022B20F8022B44BF0B78037031
:101840007047121F17D35B0009D151F8043B20F8F1
:10185000023B1B0C121F20F8023BF6D20BE051F8A2
:10186000043B00F8013B1B0A20F8023B1B0C121F33
:1018700000F8013BF3D238BF121D521E24BF11F8ED
:10188000013B00F8013BF8D870477047704770473C
:10189000704770477047704780B500F001F900F05D
:1018A00019F800F011F900F09BF9FFF78BFA00F03E
:1018B00065FA00F0B7FE00F0E9FE00F04FFF00F01F
:1018C000A0FF01F07FF901F02BFB01F05DFD01F0BD
:1018D00049FBFEE700B593B009A8282101F0F0FD0F
:1018E00004A8142101F0ECFD6846102101F0E8FD88
:1018F000052009905FF480300A9000200B900120B1
:101900000C9001200D90022010905FF48030119017
:101910005FF4E010129009A801F0D6FD002801D074
:1019200000F023F80F20049002200590002006907C
:101930004FF48060079000200890022104A802F074
:1019400000F8002801D000F010F8112000904FF4AA
:101950008070019000200390684602F02BF9002867
:1019600001D000F002F813B000BD72B6FEE701022C
:1019700010F0070042490A684FF6FF010A4041494A
:1019800051EA00210A433E48026070473C48006823
:10199000C0F302207047010049B2002908D4012297
:1019A00010F01F018A40384940B2400941F8202018
:1019B0007047020052B2002A04D40901334A40B2EF
:1019C000115407E00901324A40B210F00F001044F0
:1019D00000F8041C704710B410F00700D0F10703A2
:1019E000052B01D3042301E0D0F10703041D072CCC
:1019F00001D2002000E0C01E012414FA03F35B1E94
:101A000019408140012313FA00F0401E10400843A2
:101A100010BC704780B5411EB1F1807F01D3012019
:101A20000EE0401E1B4908600F215FF0FF30FFF7FA
:101A3000C0FF0020184908600720184908600020EE
:101A400002BD80B5FFF794FF01BD70B504000D0025
:101A500016000020FFF79AFF32002900FFF7BBFFB6
:101A60000100200040B2FFF7A4FF70BD80B540B276
:101A7000FFF791FF01BD80B5FFF7CCFF02BD00006D
:101A80000CED00E00000FA0500E100E000E400E0F9
:101A900018ED00E014E000E018E000E010E000E0E5
:101AA00080B50848006850F010000649086003201F
:101AB000FFF7C7FF0F2002F085F902F0A9F9002017
:101AC00002BD00000020024000B585B0684610212C
:101AD00001F0F6FC3E48006850F010003C490860F8
:101AE0003B48006810F010000490049838480068E3
:101AF00050F02000364908603548006810F020009A
:101B0000049004983248006850F00400304908609E
:101B10002F48006810F00400049004982C480068D6
:101B200050F008002A4908602948006810F00800B1
:101B300004900498002240F20331264802F078FA1B
:101B4000002248F20201244802F072FA0022082121
:101B5000224802F06DFA40F203300090012001901B
:101B6000002002900220039069461A4802F07EF994
:101B70001C2000900020019000200290694615482A
:101B800002F074F948F20200009001200190002058
:101B900002900220039069460F4802F067F908207E
:101BA00000900120019000200290022003906946DD
:101BB0000A4802F05BF9C020009012200190032037
:101BC00003906946054802F051F905B000BD00BF19
:101BD000181002400010014000080140000C0140B4
:101BE00080B55E485E49086004205D494860002079
:101BF0005B4988605FF040705949C8605FF400201D
:101C0000574908615FF4E000554948610020544994
:101C100008760020524948760020514988760020F5
:101C20004F49C87600204E49087700204C49487734
:101C30004B4802F027FA002801D0FFF796FE01BDBD
:101C400018B585B0040001A8102101F039FC206806
:101C5000424988424FD14348006850F000704149E2
:101C600008604048006810F00070009000983E48FE
:101C7000006850F008003C4908603B48006810F0DC
:101C80000800009000984FF48070019000200290AE
:101C90000020039001A9354802F0E8F84FF40070E5
:101CA0000190022002900320049001A92F4802F025
:101CB000DDF82F48006830F4C04050F0E06050F488
:101CC00080402B490860002205211320FFF7BDFE4C
:101CD0001320FFF7CBFE002205211420FFF7B5FEED
:101CE0001420FFF7C3FE002205211520FFF7ADFEEB
:101CF0001520FFF7BBFE06B010BD00B589B06846E1
:101D00001C49D1E90023C0E9002340F20160002111
:101D1000069100210591039000208DF820000820F5
:101D200007900F4802F064FA9DF80700401C8DF8F8
:101D300007001148008880B2000A8DF800000E48A4
:101D400000888DF8010002AB6A4603A9044802F03E
:101D50007DFA012001F0BCF9E6E7000000640040D4
:101D6000203300201C10024018100240000C0140DB
:101D700004000140109000084E35002080B5DFF8C7
:101D80004808DFF8481808604FF49640DFF83C1820
:101D900048600020DFF8341888600020DFF82C1835
:101DA000C8600020DFF8241808610C20DFF81C1838
:101DB00048610020DFF8141888610021DFF80C0862
:101DC00002F0E2FB002801D0FFF7CFFD01BD18B5FE
:101DD00085B0040001A8102101F072FB2068DFF833
:101DE000E81788423DD1DFF8E807006850F48040EA
:101DF000DFF8DC170860DFF8D807006810F48040CF
:101E000000900098DFF8C807006850F00400DFF881
:101E1000C0170860DFF8B807006810F004000090F1
:101E200000984FF40070019002200290032004906B
:101E300001A9DFF8A00702F019F84FF480600190C3
:101E4000002002900120039001A9DFF8880702F02A
:101E50000DF8002206212520FFF7F7FD2520FFF7CA
:101E600005FE06B010BD80B50068DFF85C1788423B
:101E700018D10122DFF86017DFF8500702F0F8FBF5
:101E8000DFF854070078DFF85417DFF85027127B8B
:101E90008854DFF84807007B401CDFF840170873C0
:101EA00000F024F801BD10B40200507B3C2802D0A1
:101EB000507B3D2801D1002000E0907B00230BE007
:101EC0001900C9B21144097C0818010089B210EB4D
:101ED000112000F0FF005B1C1900D47BC9B2A142A5
:101EE000EED3C0B2C043C0B210BC704780B5002072
:101EF0000090DFF8EC06007800280AD001281AD0FC
:101F000002282BD0032800F0DC81052800F0048291
:101F10000DE20020DFF8C4160873DFF8C006007871
:101F2000002807D10120DFF8B81608700120DFF87B
:101F3000AC160873FEE1DFF8A4064078552804D1FA
:101F40000220DFF89C16087007E00020DFF89016EA
:101F500008700020DFF884160873EBE1DFF87C06D8
:101F60008078032869D10420DFF8741608700820EF
:101F7000DFF86816C8730320DFF860164873DFF8CF
:101F80005C06407B10F00100012190FBF1F1DFF8CD
:101F90004C06407B10F00200022290FBF2F0414020
:101FA000DFF83806407B10F00400042290FBF2F0CA
:101FB0004140DFF82806407B10F01000102290FB13
:101FC000F2F0414040204143DFF81006407B10F022
:101FD0000200022290FBF2F2DFF80006407B10F0D4
:101FE0000800082390FBF3F04240DFF8F005407B47
:101FF00010F01000102390FBF3F04240DFF8DC05F6
:10200000407B10F02000202390FBF3F0424092F040
:102010000102802000FB0211DFF8C005407B10F0B8
:102020003F004118DFF8B40581736A460121DFF8EB
:10203000B405006802F0DBFE42E1DFF8A00580781D
:10204000E22869D10420DFF8981508700820DFF82D
:102050008C15C8732220DFF884154873DFF87C05DF
:10206000407B10F00100012190FBF1F1DFF86C05DD
:10207000407B10F00200022290FBF2F04140DFF8BA
:102080005C05407B10F00400042290FBF2F041401C
:10209000DFF84805407B10F01000102290FBF2F0B2
:1020A000414040204143DFF83405407B10F00200FE
:1020B000022290FBF2F2DFF82405407B10F00800CA
:1020C000082390FBF3F04240DFF81005407B10F04E
:1020D0001000102390FBF3F04240DFF80005407B36
:1020E00010F02000202390FBF3F0424092F0010218
:1020F000802000FB0211DFF8E404407B10F03F0079
:102100004118DFF8D80481736A460121DFF8D4044E
:10211000006802F06CFED3E0DFF8C0048078C428C9
:1021200062D10320DFF8B81408700420DFF8AC1483
:102130004873DFF8A804407B10F00100012190FBF8
:10214000F1F1DFF89804407B10F00200022290FBCE
:10215000F2F04140DFF88404407B10F004000422D8
:1021600090FBF2F04140DFF87404407B10F0100067
:10217000102290FBF2F0414040204143DFF85C0424
:10218000407B10F00200022290FBF2F2DFF84C04D8
:10219000407B10F00800082390FBF3F04240DFF88A
:1021A0003C04407B10F01000102390FBF3F0424001
:1021B000DFF82804407B10F02000202390FBF3F090
:1021C000424092F00102802000FB0211DFF80C0473
:1021D000407B10F03F004118DFF8000481730820B5
:1021E000DFF8F813C8736BE0DFF8F003807861283C
:1021F00062D10320DFF8E81308702120DFF8DC1338
:102200004873DFF8D803407B10F00100012190FBF8
:10221000F1F1DFF8C803407B10F00200022290FBCE
:10222000F2F04140DFF8B403407B10F004000422D8
:1022300090FBF2F04140DFF8A403407B10F0100067
:10224000102290FBF2F0414040204143DFF88C0324
:10225000407B10F00200022290FBF2F2DFF87C03D8
:10226000407B10F00800082390FBF3F04240DFF8B9
:102270006C03407B10F01000102390FBF3F0424001
:10228000DFF85803407B10F02000202390FBF3F090
:10229000424092F00102802000FB0211DFF83C0373
:1022A000407B10F03F004118DFF8300381730820B5
:1022B000DFF82813C87303E00520DFF82413087043
:1022C00038E0DFF81803007BDFF81013C97B091D25
:1022D000884220DB00200CE0DFF800130200D2B2BD
:1022E0001144C978DFF8F4220300DBB21A441174F8
:1022F000401C0100B94AD27BC9B29142ECD36A4674
:102300000221B848006802F072FD0020B44908704C
:102310000020B24908730DE0B048007B0C2805DBB3
:102320000020AF4908700020AC49087302E000208B
:10233000AB49087001BD80B5A848407B042828D16E
:10234000002009E0A5490200D2B21144097CA64A46
:102350000300DBB2D154401C0100A04AD27BC9B2B9
:102360009142EFD3A0480078A04908709E48B0F889
:1023700001009F490880002300229C499D48006875
:1023800000F055FF0023002299499B48006800F0A7
:102390004EFF00F001F801BD80B59048407B212838
:1023A00032D1002009E08D490200D2B21144097CEB
:1023B000924A0300DBB2D154401C0100874AD27B11
:1023C000C9B29142EFD38D48407901281CD18B4886
:1023D000B0F801008DF800008848B0F8010080B224
:1023E000000A8DF801008548B0F803008DF802005E
:1023F0008248B0F8030080B2000A8DF803006946F5
:102400007E48007800F048FC01BD80B500237C497F
:102410007C48006800F054FF7948018840F6485035
:10242000414349F6F67091FBF0F077490860744833
:102430000088764908707248008880B2000A7349A3
:10244000487071480068714988706F480068000AD8
:102450006E49C87001BD80B56D480078072805DA5F
:102460006B480078401C6A49087002E00020684907
:10247000087069466648007800F03EFC64480078C1
:10248000644908709DF800109DF801204FF4807099
:1024900000FB02115F48A0F801109DF802109DF8A2
:1024A00003204FF4807000FB02115A48A0F803107B
:1024B00001BDE0B501220821574801F0B9FD012214
:1024C00001A9424802F001FA02F086FB4549086082
:1024D00002214448006802F023FC29E04B49020035
:1024E000D2B2895C3D4A0300DBB21A441174401C2D
:1024F00001003A4AD27BC9B29142EFD33748FFF785
:10250000D2FC364908763548C27B92B243492F48FF
:1025100002F084F80028F6D1012241492B4802F04C
:102520007DF80028F8D1012201A9284802F0CDF950
:10253000012000900023012203212A48006802F0B4
:102540005BFBC1073AD52548407B032803D1FFF741
:102550005CFF0020CCE72148407B2228E8D1FFF730
:102560007AFF002009E02B490200D2B2895C1B4AA5
:102570000300DBB21A441174401C0100174AD27BDD
:10258000C9B29142EFD31548FFF78DFC1349087685
:102590001248C27B92B221490C4802F03FF8002851
:1025A000F6D101221E49094802F038F80028F8D176
:1025B000012201A9054802F088F9B9E78007B7D5DB
:1025C000FFF7B9FEB4E70000003801406032002098
:1025D00018100240000801406535002070330020CB
:1025E000643500203035002054340020663500204A
:1025F0005235002098340020943400206C340020A0
:102600005435002090340020343500205C34002004
:102610006735002064340020000C01408033002026
:102620008833002080B51548154908605FF0FF30F9
:10263000134948604FF4807011498860104802F0D7
:10264000E3FB002801D0FFF790F901BD80B50068D9
:102650000A49884210D102F0A3FC0A48006850F0F1
:102660000060084908600748006810F000600090AA
:10267000009801200449086001BD000000280040C6
:102680008C3300201C1002403C04424280B52F488D
:102690002F4908604FF482702D4948604FF4004084
:1026A0002B49886000202A49C86000202849086119
:1026B0000020274948614FF4007025498861202097
:1026C0002349C8610020224908620020204948624D
:1026D00000201F4988620A201D49C8621C4802F078
:1026E00065FC002801D0FFF740F901BD18B585B0A1
:1026F000040001A8102100F0E3FE2068134988427D
:1027000021D11448006850F48050124908601148E3
:10271000006810F48050009000980E48006850F057
:1027200004000C4908600B48006810F00400009099
:102730000098E0200190022002900320049001A95B
:10274000054801F093FB06B010BD000000300140C9
:10275000942F0020181002400008014080B586B078
:10276000DFF8FC03D0E90023CDE9002302A8102103
:1027700000F0A6FEDFF8EC03DFF8EC13086047205A
:10278000DFF8E41348600020DFF8DC1388604FF6C0
:10279000FF70DFF8D413C8600020DFF8CC130861A5
:1027A0000120DFF8C41348610020DFF8BC13886102
:1027B000DFF8B40302F0FCFC002801D0FFF7D5F8E5
:1027C00000200090002001906946DFF89C0303F090
:1027D0000DF9002801D0FFF7C8F80220029001206F
:1027E00003900020049000200590002202A9DFF849
:1027F000780302F088FE002801D0FFF7B6F807B092
:1028000000BD00B589B0DFF86403D0E90023CDE94D
:10281000002302A81C2100F053FEDFF85403DFF868
:10282000541308602320DFF84C1348600020DFF8C1
:10283000441388606320DFF83C13C8600020DFF891
:10284000341308610020DFF82C138861DFF82403BB
:1028500002F00EFC002801D0FFF787F8002000905E
:10286000002001906946DFF80C0303F0BFF8002850
:1028700001D0FFF77AF8602002900020039000203A
:10288000049000200690002202A9DFF8E80202F07E
:102890009EFE002801D0FFF768F8042202A9DFF8A5
:1028A000D40202F094FE002801D0FFF75EF8B14890
:1028B00000F04DF809B000BD18B585B0040001A8BE
:1028C000102100F0FDFD2068A64988422AD1AA48BF
:1028D000006850F40060A8490860A748006810F438
:1028E000006000900098A448006850F00400A249DD
:1028F0000860A148006810F00400009000984FF4B0
:1029000080700190002002900220039001A99B4852
:1029100001F0ACFA002205211B20FFF796F81B20DE
:10292000FFF7A4F806B010BD81B000689049884256
:102930000BD19348006850F002009149086090481C
:10294000006810F002000090009801B0704718B5C0
:1029500085B0040001A8102100F0B2FD2068844970
:1029600088421FD18448006850F0100082490860F6
:102970008148006810F0100000900098C02001907D
:10298000022002900220049001A97E4801F06EFA14
:102990007D48006830F4406050F0E06050F44060E2
:1029A0007949086006B010BD38B584B004000D0048
:1029B000684676491022FEF725FF032000210022F9
:1029C00007E01100C9B2615C48406946C0B2085CCA
:1029D000521C11002B00C9B2DBB29942F1D3C0B234
:1029E00005B030BD80B500685E49884240F08880FF
:1029F00000215D4802F063FE654908606548006893
:102A000063490968884207D26148016861480068E3
:102A1000091A6148016008E05D48016811F58031DC
:102A20005C480068091A5C4801605B4800689F3890
:102A3000132802D20020594908705748006840F214
:102A4000F511884204D354480068401C524908607C
:102A500051480068801E0321B0FBF1F0401C504932
:102A60004E4A127888544E484C490978405C0D28EB
:102A700009DB4B4849490978405C0C384849474ACA
:102A80001278885404E000204549444A127888545A
:102A90004248007808282EDB06214248FFF784FFD1
:102AA00041490870404800783D49097A884222D15E
:102AB0003B4881784FF480723948C07880B2000179
:102AC00002FB010136480079411838480180374837
:102AD00001880A2041433548018035480088401C60
:102AE000334908800023002230493248006800F052
:102AF0009EFB00F0CEFA29480078401C2749087058
:102B0000234800682349086001BD80B500211948A9
:102B100002F0E5FA0421174802F0E1FA0021124818
:102B200002F080FB5FF0FF300090012301220121C1
:102B30002148006802F060F8002300221F49204865
:102B4000006800F0BDFB1D4800880A490968486319
:102B50001A484088074909688863E3E700000000D5
:102B600040900008002C0140D0310020489000081F
:102B700000040040183200201810024000080140F4
:102B80001C1002400010014004000140D88F0008D2
:102B90001035002014350020183500206235002043
:102BA000383400203A340020633500204E350020B0
:102BB0005035002090340020A43400200C35002033
:102BC0009C34002080B5DFF81803DFF81813086084
:102BD0006420DFF8101348600020DFF808138860D5
:102BE0000020DFF80013C8604FF48040DFF8F412D3
:102BF00008610020BB4948610020BA498861002073
:102C0000B849C8610020B7490862B64802F02CFFF5
:102C1000002801D0FEF7A9FE01BD18B585B004005B
:102C200001A8102100F04CFC2068AD49884222D157
:102C3000AD48006850F00800AB490860AA48006839
:102C400010F00800009000984FF4406001901220AE
:102C500002900320049001A9A44801F007F9A448B8
:102C6000006850F48000A2490860A148006810F490
:102C700080000090009806B010BD10B49D4B040079
:102C8000E4B233F824300B809A49C0B201EB8000E3
:102C90004088108010BC704770B40022964BC0B2C0
:102CA0000001184400230AE01C00E4B20C5D4568F2
:102CB0001E00F6B2AD5DAC4200D001225B1C1C00D0
:102CC000E4B28589A4B2AC42EED3D2B2002A11D0CC
:102CD00002224270002207E01300DBB2CB5C4468A2
:102CE0001500EDB26355521C1300DBB284899BB210
:102CF000A342F1D370BC704710B47F4AC0B2000148
:102D00001044002207E043681400E4B21B5D140085
:102D1000E4B20B55521C1300DBB284899BB2A34270
:102D2000F1D310BC70477FB504000D001600FF20E2
:102D30000290300080B2019000950123220092B2EF
:102D4000A121684803F03CF80028F0D10A2000F0E7
:102D5000BFF97FBD7FB504000D00160040F6FF707F
:102D60000290300080B2019000950123220092B2BF
:102D7000A0215C4802F070FF0028EFD10A2000F08B
:102D8000A7F97FBD30B402000020002405E0230035
:102D9000DBB2D35C1818C0B2641C2300DBB20D0098
:102DA0009BB2ADB2AB42F2D3D0F1FF00C0B2C0B221
:102DB00030BC70471FB528225049F020FFF7B3FF01
:102DC00000241EE04E49096889680200D2B2895C7D
:102DD0004B4A126852680300DBB2D1540221484AC0
:102DE00012685170401C0100C9B2454A12689289AC
:102DF00089B29142E6D342480068103040490860E9
:102E0000641C2000C0B20B282CDA3D48006882897F
:102E100069463B480068C089FFF785FF384800686D
:102E200081896846FFF7AEFF34492200D2B2895C3F
:102E3000C0B2884214D100200100C9B2304A1268E1
:102E4000928989B29142D6D269460200D2B2895C97
:102E50002B4A126852680300DBB2D154401CEBE7E6
:102E60000020C0E71FBD80B5264800780B2830DA67
:102E7000254800684078022820D1234800688189CD
:102E8000214800684068FFF77DFF8DF800001E486C
:102E9000006882891C48006841681B480068C08936
:102EA000FFF758FF00201849096848700122694659
:102EB00014480078F03080B2FFF74CFF11480078DA
:102EC000401C104908701048006810300E49086016
:102ED00005E000200B49087007480B49086001BD58
:102EE00000580040EC2F002018100240000C014058
:102EF0001C10024048330020280000202C34002001
:102F0000D800002057350020DC00002080B5FFF7F6
:102F100051FFFFF7A8FF642000F0DAF8F9E700009E
:102F2000EFF3058000280CD1EFF31080002808D1C2
:102F3000DFF8D4010068022806D1EFF311800028E1
:102F400002D07FF005000CE0DFF8BC01006800282B
:102F500005D10120DFF8B0110860002001E05FF02A
:102F6000FF30704780B5EFF3058000280CD1EFF3F8
:102F70001080002808D1DFF890010068022806D1EF
:102F8000EFF31180002802D07FF005000EE0DFF89B
:102F900078010068012807D10220DFF86C11086071
:102FA00003F095FC002001E05FF0FF3002BDF0B5BA
:102FB00085B000230493EFF30583002B66D1EFF374
:102FC0001083002B62D1DFF840311B68022B03D144
:102FD000EFF31183002B59D10300002B56D080252D
:102FE000182300248DF80C4003AC5FF0FF36002A54
:102FF0002ED01768002F00D014689769002F00D0DA
:103000009369002B04D0392B02D21779FF0701D521
:1030100000203CE05769002F01D05569AD08976842
:10302000002F0AD0D7685C2F07D31769002F04D070
:103030005769002F01D001260BE09768002F08D1B7
:10304000D768002F05D11769002F02D1002600E0B4
:103050000026012E0BD19668029612690192009308
:103060000B002A00210003F0D5FA04900EE0002E98
:103070000CD104AA019200930B002A0092B2210005
:1030800003F009FB012801D000200490049805B04A
:10309000F0BDEFF3058000280CD1EFF3108000287D
:1030A00008D1DFF864000068022806D1EFF3118030
:1030B000002802D07FF0050009E000205FF0805179
:1030C000DFF8B4201160BFF34F8FBFF36F8F7047ED
:1030D00010B5EFF3058100290CD1EFF31081002921
:1030E00008D1DFF898100968022906D1EFF31181A1
:1030F000002902D07FF0050404E00024002801D05C
:1031000003F0BFFB200010BD7434002080B5002107
:10311000EFF30582002A2DD1EFF31082002A29D186
:10312000DFF84C221268022A03D1EFF31182002A41
:1031300020D15FF0FF3300280FD08268002A04D02E
:10314000C268202A01D3012308E08268002A05D141
:10315000C268002A02D1002300E00023012B04D121
:10316000806801F015FD010004E0002B02D101F0A0
:1031700033FD0100080002BD04ED00E074340020BE
:103180007CB514000025EFF30582002A4DD1EFF342
:103190001082002A49D1DFF8D8211268022A03D10F
:1031A000EFF31182002A40D100283ED000293CD004
:1031B0005FF0FF33002C1DD0A268002A0CD0E2681B
:1031C000502A09D32269002A06D0626901FB00F661
:1031D000B24201D301230EE0A268002A0BD1E268BB
:1031E000002A08D12269002A05D16269002A02D189
:1031F000002300E00023012B07D100220092A368E6
:10320000226903F0F4FF050005E0002B03D1002242
:1032100004F040F80500002D07D0002C01D02168F3
:1032200000E00021280004F05BFB280076BD38B5E3
:103230001C000025EFF30582002A0BD1EFF310826A
:10324000002A07D14A4A1268022A23D1EFF31182D9
:10325000002A1FD0002803D0002901D0002C02D062
:103260007FF003052AE00022009200236A4604F062
:1032700015F9012802D07FF002051FE00098002810
:103280001CD05FF080503B490860BFF34F8FBFF305
:103290006F8F13E0002801D0002902D17FF00305D1
:1032A0000CE00023220004F02EF8012806D0002CA8
:1032B00002D07FF0010501E07FF00205280032BD59
:1032C00038B51C000025EFF30582002A0BD1EFF37F
:1032D0001082002A07D1264A1268022A22D1EFF36F
:1032E0001182002A1ED0002803D0002901D0002C12
:1032F00002D07FF0030528E0002200926A4604F025
:10330000EBF9012802D07FF002051EE000980028AA
:103310001BD05FF0805017490860BFF34F8FBFF399
:103320006F8F12E0002801D0002902D17FF0030541
:103330000BE0220004F020F9012806D0002C02D076
:103340007FF0010501E07FF00205280032BD00009A
:10335000094B036009480860802010607047084BE3
:103360000360084808604FF48070106070470000E8
:103370007434002004ED00E0DC2E00203C2C002002
:10338000382F00205025002080B5314A022101202D
:10339000FFF7F6FE2F4908602F4A02210120FFF7B0
:1033A000EFFE2E4908602E4A01210120FFF7E8FEBA
:1033B0002C4908602C4A04210120FFF7E1FE2B492B
:1033C00008602B4A00210FF25D00FFF7F0FD29494C
:1033D0000860294A00212948FFF7E9FD28490860CB
:1033E000284A00212848FFF7E2FD28490860284ABA
:1033F00000212848FFF7DBFD27490860274A002104
:103400002748FFF7D4FD27490860274A00212748AD
:10341000FFF7CDFD264908602648FFF777FE2649CD
:10342000086001BD80B501224FF48071234800F08F
:10343000FFFD4FF4FA70FFF74BFE00224FF480714E
:103440001E4800F0F5FD4FF4FA70FFF741FEEAE781
:10345000148F0008903400202C8F00089434002032
:10346000448F0008983400205C8F00089C340020B2
:10347000788D0008783400209C8D0008FB1C000823
:103480007C340020C08D0008B32400088034002064
:10349000E48D00080B2B000884340020088E0008FF
:1034A000838A0008883400202C8E00080D2F000825
:1034B0008C340020988F0008A434002000100140B4
:1034C000002204F047BA00007CB50400002C01D1B2
:1034D000012035E22078C00740F18480DFF89006B3
:1034E000006810F00C0004280BD0DFF88406006898
:1034F00010F00C0008280ED1DFF874060068C00335
:1035000009D5DFF86806006880036BD5606800287D
:1035100068D1012014E26068B0F5803F08D1DFF87F
:103520004C06006850F48030DFF84016086038E040
:103530006068002810D1DFF83406006830F480306D
:10354000DFF828160860DFF82406006830F48020D1
:10355000DFF81816086024E06068B0F5A02F10D1DD
:10356000DFF80806006850F48020DFF800160860D5
:10357000DFF8F805006850F48030DFF8F0150860D7
:103580000FE0DFF8E805006830F48030DFF8DC1584
:103590000860DFF8D805006830F48020DFF8CC152B
:1035A0000860606800280ED004F0EEF90500DFF82E
:1035B000BC050068800315D404F0E6F9401B6528BB
:1035C000F5D30320BCE104F0DFF90500DFF89C052A
:1035D0000068800306D504F0D7F9401B6528F5D3B1
:1035E0000320ADE12078800726D5DFF88405006848
:1035F00010F00C0F0BD0DFF87805006810F00C000D
:10360000082833D1DFF868050068C0032ED4DFF83E
:103610005C050068800704D52069012801D00120DD
:103620008EE1DFF84805006830F0F800616950EA83
:10363000C100DFF838150860207800074ED5A06972
:10364000002800F081800120DFF83815086004F0C0
:103650009BF90500DFF82805006880073BD404F0DB
:1036600093F9401B0328F5D3032069E12069002862
:103670001ED00120DFF81015086004F085F9050060
:10368000DFF8E8040068800706D404F07DF9401BE9
:103690000328F5D3032053E1DFF8D004006830F0AD
:1036A000F800616950EAC100DFF8C0140860C3E7A0
:1036B0000020DFF8D414086004F066F90500DFF894
:1036C000AC0400688007B7D504F05EF9401B0328FE
:1036D000F5D3032034E1012000F035FA20784007CB
:1036E00040F1B9800025DFF8A4040068C0000FD4C1
:1036F000DFF89804006850F08050DFF890140860FC
:10370000DFF88804006810F08050009000980125D0
:10371000DFF87C040068C00529D4DFF87404006871
:1037200050F48070DFF86814086004F02DF906008A
:10373000DFF85C040068C00519D404F025F9801B8B
:103740006528F5D30320FBE00020DFF8381408607B
:1037500004F01AF90500DFF8280400688007BDD5D9
:1037600004F012F9401B0328F5D30320E8E0E068D9
:10377000012808D1DFF81C04006850F00100DFF8D0
:103780001414086037E0E068002810D1DFF8040462
:10379000006840084000DFF8FC130860DFF8F4031D
:1037A000006830F00400DFF8EC13086023E0E06804
:1037B000052810D1DFF8DC03006850F00400DFF8C2
:1037C000D4130860DFF8CC03006850F00100DFF884
:1037D000C41308600FE0DFF8BC0300684008400035
:1037E000DFF8B0130860DFF8AC03006830F00400C5
:1037F000DFF8A0130860E068002810D004F0C4F8D7
:103800000600DFF890030068800719D404F0BCF8C4
:10381000801B41F289318842F3D3032090E004F009
:10382000B3F80600DFF86C030068800708D504F0E1
:10383000ABF8801B41F289318842F3D303207FE04B
:10384000EDB2012D07D1DFF84403006830F080505D
:10385000DFF838130860E069002870D0DFF8100343
:10386000006810F00C00082855D0E06902283FD10C
:103870000020DFF82413086004F086F80500DFF864
:10388000EC020068800106D504F07EF8401B032896
:10389000F5D3032054E0206AB0F5803F09D1DFF86A
:1038A000D002016831F40031A0680143DFF8C002A2
:1038B0000160DFF8BC02016831F47411206A014331
:1038C000606A0143DFF8A80201600120DFF8C81236
:1038D000086004F059F80400DFF8900200688001E5
:1038E0002DD404F051F8001B0328F5D3032027E062
:1038F0000020DFF8A412086004F046F80400DFF8A6
:103900006C02006880011AD504F03EF8001B032801
:10391000F5D3032014E0E069012801D101200FE074
:10392000DFF84C02006810F48031226A914204D121
:1039300010F47010616A884201D0012000E000207C
:1039400076BD70B504000D00002C01D10120AEE061
:10395000DFF84802006810F00700A84211D2DFF833
:103960003C020068C008C0002843DFF8301208603D
:10397000DFF82802006810F00700A84201D00120FB
:1039800095E0207880071FD52078400707D5DFF81D
:10399000E001006850F4E060DFF8D411086020789E
:1039A000000707D5DFF8C801006850F46050DFF861
:1039B000C0110860DFF8B801016831F0F001A068BB
:1039C0000143DFF8AC0101602078C00733D560689F
:1039D000012805D165480068800310D4012066E005
:1039E0006068022805D161480068800107D4012081
:1039F0005DE05E480068800701D4012057E05C4824
:103A0000016889088900606801435948016003F032
:103A1000BBFF06005648006810F00C006168B0EB70
:103A2000810F08D003F0B0FF801B41F2893188423A
:103A3000F0D303203BE05948006810F007008542AE
:103A40000ED256480068C008C00028435349086099
:103A50005248006810F00700A84201D0012026E07B
:103A60002078400707D54248016831F4E061E068FA
:103A700001433F4801602078000708D53C480068B2
:103A800030F46050216950EAC1003949086000F003
:103A90000FF84349364A1268C2F30312895CC840E2
:103AA000354908603548006800F08CF9002070BD89
:103AB00000B585B001A83B491022FDF7A3FE3A48A6
:103AC0000088ADF800000020002000200020002029
:103AD0002748016811F00C00042802D0082802D001
:103AE00015E0244814E001A8C1F38342805CC903B7
:103AF0000AD569461E4A1268C2F340428A5C1D49D3
:103B00004843B0FBF2F001E02849484300E019487F
:103B100005B000BD18480068704780B5FFF7FAFF90
:103B20002349134A1268C2F30222895CC84002BDCD
:103B300080B5FFF7EFFF1E490D4A1268C2F3C2229B
:103B4000895CC84002BD81B00B490968C9084FF4BF
:103B50007A72B1FBF2F14843009000BF0098411E19
:103B600000910028F9D101B0704700000010024018
:103B70000410024000127A00E8000020E400002057
:103B80002410024080044242000042421C100240C5
:103B900000700040201002406000424200200240BD
:103BA000C88F0008A88F0008E217000800093D0030
:103BB000309000087CB50400002000202078C00769
:103BC00063D5002574480068C0000CD472480068B2
:103BD00050F08050704908606F48006810F08050C5
:103BE0000090009801256D480068C00513D46B480B
:103BF000006850F480706949086003F0C5FE060053
:103C000066480068C00506D403F0BEFE801B652828
:103C1000F6D3032050E06248006810F4407000289A
:103C200022D0616811F4407188421DD05C48006860
:103C300030F4407001215B4A11600021594A116043
:103C400057490860C0070FD503F09EFE0600544890
:103C50000068800708D403F097FE801B41F2893189
:103C60008842F4D3032027E04D48016831F44071C5
:103C7000606801434A480160EDB2012D05D1464814
:103C8000006830F08050444908602078800707D5EC
:103C90004548016831F44041A06801434248016051
:103CA0002078C00607D54048016831F48001E068FB
:103CB00001433D480160002076BD18B585B0040081
:103CC00001A83A491022FDF79DFD39480088ADF85A
:103CD000000000200021002000200020012C2AD01C
:103CE000022C4BD0102C54D12F4A1268314B1B6838
:103CF000DB011FD501A8C2F38343C35CD0030CD5FD
:103D00006846294C2468C4F34044005DD20307D5BB
:103D10002949B1FBF0F1594302E01900274841431A
:103D200021480068400201D5080003E04800032153
:103D3000B0FBF1F02DE01A49096840F202320A4066
:103D4000B2F5817F02D14FF4004016E011F44072C9
:103D5000B2F5007F06D11A4A1268920702D549F6D9
:103D600040400AE011F44071B1F5407F05D111499E
:103D70000968890301D54FF224400AE0FFF7D8FE15
:103D800009490968C1F38131491C4900B0FBF1F0D0
:103D9000FFE706B010BD00001C100240007000409C
:103DA000201002404004424204100240B88F000834
:103DB0006E1900080010024000127A0000093D0050
:103DC0002410024010B504004FF47A700D490978B0
:103DD000B0FBF1F00C490968B1FBF0F0FDF74BFEC8
:103DE000002801D001200CE0102C09D20022210073
:103DF0005FF0FF30FDF729FE04480460002000E07A
:103E0000012010BDEC000020E8000020E4000020AC
:103E100080B51348006850F001001149086010484F
:103E2000006810F00100009000980E48006850F003
:103E300080500C4908600B48006810F080500090DA
:103E4000009800220F217FF00100FDF7FEFD0648DB
:103E5000006830F0E06050F000700349086001BD78
:103E6000181002401C10024004000140F8B4020087
:103E7000002300251AE0DFF8CC01006830EA0404D2
:103E8000DFF8C001046010E0DFF8BC010068A04367
:103E9000DFF8B461306048688002ECD5DFF8A40137
:103EA00000680443DFF89C0104605B1C0868D8408C
:103EB000002800F0BB8001269E400C683440B442CC
:103EC000F3D14868002827D001281AD002281DD035
:103ED00003282FD0112816D012281AD05B4FB842D1
:103EE0001AD05B4FB84217D05A4FB84214D05A4F2D
:103EF000B84211D0594FB8420ED0594FB8420BD0EA
:103F00001AE0CD6818E0CD682D1D15E0CD680835A4
:103F100012E0CD680C350FE08868002801D1042537
:103F200007E08868012802D10825166101E008250C
:103F3000566101E00025FFE7B4F5807F01D2100053
:103F400000E0101DB4F5807F01D29E0002E0B3F1C5
:103F50000806B60007685FF00F0C1CFA06FC37EA8B
:103F60000C0715FA06F63E4306604868C0009CD56B
:103F70003C48006850F001003A4E30603948006813
:103F800010F001000090009837481E00B60850F865
:103F900026600F2713F00300C0B280008740BE43A5
:103FA0003248824201D100270FE03148824201D1DC
:103FB00001270AE02F48824201D1022705E02E485E
:103FC000824201D1032700E0042713F00300C0B2AE
:103FD000800087403E4324481F00BF0840F8276008
:103FE0004868C00305D5254800682043234E30604B
:103FF00004E022480068A043204E306048688003F7
:1040000005D51F48006820431D4E306004E01C4861
:104010000068A0431A4E30604868C0027FF534AF94
:10402000094800682043084E306034E7F1BC70470F
:10403000D2B2002A02D089B2016102E089B2090439
:10404000016170470C040140080401400000111098
:10405000000012100000211000002210000031109A
:104060000000321018100240080001400008014012
:10407000000C014000100140001401400004014008
:104080000404014038B50400002C01D10120AEE049
:1040900094F82000002802D12000FDF7D1FD20680F
:1040A000006850F001002168086003F06DFC050015
:1040B00020684068C0070DD403F066FC401B0B2845
:1040C000F6D3606A50F400306062052084F8200066
:1040D00001208CE02068006830F002002168086050
:1040E00003F052FC05002068406880070DD503F0FE
:1040F0004BFC401B0B28F6D3606A50F40030606222
:10410000052084F82000012071E0207E012806D1DE
:104110002068006850F080002168086005E0206891
:10412000006830F0800021680860607E012806D1B8
:104130002068006850F040002168086005E02068B1
:10414000006830F0400021680860A07E012806D198
:104150002068006850F020002168086005E02068B1
:10416000006830F0200021680860E07E012806D158
:104170002068006830F010002168086005E02068C1
:10418000006850F0100021680860207F012806D1E7
:104190002068006850F008002168086005E0206889
:1041A000006830F0080021680860607F012806D1AF
:1041B0002068006850F004002168086005E020686D
:1041C000006830F0040021680860A168E0680143DD
:1041D00020690143606901436068401E0143206813
:1041E000C16100206062012084F82000002032BDFF
:1041F00038B5040094F82000012821D1022084F869
:10420000200020680068400840002168086003F032
:10421000BBFB050020684068C0070DD503F0B4FB68
:10422000401B0B28F6D3606A50F400306062052012
:1042300084F82000012008E000206062002004E0F3
:10424000606A50F400206062012032BD70B490F8C2
:1042500020500468A6688C68002CFFD02C00E4B2C3
:10426000012C02D0EDB2022D6ED116F0E05F65D0C8
:10427000C6F30164032C05D3416A51F40001416285
:10428000012066E00125A5401D608B68002B09D147
:104290000B68CD6855EA4355036826013344C3F8DB
:1042A00080510AE04B688D6855EAC305CB681D4311
:1042B000036826013344C3F880510B690568260161
:1042C0003544C5F88431097D01290BD101682301EA
:1042D0001944D1F8841151F48071036825012B44ED
:1042E000C3F88411D17993791B0453EA016351799E
:1042F00053EA012311790B43016825012944C1F8D0
:104300008C31D17893781B0453EA0163517853EAD6
:10431000012311780B43016822011144C1F888314F
:10432000016822011144D1F8801151F001010068A7
:1043300022011044C0F8801100200AE0416A51F4C3
:1043400000114162012004E0416A51F48021416280
:10435000012070BC70472DE9F84F05000024286843
:104360004669286847682868D0F808802868D0F827
:104370000C902868D0F810A02868D0F818B0F00782
:1043800055D55FEAC87018D50120296888605FEAB2
:10439000887003D5280003F0FDFA0EE05FEA48704C
:1043A00002D554F4006408E05FEA087002D554F4C2
:1043B000805402E0280003F0EEFA5FEAC85019D5F5
:1043C0004FF48070296888605FEA885003D5280020
:1043D00003F0E2FA0EE05FEA485002D554F40054CC
:1043E00008E05FEA085002D554F4804402E0280057
:1043F00003F0D3FA5FEAC83019D55FF4803029683A
:1044000088605FEA883003D5280003F0C7FA0EE021
:104410005FEA483002D554F4004408E05FEA08300F
:1044200002D554F4803402E0280003F0B8FA3007D3
:1044300007D55FEAC96004D554F4007410202968D8
:10444000C860700708D55FEA097005D5082029689B
:10445000C860280003F0A4FAB00707D52868C06830
:1044600010F0030F02D0280003F09BFA700607D566
:104470005FEACA6004D554F480641020296808619A
:10448000B00608D55FEA0A7005D5082029680861DA
:10449000280003F087FAF00607D52868006910F0B5
:1044A000030F02D0280003F07EFAB00307D5F80608
:1044B00005D5102029684860280003F075FAF0033C
:1044C00007D5380705D5082029684860280003F07B
:1044D0006CFA30044DD5780748D5F00506D51BF0A9
:1044E0000100C0B2002801D054F00104B00504D589
:1044F0005FEA8B7001D554F00204700504D55FEAC1
:104500004B7001D554F0040430052FD51BF0700F0B
:104510002CD01BF0700BBBF1100F0FD0BBF1200F94
:104520000FD0BBF1300F0FD0BBF1400F0FD0BBF15C
:10453000500F0FD0BBF1600F0FD011E054F0080402
:104540000EE054F010040BE054F0200408E054F0A6
:10455000400405E054F0800402E054F48074FFE766
:104560002868806930F07000296888610420296813
:104570004860002C05D0686A04436C62280003F090
:1045800015FABDE8F18F000038B504000D00002CCD
:1045900001D1012041E094F83D00002805D1002020
:1045A00084F83C002000FDF712FC242084F83D0034
:1045B0002068C06830F400502168C860200000F016
:1045C00076FA2068006930F400602168086120688C
:1045D000406930F02A00216848612068006950F481
:1045E0008040216808612068006930F0200021685F
:1045F0000861206800690543206805612068C0687B
:1046000050F400502168C86000202064202084F805
:104610003D00202084F83E00002032BD90F83D305F
:10462000202B23D1002903D013009BB2002B01D1F2
:1046300001201CE090F83C30012B01D1022016E053
:10464000012380F83C3001628284C284002101642D
:10465000212180F83D10002180F83C100168C968D4
:1046600051F080010068C160002000E00220704726
:1046700080B590F83E30202B16D1002903D01300CE
:104680009BB2002B01D101200FE090F83C30012BB0
:1046900001D1022009E0012380F83C3000230363AC
:1046A00092B200F012F900E0022002BD38B5040019
:1046B000206801682068C2682068436900200020E3
:1046C00011F00F00002807D18D0605D5950603D5FA
:1046D000200000F07EF9F7E0002872D0D80702D45D
:1046E00012F4907F6DD011F00100C0B2002805D007
:1046F000D00503D5206C50F001002064480708D590
:1047000013F00100C0B2002803D0206C50F002006A
:104710002064880708D513F00100C0B2002803D038
:10472000206C50F00400206408070AD5900604D4D9
:1047300013F00103DBB2002B03D0206C50F0080013
:104740002064206C00283BD0880604D5900602D552
:10475000200000F03EF920684069800910F0010057
:10476000216C090701D4002825D0200000F0CCF8E6
:104770002068406940061AD52068406930F0400042
:1047800021684861A06B00280DD00FF2B510A16B15
:104790004863A06B03F032F9002811D0A06BA16B25
:1047A000496B88470CE0200003F08EF908E02000F8
:1047B00003F08AF904E0200003F086F90020206469
:1047C00082E0206B01286FD1C8066DD5D0066BD56D
:1047D00000200090206800680090206840680090E9
:1047E000009820684069400638D5A06B0068416891
:1047F000080080B2002830D00800A28D80B290421C
:104800002BD2E185A06B806920281FD02068C0686A
:1048100030F480702168C86020684069400840001A
:10482000216848612068406930F040002168486193
:10483000202084F83E00002020632068C06830F00B
:1048400010002168C860A06B03F0B2F8A18DE08D64
:10485000091A89B2200003F038F935E0A08DE18D06
:10486000411AE08D00281ED0080080B200281AD01E
:104870002068C06830F490702268D0602068406979
:104880004008400022685061202084F83E0000204B
:1048900020632068C06830F010002268D06089B2C0
:1048A000200003F012F90FE0080605D5100603D525
:1048B000200000F04FF807E0480605D5500603D564
:1048C000200000F078F8FFE731BD81628285C28563
:1048D00000210164222180F83E10002180F83C1064
:1048E0000168C96851F480710268D1600168496942
:1048F00051F00101026851610168C96851F020015D
:104900000068C160002070470168C96831F4907187
:104910000268D1600168496949084900026851612B
:10492000016B012905D10168C96831F010010268E5
:10493000D160202180F83E10002101637047000003
:1049400080B5406A0021C1850021C18403F0BCF814
:1049500001BD000090F83D1021292AD18168B1F5F0
:10496000805F0CD10169002909D1016A0988C90554
:10497000C90D02685160016A891C016205E0016A83
:104980004A1C0262097802685160C18C491EC184C8
:1049900089B200290BD10168C96831F08001026831
:1049A000D1600168C96851F040010068C160002011
:1049B00000E00220704780B50168C96831F040010D
:1049C0000268D160202180F83D1003F07FF80020BC
:1049D00002BD80B590F83E10222966D18168B1F5FC
:1049E000805F0DD1016900290AD10021816A026826
:1049F0005268D205D20D0A80816A891C816217E053
:104A0000826A00218168B1F5805F05D08168002944
:104A100006D10169002903D101684968117004E0D9
:104A20000168496811F07F011170816A491C816237
:104A3000C18D491EC18589B2002934D10168C96878
:104A400031F020010268D1600168C96831F48071D9
:104A50000268D160016849694908490002685161EA
:104A6000202180F83E10016B012918D1002101633B
:104A70000168C96831F010010268D16001680968F5
:104A8000C90608D5002100910168096800910168F4
:104A9000496800910099818D03F017F801E0FDF756
:104AA000E2F9002002E0002000E0022002BD38B55B
:104AB00004002068016931F44051E0680143206836
:104AC0000161A16820690143606901432068C268EF
:104AD0002D48024011432068C1602068416931F4CB
:104AE0004071A069014320684161206827498842DC
:104AF00002D1FFF71DF801E0FFF70FF8192101FBC4
:104B000000F162689200B1FBF2F16422B1FBF2F2B3
:104B1000192101FB00F163689B00B1FBF3F319213C
:104B200001FB00F16568AD00B1FBF5F16425B1FB57
:104B3000F5F5642101FB1533190132316423B1FB12
:104B4000F3F313F0F00313EB0213192101FB00F14F
:104B500062689200B1FBF2F2192148436168890052
:104B6000B0FBF1F06421B0FBF1F1642000FB1122F5
:104B7000100132306421B0FBF1F010F00F00C318C7
:104B80002068836031BD0000F3E9FFFF0038014079
:104B90001CB50400002C07D1502080F31188BFF30E
:104BA0004F8FBFF36F8FFEE72020009000982028E2
:104BB00007D0502080F31188BFF34F8FBFF36F8F62
:104BC000FEE7002C06D000202060201D02F07FFFB1
:104BD00001202077200016BD10B5202002F0C4FF70
:104BE0000400002C06D000202060201D02F06FFF82
:104BF00000202077200010BD2DE9F04707001400A9
:104C00001E005FF0000A0020002F07D1502080F323
:104C10001188BFF34F8FBFF36F8FFEE7884618F000
:104C20007F4F07D0502080F31188BFF34F8FBFF321
:104C30006F8FFEE7B8F1000F07D1502080F3118885
:104C4000BFF34F8FBFF36F8FFEE7089D02F0BAF9F5
:104C5000002801D1002D01D1012000E00020C0B2C8
:104C6000002807D1502080F31188BFF34F8FBFF386
:104C70006F8FFEE701F078FED7F8009032004146D2
:104C8000484600F0A7F8002807D00025002C19D0CE
:104C9000386830EA0800386014E0002D01D10120A6
:104CA00010E0002C01D05AF0807A002E01D05AF08A
:104CB000806A2A005AEA080A5146381D01F0BCFFF2
:104CC0005FF0000901F058FE002D26D0002807D122
:104CD0005FF080504A490860BFF34F8FBFF36F8F7A
:104CE00002F0D0F981465FEA891014D403F0E0F8AD
:104CF000D7F8009032004146484600F06BF8002893
:104D000006D0002C04D0386830EA0808C7F80080C4
:104D1000012003F0EAF829F07F494846BDE8F08712
:104D20002DE9F04104000F0000250020002C07D1E0
:104D3000502080F31188BFF34F8FBFF36F8FFEE7D2
:104D400017F07F4F07D0502080F31188BFF34F8FAB
:104D5000BFF36F8FFEE714F1040818F1080601F0A5
:104D600003FED8F80C2020680743276023E0D4F81E
:104D700000C01CEA010C8C4511D101200FE05768DE
:104D80001168002011F07F4321F07F415FEA431C4E
:104D9000EDD4D4F800C011EA0C0F00D00120002897
:104DA00008D0D80100D50D43216851F000711000E2
:104DB00001F0D6FF3A00B242E1D1206830EA0505A1
:104DC000256001F0D9FD2068BDE8F08180B5FFF7CE
:104DD000A7FF01BD03000020002A03D10B4205D02C
:104DE000012003E00B408B4200D10120704780B5C9
:104DF00013000A000100034803F010FB02BD00008D
:104E000004ED00E0CD4D000810B504000020002C9A
:104E100001D1012068E0607C002804D100202074CA
:104E20002000FDF713FC02206074200000F062F8FF
:104E3000002803D004206074012055E0200000F019
:104E400078F8002803D00420607401204CE020682A
:104E50004068C008C00021684860A068002807D0EA
:104E6000DFF88800006840084000DFF88010086024
:104E7000DFF87C00016831F46071A0680143DFF85D
:104E800070000160606810F1010F01D0606809E0F6
:104E90000120FEF712FF002803D1042060740120D6
:104EA00022E0401E216889680909090151EA104180
:104EB000226891602168C968090C090480B208431E
:104EC0002168C860200000F04FF8002803D00420BB
:104ED0006074012008E00020E0730120607301206D
:104EE000A07301206074002010BD0000306C0040F1
:104EF0002C6C004038B504000020002C01D10120AA
:104F000016E02068406830F008002168486002F030
:104F10003BFD050020684068000708D402F034FD1E
:104F2000401B40F2E9318842F4D3032000E0002026
:104F300032BD38B50400002002F026FD05002068CF
:104F40004068800608D402F01FFD401B40F2E931A2
:104F50008842F4D3032006E02068406850F0100037
:104F600021684860002032BD38B504000020206868
:104F7000406830F010002168486002F005FD05002F
:104F800020684068800608D402F0FEFC401B40F216
:104F9000E9318842F4D3032000E0002032BD000054
:104FA000012001490860704720000E4210B504003E
:104FB000002C01D101205AE0606A002806D1606807
:104FC000B0F5827F06D00020E06103E00020206180
:104FD000002060610020A06294F85100002805D1F3
:104FE000002084F850002000FDF780FB022084F8A8
:104FF00051002068006830F0400021680860606857
:1050000010F48270A16811F404410843E16811F4BE
:1050100000610843217C11F002010843217D11F059
:1050200001010843A16911F400710843217F11F0C7
:105030003801084394F8201011F080010843A16A58
:1050400011F40051084321680860A069000C10F0B9
:105050000400216848602068C06930F4006021685D
:10506000C86100206065012084F85100002010BD57
:1050700010B50400002C01D101202FE094F83D0070
:10508000002805D1002084F83C002000FDF74CFCEE
:10509000022084F83D00211D206800F028FB01203B
:1050A00084F84600012084F83E00012084F83F0087
:1050B000012084F84000012084F84100012084F898
:1050C0004200012084F84300012084F844000120BC
:1050D00084F84500012084F83D00002010BD10B583
:1050E0000400002902D194F83E000BE0042902D10B
:1050F00094F83F0006E0082902D194F8400001E04E
:1051000094F84100012801D001204BE0002904D18E
:10511000022084F83E00C0B211E0042904D102202C
:1051200084F83F00C0B20AE0082904D1022084F8C4
:105130004000C0B203E0022084F84100C0B2012266
:10514000206800F03FFC20681749884205D120689C
:10515000406C50F40040216848642068124988423D
:105160000CD02068B0F1804F08D020680F498842E9
:1051700004D02068DFF8A81088420CD1206880682D
:1051800010F0070006280CD02068006850F00100DD
:105190002168086005E02068006850F0010021687F
:1051A0000860002010BD0000002C014000040040F9
:1051B00010B50400002C01D101202FE094F83D002F
:1051C000002805D1002084F83C002000FDF774FB86
:1051D000022084F83D00211D206800F088FA01209B
:1051E00084F84600012084F83E00012084F83F0046
:1051F000012084F84000012084F84100012084F857
:105200004200012084F84300012084F8440001207A
:1052100084F84500012084F83D00002010BD000006
:105220000008004010B50400002902D194F83E00A7
:105230000BE0042902D194F83F0006E0082902D1CE
:1052400094F8400001E094F84100002902D194F85C
:1052500042200BE0042902D194F8432006E00829FB
:1052600002D194F8442001E094F84520C0B201280E
:1052700002D1D2B2012A01D0012081E0002904D15B
:10528000022084F83E00C0B211E0042904D10220BB
:1052900084F83F00C0B20AE0082904D1022084F853
:1052A0004000C0B203E0022084F84100C0B20029EF
:1052B00004D1022084F84200C0B211E0042904D1D4
:1052C000022084F84300C0B20AE0082904D1022079
:1052D00084F84400C0B203E0022084F84500C0B264
:1052E0000800002806D004280BD0082810D00C286D
:1052F00015D01BE02068C06850F002002268D06022
:1053000014E02068C06850F004002268D0600DE00E
:105310002068C06850F008002268D06006E020686D
:10532000C06850F010002268D060FFE701222068BA
:1053300000F048FB2068134988420DD02068B0F186
:10534000804F09D02068DFF84010884204D02068E0
:10535000DFF8381088420CD12068806810F0070010
:1053600006280CD02068006850F001002168086011
:1053700005E02068006850F0010021680860002006
:1053800010BD0000002C0140000400400008004057
:1053900010B504002068006980071AD52068C0682D
:1053A000800716D57FF00200216808610120207770
:1053B0002068806910F0030F03D02000FDF712FB76
:1053C00005E0200003F054F8200003F052F800201C
:1053D00020772068006940071AD52068C068400718
:1053E00016D57FF00400216808610220207720682C
:1053F000806910F4407F03D02000FDF7F3FA05E048
:10540000200003F035F8200003F033F80020207767
:105410002068006900071AD52068C068000716D503
:105420007FF0080021680861042020772068C069A7
:1054300010F0030F03D02000FDF7D4FA05E02000A0
:1054400003F016F8200003F014F8002020772068FD
:105450000069C0061AD52068C068C00616D57FF05E
:10546000100021680861082020772068C06910F4C6
:10547000407F03D02000FDF7B5FA05E0200002F0E0
:10548000F7FF200002F0F5FF002020772068006978
:10549000C0070AD52068C068C00706D57FF00100A4
:1054A00021680861200002F0E5FF2068006900061D
:1054B0000AD52068C068000606D57FF08000216804
:1054C0000861200002F0D7FF2068006940060AD575
:1054D0002068C068400606D57FF04000216808615A
:1054E000200002F0C9FF2068006980060AD5206804
:1054F000C068800606D57FF0200021680861200082
:1055000002F0BBFF10BD38B504000D0094F83C005C
:10551000012801D1022059E0012084F83C00002A32
:1055200012D1EB686A682968206800F0C5F9206824
:10553000806930F00C002168886120688169A86862
:105540000143206881613DE0042A13D1EB686A6859
:105550002968206800F0E6F92068806930F440602E
:105560002168886120688069A96850EA0120216863
:10557000886127E0082A12D1EB686A6829682068E8
:1055800000F0EBF92068C06930F00C002168C861B8
:105590002068C169A86801432068C16112E0EB6816
:1055A0006A682968206800F0F2F92068C06930F460
:1055B00040602168C8612068C069A96850EA01207C
:1055C0002168C861002084F83C00002032BD38B555
:1055D00004000D0094F83C00012801D102206DE088
:1055E000012084F83C00002A06D0042A1BD0082A97
:1055F00031D00C2A46D05DE02900206800F0A9F8DF
:105600002068806950F008002168886120688069FE
:1056100030F00400216888612068816928690143AD
:105620002068816146E02900206800F0BFF820680A
:10563000806950F40060216888612068806930F4D6
:1056400080602168886120688069296950EA0120AA
:10565000216888612EE02900206800F0D9F82068D0
:10566000C06950F008002168C8612068C06930F046
:1056700004002168C8612068C16928690143206865
:10568000C16117E02900206800F0F3F82068C069C4
:1056900050F400602168C8612068C06930F48060FF
:1056A0002168C8612068C069296950EA0120216821
:1056B000C861FFE7002084F83C00002032BD0200F2
:1056C0000020002906D0042907D0082908D00C2979
:1056D00009D00BE01068406B08E01068806B05E0B3
:1056E0001068C06B02E01068006CFFE77047036849
:1056F000894A904208D0B0F1804F05D0874A904245
:1057000002D0874A904203D133F070034A681343B2
:10571000814A904208D0B0F1804F05D07F4A904234
:1057200002D07F4A904203D133F44073CA681343D6
:1057300033F080034A69134303608A68C2620A68CF
:105740008262754A904201D1096901630121416178
:10575000704730B4026A520852000262046A456817
:10576000836933F070039B089B000A68134334F08D
:1057700002048A681443684A904205D134F0080450
:10578000CA68144334F00404634A904207D135F4E4
:10579000807535F400754A6915438A69154345607B
:1057A000836149684163046230BC704730B4026A67
:1057B00032F010020262036A4468826932F4E04205
:1057C00032F440720D6852EA052233F020038D68EE
:1057D00053EA0513504DA84206D133F08003CD683B
:1057E00053EA051333F040034B4DA84209D134F47A
:1057F000806434F400644D6954EA85048D6954EA88
:1058000085044460826149688163036230BC7047EB
:1058100030B4026A32F480720262046A4568C36975
:1058200033F070039B089B000A68134334F4007440
:105830008A6854EA0224384A904206D134F400645B
:10584000CA6854EA022434F48064334A904209D18D
:1058500035F4805535F400554A6955EA02158A69D0
:1058600055EA02154560C3614968C163046230BCF2
:10587000704730B4026A32F480520262036A4468AC
:10588000C26932F4E04232F440720D6852EA0522F5
:1058900033F400538D6853EA05331F4DA84204D1F9
:1058A00034F480444D6954EA85144460C261496807
:1058B0000164036230BC704770B4046A6408640019
:1058C00004628569066A144CA04208D0B0F1804F8A
:1058D00005D0124CA04202D0114CA04201D10124AB
:1058E00000E00024E4B2002C03D0AD08AD002A4350
:1058F00002E02A0052F0010232F0F0021B0113F024
:10590000F0031A4336F00A0611F00A0131438261AE
:10591000016270BC70470000002C01400004004090
:105920000008004030B4046A34F010040462846952
:10593000056A34F4407454EA022434F470441B03BE
:1059400013F47043234335F0A005090111F0A001C1
:1059500029438361016230BC704730B4046A34F477
:1059600080740462C469056AA408A400224332F06A
:10597000F0021B0113F0F0031A4335F4007509021D
:1059800011F400712943C261016230BC704730B428
:10599000046A34F480540462C469056A34F44074BF
:1059A00054EA022434F470441B0313F47043234379
:1059B00035F40055090311F400512943C361016214
:1059C00030BC704710B4012411F01F0314FA03F324
:1059D000046A34EA03030362036A11F01F0112FA36
:1059E00001F11943016210BC7047000010B490F837
:1059F0003C20012A01D102202CE0012280F83C2029
:105A0000022280F83D20026854680268936834F0EE
:105A100070040A681443026854600268104CA24281
:105A20000BD00268B2F1804F07D002680D4CA24241
:105A300003D00268094CA24205D133F080034968C3
:105A40000B4301688B60012180F83D10002180F834
:105A50003C10002010BC704700000000000800400F
:105A6000002C01400004004038B50400002C01D196
:105A70000120E4E094F83D00002805D1002084F8DE
:105A80003C002000FDF7C9F8242084F83D00206880
:105A9000006840084000216808602068006850F4F1
:105AA0000040216808602068006830F400402168E8
:105AB0000860FEF732F801006068DFF88421904248
:105AC00008D2DFF88001814201D2012000E00020ED
:105AD000C0B207E0DFF87001814201D2012000E08E
