:020000040800F2
:10000000B02700200D5A00087158000873580008E6
:10001000755800087758000879580008000000005B
:1000200000000000000000000000000073560008FF
:100030007B580008000000002D5600087D5800087D
:10004000315A0008355A0008395A00083D5A00084C
:10005000415A0008455A0008495A00084D5A0008FC
:10006000515A0008555A0008595A00085D5A0008AC
:10007000615A0008655A0008695A00086D5A00085C
:10008000715A0008755A0008795A000895580008F6
:1000900099580008AB5800087D5A0008815A00089A
:1000A000855A0008895A00088D5A0008B15800087E
:1000B000915A0008955A0008995A00089D5A00085C
:1000C000A15A0008A55A0008A95A0008AD5A00080C
:1000D000B15A0008B7580008B55A0008B95A0008C4
:1000E000BD5A0008C15A0008C55A000830B50400BE
:1000F00085B043D004F52A75687820B900212970AD
:10010000204600F04FFC03206870206800F074FC6B
:1001100083B000F046F80EBC206800F06BFC58BBC2
:100120002068002100F06EFC002128200AE000FB7E
:1001300001F222442832012353701170D18100232F
:1001400000F028F862689142F1D3002109E000FB39
:1001500001F2224402F5B47200231170537000F0D2
:1001600019F862689142F2D383B000F01AF80EBC1D
:10017000206800F049FC18B102206870012007E0F7
:1001800084F8240001206870206800F0F1FE00204F
:1001900005B030BD491CD370136153619361C9B27E
:1001A0007047211D6846202200F022BF7FB504461B
:1001B00000F09EF8010444BF204600F0B4F800F0BF
:1001C00097F840050CD500F08FF84FF6FF3000F09F
:1001D00087F8204600F04FFF0021204600F094F8F9
:1001E00000F086F8400405D500F07EF84BF6FF706D
:1001F00000F076F800F07CF8800405D500F074F883
:100200004DF6FF7000F06CF800F072F8C00417D5DE
:100210002168B1F840204FF6FB700240A1F8402061
:100220004FF6F770B1F840200240A1F84020204678
:1002300000F022FF00F058F84EF6FF7000F050F882
:1002400000F056F8000533D52168002031F8203041
:100250002DF81030401C0828F8D301F140034FF668
:10026000FE701D8845F001051D801E8806401E8019
:1002700098884505FCD54FF6FF309D8805409D8048
:1002800000203DF8105021F82050401C0828F8D3D9
:10029000188840F0080018804FF2FF7099880140DC
:1002A0009980188840F004001880204600F0E5FE90
:1002B00000F01EF8800508D500F016F84FF6FF5044
:1002C00000F00EF8204600F0D9FE00F011F8C0054D
:1002D00005D500F009F84FF6FF6000F001F87FBD8A
:1002E0000240A1F8442070472168B1F844207047CB
:1002F000206800F03FBE002084F8A80210BD04462C
:1003000094F8A8020128704710B5FFF7F8FF01D153
:10031000022010BD012284F8A82284F8241020684D
:1003200000F020FEE7E72DE9F84F00F5B47506462A
:1003300028E001880AEA010141F40041018006F148
:1003400024043068B0F85010227901EBC20100EBB0
:10035000410000F204400088A169C0F30900206256
:100360000844A0610021304600F089FE217849B19F
:10037000E06938B92178306841F08001A0F84C106C
:1003800000212170306800F144010A88130440F113
:100390001B810A8812F00F0440F68F7748F60F7A17
:1003A00065D1D206C5D50288130511D5898900F01B
:1003B0001AF9EA88C3F30903EB6106F52C7100F022
:1003C000F3FD306800F009F9304600F059FED9E736
:1003D0001104D7D500F001F93068B0F8501000F0E2
:1003E00002F9C3F30903002BEB611CBF6969002903
:1003F0000AD0EA8800F0D8FD6869E96908446861B4
:100400000021304600F03DFE316808880205B9D46D
:10041000B1F850004118286901F20C4148B9088828
:1004200048F2FF32104008800A8842F400420A80F5
:1004300010E03F2805D24208C00748BF521C900276
:1004400007E0420910F01F0F08BF521E900240F44F
:1004500000400880306801884BF68F72114081F4AB
:10046000405141F4004141F0800101808AE7282198
:1004700030F82480614306EB01095FEA084163D547
:1004800030F824100F4047F0800720F8247009F559
:10049000B477387B78B93068B0F850103A7801EB0F
:1004A000C20100EB410101F20C41098800F090F813
:1004B00036D0FA8830E0F878022806D1424639462C
:1004C000304600F099F883462AE03068397830F8F1
:1004D000212048F68F731A4042F4004242F0C002D5
:1004E00020F82120397830680B4630F823305A0440
:1004F000B0F8503003EBC10300EB430206D502F223
:10050000044200F064F80BD03A8905E002F20C4294
:1005100000F05DF804D07A895B46796900F044FD0B
:10052000F8695844F861786958447861B86910B13D
:100530003A69934504D23978304600F0A2FD03E0D1
:100540003068394600F06BFA5FEA08602CD53068F5
:1005500030F824200AEA020242F4004209F128019C
:1005600020F82420C878032818BF002804D00228C7
:1005700025D15FEAC85022D430680A78B0F85030EC
:1005800003EBC20300EB430000F2044003888869D8
:10059000C3F30903834234BFC01A0020886120B925
:1005A0001146304600F06BFDECE64869184448619E
:1005B000C8691B18CB61306800F031FAE2E64246A8
:1005C000304600F075F8DDE60020BDE8F28F1188B6
:1005D000C1F3090BBBF1000F704701880F4047F0D2
:1005E0008007078070472A7801EBC20100EB4101C8
:1005F00001F20C410B8870472DE9FC41006891F82D
:1006000000808B69B0F85050540405EBC80448F2E0
:10061000C00648F68F7748F2800C4BF68F7E00EBD1
:10062000440518D505F204452C88C4F30904A342F7
:100630002CBF1B1B00238B612BB930F828300EEA2E
:10064000030300F026F8520601D500F029F8ECB1BA
:1006500023460A8917E005F20C452C88C4F30904E7
:10066000A3422CBF1B1B00238B612BB930F8283011
:100670000EEA030300F00DF8520601D400F010F862
:1006800024B123464A89496900F08EFC2046BDE822
:10069000F68183F400534CEA030320F828307047B6
:1006A0000A7830F822301F403E4320F8226070471D
:1006B0002DE9FC410D4604461646216895F800E0F8
:1006C000A8697206B1F8502002EBCE034CF2800705
:1006D00048F68F7801EB430340F1838003F2044333
:1006E0001B88C3F30903834234BFC01A00200028CB
:1006F000A86124D1687838B9B1F850305B1803EBA1
:100700000E1300F00FF914E0012809D000F028F9C9
:100710002046297800F0B3FC700440F1DE8080E0D0
:10072000B1F85000401800EB0E1000F20440002316
:10073000038068780028E9D100F000F9E8E7720446
:1007400006D531F82E0008EA0000074321F82E7084
:1007500095F8240001286DD100F0DAF803D3134690
:10076000C01A286208E010B985F8240004E00022CD
:1007700085F8242003462A62687810BB2268B2F804
:1007800050008218287802EB001202F2044233B9BA
:10079000168848F2FF300640168010880DE03F2B87
:1007A00005D25808DE0748BF401C800207E0580900
:1007B00013F01F0F08BF401E800240F4004010805D
:1007C0000BE0012809D12068B0F8502010182A78D1
:1007D00000EB021000F2044003802A8920689BB2DB
:1007E00079E003F20C431B88C3F3090398422CBF42
:1007F000C01A00200028A8612CD1687838B9B1F857
:1008000050305B1803EB0E1300F08CF81CE001284D
:1008100011D000F0A5F82046297800F030FC7004D3
:100820005BD42168287831F8202008EA02021743B7
:1008300021F8207051E0B1F85000401800EB0E1084
:1008400000F204400023038068780028E1D100F022
:1008500075F8E0E7720406D431F82E0008EA0000CB
:10086000074321F82E7095F82400012835D100F0B7
:100870004FF803D31346C01A286205E010B10346AF
:100880000020286285F8240026686878D8B900F02E
:1008900036F833B9178848F2FF30074017801088C0
:1008A0000DE03F2B05D25808DF0748BF401C8002EF
:1008B00007E0580913F01F0F08BF401E800240F4E4
:1008C0000040108004E0012802D100F018F81380E5
:1008D0009BB26A89304600F055FB2268297832F8CD
:1008E000213048F6BF70034083F0300343F40043E7
:1008F00043F0800322F821300020BDE8F681B6F8ED
:1009000050008219287802EB001202F20C42704764
:10091000E86969692A691818E8611944286A6961EF
:100920009042704703F2044348F2FF301A881040A7
:100930001880188840F4004018807047B1F85000C3
:100940004218287802EB001202F20C4248F2FF3003
:10095000118801401180108840F4004010807047D9
:100960006878012809D1B1F850004218287802EBC4
:10097000001202F20C4200211180704780B51A4823
:100980001A490160082141600221816000218161D2
:10099000C1610162FFF7AAFB18B1BDE8014000F098
:1009A000D1BB01BD00681149884200D0704780B5B5
:1009B0000F48016841F4000101600022006800F462
:1009C0000000009005210098132000F0D9FB1320AF
:1009D00000F0F3FB00220521142000F0D1FBBDE85C
:1009E0000240142000F0E9BBF0180020005C004039
:1009F0001C1002400EB40FE0B0F8402044F2FF019A
:100A000000F0BBBA002070470EB4012120F8401F4F
:100A10000021018081800182002003B070472DE910
:100A2000FC4B0E4605467278307B012A48F280085E
:100A300048F68F7140F04C813769B2693C46944268
:100A400088BF144628B9F28800F088FA00F070FADE
:100A500035E196F803B06309620896F800C0D6F84D
:100A600020E0BBF1020F04F0010048F2801940F0D1
:100A70008380774575D235F82C70394049EA0101F9
:100A800025F82C10AEEB0401316237787178BE4640
:100A900035F82EE05FEA4E6935D599B900F00EFAC7
:100AA00014B900F023FA09E03F2C02D200F0FAF961
:100AB00006E014F01F0F08BF5B1E980240F40040D0
:100AC00008800AE0012908D1B5F85000401900EB70
:100AD000071E0EF20C4EAEF8004000F03EFA00F099
:100AE000DAF932BF001B044600203062707800281B
:100AF00040F09B8000F001FA07F2044740F0838049
:100B000000F0E4F98DE099B900F0D0F914B900F0E3
:100B1000EDF909E03F2C02D200F0C4F906E014F030
:100B20001F0F08BF5B1E980240F40040088001E0E0
:100B300000F008FA328900F011FA00F0ACF932BF87
:100B4000001B0446002030627078002840F0AC8022
:100B500000F0D3F907F20C4740F0948000F0B6F9AA
:100B60009EE035F82C1048F68F60014048EA0101FC
:100B700025F82C1074465AE035F82C70394049EAB3
:100B8000010125F82C10AEEB040131623778717841
:100B9000BE4635F82EE05FEA4E694DD599B900F0B2
:100BA0008DF914B900F0A2F909E03F2C02D200F04F
:100BB00079F906E014F01F0F08BF5B1E980240F49D
:100BC000004008800AE0012908D1B5F8500040191A
:100BD00000EB071E0EF20C4EAEF8004000F0BDF91F
:100BE00000F059F932BF001B04460020002C30628F
:100BF00065D07078C8B9B5F850004719307807EB60
:100C0000001707F204473F2C05D26008E10748BFF0
:100C1000401C800207E0600914F01F0F08BF401E4F
:100C2000800240F40040388003E0012801D100F048
:100C30007FF9A3B232893EE099B900F037F914B9CF
:100C400000F054F909E03F2C02D200F02BF906E045
:100C500014F01F0F08BF5B1E980240F4004008808C
:100C600001E000F06FF9328900F078F900F013F933
:100C700032BF001B04460020306204B3707898B97C
:100C800000F043F93F2C05D26008E10748BF401C43
:100C9000800207E0600914F01F0F08BF401E8002A9
:100CA00040F40040388004E0012802D100F02DF922
:100CB0003C80A3B272897169284600F063F93178EB
:100CC00035F8212048F6BF70024082F0300219E06A
:100CD00000282DD1B1693069884232BF091A08460F
:100CE0000021B16100F0F9F898B900F0EFF840F494
:100CF00000403880317835F821204BF68F70024063
:100D000082F4405248EA020025F821000020BDE8A4
:100D1000F68B3F2805D24108C00748BF491C88020E
:100D2000E7E7410910F01F0F08BF491E8802DEE700
:100D3000F07802285CD10ABBB5F8502030785219FF
:100D400002EB0012306902F2044230B9138848F213
:100D5000FF300340138010880DE03F2805D2430880
:100D6000C00748BF5B1C980207E0430910F01F0F43
:100D700008BF5B1E980240F4004010807078D0B924
:100D800000F0CCF830B93A8848F2FF3002403A809F
:100D900038880DE03F2805D24208C00748BF521CE2
:100DA00090020CE0420910F01F0F08BF521E900283
:100DB00040F4004003E0012802D100F0AFF8388091
:100DC000F069002896D0307835F8202044F24003AE
:100DD00003EA02049C4218BF1A428BD135F8202046
:100DE000114041F4004141F0C00125F8201081E795
:100DF00001284ED1B1693069884232BF091A0846CC
:100E00000021B161430900F0010144081ABBB5F8A3
:100E100050C03278AC440CEB021C0CF2044C48B9C4
:100E2000BCF8007048F2FF323A40ACF80020BCF841
:100E300000200CE03F2804D2224601B1521C92024D
:100E400007E01A4610F01F0F08BF521E920242F42C
:100E50000042ACF800207278B2B9B5F850205719AA
:100E6000327807EB0217002807F20C473FF43DAF3A
:100E70003F2803D201B1641CA0023AE710F01F0F13
:100E800008BF5B1E980232E7012AB0D100F025F8B6
:100E90002FE701203BE77069316920447061306AB7
:100EA0008142704700B1521C90027047B5F8501053
:100EB000491901EB071101F204417047B5F85010D0
:100EC000491901EB071101F20C417047398848F2CA
:100ED000FF300140398038887047B5F850104F19FD
:100EE000317807EB011707F20C4770470A8848F280
:100EF000FF3002400A8008887047B5F85000471953
:100F0000307807EB0017002C7047B5F850004719F0
:100F1000307807EB001707F20C477047B5F8500020
:100F20004719307807EB0017306907F20C47704714
:100F3000B5F850004719307807EB001707F204475F
:100F40003C807047012907D1B5F85000401900EBEB
:100F5000071000F204400480704772897169A3B2DF
:100F600028460FE011B98021A0F84C1000207047EE
:100F700000207047B0F8440070470A40A0F84020B5
:100F80000020704710B500EB42005B1C00F580604C
:100F90005B0807E00A784C7842EA0422891C20F8B2
:100FA000042B5B1EF6D110BD10B500EB420000F51E
:100FB00080605A0806E030F8044B0C70240A4C702C
:100FC000891C521EF7D1DA0744BF0088087010BD93
:100FD00062B38B0708D0521E11F8013B00F8013BA9
:100FE00000F024808B07F6D1830740F0208000BFFB
:100FF000103A07D330B4B1E83810103AA0E83810EE
:10100000F9D230BC530724BFB1E80810A0E808109B
:1010100044BF51F8043B40F8043BD20724BF31F8E9
:10102000022B20F8022B44BF0B7803707047121F6D
:1010300017D35B0009D151F8043B20F8023B1B0C8D
:10104000121F20F8023BF6D20BE051F8043B00F8E7
:10105000013B1B0A20F8023B1B0C121F00F8013B4E
:10106000F3D238BF121D521E24BF11F8013B00F805
:10107000013BF8D87047704770477047704770471A
:101080007047704780B500F0C3F800F017F800F023
:10109000D1F800F04FF9FFF771FC00F0FBF900F018
:1010A00045FB00F073FB00F0C5FB00F003FC00F013
:1010B00055FD00F021FF00F06BFDFEE700B593B099
:1010C00009A8282101F010F804A8142101F00CF857
:1010D0006846102101F008F80520099001224FF41C
:1010E00080300A9011900C920D924FF4E010002184
:1010F000022212900B91109209A800F0F9FF08B19A
:1011000000F020F80F2002210490059100204FF4F8
:101110008061069007910890022104A801F07AF9F5
:1011200008B100F00FF8112000904FF480710020FA
:1011300003900191684601F049FA08B100F002F805
:1011400013B000BD72B6FEE70901020081B002D4FF
:101150002948815405E0294802F00F02104400F8A4
:10116000041C01B07047264A13684FF6FF010002C5
:101170000B4000F4E06018432249084310607047B8
:1011800038B51F4B1C68C4F30223C3F10704052CB8
:1011900028BF04241D1D072D34BF0023DB1E01259D
:1011A00005FA04F4641E2140994005FA03F35B1E1E
:1011B0001A401143BDE83440C6E7010007D40122BC
:1011C00000F01F01104B8A40400943F8202070476F
:1011D00010B5401EB0F1807F01D3012010BD0B4C33
:1011E00060600F214FF0FF30FFF7AEFF0022A260DA
:1011F00007202060002010BD00E400E018ED00E0B2
:101200000CED00E00000FA0500E100E010E000E075
:1012100080B50748016841F0100101600320FFF725
:10122000A2FF0F2001F0ACFA01F0CAFA002002BDC3
:1012300000200240F0B585B06846102100F054FF50
:101240003248334D0468334E44F01004046048F2D1
:1012500002070168304C01F0100104910499016803
:1012600041F020010160026802F02002049204991A
:10127000016841F004010160026802F00402049276
:1012800000220499016841F00801016039460068B4
:1012900000F0080004900498204601F081FB002231
:1012A0004FF44071284601F07BFB002208213046B4
:1012B00001F076FB1F20002100900191029100F0C7
:1012C0002DF8012001900021022002910390009747
:1012D0006946204601F09AFA4FF44C6000901221C2
:1012E0000320019103906946304601F08FFA4FF4D4
:1012F000407000F017F800F011F8082000F012F824
:10130000304600F00CF805B0F0BD000018100240A7
:1013100000100140000C01400008014028466946C9
:1013200001F074BA01210090019100200221029085
:101330000391704780B54F484F49016004214160D7
:10134000002181604FF04071C1604FF400210161C4
:101350004FF4E001416100218161818301F040FB94
:1013600018B1BDE80140FFF7EDBE01BD18B585B06D
:10137000044601A8102100F0B7FE21683E4A9142C0
:1013800049D13E483E4C416841F000714160002225
:10139000416801F0007100910099016841F0080175
:1013A00001604FF48071006800F008000090009820
:1013B00001910292039201A9204601F027FA4FF40D
:1013C00000700190022103200291049001A920469F
:1013D00001F01CFA2B48016821F4C04141F0E061A2
:1013E00041F480410160002205211320FFF7C8FE6F
:1013F0001320FFF7E2FE002205211420FFF7C0FEB4
:101400001420FFF7DAFE002205211520FFF7B8FEB1
:101410001520FFF7D2FE06B010BD000030B500BFAA
:101420001AA189B0D1E9002301A840F2016100248A
:101430000391C0E90023069405948DF8204008210B
:10144000079101AD0B4C204601F050FBE8790E49A5
:10145000401CE8716B4608886870020A8DF8042009
:1014600003A901AA204601F07BFB012000F029FC22
:10147000ECE7000008230020006400401810024040
:10148000000C014004000140282000205593E5E6AF
:101490005555080080B59B489B4901624FF4964121
:1014A000416200218162C16201630C21416300211C
:1014B0008163203001F0B8FC18B1BDE80140FFF7AE
:1014C00041BE01BD18B585B0044601A8102100F049
:1014D0000BFE21688C4A914231D18C488C4C0268B9
:1014E00042F4804202600222016801F480410091CE
:1014F0000099016841F0040101604FF40071006837
:1015000000F00400009000980191032004900292E2
:1015100001A9204601F07AF94FF480600190002182
:1015200001200291039001A9204601F06FF90022E9
:1015300006212520FFF724FE2520FFF73EFE06B0FA
:1015400010BD000000687049884200D0704710B597
:101550006C4C012204F11D0104F1200001F0D0FCCB
:10156000207B617F2154207B401C2073BDE810400C
:101570001CB500200090634C227F217B606E052A01
:1015800048D8DFE802F0030C122E474100202073F8
:101590002078002840D101212177217313BD607884
:1015A000552833D10221217713BDA17803290BD10E
:1015B000042121776A460821E17303216173A17335
:1015C000012101F083FF13BDC42908D10320207736
:1015D00004206073C420A0730820E07313BD0520AD
:1015E00019E0E27B121D914216DB002104E0621833
:1015F000491CD3781374C9B2E27B9142F7DB6A4687
:10160000022101F063FF01E00C2905DB00202077B7
:10161000207313BD0020207713BDF8B501220821E7
:101620003C48384D3C4E3D4F01F0BAF900F078F897
:1016300001F07EFE6866022101F002FF11E005F173
:101640001002125C1A54401C8842F8DB30680023F8
:10165000224607F1100100F0FEFB388A3870000ABC
:101660007870012000900023686E0122032101F0B0
:101670006EFE7861C207697B3BD50329E6D1002164
:1016800005E0785C05F110025054491CC9B2E87BB2
:101690008142F6DB697B3C291ABF3D29A97B0021E9
:1016A00000220CE005F110035FFA82FC521C13F8D3
:1016B0000C3059188BB201EB132101F0FF01D3B2AA
:1016C0008342EFD3C9432976EA7B05F1100105F186
:1016D000200001F0F3FB0028F6D1012205F11801EA
:1016E00005F1200001F0EAFB0028F6D100F018F81F
:1016F000ACE78007AAD50429A8D1E97B002007F12F
:101700000803A1E7802000200038014018100240A3
:1017100000080140000C01404423002078230020F1
:10172000012201A905F1200001F014BD80B5134884
:10173000134901604FF0FF3141604FF480718160C7
:1017400001F0D0FE18B1BDE80140FFF7FBBC01BDC0
:1017500000680B49884200D0704780B501F062FFF5
:101760000848094A016841F00061016001210068F0
:1017700000F0006000900098116001BD90230020EF
:10178000002800401C1002403C04424280B525481D
:10179000254901604FF4827141604FF4004181603E
:1017A0000021C160016141614FF40071816120211C
:1017B000C16100210162416281620A21C16201F0BE
:1017C00039FF18B1BDE80140FFF7BCBC01BD18B539
:1017D00085B0044601A8102100F086FC2168124A59
:1017E00091421CD11148026842F4805202600222E8
:1017F000016801F4805100910099016841F00401F1
:101800000160E021006800F0040000900098019160
:1018100003200490029201A9054800F0F7FF06B0EA
:1018200010BD0000E82000200030014018100240E8
:101830000008014038B50FF20431B64CB64DD1E97D
:10184000002386B002A8CDE90023102100F04CFC53
:1018500047202063E562002060634FF6FF70A063BD
:101860000020E063012020640020606404F12C006B
:1018700001F0CEFF08B1FFF765FC00200090019059
:10188000694604F12C0002F015FB08B1FFF75AFC81
:101890000220029001210020039104900590002273
:1018A00002A904F12C0002F0F1F808B1FFF74AFC9C
:1018B00007B030BD30B500BFA2A1984C984DD1E91A
:1018C000002389B002A8CDE900231C2100F00CFC04
:1018D0002320606025600020A0606320E06000207D
:1018E0002061A061204601F014FF08B1FFF72AFC37
:1018F0000020009001906946204602F0DBFA08B112
:10190000FFF720FC602000210290039104910691D2
:10191000002202A9204602F037F908B1FFF712FCB5
:10192000042202A9204602F02FF908B1FFF70AFCB1
:10193000204600F043F809B030BD18B585B000F07E
:1019400061F82168744A914225D17648026842F4D0
:10195000006202600022016801F4006100910099B8
:10196000016841F0040101604FF48071006800F0EB
:10197000040000900098019102200390029201A9B6
:10198000694800F043FF002205211B20FFF7F8FB08
:101990001B20FFF712FC06B010BD81B00068604943
:1019A000884209D16148016841F002010160006884
:1019B00000F002000090009801B0704718B585B0A3
:1019C00000F020F82168564A914219D15548026822
:1019D00042F010020260C021006800F01000009088
:1019E00002220098524801910292049201A900F04B
:1019F0000DFF5048016841F0E06141F44061016031
:101A000006B010BD044601A8102100F06DBB000017
:101A100038B584B004460D464FEA0D004BA11022A4
:101A2000FFF7E6FA0320002104E0E35C5840491C7C
:101A30001DF80000CBB2AB42F7D305B030BD10B5F6
:101A400002683548334C82423FD1002104F12C001A
:101A500002F0FEF8E16FA067814228BF00F58030F8
:101A6000401AA0F19F0113293CBF002284F82020D6
:101A700094F82010401E0322B0FBF2F0A0F10B03FB
:101A8000635408291CDB0621A01CFFF7C1FF217A43
:101A90006077884214D1E178A078090101EB002138
:101AA00020794118608D2185401C608500232248E3
:101AB0000068002204F1280100F09AF900F0E2F831
:101AC00094F82000401C84F82000A06FE06710BD4F
:101AD00038B5124C0021204601F028FE0421204692
:101AE00001F024FE0B4D002105F12C0001F0ACFEAD
:101AF00001F01EFC68674FF0FF3000900123686F13
:101B00000122012101F023FC2068A98C4163E98CAA
:101B10008163F0E700200020002C0140802200209B
:101B20000004004018100240000801401C10024050
:101B30000010014004000140442300200000000088
:101B4000000000000000000000000000000D070A77
:101B50000E030904010C060B0F020805EFF30580C4
:101B6000002804BFEFF31080002807D1DFF8D4115C
:101B70000868022803D1EFF3118000B19EE00868E5
:101B800010B901220A6070474FF0FF307047000023
:101B900080B500F0DAF804BFEFF31080002807D119
:101BA000DFF8A0110868022803D1EFF3118000B11B
:101BB00009E00868012805D102220A6002F0C6FA8D
:101BC000002002BD02E06FF0050002BD4FF0FF30C3
:101BD00002BDF0B585B000230493EFF30583002B1D
:101BE00004BFEFF31083002B49D1DFF858311C6894
:101BF000022C03D1EFF31183002B40D103003ED020
:101C00000023802518268DF80C3003AC5AB31368D6
:101C100003B11C4693691BB11E0004D0392E02D2B9
:101C20001379DF0701D500202AE0536903B19D082D
:101C3000D2F80CC0976887B1BCF15C0F1FD3126952
:101C4000002A18BF002B1AD001920B46029700966B
:101C50002A46214602F060F910E0BCF1000F04BFF3
:101C60001269002A0BD104AB019300960B46AAB26D
:101C7000214602F07FF9012801D000200490049849
:101C800005B0F0BDEFF30580002804BFEFF310802E
:101C9000002807D1DFF8AC000168022903D1EFF377
:101CA000118000B10AE0DFF844214FF0805100209C
:101CB0001160BFF34F8FBFF36F8F70476FF0050058
:101CC000704710B500F034F804BFEFF3108100291D
:101CD00005D100F031F805D1EFF3118111B16FF0AA
:101CE000050403E0002408B102F010FA204610BDFC
:101CF00080B5002100F02DF804BFEFF31082002A18
:101D00000ED100F06DF802D1EFF3118242B958B153
:101D1000C268806830B1202A02D301F0F1FA01468E
:101D2000084602BD002AFBD101F002FBF7E70025BF
:101D3000EFF305810029704702490A68022A7047BB
:101D400000000000A42300200446EFF305800028D3
:101D50007047EFF30582002A7047244A4FF0805104
:101D60001160BFF34F8FBFF36F8F7047F8B5144604
:101D70000025FFF7EEFF04BFEFF31082002A2DD1FC
:101D800000F02EF802D1EFF311823ABB002818BF01
:101D9000002923D0E4B1E268A36893B1502A1DD38F
:101DA0002269DAB1666901FB00F7BE4216D30095DD
:101DB00002F0E4FC050011D0002C14BF21680021C2
:101DC0000AE0002A04BF2369002B07D162692AB9FF
:101DD000002202F001FDEDE702F07FFF2846F2BD90
:101DE000424A1368022B70470000000004ED00E037
:101DF0007CB500F061F804BFEFF31082002A05D132
:101E0000FFF7EEFF13D1EFF3118282B1002818BF64
:101E1000002910D07CB9009400236A4602F0AAFD84
:101E2000012815D10098A0B1FFF797FF11E0002815
:101E300018BF002902D16FF003050AE000232246F3
:101E400002F000FD012804D014B16FF0010500E09C
:101E50003546284676BD7CB500F02EF804BFEFF37A
:101E60001082002A05D1FFF7BBFF12D1EFF31182D8
:101E70007AB1002818BF00290FD074B900956A46BE
:101E800002F065FE012814D1009898B1FFF765FFB4
:101E900010E0002818BF002902D16FF0030509E007
:101EA000224602F0B6FD012804D014B16FF00105FE
:101EB00000E03546284676BD1C4600256FF0020638
:101EC000EFF30582002A7047094B036003F15C00C1
:101ED0000860802010607047064B036003F15C00CF
:101EE00008604FF48070106070470000A423002049
:101EF000DC1B00209414002010B500BF5EA202215C
:101F00000120274CFFF732FF6061022160A201200F
:101F1000FFF72CFFA061012163A20120FFF726FF3C
:101F2000E061022166A20220FFF720FF206200216B
:101F300024A20FF24900FFF74CFE20605FF0000181
:101F400029A21848FFF745FE606000212FA216481D
:101F5000FFF73FFEA060002135A21448FFF739FECD
:101F6000E06000213BA21248FFF733FE206100BF72
:101F700059A0FFF7BDFE606210BD000010B50D4C0A
:101F8000012200F019F84FF4FA70FFF79AFE0022D0
:101F900000F012F84FF4FA70FFF793FEF0E700003C
:101FA000302300201D1400081B160008D11A000859
:101FB000B9560008001001404FF48071204600F02F
:101FC000EFBC0000E857000800000000000000001F
:101FD00000000000000000000002000018000000E7
:101FE0000000000000000000F4570008000000009E
:101FF00000000000000000000000000000020000DF
:10200000080000000000000000000000F857000871
:1020100000000000000000000000000000000000C0
:102020000002000028000000000000000000000086
:102030000058000800000000000000000000000040
:102040000000000000020000080000000000000086
:10205000000000000458000800000000000000001C
:102060000000000000000000000200000800000066
:1020700000000000000000000C58000800000000F4
:1020800040210020500000007623002002000000C4
:10209000245800080000000090210020500000009B
:1020A000AC2300200200000040580008000000009F
:1020B000E021002050000000AE23002001000000BD
:1020C0005858000800000000302200205000000096
:1020D000A823002004000000685800080000000049
:1020E0000000000000000000002202F033BE0000EB
:1020F0002DE9F843040016D02078DFF88C64C1077E
:1021000013D5706800F00C00042807D0706800F048
:102110000C00082840D17068C1033DD531688803A0
:1021200003D56068002800F0F6802178DFF8647439
:10213000880719D5706810F00C0F07D0706800F090
:102140000C00082862D17068C1035FD43168880729
:1021500003D52069012840F0DE803168606921F0F4
:10216000F80141EAC00131602178080772D5A06901
:10217000DFF82414002867D001220A6002F004FE70
:102180000546706A810700F1C88002F0FDFD401B22
:102190000228F6D9032037E16068B0F5803F0FD000
:1021A00038B9316821F480313160306820F4802002
:1021B00009E0B0F5A02F316807D141F480213160EA
:1021C000306840F48030306006E021F480313160C6
:1021D000326822F480223260606858B102F0D4FD87
:1021E000054631688803A0D402F0CEFD401B652867
:1021F000F7D3CFE702F0C8FD05463068810394D5D8
:1022000002F0C2FD401B6528F7D3C3E7206970B117
:102210000121396002F0B8FD05463068810700F100
:10222000B68002F0B1FD401B0228F6D9B2E7386053
:1022300002F0AAFD05463068810795D502F0A4FD9D
:10224000401B0228F7D9A5E7086002F09DFD05466E
:10225000706A810770D502F097FD401B0228F7D9FC
:1022600098E708B9306A09E00528306A06D140F0DD
:1022700004003062306A40F0010005E04008400090
:102280003062306A20F00400306241F28938E06840
:1022900068B102F079FD8146306A810700F18480DF
:1022A00002F072FDA0EB09004045F5D372E702F0A1
:1022B0006BFD8146306A810776D502F065FDA0EBA3
:1022C00009004045F6D365E702F05EFD401B022899
:1022D0007BD95FE702F058FD001B022840F28F8097
:1022E00058E700F093F804463068810140F18B8094
:1022F00002F04AFD001B0228F6D94BE701280AD05C
:102300007068226A00F48031914202BF00F47010BC
:10231000616A884277D0012076E0DFF870020168B8
:10232000C9084FF47A72B1FBF2F2009200BF009834
:10233000411E00280091F9D12078410739D5F06974
:102340000025C10009D4F06940F08050F0610125FA
:10235000F06900F0805000900098DFF84082D8F8D3
:102360000010C8051BD4D8F8000040F48070C8F8ED
:10237000000002F009FD8146D8F80010C8050ED40F
:1023800002F002FDA0EB09006528F5D302E73068F2
:10239000616920F0F80040EAC1003060E4E6E068DE
:1023A00001287FF45EAF65E71DB1F06920F0805031
:1023B000F061E06938B3716801F00C0108299DD023
:1023C00002288ED100F022F80546306881013FF5E1
:1023D0007BAF206AB0F5803F05D17168A06821F419
:1023E0000031014371607168206A21F47411014366
:1023F000606A01437160012000F009F8044630680A
:1024000081017FF567AF0020BDE8F28300203866C8
:1024100002F0BABC2DE9F8430400884673D0604E40
:10242000306800F00700404502D200F072F86AD12F
:102430002068554D810712D5400703D5686840F4E0
:10244000E06068602178080703D5686840F4605050
:1024500068606968A06821F0F00101436960207834
:10246000C10748D56068012802D129688A0303E0C2
:10247000022803D129688A0103D444E02A6891071D
:1024800041D56968890840EA8100686041F289396C
:1024900002F07AFC07466868616800F00C00B0EB57
:1024A000810F28D002F070FCC01B4845F3D30320F5
:1024B0001FE02078410705D56968E06821F4E061F4
:1024C000014369602078010706D56868216920F416
:1024D000605040EAC100686000F026F86A6831493F
:1024E000C2F30312895C294AC840106000F00DF85D
:1024F0000020BDE8F283306800F007008045D8D2A4
:1025000000F007F8D5D00120F3E72748006800F075
:1025100037B93168C90848EAC1013160306800F054
:102520000700404570470000204919480A6802F03A
:102530000C03082B00D0704710B500BF1EA4C2F3D7
:102540008343D203E35C09D5096800BF1EA2C1F32F
:1025500040415843515CB0FBF1F010BD184614499E
:10256000484310BD0948114A006813681149C3F374
:10257000022206E005480D4A006813680D49C3F3BE
:10258000C222895CC8407047001002401800002039
:1025900000127A0000004242800442420070004073
:1025A00000200240FC5900081400002004100240E2
:1025B00000093D00285A000802030405060708091F
:1025C0000A0B0C0D0E0F1010010200002DE9FC414A
:1025D0000646604D3078C10750D5A8690024C10077
:1025E00009D4A86940F08050A8610124A86900F0CE
:1025F000805000900098584F3968C80517D4386843
:1026000040F48070386002F0BFFB80463968C8052E
:102610000DD402F0B9FBA0EB08006528F6D3032027
:102620003FE002F0B1FBC01B404519D3F7E7E86972
:1026300010F440701EBF716801F44071884212D0DE
:102640004649E86901220A6020F4407000220A60CD
:10265000E861C00707D502F097FB074641F28938C9
:10266000E8698107DDD5E969706821F440710143AB
:10267000E9611CB1A86920F08050A8613178880711
:1026800005D52A68B06822F4404202432A603078B7
:10269000C10605D52968F06821F48001014329604D
:1026A0000020BDE8F681000010B5002101282C4C67
:1026B00024D0022842D0102849D160682268D30172
:1026C00045D500BF29A1C0F38342C003895C0BD567
:1026D000606800BF29A3234AC0F34040185CB2FBE6
:1026E000F0F20846114600E01F484143606842028C
:1026F0002DD449000320B1FBF0F128E0206A40F21C
:1027000002320240B2F5817F08BF4FF400411ED073
:1027100000F44073B3F5007F05D1626A930748BFA8
:1027200049F6404113D400F44070B0F5407F0ED11B
:10273000206882030BD54FF2244108E0FFF71AFF0F
:102740006168C1F38131491C4900B0FBF1F10846D1
:1027500010BD0000041002400070004040044242DE
:102760000010024000127A0000093D000203040537
:10277000060708090A0B0C0D0E0F101001020000CD
:1027800038B50D4D0D4A297804464FF47A70B0FBE8
:10279000F1F11068B0FBF1F0FEF71AFD50B9102C02
:1027A00008D2002221464FF0FF30FEF7E9FCAC6072
:1027B000002032BD012032BD0C0000201800002096
:1027C00080B51048016841F001010160026802F023
:1027D0000102009200220099416841F0805141605D
:1027E0000F21406800F08050009000986FF00100C9
:1027F000FEF7C6FC0448016821F0E06141F0007179
:10280000016001BD18100240040001402DE9F84F9D
:1028100000240025654A664BDFF898814FF00F09C8
:102820004FF0010A83468E460CE0D1680840D06024
:1028300007E09660DEF80460B602F6D5D068014382
:10284000D160641CDEF8001031FA04F000F0A680BC
:102850000AFA04F73940B942F3D1DEF8040058B35C
:1028600001281AD002281FD0032833D0112817D0EE
:1028700012281DD0504EB0421CBF504EB0421BD04B
:102880004F4EB0421CBF4F4EB04215D04E4EB042DC
:102890001CBF4E4EB0420FD01DE0DEF80C501AE0C7
:1028A000DEF80C502D1D16E0DEF80C50083512E055
:1028B000DEF80C500C350EE0DEF8080008B90425EF
:1028C00009E0012819BF0825CBF814700825CBF8BA
:1028D000107000E00025B1F5807F03D258464FEA22
:1028E000840C05E0A4F108060BF104004FEA860C05
:1028F000066809FA0CF7BE4305FA0CF73E4306607A
:10290000DEF80400C0009CD5D8F8000040F00100BB
:10291000C8F80000A600D8F8000000F00100009000
:1029200006F00C0C0098A00853F8207009FA0CF679
:1029300027EA0606264FBB4508BF00270ED0254FC5
:10294000BB4508BF012709D0234FBB4508BF02275D
:1029500004D0224FBB450CBF0327042707FA0CF70E
:102960003E4343F82060C843DEF80460F60316686F
:102970004CBF0E4306401660DEF80460B60356688E
:102980004CBF0E4306405660DEF804609768F602BE
:102990004CBF41EA070600EA07064AE7BDE8F18FA7
:1029A00081B002B90904016101B07047000401401F
:1029B0000800014018100240000011100000121021
:1029C0000000211000002210000031100000321021
:1029D00000080140000C01400010014000140140BB
:1029E00038B5040019D094F8200010B92046FEF73D
:1029F000BDFC00F0AEF8054620684168CA0762D405
:102A000002F0C2F9401B0B28F6D304E002F0BCF937
:102A1000401B0B285ED300F08FF8012032BD016807
:102A200021F080010160617E2068012904D10268E3
:102A300042F04002026003E0016821F040010160C1
:102A4000A17E2068012904D1026842F020020260C0
:102A500003E0016821F020010160E17E2068012986
:102A600004D1026822F01002026003E0016841F024
:102A700010010160217F2068012904D1026842F021
:102A80000802026003E0016821F008010160617F33
:102A90002068012904D1026842F00402026003E0C8
:102AA000016821F004010160A268E0682168024326
:102AB00020690243606902436068401E0243CA61A4
:102AC0000020606240E0016821F00201016002F034
:102AD0005BF90546206841688A0797D4217E012961
:102AE0009DD1026842F0800202609CE738B504463E
:102AF00094F82000012816D1022184F820102068C3
:102B0000016849084900016002F03EF90546206865
:102B10004168C8070DD502F037F9401B0B28F6D3E2
:102B200000F00AF803E0606A40F4002060620120CF
:102B300032BD0020606232BD606A40F400306062E5
:102B4000052184F820107047012084F8200000201F
:102B500032BD2068016841F00101016002F014B942
:102B6000F8B590F820400568AD68012C18BF022C1C
:102B70004FD115F0E05F48D0C5F30164032C03D3B7
:102B8000416A41F4000146E00125A5401D60240191
:102B90000368CE6803F5C0758B681BB90B6846EAFD
:102BA000435603E04F6843EAC7031E432E510568AE
:102BB0000B6905F5C2763351097D012906D10368F9
:102BC00003F5C2710D5945F480750D519379D17992
:102BD00055791B0443EA0163117900F01FF8C1F82D
:102BE0008C319378D17855781B0443EA01631178CE
:102BF00000F014F8C1F88831006800F5C070015980
:102C000041F0010101510020F2BD416A41F400117F
:102C100001E000F009F841620120F2BD43EA05231A
:102C20000B43016821447047416A41F48021704799
:102C30002DE9F84F05464FF0000828684669D0F89E
:102C400004B08468D0F80C90D0F810A08769F10720
:102C500045D5E10713D501218160A00703D528469A
:102C600002F098F80BE0600748BF4FF4006806D404
:102C700020074EBF4FF48058284602F08CF8E0053C
:102C800015D529684FF480708860A00503D52846C3
:102C900002F082F80BE0600548BF48F4005806D403
:102CA00020054EBF48F48048284602F076F8E0033D
:102CB00015D529684FF480308860A00303D52846D5
:102CC00002F06CF80BE0600348BF48F4004806D4FB
:102CD00020034EBF48F48038284602F060F83007E1
:102CE00048BF5FEAC96004D52968102048F400781D
:102CF000C860700748BF5FEA097005D529680820D9
:102D0000C860284602F04CF8B00707D52868C168AB
:102D100011F0030F1CBF284602F043F8700648BFAD
:102D20005FEACA6004D52968102048F48068086109
:102D3000B00648BF5FEA0A7005D529680820086117
:102D4000284602F02FF8F00607D52868016911F02F
:102D5000030F1CBF284602F026F8B00348BF5FEA05
:102D6000CB6005D5296810204860284602F01CF881
:102D7000F00348BF5FEA0B7005D52968082048605A
:102D8000284602F012F8300440D55FEA4B703AD57D
:102D9000F00503D5F80748BF48F00108B00503D592
:102DA000B80748BF48F00208700503D5780748BF48
:102DB00048F00408300526D517F0700F23D007F02F
:102DC0007007102F0CD0202F0DD0302F0ED0402F99
:102DD0000FD0502F10D0602F08BF48F480780DE03E
:102DE00048F008080AE048F0100807E048F020081A
:102DF00004E048F0400801E048F080082868816954
:102E000021F070018161042029684860B8F1000F49
:102E100008D0686A48EA000068622846BDE8F24FB8
:102E200001F0C4BFBDE8F18F70B504000E4601D1BA
:102E3000012070BD00F038F808B900F026F800F065
:102E400029F82068016921F4006101612068416965
:102E500021F02A0141612068016941F4804101614A
:102E60002068016921F0200100F022F800F001F84B
:102E700070BD2068C16841F40051C16000206860E5
:102E800020206870A870002070470021297020461B
:102E9000FEF718BB242068702068C16821F4005137
:102EA000C160204600F0EDB904F13C056878704738
:102EB0000161206801690E430661704730B500F179
:102EC0003C035C78202C19D109B1140001D10120F8
:102ED00030BD1C78012C11D001251D700162828447
:102EE000C2840021596021215970002119700068A5
:102EF000C16841F08001C160002030BD022030BDBA
:102F000038B500F130039C7B202C0FD109B114009F
:102F100001D1012032BD1C7B012C07D001251D737E
:102F200000241C60BDE8384000F014B9022032BD16
:102F30002068C16821F01001C1607047416921F02B
:102F400040014161A06B70477CB50446226811685E
:102F5000D568536911F00F0007D188065FD5A80620
:102F60005DD52046BDE8764030E1D80702D415F49F
:102F7000907F54D0C80705D5E80503D5206C40F0F4
:102F800001002064480705D5D80703D5206C40F020
:102F900002002064880705D5D80703D5206C40F0CF
:102FA00004002064080707D5A80601D4D80703D574
:102FB000206C40F008002064206C00282ED0890688
:102FC00004D5A80644BF204600F000F920684069F7
:102FD000216C0A0701D440061BD5204600F0D6F824
:102FE000206841694A060FD5FFF7A8FF60B10FF2CC
:102FF000D1114163A06B01F001FF00280ED0A06B3E
:10300000416BBDE87C4008472046BDE8764001F0B2
:1030100051BF204601F04EFF0020206473BD206B9D
:10302000012804F13D0353D1CE0651D5E8064FD512
:10303000002000901168009150680090009950693C
:10304000410624D5A16B0868406880B200287AD078
:10305000A58DA84277DAE0858869202813D0D16849
:1030600021F48071D16000F06FF82068416921F08F
:10307000400141612020587000202063FFF758FF75
:10308000A06B01F099FEA18DE08D091A1AE0A08DC8
:10309000E18D411AE08D00281CBF88B2002852D073
:1030A000D06820F49070D0602068426952085200C5
:1030B000426120205870002020632068C26822F0FE
:1030C0001002C2602046BDE87C4089B201F0F3BE28
:1030D000080629D5280627D51878212833D1A168D4
:1030E000B1F5805F04BF2069002808D1216A0888F3
:1030F000C0F308005060206A811C216204E0206A4D
:10310000411C216200785060E08C401EE08480B257
:10311000C8B92068C16821F08001C1602068C16819
:1031200041F04001C16073BD48060CD568060AD560
:10313000D06820F04000D060202119702046BDE802
:10314000764001F0B9BE73BD206841694908490065
:103150004161704781628285C28500F13C01002295
:103160004A6022228A7000220A700168CA6842F40A
:103170008072CA6001684A6942F001024A610068CF
:10318000C16841F02001C160002070470168CA6831
:1031900022F49072CA6001684A69520852004A617A
:1031A000016B012904D10168CA6822F01002CA60CB
:1031B000202180F83E1000210163704700000000CC
:1031C000406A0021C185C18401F074BE80B590F8C9
:1031D0003E10222953D18168826AB1F5805F0AD1FD
:1031E000016969B903685968C1F308011180826AED
:1031F000911C81620FE0002904BF0169002902D1FE
:103200000368596803E00168496801F07F011170A3
:10321000816A4A1C8262C18D491EC18589B261BB27
:103220000168CA6822F02002CA600168CA6822F4F4
:103230008072CA6001684A69520852004A612021BE
:1032400080F83E10016B012915D10022026301684C
:10325000CA6822F01002CA6001680A68D30606D55F
:10326000002300930A68009249680091009A818DBA
:1032700001F021FE01E0FEF765F9002002BD022009
:1032800002BD10B5044621680A69E06822F4405284
:1032900002430A611848CA680240A06802432069D4
:1032A000024360690243CA604A69A06922F440721D
:1032B000024312484A61814202D1FFF75BF901E003
:1032C000FFF750F91921484361688900B0FBF1F11B
:1032D0006420B1FBF0F200FB121109013231B1FBA5
:1032E000F0F000F0F00101EB021100F00F004018C7
:1032F0002168886010BD0000F3E9FFFF003801403D
:103300001CB50446502014B900F093F8FEE72021C4
:103310000091009A202A02D000F08BF8FEE70020EE
:103320002060201D01F0C9FD01212177204616BD36
:1033300010B5202001F00AFE040006D00021216013
:10334000201D01F0BAFD00202077204610BD2DE998
:10335000F84F0646154698464FF0000B502726B901
:1033600087F3118800F067F8FEE7894619F07F4F70
:1033700004D087F3118800F05EF8FEE7B9F1000F82
:1033800004D187F3118800F056F8FEE70A9C01F09B
:103390001FF900B944B900F010FF00F045F86FEADA
:1033A000090A30B964B91AE087F3118800F043F8CC
:1033B000FEE700249DB130680AEA000030600EE0AC
:1033C0000DB14FF0807BB8F1000F18BF4BF0806B50
:1033D00022464BEA0901301D00F0E1FF002700F012
:1033E000F2FECCB118B900F01AF800F024F801F0A0
:1033F00039F90746B8010DD401F0E2FE00F014F8E7
:10340000002818BF002D03D030680AEA00003060A1
:1034100001F0EFFE27F07F473846BDE8F28F2F49D5
:103420004FF080500860704737684246494638463A
:1034300040E080F31188BFF34F8FBFF36F8F704769
:10344000F8B504460D460026502014B9FFF7F1FFE9
:10345000FEE715F07F4F02D0FFF7EBFFFEE700F02D
:10346000ACFE206822690543256004F10C00216848
:10347000824217D01768556827F07F435FEA471CE0
:1034800001EA03000AD598420AD1F80148BF1E4359
:1034900041F00071104600F0E0FF01E00028F4D197
:1034A0002A46E2E721EA0606266000F08CFE206844
:1034B000F2BDC5E7034681B000200B400AB91BB13D
:1034C00001E08B4200D1012001B0704713460A464B
:1034D0000146034802F087B80000000004ED00E058
:1034E000B334000810B504003FD0607C20B900213F
:1034F00021742046FEF72CF902206074204600F06B
:1035000041F880BB204600F05CF860BB2068416851
:10351000C908C9004160A068DFF8641018B14A68A2
:10352000520852004A600B68A06823F4607303439A
:103530000B60606810F1010F04D10120FFF7B4F8AF
:1035400088B1401E21688A681209120142EA1042BD
:103550008A6080B22168CA68120C40EA0240C860E2
:1035600000F00CF818B104206074012010BDE07365
:1035700001206073A0736074002010BD204638E005
:103580002C6C004070B5040001D1012070BD00F02A
:1035900012F840F2E93601F0F7FB05462068416871
:1035A000080706D401F0F0FB401BB042F6D303201D
:1035B00070BD002070BD2068416821F008014160A5
:1035C000704770B5044601F0DFFB054640F2E9366E
:1035D000206841688A0606D401F0D6FB401BB04241
:1035E000F6D3032070BD416841F010014160002016
:1035F00070BD70B5044640F2E9362068416821F09C
:103600001001416001F0C0FB054620684168880652
:1036100006D401F0B9FB401BB042F6D3032070BDC5
:10362000002070BD0249FFE70120086070470000DC
:1036300020000E4238B5040001D1012032BD606A7D
:1036400028B96168B1F5827F04D0E06102E0002012
:1036500020616061A06204F15005687820B9002102
:1036600029702046FEF7B3F80220687000F037F8A2
:103670006068A168E26800F4827001F404410843C4
:10368000217C02F400621043227D01F00201084314
:10369000A16902F001021043227F01F40071084386
:1036A00094F8201002F038021043A26A01F0800161
:1036B0000843216802F4005210430860A0692168A1
:1036C000000C00F0040048602068C16921F400612A
:1036D000C1610020686001206870002032BD206850
:1036E000016821F04001016070470000022068700D
:1036F000211D206800F0C2FA0120A872A870E870AD
:1037000028716871A871E871287268726870002069
:1037100032BD38B5040001D1012032BD00F08AF875
:1037200018B900F083F8FEF738F9DFE71CB500F0B0
:103730006BF809B9027807E0042908BF427803D082
:1037400008290CBF8278C278012A01D0012016BD59
:1037500011B9022202700AE0042902D10222427049
:1037600005E0082907BF022282700222C27000F021
:103770002AF800F02CF818BFB1F1804F06D000F005
:103780000FF81CBFDFF8BC00814205D100F011F832
:1037900004D000F009F801E000F010F8002016BD98
:1037A000DFF89C0081427047086840F00100086023
:1037B0007047886800F00700062870470A6842F0E2
:1037C00001020A6070472068012200F065BB216891
:1037D000DFF86800814205D1DFF858110A6842F429
:1037E00000420A602168814270472068C26842F046
:1037F000020270472068C26842F0080270472068E1
:10380000C26842F004027047044604F13E0070476B
:1038100038B5040001D1012032BD00F00BF818B911
:1038200000F004F8FEF789F8FFF760BF0021297067
:103830002046704704F13C0568787047002C014031
:1038400000040040000800401CB5FFF7DDFF11B97F
:10385000027803790AE0042902D14278437905E02D
:10386000082907BF82788379C278C379012A08BF03
:10387000012B01D0012016BD19B90222027002717C
:1038800020E0042905D1022242704271FFF7B7FF00
:103890001AE0082905D1022282708271FFF7AAFF7F
:1038A00012E00223C370C37108000BD00429EDD0CD
:1038B0000829F3D00C2901BF2068C36843F0100326
:1038C000C36002E0FFF791FFC260FFF77CFF00F0EA
:1038D00023F818BFB0F1804F06D000F014F81CBFD9
:1038E000DFF85410884205D100F011F804D000F040
:1038F0001BF801E000F002F8002016BD026842F05B
:10390000010202607047DFF8341088427047816816
:1039100001F00701062970472068DFF8241088426B
:103920007047C16001222868016841F0010101600F
:1039300070470000442C0140000800400004004093
:10394000002C014010B50446206801698A0715D58E
:10395000C1688A0712D56FF0020202610121217746
:10396000806910F0030F204602D0FEF768F803E0EC
:1039700001F056FE00F087F80020207720680169EA
:103980004A0715D5C1684A0712D56FF004020261D3
:1039900002212177806910F4407F204602D0FEF793
:1039A0004EF803E001F03CFE00F06DF800202077B7
:1039B000206801690A0715D5C1680A0712D56FF09A
:1039C0000802026104212177C06910F0030F20462C
:1039D00002D0FEF734F803E001F022FE00F053F8C5
:1039E0000020207720680169CA0615D5C168CA067B
:1039F00012D56FF01002026108212177C06910F41E
:103A0000407F204602D0FEF71AF803E001F008FEDE
:103A100000F039F80020207720680169CA0708D52E
:103A2000C168CA0705D56FF001020261204601F0A6
:103A3000F8FD206801690A0608D5C1680A0605D59F
:103A40006FF080020261204601F0ECFD2068016900
:103A50004A0608D5C1684A0605D56FF040020261E2
:103A6000204601F0E0FD206801698A060AD5C16898
:103A70008A0607D56FF0200202612046BDE810409B
:103A800001F0D2BD10BD204601F0CFBDF8B500F069
:103A9000D9F801D10220F2BD012184F83C107AB995
:103AA000EB686A682968206800F0ADF921688869C8
:103AB00020F00C0088618A69A86802438A615FE08F
:103AC000042A10D1EB686A682968206800F0CAF9F6
:103AD0002068816921F4406181618169AA6841EAB5
:103AE000022181614CE0082A24D12168E8686A68D3
:103AF0002B681C3100014E6826F480764E6000F081
:103B0000F0000E684F68B60842EA860222F0F00222
:103B10001B02104327F4007703F4007308603B4353
:103B20004B60086820F00C0008600A68A86802432F
:103B30000A6025E02068E9686A682B681C30090380
:103B4000466826F48056466001F47041066847686E
:103B500026F4407646EA022626F470461B033143DB
:103B600027F4005703F4005301603B4343600168AE
:103B700021F4406101600268A96842EA0122026002
:103B8000002084F83C00F2BD38B500F05BF801D1AC
:103B9000022032BD012184F83C1032B1042A16D033
:103BA000082A27D00C2A37D048E02068294600F0A0
:103BB00094F82168886940F008008861886920F0DD
:103BC000040088618A69286902438A6136E02068B6
:103BD000294600F0A4F82068816941F40061816100
:103BE000816921F48061816181692A6941EA022148
:103BF000816123E02068294600F0BAF82168C8698D
:103C000040F00800C861C86920F00400C861CA69B2
:103C100028690243CA6111E02068294600F0D3F800
:103C20002068C16941F40061C161C16921F480610A
:103C3000C161C1692A6941EA0221C161002084F899
:103C40003C0032BD04460D4694F83C000128704704
:103C50000246002031B1042907D0082908D00C29D8
:103C600009D070471068406B70471168886B7047C7
:103C70001068C06B70471168086C704770B5754E5E
:103C80000368754C754DB04218BFB0F1804F03D03A
:103C9000A84218BFA04209D14A6823F07003134319
:103CA000B0421CBFB0F1804FA84201D0A04203D166
:103CB000CA6823F4407313434A6923F08003134313
:103CC0000360B0428A68C2620A68826202D10969EE
:103CD000634A11600122426170BD30B5026A520828
:103CE00052000262056A4368846900F066F825F0B4
:103CF00002051543574A90420BD123F44073CA681A
:103D000025F0080515434A6913438A6925F004051F
:103D100013434360846149684163056230BD70B5F7
:103D2000026A4C4E22F010020262B042056A4368F9
:103D300084690A6824F4E64444EA02248A6825F087
:103D4000200545EA02150DD1CA684E6925F08005A7
:103D500045EA02158A6923F44063164325F04005BD
:103D600043EA86034360846149688163056270BDEC
:103D700070B5026A374E22F480720262056A4368A7
:103D8000C46900F01AF825F40075B04245EA02252E
:103D90000DD1CA684E6925F4006545EA02258A6995
:103DA00023F44053164325F4806543EA0613436029
:103DB000C4614968C163056270BD0A6824F0730478
:103DC00014438A68704770B5026A224E22F480520A
:103DD0000262B042046A4268C3690D6823F4E64394
:103DE00043EA05238D6824F4005444EA053404D1E1
:103DF0004D6922F4804242EA85124260C3614968FB
:103E00000164046270BD70B5046A124E64086400F7
:103E10000462B0428469056A18BFB0F1804F05D0D2
:103E20000E4EB0421CBF0C4EB04203D1A40842EA71
:103E3000840201E044F001021B0122F0F00203F0D1
:103E4000F0031A4325F00A0501F00A0182612943B3
:103E5000016270BD002C01400008004000040040D9
:103E6000302C014030B5046A24F0100404621B03B6
:103E70008469056A24F4407444EA022424F47044FA
:103E800003F470430901234325F0A00501F0A001CC
:103E900083612943016230BD10B501F01F01036A3F
:103EA00001248C40A343036202FA01F1036A19431F
:103EB000016210BD78B500F13C031A78012A01D1E6
:103EC000022072BD01241C7002225A7005686E68BF
:103ED000AC680A6826F0700616436E6002680C48EB
:103EE000824218BFB2F1804F05D00A4882421CBFFF
:103EF0000648824204D1486824F080040443946058
:103F0000012058700020187072BD000000080040A9
:103F1000002C014000040040F0B585B050260B9DF8
:103F200025B986F3118800F098FBFEE70C9C24B9B4
:103F300086F3118800F091FBFEE75C270097009F55
:103F40005C2F04D086F3118800F087FBFEE70A9E01
:103F50002563022584F859500294002503950096A4
:103F600004AD019500F034F8204600F077F804988D
:103F700005B0F0BD2DE9F8430646174684B08846E3
:103F80009946B80000F0E2FF05001CD05C2000F06C
:103F9000DDFF040014D00D990C982563002284F8ED
:103FA000592003920191009002944B463A464146B3
:103FB000304600F00DF8204600F050F8012004E0F3
:103FC000284601F04CF84FF0FF3005B0BDE8F08313
:103FD0002DE9F0470A9D81460C461746286B984606
:103FE000A522B90000F0B2FE286B00EB87010F1F7D
:103FF000FF08FF000021605C6A1882F83400605CF2
:1040000010B1491C1029F6D3089E002085F8430002
:10401000372E099C88BF372605F14C0AEE62CAF894
:104020000400CAF80060281D00F054FF05F11800D4
:1040300000F050FF2D61C6F13806AE616D620020C0
:10404000CAF808008AF80C0042464946384601F092
:1040500057F8286004B12560BDE8F0872DE9F041EC
:1040600000F06BF8DFF8E455DFF8E485E86C401CFD
:10407000E8641426A86A28BBAC62E86C012829D140
:10408000002706FB07F0404400F017FF7F1C382F85
:10409000F7D305F1740000F010FF05F188073846EA
:1040A00000F00BFF284600F008FF05F1140000F0B7
:1040B00004FF05F1380000F000FF05F17400E8622C
:1040C0002F6307E0A86D28B9E16AA86AC26A914225
:1040D00028BFAC62A86E401CA8666064E06A696D87
:1040E000814238BF68654643211D08EB060000F099
:1040F000F4FE01F07EF8A86D30B100F0D9F903D2DA
:1041000000F01EF800F0A9FABDE8F08180B578B1A2
:10411000DFF83825116F11B100F09CFAFEE7116F3E
:10412000491C1167002100F0B8FA00F04CF818B9EA
:1041300000F006F800F091FA01BD044601F040B825
:10414000DFF848154FF080500860704780B586B0A2
:1041500000200590049003AA04A905A8FDF7B4FE69
:104160000599049802910022009201900023039A7D
:104170000FF288510FF2C530FFF7CEFE98B101F073
:10418000A1F85021012810D181F3118800F065FABF
:10419000DFF854054FF0FF31C16601218165002130
:1041A000016500F0D1FF07B000BD10F1010FFAD199
:1041B00081F3118800F051FAFEE7DFF82C05016F5A
:1041C000491C0167704770B5DFF88064306F0024C8
:1041D000002520B900F043F800F03FFAFEE700F0B8
:1041E000EFFF306F401E3067316F002936D1F06C21
:1041F000D0B933E0F168CC6800F035F800F0F4F99C
:10420000E06A716DDFF8E424814238BF70651423E1
:104210005843211D104400F060FEE06AB16ACA6A8A
:10422000904224BF0120306630680028E2D10CB1F2
:1042300000F0C1F9F46D3CB100F01DF808B10120A7
:104240003066641EF8D1F565306E38B1DFF8A00431
:104250004FF080510125016000F0FFF90DE250217F
:1042600081F31188704704F1180000F05BBEDFF89D
:104270007804006D70472DE9F843DFF8D073386F8C
:10428000002600284ED13C6D641C3C6510D1F86AB4
:10429000006820B1FFF7E3FF00F0DFF9FEE7F86AFE
:1042A000396BF9623863786E401C786600F083F9E8
:1042B000F86EDFF8389484424FF0140824D319E0E4
:1042C000281D00F02FFEA86A18B105F1180000F0B3
:1042D00029FEE86A796D814238BF786508FB00F0F5
:1042E000291D484400F0F9FDE86AB96ACA6A90429B
:1042F00028BF0126F86A006880B1F96AC868C568F5
:1043000068688442DCD2F866B86AC06A08FB00F1CB
:1043100059F80100022808D3012606E04FF0FF31CA
:10432000F966F1E7F86D401CF865386E00B10126BA
:10433000A7E118B5DFF81423106F10B10121116641
:1043400011BD1066516DDFF8A43300E0491E14243E
:104350004C43185930B90029F8D1FFF780FF00F01D
:104360007CF9FEE7181900F1080443685B684360B4
:10437000A34204BF5B6843604068C36893625165B1
:1043800011BD10B50C4610B900F064F9FEE700F05D
:1043900039F800F0AEFD2046BDE810401DE038B50C
:1043A0001446502320B983F3118800F056F9FEE734
:1043B000DFF898522A6F22B983F3118800F04DF983
:1043C000FEE7AA6A41F000419161AB6A03F118016E
:1043D00000F083FD2046BDE8344001215DE138B5A1
:1043E0000D46144610B900F035F9FEE700F00AF862
:1043F00000F073FD0CB14FF0FF3521462846BDE8B3
:1044000034404AE1DFF8E022936A03F11801704773
:1044100038B5C068C46814B900F01CF9FEE7FFF7AE
:1044200022FFDFF8C452286F40B900F0DDF800F039
:1044300039F838BF6A6500F02BF902E004F1180181
:10444000284600F04AFDA86AC16AE06A814202D2A9
:104450000120286632BD002032BD38B5DFF8885211
:104460002A6F502322B983F3118800F0F6F8FEE793
:1044700041F000410160C46824B983F3118800F061
:10448000ECF8FEE700F04EFD00F0AEF800F00AF8A0
:1044900038BF6A6500F011F800F00AF83CBF01204F
:1044A000286631BDE26A686DDFF84032904270479D
:1044B000A96AC86AE16A8842704714204243211DF4
:1044C000981800F00ABDDFF820124A6E0260096DEC
:1044D00041607047F8B504460D46502014B900F00D
:1044E000BAF8FEE715B900F0B6F8FEE700F068FE8E
:1044F000DFF8F401016D62682E688B1A16F1010F66
:104500000ED0476ED4F800C0674501D091420BD25F
:10451000B34207D2F31A2B60416E2160006D6060D8
:10452000002402E000202860012400F062FE204602
:10453000F2BDDFF8B4110120086670472DE9F041A3
:10454000DFF84841DFF80881DFF89C714FF08055B3
:1045500011E000F035FE386AC668301D00F0E2FC5C
:10456000F86C401EF864786B401E786300F041FEE2
:10457000304600F00BF8786B0028EAD1D8F800102C
:104580000229F8D3256000F068F8F4E710B5044676
:1045900094F8590040B9206B00F061FD2046BDE859
:1045A000104000F05CBD10BD0128F7D00228FAD001
:1045B00000F050F8FEE72549C86A006810B94FF0CE
:1045C000FF3203E0C86AC268D0684268CA667047B2
:1045D000DFF81411886D08B901207047086F08B919
:1045E0000220704700207047201D00F09BBC38B5AA
:1045F0000446002144B3154DA86A5022844204D0D9
:1046000082F3118800F029F8FEE7206D20B982F3CB
:10461000118800F022F8FEE7E26AE36C401E9A423D
:10462000206511D080B9FFF7DFFFE06CDFF8BC3008
:10463000E062C0F13800A061E26A686D904238BF64
:104640006A65FFF73AFF0121084632BD641F00206A
:1046500034100020502080F31188BFF34F8FBFF338
:104660006F8F7047DFF88010886A80698A6A896A6C
:10467000CB6AC3F138039361704700F0BAFD284656
:1046800070BD3046BDE8F2830000000004ED00E09C
:1046900014204243211D98187047F8B5124D2F6D14
:1046A0000C46A96A0646081D00F03CFC16F1010FF5
:1046B00005D124B1A86A011D05F138001AE0A86AE5
:1046C000F6194660BE42A86A05D2011D286BBDE8F6
:1046D000F44000F00EBC011DE86A00F00AFCE86E30
:1046E000864238BFEE66F1BD641F00203410002002
:1046F00004ED00E0BDE8F44000F0EFBB49444C4558
:104700000000000038B504000D4602D100F092F818
:10471000FEE700F055FDE26B206C216842438818EB
:1047200060600020A0632068E26BA060521E206CD5
:10473000216842438818E0604FF0FF3104F14400E3
:104740000170417075B92069A0B104F11000FFF744
:104750005FFE78B1DFF8A4154FF08050086000F0DC
:10476000F1F907E004F1100000F0A7FB04F12400C8
:1047700000F0A3FB00F03DFD012032BD7CB51C46DE
:10478000502320B983F3118800F0DCF9FEE724B947
:1047900083F3118800F0D6F9FEE72AB129B983F333
:1047A000118800F0CFF9FEE761B90093009E502E0A
:1047B0000DD1069B012584F84650009400F02BF89B
:1047C000204676BD83F3118800F0BCF9FEE783F341
:1047D000118800F0B7F9FEE7F8B506000D46174658
:1047E00002D100F027F8FEE7002D0EBF502005FB98
:1047F00006F0503000F0AAFB04000AD0002084F834
:10480000460000943B4604F150022946304600F031
:1048100002F82046F2BD38B5049D1C4601B92A466F
:104820002A60E863296428460121FFF76BFF85F8B9
:104830004C4031BD502080F31188BFF34F8FBFF340
:104840006F8F70472DE9F64782B004461E46502709
:1048500014B900F075F9FEE75FEA010A01D1206C96
:1048600070B9022E02D1E06B01280CD1FFF7B0FE27
:1048700000285ED1039800285BD000F061F9FEE7C4
:1048800000F05EF9FEE700F05BF9FEE7039907F13F
:104890001000FFF776FD384600F0E2F9FFF793FCD1
:1048A00018B9C8F8009000F04DF900F089FCB86B19
:1048B000F96B884242D3022E40D00398002835D0AD
:1048C00014B900F029F9012400F093FCFFF775FCFE
:1048D00000F076FC07F1440000F021F904BF00224B
:1048E000027000F021F904BF0022427000F081FC48
:1048F00000F03CF888BB00F063FCB86BF96B8842B1
:1049000014BF0025012500F074FC002DBED13846EF
:1049100000F0A6F9FFF757FCC7E718B1C8F80090F8
:1049200000F010F900F065FC01201CE000F061FCD3
:1049300018E02746002400F0EAF8B6E73246514670
:10494000384600F045F9796A0029E6D007F12400DD
:10495000FFF75EFD0028E1D1E4E7384600F080F97A
:10496000FFF731FC002004B0BDE8F08703A96846DA
:10497000FFF7B0BD2DE9F8430446884615461E46AC
:10498000502714B900F0DCF8FEE7B8F1000F01D1B0
:10499000206C20BB022E02D1E06B012822D100F056
:1049A0004FFCEFF3118900F02AF801D3022E21D138
:1049B00094F9457032464146204600F009F917F156
:1049C000010F12D1606A98B104F12400FFF720FDB5
:1049D000002818BF002D0BD00120286008E000F04F
:1049E000AFF8FEE700F0ACF8FEE77F1C84F84570F6
:1049F000012000E0002089F31188BDE8F28387F3ED
:104A00001188BFF34F8FBFF36F8FA06BE16B8842AC
:104A100070472DE9F74306460F460024502526B976
:104A200085F3118800F08EF8FEE70FB9306C48B9B5
:104A3000FFF7CEFD78B9029868B185F3118800F0D0
:104A400081F8FEE785F3118800F07CF8FEE700F0BE
:104A500075F8FFF7B8FB00F0B3FBB56B00F057F843
:104A600025B90298B8B900F0C4FB4DE0394630468C
:104A700000F0E2F86D1EB563306940B106F1100038
:104A8000FFF7C6FC18B1C8F8009000F05BF800F022
:104A9000B0FB012039E014B900F03EF8012400F029
:104AA000A8FBFFF78AFB00F08BFB06F1440041579F
:104AB00011F1010F04BF0022027000F035F804BFAD
:104AC0000022427000F095FB02A9FFF750FF00287A
:104AD000304610D100F0F6F80028B8D000F029F8E0
:104AE00000F02CF8FFF76FFB0028B4D1C8F8009055
:104AF00000F028F8AFE700F0B3F8FFF764FB3046AA
:104B000000F0E0F80028A6D00020BDE8FE83DFF822
:104B1000EC814FF0805970476846FFF7D4BC90F99C
:104B2000001011F1010F704790F9011011F1010F00
:104B30007047029906F12400FFF723BC30468FE04E
:104B400087F31188BFF34F8FBFF36F8F70472DE945
:104B5000F84304460F461546502624B986F31188BB
:104B6000FFF7F0FFFEE70FB9206C70B900F068FBAB
:104B7000EFF3118886F31188FFF7E4FFA66B4EB9B7
:104B8000002088F31188BDE8F28386F31188FFF7CF
:104B9000D9FFFEE794F944903946204600F04CF8DE
:104BA000761E19F1010FA6630CD1206970B104F1D2
:104BB0001000FFF72DFC002818BF002D06D00120A3
:104BC000286003E009F1010084F844000120D8E7DF
:104BD000F8B506461546B46B326C002742B9316809
:104BE00031BB7068FFF703FD0021074671601FE0CD
:104BF00065B9B068FCF7ECF9B068316C08447168CD
:104C0000B060884214D33068B06011E0F068FCF7FF
:104C1000DFF9306CF16840420144F1603268914242
:104C200002D271680844F060022D01D104B1641E03
:104C3000641CB4633846F2BD026C002A0B4600D1F6
:104C4000704710B5C16844681144C160A14224BFD7
:104C50000168C160C168BDE810401846FCF7B8B9EA
:104C6000F8B5054600F0ACFA05F1440494F901608A
:104C700070B2012815DB686A98B105F12400FFF7CE
:104C8000C7FB08B1FFF755FC761EF1E72869A0B114
:104C900005F11000FFF7BCFB08B1FFF74AFC7F1ECF
:104CA00008E04FF0FF36667000F0A3FA00F088FAD3
:104CB00094F9007078B20128E8DA2670BDE8F14076
:104CC00000F097BA10B5044600F07AFAA06B441EC3
:104CD000A44100F08EFAE00F10BD10B50023084C7F
:104CE00054F833201AB15B1C082BF9D310BD44F8DB
:104CF000331004EBC301486010BD000004ED00E078
:104D0000C8220020F8B504460D46164600F058FAB1
:104D100004F1380797F90C0010F1010F04BF0021CE
:104D2000397397F90D0010F1010F04BF0021797359
:104D300000F05FFA386828B93246294604F12400A9
:104D4000FFF74DFB2046BDE8F24089E762F30F22F2
:104D500062F31F4200B500BF130096469446103917
:104D600028BFA0E80C50FAD85FEA417C28BF0CC0ED
:104D700048BF40F8042BC90728BF20F8022B48BFC2
:104D800000F8012B00BD000001484068704700BFDB
:104D90000C0000207047704770477047704770479D
:104DA0007047704770477047704770477047000002
:104DB00080F82010002010BD10B590F821100229B5
:104DC00000F1380206D004231360002280F820206E
:104DD000012010BD01680B6823F00E030B60012356
:104DE00001680C68640864000C6091688B4051682D
:104DF0004B600122002180F82120D9E738B590F8D6
:104E000021200024022A00F1340103D0042048604C
:104E100001243EE00268136823F00E031360026869
:104E2000DFF8743015686D086D00156002689A42ED
:104E300008BF012222D0DFF864309A4208BF102256
:104E40001CD0DFF85C309A4208BF4FF4807215D056
:104E5000DFF850309A4208BF4FF480520ED0DFF88E
:104E600048309A4208BF4FF4803207D0DFF83C3018
:104E70009A420CBF4FF480124FF08072DFF830304E
:104E80001A60012280F8212080F82040096801B1D1
:104E90008847204632BD0000080002401C00024046
:104EA0003000024044000240580002406C000240C2
:104EB0000400024070477047704700F108014160EC
:104EC0004FF0FF31816000F10801C16001610021F4
:104ED0000160704700210161704742684A60936831
:104EE0008B6093685960916008610168491C01609A
:104EF000704730B50A6812F1010F08BF036907D087
:104F000000F1080300E023465C682568AA42FAD253
:104F10005A684A6091608B60596008610168491C59
:104F2000016030BD4368016982689A6083684268A5
:104F30005A604A68824204BF82684A600022026165
:104F40000868401E08600868704700002DE9F843B3
:104F50000446FFF732F9694FB8684FF000090025A1
:104F600008BB07F1180307F1180113F0070F4FF4FE
:104F700080500A4605D0CA1DD208D200C2F5805022
:104F8000081880180838C008C0003A607D60B86012
:104F900045600560811A5160106050683861F860A2
:104FA0004FF0004078614FF050087869044233D1E7
:104FB00094B3083414F0070F1FBF04F1080004F085
:104FC0000704041B14F0070F02D000F041F8FEE7BD
:104FD00014B3F868A0421FD33E6839467068A042F7
:104FE00023D2306800281CBF31460646F6D11CE0AB
:104FF000301D02517460084600F05BF87168F86873
:105000003A69401AF860904238BF386178690143C4
:105010007160356009F00705FFF7D5F815B100F0AC
:1050200017F8FEE74846BDE8F283B8688642F3D039
:10503000326808680A6000F108097268121B112AB8
:10504000DCD3311911F00700D2D000F001F8FEE7EF
:1050500088F31188BFF34F8FBFF36F8F704700281D
:1050600000D1704738B5A0F10804244D61686A6921
:105070005023114202D100F015F8FEE7206810B16C
:1050800000F010F8FEE791436160FFF796F8E968D9
:1050900060684118E960204600F00BF8BDE8314037
:1050A000FFF791B883F31188BFF34F8FBFF36F8F72
:1050B000704730B511490A4600E022461468844220
:1050C000FBD35368D418844203D14068C31853609B
:1050D000104643681468C518A54208D189688C42F7
:1050E00004D06168CB184360246800E00C4604607B
:1050F000824218BF106030BD000000001C0000207C
:10510000490810B54900A0F10C034FF080745960B4
:105110009C600FF20D01196040F8202D203810BD61
:1051200058494A68502012F1010F06D080F31188C7
:10513000BFF34F8FBFF36F8FFEE780F31188BFF38C
:105140004F8FBFF36F8FFEE71CB54F484D4C017872
:105150000191FF22027002788DF8002007229DF84D
:105160000010A26001F05001217006E0491EA1600C
:105170009DF8001049008DF80010A1689DF80020EE
:105180001306F3D4C1F10702042A02D000F050F84C
:10519000FEE7090201F4E061A160019901703B485A
:1051A000016841F470010160026842F070420260DF
:1051B00000F074F80020606000F06BFA002016BD6B
:1051C000502080F31188BFF34F8FBFF36F8F2D49AD
:1051D0004A68521C012A4A600AD12D490A681306FE
:1051E00006D080F31188BFF34F8FBFF36F8FFEE7B8
:1051F00070472449486838B9502080F31188BFF3BC
:105200004F8FBFF36F8FFEE7401E486008BF80F3EB
:105210001188704780B500F00BF8FFF72CF818B133
:105220001B494FF080500860002181F3118801BDB7
:10523000502080F31188BFF34F8FBFF36F8F7047FB
:10524000EFF30580502110280E4A0BD3114B185C48
:105250001378984206D281F31188BFF34F8FBFF3C2
:105260006F8FFEE790680C4A136803F4E06398427E
:1052700006D281F31188BFF34F8FBFF36F8FFEE724
:10528000704700000000002000E400E020ED00E096
:1052900004ED00E0F0E300E00CED00E00748002141
:1052A000016081604FF47A7305490A68B2FBF3F339
:1052B0005B1E436007210160704700BF10E000E003
:1052C0001800002010B586B000F066F9DFF838430A
:1052D000A068D0B100210591049103AA04A905A8F2
:1052E000FCF7FAFD059804990290022200920191C0
:1052F0000023039A0FF218310FF27100FEF70CFE33
:10530000E06010B1012006B010BD00F03CF9FEE7EE
:1053100085F31188BFF34F8FBFF36F8F7047F8B5D8
:10532000044684B01E46002014B900F02CF9FEE7B4
:10533000DFF8D472BD68BDB10629009101920294D4
:105340000CDAFFF745F90228B86807BF0A9A00236C
:10535000002300226946FFF775FA05E00023324674
:1053600069462846FFF706FB05B0F0BD80B5A649A3
:105370000A68106800281DBF0021D068006801215C
:1053800000F003F800F0A2F8F1E7FEB506460C467F
:10539000FEF713FF01A800F042F805460198002827
:1053A0003AD1994F24BBB54227D3FEF70CFF38689A
:1053B000C168CC68201DFFF7B5FDE069012813D155
:1053C000A16933462A468919204600F064F858B18D
:1053D000002000900023324600212046FFF79FFF67
:1053E00010B900F0D0F8FEE7616A20468847F7BDA3
:1053F000786801684C1EA441E40FB8682246711B0E
:10540000FFF780FCFEF7DFFE40B980494FF0805087
:105410000860FFF77FFFF7BDFEF7D5FEF7BD2DE96A
:10542000FC410446FEF723FF774E0546306985426E
:105430000BD30020206035612846BDE8F6817860F6
:105440003F61391D3068FFF754FD31680868E8B1E5
:10545000C868D0F80080C768381DFFF763FD796A17
:1054600038468847F8690128EFD1B869404480453B
:10547000E5D3002000900023424600213846FFF784
:105480004EFF0028E1D100F07EF8FEE77068306042
:1054900071600120CEE738B500248A424160006186
:1054A000594D06D38169D21A8A4206D2011D686815
:1054B00007E09A4203D2994201D3012403E0011D7F
:1054C0002868FFF716FD204632BD000038B586B0CB
:1054D0004D4C04E0134689182846FFF7DCFFA0680E
:1054E000002202A9FFF795FA00284AD00298002866
:1054F00003D505990498039A904702980028EED4A2
:10550000049D686910B1281DFFF70CFD01A8FFF785
:1055100086FF024602980928E1D8DFE800F0060677
:105520000605232A06060523D9E70399A8690B4631
:1055300041182846FFF7AFFF0028D0D0696A2846F7
:105540008847E8690128CAD100210091039AA86917
:10555000821800232846FFF7E2FE0028BFD100F0A2
:1055600012F8FEE70399A9610029B3D100F00BF806
:10557000FEE795F82C000028B1D12846FFF76FFD13
:10558000ADE707B030BD502080F31188BFF34F8FD7
:10559000BFF36F8F704700001CB5FFF711FE1A4C68
:1055A000A068E0B904F11400FFF787FC04F12800BB
:1055B000FFF783FC04F11400206004F13C0304F1C4
:1055C0002800606004F18C020020009010210A2065
:1055D000FFF7D4F8A06010B10FA1FFF77EFBBDE884
:1055E0001340FFF706BE1FB503921C4622466FF01C
:1055F00001030190009302910023034CA0686946C7
:10560000FFF7B8F904B010BD381E002004ED00E02B
:10561000546D722053766300546D72510000000087
:10562000704770477047704770477047EFF30980C5
:10563000BFF36F8F1D4B1A6820E9F00F106008B59B
:105640004FF0500080F31188BFF34F8FBFF36F8F7F
:10565000FEF76FFE4FF0000080F31188BDE80840B0
:1056600019680868B0E8F00F80F30988BFF36F8FFE
:1056700070470E4B19680868B0E8F00F80F309888E
:10568000BFF36F8F4FF0000080F311884EF00D0EC6
:10569000704707480068006880F3088862B661B602
:1056A000BFF34F8FBFF36F8F00DF00008C1F002010
:1056B00008ED00E0704700002DE9F843FFF7FAFF1E
:1056C0003B4CDFF8F0803C4E3C4F3D4D18E06420F1
:1056D00038807880002003E06420388078800420BF
:1056E000287068782978884203D020680121FDF766
:1056F000A7FE3088A883287868700120FCF7E1FABB
:1057000095F800E03288B8F80100AB8BBEF1040FC9
:105710001146E6D8DFE80EF0061A31050400E0E78E
:10572000D5E7D9E701F13202824206DA012028707A
:105730006420388000207880D3E732308842D0DA85
:1057400000203880642078800220C9E7D21A2A839A
:10575000002305F1160905F1140EC3F1000C3EF803
:105760001CE029F81CE05B1C092BF4DB00F02AF894
:1057700001EB02118842B4DA15E09A1A2A83002359
:1057800005F1160905F1140EC3F1000C3EF81CE0FA
:1057900029F81CE05B1C092BF4DB00F013F800EB8C
:1057A000021081429DDA0320287064203880C2E70D
:1057B00074200020802300202820002024200020A6
:1057C00058230020AA800023002205F1040C3CF895
:1057D00012C0521C0A2A6344F7DB9BB20A2293FBD5
:1057E000F2F26A836A8B704764656661756C745403
:1057F00061736B0043414E0055415254000000005C
:1058000054494D004D4F44450000000053454E544F
:105810005F43757272656E74506F736974696F6EF1
:10582000000000004C494E5F4D6173746572546115
:1058300072676574506F736974696F6E0000000061
:105840004C494E5F4D61737465724D6F6465436F73
:105850006D6D616E640000004D4F44455F4D6F7487
:105860006F724F75740000004576656E740000001D
:10587000FEE7FEE7FEE7FEE7FEE7704780B500F0D3
:1058800025F8FEF7A5FE012803D0BDE80140FFF78B
:10589000C1BC01BD80B500E080B50848FDF7C8F97E
:1058A000BDE802400648FAF781BC0448FDF7C0B9DC
:1058B0000448FEF747B80448FDF746BB082300201C
:1058C000F01800202C200020A020002002494A6867
:1058D000087882184A6070470C00002019E050F8E0
:1058E000042BD30744BFA9F101039A18091F002311
:1058F000042942F8043BF9D25FEA817C134604D5BF
:105900004FF0000CA2F800C09B1CC90744BF002147
:10591000197050F8041B0029E1D1704710B450F8F9
:10592000041B79B10268436802440830DC0744BFB5
:10593000A9F10104E31852F8044B43F8044B091F82
:10594000F9D1ECE710BC704710B50749794418311C
:10595000064C7C44163404E00A68081D114488474C
:105960000146A142F8D110BD080000002800000047
:105970006DFFFFFF942300001C00002000000000CA
:105980009DFFFFFF1C0000005400000000000020ED
:105990000000000000F00DF8002801D0FFF7D4FF50
:1059A000AFF300800020AFF30080FBF76BFB00F04B
:1059B00002F80120704700F001B8000007463846A1
:1059C00000F002F8FBE7000080B5AFF30080024A68
:1059D00011001820ABBEFBE726000200000000000B
:1059E000AAAAAAAA0000000001000000000000000E
:1059F000100000000024F4007047000000000000C8
:105A0000000000000102030406070809014880475E
:105A100001480047F95900081D5A0008AFF30080FB
:105A2000AFF30080FFF7B6FF00000000010203049F
:105A3000FFF7FEBFFFF7FEBFFFF7FEBFFFF7FEBF9A
:105A4000FFF7FEBFFFF7FEBFFFF7FEBFFFF7FEBF8A
:105A5000FFF7FEBFFFF7FEBFFFF7FEBFFFF7FEBF7A
:105A6000FFF7FEBFFFF7FEBFFFF7FEBFFFF7FEBF6A
:105A7000FFF7FEBFFFF7FEBFFFF7FEBFFFF7FEBF5A
:105A8000FFF7FEBFFFF7FEBFFFF7FEBFFFF7FEBF4A
:105A9000FFF7FEBFFFF7FEBFFFF7FEBFFFF7FEBF3A
:105AA000FFF7FEBFFFF7FEBFFFF7FEBFFFF7FEBF2A
:105AB000FFF7FEBFFFF7FEBFFFF7FEBFFFF7FEBF1A
:085AC000FFF7FEBFFFF7FEBF78
:0400000508005A1D78
:00000001FF
