:020000040800F2
:10000000B8390020C59A0008399700083B970008C6
:100010003D9700083F970008419700080000000046
:10002000000000000000000000000000F395000840
:100030004397000800000000AD95000845970008B0
:10004000559B0008599B00085D9B0008619B0008B8
:10005000659B0008699B00086D9B0008719B000868
:10006000759B0008799B00087D9B0008819B000818
:10007000859B0008899B00088D9B0008919B0008C8
:10008000959B0008999B00089D9B000859970008C4
:100090006997000879970008A19B0008A59B0008B4
:1000A000A99B0008AD9B0008B19B0008839700083E
:1000B000B59B0008B99B0008BD9B0008C19B0008C8
:1000C000C59B0008C99B0008CD9B0008D19B000878
:1000D000D59B00088D970008D99B0008DD9B000880
:1000E000E19B0008E59B0008E99B000818B585B076
:1000F0000400002C01D10120BFE094F8A9020028DF
:1001000005D1002084F8A802200000F076FE03202C
:1001100084F8A902206800F09DFE211D83B0684686
:10012000202201F06FFB0EBC206800F08FFE00283B
:1001300004D0022084F8A90201209EE0002120685A
:1001400000F092FE00213BE001220B00DBB22820F0
:10015000434304EB030080F829200A00D2B2282090
:10016000424304EB020080F828100A00D2B20B00D0
:10017000DBB22820434304EB0300C28600220B00BD
:10018000DBB22820434304EB030080F82B2000223D
:100190000B00DBB22820434304EB03008263002200
:1001A0000B00DBB22820434304EB0300C2630022B0
:1001B0000B00DBB22820434304EB03000264491C1C
:1001C0000800C0B262689042BED3002135E0002230
:1001D0000B00DBB22820434304EB030080F86921C5
:1001E0000A00D2B22820424304EB020080F86811D2
:1001F00000220B00DBB22820434304EB030080F80D
:100200006B2100220B00DBB22820434304EB0300E8
:10021000C0F8782100220B00DBB22820434304EB16
:100220000300C0F87C2100220B00DBB228204343EE
:1002300004EB0300C0F88021491C0800C0B26268CA
:100240009042C4D3211D83B06846202201F0DAFA1F
:100250000EBC206800F00AFE002804D0022084F8BA
:10026000A902012009E0002084F82400012084F87C
:10027000A902206801F07CFA002006B010BD1FB56D
:100280000400206801F076FA000402D5200000F096
:10029000ECF8206801F06EFA40050FD52068B0F840
:1002A00044104FF6FF3001402068A0F844102000B1
:1002B00001F0EBFA0021200000F0C1F8206801F005
:1002C00059FA400408D52068B0F844104BF6FF7086
:1002D00001402068A0F84410206801F04BFA800427
:1002E00008D52068B0F844104DF6FF700140206832
:1002F000A0F84410206801F03DFAC0041DD5206824
:10030000B0F840104FF6FB7001402068A0F8401094
:100310002068B0F840104FF6F77001402068A0F850
:100320004010200001F0B2FA2068B0F844104EF6F8
:10033000FF7001402068A0F84410206801F01AFA0C
:1003400000055CD500200AE021680200D2B231F835
:1003500022106A460300DBB222F81310401C010091
:10036000C9B20829F0D32068B0F8400050F001006D
:100370002168A1F840002068B0F840104FF6FE70E8
:1003800001402068A0F840102068B0F84400400503
:10039000FAD52068B0F844104FF6FF3001402068CD
:1003A000A0F8441000200AE069460200D2B231F8F9
:1003B000121022680300DBB222F82310401C010057
:1003C000C9B20829F0D32068B0F8400050F0080006
:1003D0002168A1F840002068B0F844104FF2FF7087
:1003E00001402068A0F844102068B0F8400050F0A8
:1003F00004002168A1F84000200001F048FA2068BC
:1004000001F0B8F980050BD52068B0F844104FF61C
:10041000FF5001402068A0F84410200001F038FA95
:10042000206801F0A7F9C00508D52068B0F844108D
:100430004FF6FF6001402068A0F844101FBD10B5C2
:10044000040094F8A802012801D102200CE0012048
:1004500084F8A80284F82410C9B2206801F080F959
:10046000002084F8A802002010BD2DE9F04104000E
:1004700033E02068018848F60F70014051F40041D4
:100480002068018014F128052068B0F85000297810
:1004900010EBC100216811EB400101F20441088812
:1004A00080B28005800DE8616869E9690844686187
:1004B0000021200001F0EDF994F8240000280CD070
:1004C000A869002809D194F8240050F08000216820
:1004D000A1F84C00002084F824002068B0F8440003
:1004E000000440F1B3812068B0F8441011F00F050A
:1004F0002800C0B2002840F09C80C806B9D514F589
:10050000B47520680088010524D52068B0F8500033
:10051000297810EBC100216811EB400101F20C4178
:10052000088880B28005800DE861EB699BB2EA889B
:1005300014F52C71206801F039F92068018840F623
:100540008F70014051F0800120680180200001F08F
:10055000A1F9C2E70004C0D52068018840F68F7079
:10056000014051F08001206801802068B0F85000FF
:10057000297810EBC100216811EB400101F20C4118
:10058000088880B28005800DE861E869002811D0F4
:10059000686900280ED0EB699BB2EA886969206817
:1005A00001F004F96869E9690844686100212000E4
:1005B00001F071F92068008800058ED42168206858
:1005C000B0F85000411801F20C412869002809D107
:1005D0000A8848F2FF3002400A80088850F4004040
:1005E000088016E028693F2808D2286940082A7C3C
:1005F000D20700D5401C800208800AE02869400923
:100600002A7C12F01F0F00D1401E800250F40040DF
:100610000880206801884BF68F70014091F480516A
:1006200091F4005141F4004151F0800120680180B3
:1006300053E720682900C9B230F82160300440F146
:10064000AB8020682900C9B230F8211040F68F70C5
:10065000014051F0800120682A00D2B220F8221017
:100660002900C9B22820414304EB010010F5B477FA
:10067000387B00281CD12068B0F85000397810EB86
:10068000C100216811EB400101F20C41B1F800807A
:100690005FEA88585FEA9858404680B2002860D0E8
:1006A00043469BB2FA887969206801F07FF858E0E8
:1006B000F878022807D1320092B23900200000F009
:1006C000C8F880464DE02068397830F8211048F6A7
:1006D0008F70014041F4004151F0C00120683A7828
:1006E00020F822102068397830F8210040041CD509
:1006F0002068B0F85000397810EBC100216811EB88
:10070000400101F20441B1F800805FEA88585FEAD5
:100710009858404680B2002823D043469BB23A897D
:100720007969206801F042F81BE02068B0F85000B9
:10073000397810EBC100216811EB400101F20C4146
:10074000B1F800805FEA88585FEA9858404680B266
:10075000002806D043469BB27A897969206801F067
:1007600025F8F969404680B24118F9617869414637
:1007700089B208447861B869002804D01FFA88F863
:100780003869804504D23978200001F084F803E00C
:100790003900206800F07AFB30067FF59EAE290014
:1007A000C9B22820414304EB010010F12801206860
:1007B0002A00D2B230F8222048F60F70024052F4DC
:1007C00000422068EDB220F82520C878032807D021
:1007D000C878002804D0C878022831D1F0052FD479
:1007E0002068B0F850000A7810EBC200226812EBC3
:1007F000400202F2044212889205920D100080B26B
:100800008B69984205D28B69100080B21B1A8B61EC
:1008100001E0002088618869002804D1097820005F
:1008200001F037F859E6486913009BB21844486153
:10083000C86992B21218CA61206800F027FB4CE622
:10084000320092B2200000F0A1F846E60020BDE898
:10085000F08170B553044BD50368B3F850300C7871
:1008600013EBC403046814EB430404F20444248827
:10087000A405A40D8B692500ADB2AB4205D38D69EB
:1008800023009BB2ED1A8D6101E000238B618B691F
:10089000002B10D103680D7833F825504BF68F7379
:1008A0001D4095F4005545F4004555F0800503685A
:1008B0000E7823F8265052060ED502680B7832F8CF
:1008C000233048F68F72134043F4004353F0C003C3
:1008D00002680D7822F82530220092B2002A52D008
:1008E00023009BB20A894969006800F05FFF4AE073
:1008F0000368B3F850300C7813EBC403046814EBAE
:10090000430404F20C442488A405A40D8B6925003B
:10091000ADB2AB4205D38D6923009BB2ED1A8D6158
:1009200001E000238B618B69002B10D103680D78E7
:1009300033F825504BF68F731D4095F4005545F460
:10094000004555F0800503680E7823F826505206BE
:100950000ED402680B7832F8233048F68F721340B9
:1009600043F4004353F0C00302680D7822F82530A9
:10097000220092B2002A06D023009BB24A8949691C
:10098000006800F013FF200080B270BD70B5040055
:100990000D001600700640F101812068B0F850008B
:1009A000297810EBC100216811EB400101F20441EC
:1009B0000B889B059B0D180080B2A969884205D25F
:1009C000A969180080B2091AA96101E00020A86194
:1009D000A869002866D16878002814D121682068A9
:1009E000B0F8500041182878C00011EB400101F226
:1009F00004410A8848F2FF3002400A80088850F417
:100A0000004008800FE0687801280CD12168206838
:100A1000B0F8500041182878C00011EB400101F2F5
:100A200004410020088021686878002814D12168DA
:100A30002068B0F8500041182878C00011EB400140
:100A400001F20C410A8848F2FF3002400A8008880F
:100A500050F4004008800EE0687801280BD120682F
:100A6000B0F8500041182878C00011EB400101F2A5
:100A70000C41002008802978200000F00AFF700453
:100A800040F18B812068297830F8211048F68F706A
:100A9000014041F4404151F0800120682A7820F85B
:100AA00022107AE170040ED52068297830F82110E0
:100AB00048F68F70014041F4404151F080012068B8
:100AC0002A7820F8221095F82400012840F065814A
:100AD0006869190089B208446861E969180080B240
:100AE0004118E961286A2969884204D32B69286A78
:100AF000C01A28620DE0286A002804D19BB20020A9
:100B000085F8240005E0002085F824002B6A0020E9
:100B10002862687800282BD121682068B0F850003E
:100B200041182878C00011EB400101F20441002B6C
:100B300009D10A8848F2FF3002400A80088850F440
:100B40000040088013E03F2B07D218004008DA0766
:100B500000D5401C8002088009E01800400913F00D
:100B60001F0F00D1401E800250F4004008800EE0AC
:100B7000687801280BD121682068B0F8500041182E
:100B80002878C00011EB400101F204410B809BB2B8
:100B90002A896969206800F0F0FDFEE02068B0F85D
:100BA0005000297810EBC100216811EB400101F2DF
:100BB0000C410B889B059B0DA869190089B28842DE
:100BC00005D3A969180080B2091AA96101E00020C3
:100BD000A861A869002866D16878002814D1216826
:100BE0002068B0F8500041182878C00011EB40018F
:100BF00001F204410A8848F2FF3002400A80088866
:100C000050F4004008800FE0687801280CD121687A
:100C10002068B0F8500041182878C00011EB40015E
:100C200001F204410020088021686878002814D16E
:100C300021682068B0F8500041182878C00011EBF6
:100C4000400101F20C410A8848F2FF3002400A805C
:100C5000088850F4004008800EE0687801280BD125
:100C60002068B0F8500041182878C00011EB40010E
:100C700001F20C41002008802978200000F009FED4
:100C8000700400F18A802068297830F8211048F635
:100C90008F70014041F4404151F0800120682A7872
:100CA00020F8221079E070040ED42068297830F8FA
:100CB000211048F68F70014041F4404151F080010D
:100CC00020682A7820F8221095F82400012864D1A1
:100CD0006869190089B208446861E969180080B23E
:100CE0004118E961286A2969884204D32B69286A76
:100CF000C01A28620DE0286A002804D19BB20020A7
:100D000085F8240005E02B6A00202862002085F881
:100D100024002168687800282BD121682068B0F869
:100D2000500041182878C00011EB400101F20C413D
:100D3000002B09D10A8848F2FF3002400A80088857
:100D400050F40040088013E03F2B07D21800400801
:100D5000DA0700D5401C8002088009E0180040092D
:100D600013F01F0F00D1401E800250F40040088095
:100D70000DE0687801280AD12068B0F850004118C9
:100D80002878C00011EB400101F20C410B809BB2AE
:100D90006A896969206800F0F0FC2068297830F8D9
:100DA000211048F6BF70014091F0100191F0200130
:100DB00041F4004151F0800120682A7820F8221087
:100DC000002070BD80B51E481E49086008201D49DE
:100DD000486002201B49886000201A498861002071
:100DE0001849C8610020174908621648FFF77EF9C4
:100DF000002801D000F0B9FD01BD80B500681049A0
:100E000088421BD11048006850F400000E49086069
:100E10000D48006810F400000090009800220521A1
:100E2000132000F020FE132000F02EFE00220521EA
:100E3000142000F018FE142000F026FE01BD000072
:100E4000005C0040642900201C1002400EB4002009
:100E500003B070474FF43F41B0F8402032EA01013F
:100E6000A0F8401000207047002070470EB4012108
:100E7000A0F840100021A0F840100021A0F8441074
:100E80000021A0F85010002003B0704770B5040096
:100E90000E007078012840F0E5823069B16988421F
:100EA00001D2356900E0B569307B002812D12B00F2
:100EB0009BB2F2887169200000F05FFC2100B4F859
:100EC000500041183078C00011EB400101F204419C
:100ED0000D80B5E2F078022840F06A813069316A0D
:100EE000884280F04481307834F8201048F68F70C2
:100EF000014041F4014151F08001307824F8201084
:100F0000306A401B3062307834F82000400640F1EF
:100F100097802100707800282AD12100B4F8500071
:100F200041183078C00011EB400101F20C41002D56
:100F300009D10A8848F2FF3002400A80088850F43C
:100F40000040088013E03F2D07D228004008EA0740
:100F500000D5401C8002088009E02800400915F0F7
:100F60001F0F00D1401E800250F4004008800CE0AA
:100F70007078012809D1B4F8500041183078C000C9
:100F800011EB400101F20C410D8072892B009BB2E4
:100F900092B27169200000F0F0FB70692844706122
:100FA0003069316A884203D2306A401B306202E005
:100FB000356A00203062707800282AD12100B4F808
:100FC000500041183078C00011EB400101F204419B
:100FD000002D09D10A8848F2FF3002400A800888B3
:100FE00050F40040088013E03F2D07D2280040084D
:100FF000EA0700D5401C8002088009E0280040096B
:1010000015F01F0F00D1401E800250F400400880F0
:101010000DE0707801280AD12100B4F85000411881
:101020003078C00011EB400101F204410D8032899B
:101030002B009BB292B27169200000F09EFBFFE191
:10104000707800282AD12100B4F850004118307877
:10105000C00011EB400101F20441002D09D10A88C2
:1010600048F2FF3002400A80088850F400400880AF
:1010700013E03F2D07D228004008EA0700D5401CA6
:101080008002088009E02800400915F01F0F00D1F8
:10109000401E800250F4004008800DE07078012866
:1010A0000AD12100B4F8500041183078C00011EB8B
:1010B000400101F204410D8032892B009BB292B2B3
:1010C0007169200000F059FB706928447061306933
:1010D000316A884203D2306A401B306202E0356ACE
:1010E000002030622100707800282AD12100B4F855
:1010F000500041183078C00011EB400101F20C4162
:10110000002D09D10A8848F2FF3002400A80088881
:1011100050F40040088013E03F2D07D2280040081B
:10112000EA0700D5401C8002088009E02800400939
:1011300015F01F0F00D1401E800250F400400880BF
:101140000CE07078012809D1B4F8500041183078CB
:10115000C00011EB400101F20C410D8072892B009F
:101160009BB292B27169200000F007FB68E1336A1C
:10117000307834F8201048F68F60014041F4004187
:1011800051F08001307824F820102100B4F850008C
:1011900041183078C00011EB400101F204410B808E
:1011A00032899BB292B27169200000F0E6FA47E101
:1011B000307834F8201048F68F70014041F4014136
:1011C00051F08001307824F82010306A401B3062E2
:1011D000307834F82000400640F19A802100707881
:1011E00000282AD12100B4F8500041183078C000FE
:1011F00011EB400101F20C41002D09D10A8848F29F
:10120000FF3002400A80088850F40040088013E054
:101210003F2D07D228004008EA0700D5401C800275
:10122000088009E02800400915F01F0F00D1401E7A
:10123000800250F4004008800CE07078012809D149
:10124000B4F8500041183078C00011EB400101F2B1
:101250000C410D8072892B009BB292B27169200003
:1012600000F08BFA7069284470613069316A8842F5
:1012700003D2306A401B306202E0356A00203062DF
:10128000002D00F0DD80707800282AD12100B4F80C
:10129000500041183078C00011EB400101F20441C8
:1012A000002D09D10A8848F2FF3002400A800888E0
:1012B00050F40040088013E03F2D07D2280040087A
:1012C000EA0700D5401C8002088009E02800400998
:1012D00015F01F0F00D1401E800250F4004008801E
:1012E0000DE0707801280AD12100B4F850004118AF
:1012F0003078C00011EB400101F204410D803289C9
:101300002B009BB292B27169200000F036FA97E090
:10131000707800282AD12100B4F8500041183078A4
:10132000C00011EB400101F20441002D09D10A88EF
:1013300048F2FF3002400A80088850F400400880DC
:1013400013E03F2D07D228004008EA0700D5401CD3
:101350008002088009E02800400915F01F0F00D125
:10136000401E800250F4004008800DE07078012893
:101370000AD12100B4F8500041183078C00011EBB8
:10138000400101F204410D8032892B009BB292B2E0
:101390007169200000F0F1F97069284470613069CA
:1013A000316A884203D2306A401B306202E0356AFB
:1013B00000203062002D43D02100707800282AD10F
:1013C0002100B4F8500041183078C00011EB400102
:1013D00001F20C41002D09D10A8848F2FF30024089
:1013E0000A80088850F40040088013E03F2D07D29F
:1013F00028004008EA0700D5401C8002088009E068
:101400002800400915F01F0F00D1401E800250F443
:10141000004008800CE07078012809D1B4F8500031
:1014200041183078C00011EB400101F20C410D80F1
:1014300072892B009BB292B27169200000F09DF975
:10144000307834F8201048F6BF70014091F0100158
:1014500091F0200141F4004151F08001307824F8EE
:10146000201049E0307B002848D13069B1698842BA
:1014700004D23069B169091AB16102E0B069002192
:10148000B1612200B4F850108A183178C90012EB0B
:10149000410202F20C42002809D1118848F2FF30C3
:1014A00001401180108850F40040108013E03F2864
:1014B00007D201004908C00700D5491C88021080E6
:1014C00009E00100490910F01F0F00D1491E8802F0
:1014D00050F400401080307834F820104BF68F70B4
:1014E000014091F4805191F4005141F4004151F0D8
:1014F0008001307824F82010002070BDF078022898
:1015000040F0A380707800282ED12100B4F850005C
:1015100041183078C00011EB400101F204413069FC
:10152000002809D10A8848F2FF3002400A80088862
:1015300050F40040088016E030693F2808D2306936
:101540004008327CD20700D5401C800208800AE0A7
:1015500030694009327C12F01F0F00D1401E80021A
:1015600050F4004008800EE0707801280BD1210073
:10157000B4F8500041183078C00011EB400101F27E
:101580000441306908802100707800282ED12100A4
:10159000B4F8500041183078C00011EB400101F25E
:1015A0000C413069002809D10A8848F2FF30024016
:1015B0000A80088850F40040088016E030693F280F
:1015C00008D230694008327CD20700D5401C800226
:1015D00008800AE030694009327C12F01F0F00D108
:1015E000401E800250F4004008800DE07078012811
:1015F0000AD1B4F8500041183078C00011EB400116
:1016000001F20C4130690880F06900283FF463AFB3
:10161000307834F8200044F24001014044F24002A6
:10162000914204D044F2400108427FF454AF307834
:1016300034F8201048F68F70014041F4004151F019
:10164000C001307824F8201045E7F078012840F0F8
:1016500085803069B169884204D23069B169091A5C
:10166000B16102E0B0690021B161717800292AD12D
:101670002200B4F850108A183178C90012EB4102E8
:1016800002F20442002809D1138848F2FF310B40CE
:101690001380118851F40041118013E03F2807D2D4
:1016A00001004908C30700D5491C8902118009E0DF
:1016B0000100490910F01F0F00D1491E890251F4A1
:1016C000004111800DE0717801290AD12200B4F89F
:1016D00050108A183178C90012EB410202F204421C
:1016E00010802200717800292AD12200B4F850100D
:1016F0008A183178C90012EB410202F20C4200282C
:1017000009D1118848F2FF3001401180108850F44F
:101710000040108013E03F2807D201004908C007AD
:1017200000D5491C8802108009E00100490910F029
:101730001F0F00D1491E880250F4004010800CE0B9
:101740007178012909D1B4F850108A183178C9008C
:1017500012EB410202F20C421080BCE60120CCE602
:10176000C9B2002902D18021A0F84C100020704796
:1017700000207047B0F84400704710B49BB25B1C67
:101780005B0892B210EB420010F580600AE00A7824
:10179000491C0C782402A4B222430280801C801CC5
:1017A000491C5B1E002BF2D110BC704710B41C000A
:1017B000A4B2640892B210EB420010F5806008E019
:1017C0000288801C0A70491C120A0A70491C801C7D
:1017D000641E002CF4D1DA0701D50088087010BC13
:1017E0007047010262B38B0708D0521E11F8013B0B
:1017F00000F8013B00F024808B07F6D1830740F00E
:10180000208000BF103A07D330B4B1E83810103A46
:10181000A0E83810F9D230BC530724BFB1E8081053
:10182000A0E8081044BF51F8043B40F8043BD2073D
:1018300024BF31F8022B20F8022B44BF0B78037031
:101840007047121F17D35B0009D151F8043B20F8F1
:10185000023B1B0C121F20F8023BF6D20BE051F8A2
:10186000043B00F8013B1B0A20F8023B1B0C121F33
:1018700000F8013BF3D238BF121D521E24BF11F8ED
:10188000013B00F8013BF8D870477047704770473C
:10189000704770477047704780B500F015F900F049
:1018A00019F800F025F900F0AFF9FFF78BFA00F016
:1018B000C7FA01F0D9F801F00BF901F071F901F064
:1018C000C2F901F0D1FB01F07DFD01F0AFFF01F0A5
:1018D0009BFDFEE700B593B009A8282102F042F86D
:1018E00004A8142102F03EF86846102102F03AF8EC
:1018F000092009905FF480300A9000200B900120AD
:101900000D9001200F90022010905FF48030119014
:101910005FF4E010129009A802F028F8002801D026
:1019200000F023F80F20049002200590002006907C
:101930004FF48060079000200890022104A802F074
:1019400052FA002801D000F010F8112000904FF456
:101950000070019000200390684602F07DFB002893
:1019600001D000F002F813B000BD72B6FEE701022C
:1019700010F007004B490A684FF6FF010A404A4938
:1019800051EA00210A434748026070474548006811
:10199000C0F302207047010049B2002908D4012297
:1019A00010F01F018A40414940B2400941F820200F
:1019B0007047020052B2002A04D409013C4A40B2E6
:1019C000115407E009013B4A40B210F00F001044E7
:1019D00000F8041C704710B410F00700D0F10703A2
:1019E000052B01D3042301E0D0F10703041D072CCC
:1019F00001D2002000E0C01E012414FA03F35B1E94
:101A000019408140012313FA00F0401E10400843A2
:101A100010BC7047BFF34F8F2248016811F4E0619A
:101A2000254801431F480160BFF34F8F00BFFDE70A
:101A300080B5411EB1F1807F01D301200EE0401E30
:101A40001E4908600F215FF0FF30FFF7B2FF002052
:101A50001B49086007201B490860002002BD80B5B3
:101A6000FFF786FF01BD70B504000D0016000020D1
:101A7000FFF78CFF32002900FFF7ADFF01002000C7
:101A800040B2FFF796FF70BD80B540B2FFF783FF0D
:101A900001BD80B5FFF7BEFF01BD80B5FFF7C8FFF0
:101AA00002BD00000CED00E00000FA0500E100E0DE
:101AB00000E400E018ED00E00400FA0514E000E0A6
:101AC00018E000E010E000E080B50848006850F041
:101AD0001000064908600320FFF7C1FF0F2002F045
:101AE000C3FB02F0E7FB002002BD00000020024023
:101AF00000B585B06846102101F034FF3E4800680B
:101B000050F010003C4908603B48006810F010009D
:101B1000049004983848006850F020003649086066
:101B20003548006810F0200004900498324800689E
:101B300050F00400304908602F48006810F004009D
:101B4000049004982C48006850F008002A49086066
:101B50002948006810F0080004900498002240F220
:101B60000331264802F0B6FC002248F20201244864
:101B700002F0B0FC00220821224802F0ABFC40F247
:101B80000330009001200190002002900220039079
:101B900069461A4802F0BCFB1C200090002001900E
:101BA000002002906946154802F0B2FB48F202009C
:101BB00000900120019000200290022003906946CD
:101BC0000F4802F0A5FB08200090012001900020A2
:101BD00002900220039069460A4802F099FBC02057
:101BE000009012200190032003906946054802F0FE
:101BF0008FFB05B000BD00BF18100240001001406F
:101C000000080140000C014080B58248824908600C
:101C100004208149486000207F4988605FF040705F
:101C20007D49C8605FF400207B4908615FF4E000F3
:101C3000794948610020784908760020764948763D
:101C400000207549887600207349C87600207249C3
:101C500008770020704948776F4802F065FC00283B
:101C600001D0FFF782FE01BD18B585B0040001A8C0
:101C7000102101F077FE2068664988424FD16748FD
:101C8000006850F00070654908606448006810F012
:101C90000070009000986248006850F008006049A9
:101CA00008605F48006810F00800009000984FF44A
:101CB00080700190002002900020039001A95948F3
:101CC00002F026FB4FF400700190022002900320E6
:101CD000049001A9534802F01BFB5348006830F4FC
:101CE000C04050F0E06050F480404F49086000224E
:101CF00005211320FFF7B7FE1320FFF7C5FE0022D2
:101D000005211420FFF7AFFE1420FFF7BDFE0022CF
:101D100005211520FFF7A7FE1520FFF7B5FE06B039
:101D200010BD10B592B002A84049D1E90023C0E926
:101D3000002340F2016168463D4AD2E90034C0E91F
:101D4000003440F2026000220F9200220E920C91A9
:101D500000218DF8441008211091002109910021E3
:101D60000891069000208DF82C0008200A902A483F
:101D700002F090FC9DF80F00401C8DF80F002D48DC
:101D8000008880B2000A8DF808002A4800888DF883
:101D90000900294800888DF80A002848C0798DF884
:101DA0000B002648007A8DF80C002448407A8DF804
:101DB0000D00224800788DF80000204840788DF80A
:101DC00001001E4880788DF802001C48C0788DF80C
:101DD00003001A4800798DF80400184840798DF8FE
:101DE0000500164880798DF806001448C0798DF8F2
:101DF000070005AB02AA0CA9074802F079FC04AB66
:101E00006A4606A9044802F073FC012001F0B2FB07
:101E1000B0E7000000640040603300201C10024066
:101E200018100240000C014004000140EC9A000828
:101E3000F49A0008903500209235002044340020A8
:101E400080B5DFF8BC0BDFF8BC1B08604FF4964090
:101E5000DFF8B01B48600020DFF8A81B8860002076
:101E6000DFF8A01BC8600020DFF8981B08610C2079
:101E7000DFF8901B48610020DFF8881B8861002193
:101E8000DFF8800B02F0D2FD002801D0FFF76DFDD6
:101E900001BD18B585B0040001A8102101F062FD54
:101EA0002068DFF85C1B88423DD1DFF85C0B0068DE
:101EB00050F48040DFF8501B0860DFF84C0B0068DE
:101EC00010F4804000900098DFF83C0B006850F060
:101ED0000400DFF8341B0860DFF82C0B006810F0FA
:101EE0000400009000984FF40070019002200290CE
:101EF0000320049001A9DFF8140B02F009FA4FF453
:101F000080600190002002900120039001A9DFF879
:101F1000FC0A02F0FDF9002206212520FFF7A3FDAF
:101F20002520FFF7B1FD06B010BD80B50068DFF8D1
:101F3000D01A884218D10122DFF8D41ADFF8C40A77
:101F400002F0E8FDDFF8C80A0078DFF8C81ADFF809
:101F5000C42A127B8854DFF8BC0A007B401CDFF8DF
:101F6000B41A087300F024F801BD10B40200507BCD
:101F70003C2802D0507B3D2801D1002000E0907B1E
:101F800000230BE01900C9B21144097C08180100B4
:101F900089B210EB112000F0FF005B1C1900D47B0C
:101FA000C9B2A142EED3C0B2C043C0B210BC7047A8
:101FB00080B500200090DFF8600A007800280AD081
:101FC00001281AD002282BD0032800F0B38205285C
:101FD00000F0DF82EBE20020DFF8381A0873DFF848
:101FE000340A0078002807D10120DFF82C1A087085
:101FF0000120DFF8201A0873DDE2DFF8180A4078C4
:10200000552804D10220DFF8101A087007E00020DC
:10201000DFF8041A08700020DFF8F8190873CAE224
:10202000DFF8F0098078032869D10420DFF8E81987
:1020300008700820DFF8DC19C8730320DFF8D41912
:102040004873DFF8D009407B10F00100012190FBBC
:10205000F1F1DFF8C009407B10F00200022290FB92
:10206000F2F04140DFF8AC09407B10F0040004229C
:1020700090FBF2F04140DFF89C09407B10F010002B
:10208000102290FBF2F0414040204143DFF88409E8
:10209000407B10F00200022290FBF2F2DFF874099C
:1020A000407B10F00800082390FBF3F04240DFF87B
:1020B0006409407B10F01000102390FBF3F04240C5
:1020C000DFF85009407B10F02000202390FBF3F054
:1020D000424092F00102802000FB0211DFF8340937
:1020E000407B10F03F004118DFF8280981736A46F1
:1020F0000121DFF82809006803F0CBF819E2DFF8C6
:1021000014098078F52869D10420DFF80C190870CB
:102110000820DFF80019C8733520DFF8F818487375
:10212000DFF8F008407B10F00100012190FBF1F195
:10213000DFF8E008407B10F00200022290FBF2F092
:102140004140DFF8D008407B10F00400042290FBEF
:10215000F2F04140DFF8BC08407B10F01000102284
:1021600090FBF2F0414040204143DFF8A808407B5B
:1021700010F00200022290FBF2F2DFF89808407B98
:1021800010F00800082390FBF3F04240DFF88408C9
:10219000407B10F01000102390FBF3F04240DFF87A
:1021A0007408407B10F02000202390FBF3F04240A5
:1021B00092F00102802000FB0211DFF85808407BFA
:1021C00010F03F004118DFF84C0881736A46012186
:1021D000DFF84808006803F05CF8AAE1DFF834088B
:1021E0008078E22869D10420DFF82C1808700820D4
:1021F000DFF82018C8732220DFF818184873DFF8BA
:102200001408407B10F00100012190FBF1F1DFF890
:102210000408407B10F00200022290FBF2F04140E3
:10222000DFF8F007407B10F00400042290FBF2F08E
:102230004140DFF8E007407B10F01000102290FBD7
:10224000F2F0414040204143DFF8C807407B10F0E6
:102250000200022290FBF2F2DFF8B807407B10F098
:102260000800082390FBF3F04240DFF8A807407B0A
:1022700010F01000102390FBF3F04240DFF89407B9
:10228000407B10F02000202390FBF3F0424092F0BE
:102290000102802000FB0211DFF87807407B10F07C
:1022A0003F004118DFF86C0781736A460121DFF8AF
:1022B0006C07006802F0EDFF3BE1DFF8580780781B
:1022C000C42862D10320DFF8501708700420DFF81B
:1022D00044174873DFF83C07407B10F001000121F0
:1022E00090FBF1F1DFF82C07407B10F00200022296
:1022F00090FBF2F04140DFF81C07407B10F0040037
:10230000042290FBF2F04140DFF80807407B10F018
:102310001000102290FBF2F0414040204143DFF8D2
:10232000F406407B10F00200022290FBF2F2DFF88C
:10233000E406407B10F00800082390FBF3F04240D5
:10234000DFF8D006407B10F01000102390FBF3F074
:102350004240DFF8C006407B10F02000202390FBB5
:10236000F3F0424092F00102802000FB0211DFF8FE
:10237000A406407B10F03F004118DFF898068173F7
:102380000820DFF89016C873D3E0DFF8880680785D
:10239000B42862D10320DFF8801608703420DFF8FB
:1023A00074164873DFF86C06407B10F001000121C1
:1023B00090FBF1F1DFF85C06407B10F00200022296
:1023C00090FBF2F04140DFF84C06407B10F0040037
:1023D000042290FBF2F04140DFF83806407B10F019
:1023E0001000102290FBF2F0414040204143DFF802
:1023F0002406407B10F00200022290FBF2F2DFF88C
:102400001406407B10F00800082390FBF3F04240D4
:10241000DFF80006407B10F01000102390FBF3F073
:102420004240DFF8F005407B10F02000202390FBB5
:10243000F3F0424092F00102802000FB0211DFF82D
:10244000D405407B10F03F004118DFF8C8058173C8
:102450000820DFF8C015C8736BE0DFF8B805807896
:10246000612862D10320DFF8B01508702120DFF861
:10247000A4154873DFF89C05407B10F00100012192
:1024800090FBF1F1DFF88C05407B10F00200022296
:1024900090FBF2F04140DFF87C05407B10F0040037
:1024A000042290FBF2F04140DFF86805407B10F019
:1024B0001000102290FBF2F0414040204143DFF831
:1024C0005405407B10F00200022290FBF2F2DFF88C
:1024D0004405407B10F00800082390FBF3F04240D5
:1024E000DFF83005407B10F01000102390FBF3F074
:1024F0004240DFF82005407B10F02000202390FBB5
:10250000F3F0424092F00102802000FB0211DFF85C
:102510000405407B10F03F004118DFF8F804817398
:102520000820DFF8F014C87303E00020DFF8E81497
:10253000087040E0DFF8DC04007BDFF8D814C97BCA
:10254000091D884224DB00200CE0DFF8C8140200DB
:10255000D2B21144C978DFF8BC240300DBB21A44BC
:102560001174401C0100DFF8AC24D27BC9B2914247
:10257000EBD36A460221DFF8A404006802F089FE6A
:102580000020DFF8941408700020DFF88814087326
:1025900011E0DFF88004007B0C2807DB0020DFF867
:1025A000781408700020DFF86C14087303E0002032
:1025B000DFF86414087001BD80B500F005F800F084
:1025C0005AF800F0A5F801BD80B5DFF84804407B5B
:1025D00004284FD100200BE0DFF838140200D2B2FB
:1025E0001144097CDFF838240300DBB2D154401CCD
:1025F0000100DFF82024D27BC9B29142ECD3DFF88E
:10260000200400788DF80000DFF81404B0F8010011
:10261000ADF80200DFF80804C078C0B2012806D186
:10262000DFF8FC03B0F80100ADF8020003E04FF65C
:10263000FF70ADF80200002300226946DFF8E403D2
:10264000006801F046F8002300220DF10201DFF8D6
:10265000D803006801F03DF8DFF8C40300790128D1
:1026600004D1012080F31388FFF713FA0120DFF86B
:10267000BC13087001BD80B5DFF89803407B342897
:1026800033D100200BE0DFF88C130200D2B21144EA
:10269000097CDFF89C230300DBB2D154401C01000D
:1026A000DFF87023D27BC9B29142ECD3DFF880030C
:1026B000007810F00F00DFF87C1308700023002270
:1026C000DFF87013DFF85C03006801F002F8DFF850
:1026D00060034078012804D1012080F31388FFF7BC
:1026E000D8F90120DFF85013087001BDDFF8480366
:1026F00000780021DFF840231170C0B27047DFF886
:102700002C0300780021DFF824231170C0B2704739
:1027100080B5DFF80003407B21283DD100200BE08D
:10272000DFF8F0120200D2B21144097CDFF80C236A
:102730000300DBB2D154401C0100B64AD27BC9B2BF
:102740009142EDD3BD48407901281DD1BB48B0F876
:1027500001008DF80000B948B0F8010080B2000A0D
:102760008DF80100B548B0F803008DF80200B348B9
:10277000B0F8030080B2000A8DF803006946AF4844
:10278000007800F0DBFC07E0AC484079AA2803D1D0
:10279000AA49092000F0D2FC01BD80B50023A84958
:1027A000A848006800F0DEFFA548018840F64850C0
:1027B000414349F6F67091FBF0F0A3490860A04848
:1027C0000088A24908709E48008880B2000A9F498C
:1027D00048709D4800689D4988709B480068000AC1
:1027E0009A49C87001BD80B503F088FA984908700D
:1027F00003F07EFA9649497860F3030194484170EA
:1028000003F079FA9249497860F3041190484170D5
:1028100015208F49C87101BDE0B58E4800780828A1
:1028200005DA8C480078401C8A49087002E00020D4
:102830008849087001A98748007800F0AFFC694614
:10284000092000F0ABFC83480078834908709DF8AC
:1028500004109DF805204FF4807000FB02117E48A3
:10286000A0F801109DF806109DF807204FF4807025
:1028700000FB02117848A0F803109DF8000076498B
:10288000487107BDE0B501220821744801F022FE1D
:10289000012201A95B4802F06AFA02F0EFFB5F49EE
:1028A000086002215D48006802F08CFC29E067495D
:1028B0000200D2B2895C574A0300DBB21A44117499
:1028C000401C0100534AD27BC9B29142EFD3514818
:1028D000FFF74BFB4F4908764E48C27B92B26049E6
:1028E000484802F0EDF80028F6D101225D4945483C
:1028F00002F0E6F80028F8D1012201A9414802F0CF
:1029000036FA012000900023012203214348006889
:1029100002F0C4FBC1076DD53E48407B032803D1BC
:10292000FFF73BFF0020CCE73A48407B35282ED10B
:10293000FFF759FF002009E045490200D2B2895C47
:10294000344A0300DBB21A441174401C0100314ABE
:10295000D27BC9B29142EFD32E48FFF706FB2D4937
:1029600008762C48C27B92B23D49264802F0A8F86E
:102970000028F6D101223B49224802F0A1F80028A4
:10298000F8D1012201A91F4802F0F1F9B9E7214865
:10299000407B2228B5D1FFF73FFF002009E02E49F8
:1029A0000200D2B2895C1B4A0300DBB21A441174E4
:1029B000401C0100174AD27BC9B29142EFD315489F
:1029C000FFF7D3FA134908761248C27B92B2244922
:1029D0000C4802F075F80028F6D101222149094877
:1029E00002F06EF80028F8D1012201A9054802F092
:1029F000BEF986E7800784D5FFF7DEFD81E700009A
:102A000000380140743200201810024000080140D4
:102A1000B135002088330020B03500206435002017
:102A200078340020CC340020C8340020AE3500209B
:102A300088340020B2350020AF350020A0340020BB
:102A40009A350020C43400206835002080340020EE
:102A500090340020B335002098340020000C014051
:102A600098330020A033002080B515481549086030
:102A70005FF0FF30134948604FF48070114988605F
:102A8000104803F025FA002801D0FEF76EFF01BDC3
:102A900080B500680A49884210D103F0E5FA0A4877
:102AA000006850F00060084908600748006810F0AE
:102AB00000600090009801200449086001BD0000FA
:102AC00000280040A43300201C1002403C04424275
:102AD00080B52F482F4908604FF482702D49486017
:102AE0004FF400402B49886000202A49C86000202C
:102AF000284908610020274948614FF400702549A2
:102B0000886120202349C8610020224908620020F2
:102B10002049486200201F4988620A201D49C86276
:102B20001C4803F0A7FA002801D0FEF71EFF01BDE4
:102B300018B585B0040001A8102100F013FF20682B
:102B40001349884221D11448006850F4805012493A
:102B500008601148006810F48050009000980E48FA
:102B6000006850F004000C4908600B48006810F041
:102B7000040000900098E0200190022002900320C1
:102B8000049001A9054801F0C3FB06B010BD000088
:102B900000300140A82F002018100240000801401A
:102BA00080B586B0DFF85004D0E90023CDE90023DA
:102BB00002A8102100F0D6FEDFF84004DFF8401430
:102BC00008604720DFF8381448600020DFF8301430
:102BD00088604FF6FF70DFF82814C8600020DFF827
:102BE000201408610120DFF8181448610020DFF884
:102BF00010148861DFF8080403F03EFB002801D0C0
:102C0000FEF7B3FE00200090002001906946DFF837
:102C1000F00303F04FFF002801D0FEF7A6FE0220CC
:102C200002900120039000200490002005900022D3
:102C300002A9DFF8CC0303F0CAFC002801D0FEF79C
:102C400094FE07B000BD00B589B0DFF8B803D0E945
:102C50000023CDE9002302A81C2100F083FEDFF849
:102C6000A803DFF8A81308602320DFF8A01348604A
:102C70000020DFF8981388606320DFF89013C860A5
:102C80000020DFF8881308610020DFF880138861D6
:102C9000DFF8780303F050FA002801D0FEF765FE54
:102CA00000200090002001906946DFF8600303F0E7
:102CB00001FF002801D0FEF758FE6020029000209E
:102CC00003900020049000200690002202A9DFF863
:102CD0003C0303F0E0FC002801D0FEF746FE04228E
:102CE00002A9DFF8280303F0D6FC002801D0FEF784
:102CF0003CFEDFF8180300F054F809B000BD18B529
:102D000085B0040001A8102100F02CFE2068DFF837
:102D1000EC12884230D1DFF8F802006850F400600D
:102D2000DFF8EC120860DFF8E802006810F40060D9
:102D300000900098DFF8D802006850F00400DFF837
:102D4000D0120860DFF8C802006810F0040000909C
:102D500000984FF4807001900020029002200390B0
:102D600001A9AC4801F0D4FA002205211B20FEF78E
:102D70007AFE1B20FEF788FE06B010BD81B0006809
:102D8000A14988420BD1A448006850F00200A24932
:102D90000860A148006810F002000090009801B09F
:102DA000704718B585B0040001A8102100F0DAFDC5
:102DB0002068954988421FD19548006850F010005E
:102DC000934908609248006810F010000090009845
:102DD000C0200190022002900220049001A98F4897
:102DE00001F096FA8E48006830F4406050F0E060E0
:102DF00050F440608A49086006B010BD38B584B010
:102E000004000D00684687491022FEF7FBFC0320F2
:102E10000021002207E01100C9B2615C4840694608
:102E2000C0B2085C521C11002B00C9B2DBB299423F
:102E3000F1D3C0B205B030BD80B500686F4988429B
:102E400040F0AE8000216E4803F09DFC764908609A
:102E50007548006875490968884207D37248016857
:102E600072480068091A7248016008E06E480168FB
:102E700011F580316D480068091A6D4801606C4891
:102E80000068A738032802D200206A490870684801
:102E90000068801E0321B0FBF1F0401C6649654AC2
:102EA00012788854644863490978405C0D2809DB2E
:102EB000614860490978405C0C385F495D4A127886
:102EC000885404E000205C495A4A127888545948D2
:102ED0000078082857D106215848FFF78FFF584936
:102EE0000870574800785449097A88424BD15248B3
:102EF0008078102847DA5048C078102843DA4E48C6
:102F0000007910283FDA4C4881784FF480724A48A3
:102F1000C07880B2000102FB0101474800794118E6
:102F2000484801804748008847490988884207D2B5
:102F30004548018843480088091A4448018006E052
:102F40004048018840480088091A404801803F48AD
:102F5000008803280ADA3B4801880A2041433C489C
:102F600001803C480088401C3A4908800023002228
:102F700037493948006800F0ACFB00F0DCFA314812
:102F80000088314908802B480078092804DA29484C
:102F90000078401C274908702348006823490860CE
:102FA00001BD80B50021194803F0FDF80421174840
:102FB00003F0F9F80021124803F098F95FF0FF30B0
:102FC00000900123012201212448006802F066F8E4
:102FD0000023002222492348006800F0C3FB204858
:102FE00000880A49096848631D48408807490968FC
:102FF0008863E3E700000000249B0008002C0140E8
:10300000E43100202C9B0008000400402C320020FA
:1030100018100240000801401C100240001001403E
:1030200004000140B49A00084435002048350020CF
:103030004C350020AC3500205C3400205E3400208C
:10304000AD350020943500209635002098350020BD
:103050009035002092350020C4340020D834002060
:1030600040350020D034002080B5DFF81803DFF8A9
:10307000181308606420DFF8101348600020DFF8A0
:10308000081388600020DFF80013C8604FF4804008
:10309000DFF8F41208610020BB4948610020BA49FA
:1030A00088610020B849C8610020B7490862B64865
:1030B00003F03EFD002801D0FEF757FC01BD18B516
:1030C00085B0040001A8102100F04CFC2068AD4937
:1030D000884222D1AD48006850F00800AB49086032
:1030E000AA48006810F00800009000984FF4406073
:1030F0000190122002900320049001A9A44801F03D
:1031000007F9A448006850F48000A2490860A1486B
:10311000006810F480000090009806B010BD10B454
:103120009D4B0400E4B233F824300B809A49C0B2BE
:1031300001EB80004088108010BC704770B4002202
:10314000964BC0B20001184400230AE01C00E4B210
:103150000C5D45681E00F6B2AD5DAC4200D00122A8
:103160005B1C1C00E4B28589A4B2AC42EED3D2B29F
:10317000002A11D002224270002207E01300DBB2C5
:10318000CB5C44681500EDB26355521C1300DBB2F2
:1031900084899BB2A342F1D370BC704710B47F4ABC
:1031A000C0B200011044002207E043681400E4B2FA
:1031B0001B5D1400E4B20B55521C1300DBB2848972
:1031C0009BB2A342F1D310BC70477FB504000D0041
:1031D0001600FF200290300080B20190009501237C
:1031E000220092B2A121684803F04EFE0028F0D1DF
:1031F0000A2000F0BFF97FBD7FB504000D00160066
:1032000040F6FF700290300080B2019000950123DB
:10321000220092B2A0215C4803F082FD0028EFD189
:103220000A2000F0A7F97FBD30B40200002000247E
:1032300005E02300DBB2D35C1818C0B2641C230085
:10324000DBB20D009BB2ADB2AB42F2D3D0F1FF00C6
:10325000C0B2C0B230BC70471FB52B225049F0201D
:10326000FFF7B3FF00241EE04E4909688968020099
:10327000D2B2895C4B4A126852680300DBB2D15467
:103280000221484A12685170401C0100C9B2454AE7
:103290001268928989B29142E6D3424800681030A0
:1032A00040490860641C2000C0B20C282CDA3D485C
:1032B0000068828969463B480068C089FFF785FF3E
:1032C0003848006881896846FFF7AEFF344922001C
:1032D000D2B2895CC0B2884214D100200100C9B2C8
:1032E000304A1268928989B29142D6D26946020068
:1032F000D2B2895C2B4A126852680300DBB2D15407
:10330000401CEBE70020C0E71FBD80B526480078D1
:103310000C2830DA254800684078022820D123485C
:1033200000688189214800684068FFF77DFF8DF8BB
:1033300000001E48006882891C48006841681B48DC
:103340000068C089FFF758FF0020184909684870D5
:103350000122694614480078F03080B2FFF74CFF34
:1033600011480078401C104908701048006810305F
:103370000E49086005E000200B49087007480B491A
:10338000086001BD005800400030002018100240C5
:10339000000C01401C100240343300202C0000209F
:1033A00050340020EC0000209D350020F00000206B
:1033B00080B5FFF751FFFFF7A8FF642000F0DAF8AF
:1033C000F9E70000EFF3058000280CD1EFF310803F
:1033D000002808D1DFF8D4010068022806D1EFF3F5
:1033E0001180002802D07FF005000CE0DFF8BC015E
:1033F0000068002805D10120DFF8B0110860002026
:1034000001E05FF0FF30704780B5EFF305800028E2
:103410000CD1EFF31080002808D1DFF8900100688C
:10342000022806D1EFF31180002802D07FF00500BA
:103430000EE0DFF878010068012807D10220DFF8EC
:103440006C11086004F0A7FA002001E05FF0FF3083
:1034500002BDF0B585B000230493EFF30583002B84
:1034600066D1EFF31083002B62D1DFF840311B6887
:10347000022B03D1EFF31183002B59D10300002B52
:1034800056D08025182300248DF80C4003AC5FF043
:10349000FF36002A2ED01768002F00D014689769D5
:1034A000002F00D09369002B04D0392B02D217795A
:1034B000FF0701D500203CE05769002F01D0556976
:1034C000AD089768002F0AD0D7685C2F07D317691B
:1034D000002F04D05769002F01D001260BE0976818
:1034E000002F08D1D768002F05D11769002F02D10E
:1034F000002600E00026012E0BD196680296126984
:10350000019200930B002A00210004F0E7F80490D8
:103510000EE0002E0CD104AA019200930B002A00A9
:1035200092B2210004F01BF9012801D00020049080
:10353000049805B0F0BDEFF3058000280CD1EFF33F
:103540001080002808D1DFF864000068022806D146
:10355000EFF31180002802D07FF0050009E0002081
:103560005FF08051DFF8B4201160BFF34F8FBFF3DD
:103570006F8F704710B5EFF3058100290CD1EFF381
:103580001081002908D1DFF898100968022906D1B6
:10359000EFF31181002902D07FF0050404E000243C
:1035A000002801D004F0D1F9200010BDA83400207B
:1035B00080B50021EFF30582002A2DD1EFF31082B0
:1035C000002A29D1DFF84C221268022A03D1EFF336
:1035D0001182002A20D15FF0FF3300280FD08268CB
:1035E000002A04D0C268202A01D3012308E082689F
:1035F000002A05D1C268002A02D1002300E000237E
:10360000012B04D1806801F015FD010004E0002BBE
:1036100002D101F033FD0100080002BD04ED00E01D
:10362000A83400207CB514000025EFF30582002AA1
:103630004DD1EFF31082002A49D1DFF8D82112686A
:10364000022A03D1EFF31182002A40D100283ED094
:1036500000293CD05FF0FF33002C1DD0A268002A67
:103660000CD0E268502A09D32269002A06D0626988
:1036700001FB00F6B24201D301230EE0A268002A4A
:103680000BD1E268002A08D12269002A05D16269BB
:10369000002A02D1002300E00023012B07D10022E1
:1036A0000092A368226904F006FE050005E0002BE5
:1036B00003D1002204F052FE0500002D07D0002C9B
:1036C00001D0216800E00021280005F06DF92800F4
:1036D00076BD38B51C000025EFF30582002A0BD11A
:1036E000EFF31082002A07D14A4A1268022A23D136
:1036F000EFF31182002A1FD0002803D0002901D047
:10370000002C02D07FF003052AE000220092002363
:103710006A4604F027FF012802D07FF002051FE06F
:10372000009800281CD05FF080503B490860BFF330
:103730004F8FBFF36F8F13E0002801D0002902D113
:103740007FF003050CE00023220004F040FE012876
:1037500006D0002C02D07FF0010501E07FF00205C9
:10376000280032BD38B51C000025EFF30582002A81
:103770000BD1EFF31082002A07D1264A1268022AE1
:1037800022D1EFF31182002A1ED0002803D0002995
:1037900001D0002C02D07FF0030528E00022009227
:1037A0006A4604F0FDFF012802D07FF002051EE00A
:1037B000009800281BD05FF0805017490860BFF3C5
:1037C0004F8FBFF36F8F12E0002801D0002902D184
:1037D0007FF003050BE0220004F032FF012806D041
:1037E000002C02D07FF0010501E07FF002052800E7
:1037F00032BD0000094B036009480860802010605A
:103800007047084B0360084808604FF480701060F0
:1038100070470000A834002004ED00E0F02E0020E6
:10382000502C00204C2F00206425002080B5314A08
:1038300002210120FFF7F6FE2F4908602F4A0221DE
:103840000120FFF7EFFE2E4908602E4A01210120DA
:10385000FFF7E8FE2C4908602C4A04210120FFF7FD
:10386000E1FE2B4908602B4A00210FF25D00FFF7B3
:10387000F0FD29490860294A00212948FFF7E9FDA0
:1038800028490860284A00212848FFF7E2FD284916
:103890000860284A00212848FFF7DBFD2749086017
:1038A000274A00212748FFF7D4FD27490860274A07
:1038B00000212748FFF7CDFD264908602648FFF77D
:1038C00077FE2649086001BD80B501224FF4807162
:1038D000234800F0FFFD4FF4FA70FFF74BFE002283
:1038E0004FF480711E4800F0F5FD4FF4FA70FFF7B9
:1038F00041FEEAE7F0990008C4340020089A000865
:10390000C8340020209A0008CC340020389A0008DF
:10391000D034002054980008AC3400207898000877
:10392000231D0008B03400209C980008852800085A
:10393000B4340020C0980008A32F0008B834002039
:10394000E4980008355D0008BC34002008990008A0
:10395000B1330008C0340020749A0008D834002025
:1039600000100140002205F059B800007CB50400A9
:10397000002C01D1012035E22078C00740F184807D
:10398000DFF89006006810F00C0004280BD0DFF878
:103990008406006810F00C0008280ED1DFF87406C9
:1039A0000068C00309D5DFF86806006880036BD59E
:1039B0006068002868D1012014E26068B0F5803F9B
:1039C00008D1DFF84C06006850F48030DFF840166C
:1039D000086038E06068002810D1DFF8340600681D
:1039E00030F48030DFF828160860DFF8240600681D
:1039F00030F48020DFF81816086024E06068B0F525
:103A0000A02F10D1DFF80806006850F48020DFF8FE
:103A100000160860DFF8F805006850F48030DFF821
:103A2000F01508600FE0DFF8E805006830F480303A
:103A3000DFF8DC150860DFF8D805006830F4802076
:103A4000DFF8CC150860606800280ED005F000F89B
:103A50000500DFF8BC050068800315D404F0F8FF0A
:103A6000401B6528F5D30320BCE104F0F1FF0500FD
:103A7000DFF89C050068800306D504F0E9FF401BD1
:103A80006528F5D30320ADE12078800726D5DFF83F
:103A90008405006810F00C0F0BD0DFF87805006883
:103AA00010F00C00082833D1DFF868050068C00367
:103AB0002ED4DFF85C050068800704D52069012852
:103AC00001D001208EE1DFF84805006830F0F800F1
:103AD000616950EAC100DFF83815086020780007F6
:103AE0004ED5A069002800F081800120DFF838154C
:103AF000086004F0ADFF0500DFF8280500688007C6
:103B00003BD404F0A5FF401B0328F5D3032069E153
:103B1000206900281ED00120DFF81015086004F08D
:103B200097FF0500DFF8E8040068800706D404F07A
:103B30008FFF401B0328F5D3032053E1DFF8D004A7
:103B4000006830F0F800616950EAC100DFF8C01485
:103B50000860C3E70020DFF8D414086004F078FFA1
:103B60000500DFF8AC0400688007B7D504F070FFEB
:103B7000401B0328F5D3032034E1012000F035FA7F
:103B80002078400740F1B9800025DFF8A4040068E0
:103B9000C0000FD4DFF89804006850F08050DFF8C0
:103BA00090140860DFF88804006810F080500090DE
:103BB00000980125DFF87C040068C00529D4DFF8EF
:103BC0007404006850F48070DFF86814086004F032
:103BD0003FFF0600DFF85C040068C00519D404F05C
:103BE00037FF801B6528F5D30320FBE00020DFF8BA
:103BF0003814086004F02CFF0500DFF82804006882
:103C00008007BDD504F024FF401B0328F5D3032013
:103C1000E8E0E068012808D1DFF81C04006850F0F3
:103C20000100DFF81414086037E0E068002810D1C4
:103C3000DFF80404006840084000DFF8FC13086067
:103C4000DFF8F403006830F00400DFF8EC130860DC
:103C500023E0E068052810D1DFF8DC03006850F0AD
:103C60000400DFF8D4130860DFF8CC03006850F0DC
:103C70000100DFF8C41308600FE0DFF8BC03006840
:103C800040084000DFF8B0130860DFF8AC030068BC
:103C900030F00400DFF8A0130860E068002810D0BE
:103CA00004F0D6FE0600DFF890030068800719D400
:103CB00004F0CEFE801B41F289318842F3D3032009
:103CC00090E004F0C5FE0600DFF86C030068800792
:103CD00008D504F0BDFE801B41F289318842F3D340
:103CE00003207FE0EDB2012D07D1DFF84403006827
:103CF00030F08050DFF838130860E069002870D099
:103D0000DFF81003006810F00C00082855D0E069B7
:103D100002283FD10020DFF82413086004F098FE49
:103D20000500DFF8EC020068800106D504F090FE83
:103D3000401B0328F5D3032054E0206AB0F5803FF0
:103D400009D1DFF8D002016831F40031A0680143E5
:103D5000DFF8C0020160DFF8BC02016831F47411C1
:103D6000206A0143606A0143DFF8A8020160012074
:103D7000DFF8C812086004F06BFE0400DFF8900260
:103D8000006880012DD404F063FE001B0328F5D3E6
:103D9000032027E00020DFF8A412086004F058FE9A
:103DA0000400DFF86C02006880011AD504F050FEB0
:103DB000001B0328F5D3032014E0E069012801D19A
:103DC00001200FE0DFF84C02006810F48031226A15
:103DD000914204D110F47010616A884201D0012030
:103DE00000E0002076BD70B504000D00002C01D16C
:103DF0000120AEE0DFF84802006810F00700A8429A
:103E000011D2DFF83C020068C008C0002843DFF888
:103E100030120860DFF82802006810F00700A8429E
:103E200001D0012095E0207880071FD52078400739
:103E300007D5DFF8E001006850F4E060DFF8D41146
:103E400008602078000707D5DFF8C801006850F443
:103E50006050DFF8C0110860DFF8B801016831F088
:103E6000F001A0680143DFF8AC0101602078C007D1
:103E700033D56068012805D165480068800310D4F7
:103E8000012066E06068022805D161480068800171
:103E900007D401205DE05E480068800701D401205E
:103EA00057E05C4801688908890060680143594807
:103EB000016004F0CDFD06005648006810F00C00CB
:103EC0006168B0EB810F08D004F0C2FD801B41F2A5
:103ED00089318842F0D303203BE05948006810F054
:103EE000070085420ED256480068C008C00028432B
:103EF000534908605248006810F00700A84201D0FA
:103F0000012026E02078400707D54248016831F4B7
:103F1000E061E06801433F4801602078000708D570
:103F20003C48006830F46050216950EAC1003949CA
:103F3000086000F00FF84349364A1268C2F30312D2
:103F4000895CC840354908603548006800F08CF944
:103F5000002070BD00B585B001A83B491022FDF7D7
:103F600051FC3A480088ADF80000002000200020F5
:103F7000002000202748016811F00C00042802D01E
:103F8000082802D015E0244814E001A8C1F38342B8
:103F9000805CC9030AD569461E4A1268C2F34042D2
:103FA0008A5C1D494843B0FBF2F001E028494843D0
:103FB00000E0194805B000BD18480068704780B59A
:103FC000FFF7FAFF2349134A1268C2F30222895C01
:103FD000C84002BD80B5FFF7EFFF1E490D4A1268C9
:103FE000C2F3C222895CC84002BD81B00B49096896
:103FF000C9084FF47A72B1FBF2F14843009000BF58
:104000000098411E00910028F9D101B070470000CE
:10401000001002400410024000127A00FC00002050
:10402000F800002024100240800442420000424276
:104030001C1002400070004020100240600042420C
:1040400000200240A49A0008849A0008E2170008A1
:1040500000093D00149B00087CB5040000200020EE
:104060002078C00763D5002574480068C0000CD4D0
:104070007248006850F08050704908606F480068CE
:1040800010F080500090009801256D480068C00530
:1040900013D46B48006850F480706949086004F0DC
:1040A000D7FC060066480068C00506D404F0D0FCC2
:1040B000801B6528F6D3032050E06248006810F4A6
:1040C0004070002822D0616811F4407188421DD0F0
:1040D0005C48006830F4407001215B4A11600021A7
:1040E000594A116057490860C0070FD504F0B0FC69
:1040F000060054480068800708D404F0A9FC801B1F
:1041000041F289318842F4D3032027E04D48016809
:1041100031F44071606801434A480160EDB2012DFD
:1041200005D14648006830F0805044490860207846
:10413000800707D54548016831F44041A068014334
:10414000424801602078C00607D54048016831F434
:104150008001E06801433D480160002076BD18B54C
:1041600085B0040001A83A491022FDF74BFB3948FD
:104170000088ADF800000020002100200020002071
:10418000012C2AD0022C4BD0102C54D12F4A12686B
:10419000314B1B68DB011FD501A8C2F38343C35C0D
:1041A000D0030CD56846294C2468C4F34044005D14
:1041B000D20307D52949B1FBF0F1594302E01900B8
:1041C0002748414321480068400201D5080003E028
:1041D00048000321B0FBF1F02DE01A49096840F2D4
:1041E00002320A40B2F5817F02D14FF4004016E05E
:1041F00011F44072B2F5007F06D11A4A1268920794
:1042000002D549F640400AE011F44071B1F5407F13
:1042100005D111490968890301D54FF224400AE00C
:10422000FFF7D8FE09490968C1F38131491C4900EB
:10423000B0FBF1F0FFE706B010BD00001C1002401B
:10424000007000402010024040044242041002402E
:10425000949A00086E1900080010024000127A00BB
:1042600000093D002410024010B504004FF47A709C
:104270000D490978B0FBF1F00C490968B1FBF0F089
:10428000FDF70BFC002801D001200CE0102C09D216
:10429000002221005FF0FF30FDF7E5FB04480460D9
:1042A000002000E0012010BD02010020FC000020E1
:1042B000F800002080B51348006850F00100114953
:1042C00008601048006810F00100009000980E4847
:1042D000006850F080500C4908600B48006810F0EE
:1042E00080500090009800220F217FF00100FDF720
:1042F000BAFB0648006830F0E06050F000700349F7
:10430000086001BD181002401C100240040001406A
:10431000F8B40200002300251AE0DFF8CC010068A1
:1043200030EA0404DFF8C001046010E0DFF8BC01EB
:104330000068A043DFF8B461306048688002ECD5C3
:10434000DFF8A40100680443DFF89C0104605B1CF3
:104350000868D840002800F0BB8001269E400C6809
:104360003440B442F3D14868002827D001281AD03D
:1043700002281DD003282FD0112816D012281AD0B9
:104380005B4FB8421AD05B4FB84217D05A4FB84271
:1043900014D05A4FB84211D0594FB8420ED0594F8D
:1043A000B8420BD01AE0CD6818E0CD682D1D15E09D
:1043B000CD68083512E0CD680C350FE0886800281C
:1043C00001D1042507E08868012802D1082516617B
:1043D00001E00825566101E00025FFE7B4F5807F84
:1043E00001D2100000E0101DB4F5807F01D29E00C4
:1043F00002E0B3F10806B60007685FF00F0C1CFA84
:1044000006FC37EA0C0715FA06F63E4306604868D4
:10441000C0009CD53C48006850F001003A4E306026
:104420003948006810F001000090009837481E00DD
:10443000B60850F826600F2713F00300C0B28000C2
:104440008740BE433248824201D100270FE0314805
:10445000824201D101270AE02F48824201D102277E
:1044600005E02E48824201D1032700E0042713F023
:104470000300C0B2800087403E4324481F00BF08AD
:1044800040F827604868C00305D5254800682043E8
:10449000234E306004E022480068A043204E306084
:1044A0004868800305D51F48006820431D4E3060D2
:1044B00004E01C480068A0431A4E30604868C002FF
:1044C0007FF534AF094800682043084E306034E778
:1044D000F1BC7047D2B2002A02D089B2016102E079
:1044E00089B20904016170470C04014008040140CD
:1044F0000000111000001210000021100000221016
:104500000000311000003210181002400800014075
:1045100000080140000C014000100140001401405F
:10452000000401400404014038B50400002C01D10E
:104530000120AEE094F82000002802D12000FDF711
:1045400093FB2068006850F001002168086004F0C7
:104550007FFA050020684068C0070DD404F078FA9F
:10456000401B0B28F6D3606A50F4003060620520CF
:1045700084F8200001208CE02068006830F0020000
:104580002168086004F064FA05002068406880072C
:104590000DD504F05DFA401B0B28F6D3606A50F489
:1045A00000306062052084F82000012071E0207E48
:1045B000012806D12068006850F08000216808605A
:1045C00005E02068006830F0800021680860607EA7
:1045D000012806D12068006850F04000216808607A
:1045E00005E02068006830F0400021680860A07E87
:1045F000012806D12068006850F02000216808607A
:1046000005E02068006830F0200021680860E07E46
:10461000012806D12068006830F010002168086089
:1046200005E02068006850F0100021680860207FD5
:10463000012806D12068006850F008002168086051
:1046400005E02068006830F0080021680860607F9D
:10465000012806D12068006850F004002168086035
:1046600005E02068006830F0040021680860A16857
:10467000E068014320690143606901436068401EAE
:1046800001432068C16100206062012084F820009D
:10469000002032BD38B5040094F82000012821D153
:1046A000022084F82000206800684008400021684B
:1046B000086004F0CDF9050020684068C0070DD5FA
:1046C00004F0C6F9401B0B28F6D3606A50F40030A2
:1046D0006062052084F82000012008E0002060626C
:1046E000002004E0606A50F400206062012032BDC6
:1046F00070B490F820500468A6688C68002CFFD035
:104700002C00E4B2012C02D0EDB2022D6ED116F0D5
:10471000E05F65D0C6F30164032C05D3416A51F410
:1047200000014162012066E00125A5401D608B6803
:10473000002B09D10B68CD6855EA43550368260163
:104740003344C3F880510AE04B688D6855EAC305CD
:10475000CB681D43036826013344C3F880510B69BD
:10476000056826013544C5F88431097D01290BD13E
:10477000016823011944D1F8841151F48071036850
:1047800025012B44C3F88411D17993791B0453EA92
:104790000163517953EA012311790B430168250123
:1047A0002944C1F88C31D17893781B0453EA016312
:1047B000517853EA012311780B4301682201114417
:1047C000C1F88831016822011144D1F8801151F0FB
:1047D0000101006822011044C0F8801100200AE0A5
:1047E000416A51F400114162012004E0416A51F430
:1047F00080214162012070BC70472DE9F84F05000F
:10480000002428684669286847682868D0F8088026
:104810002868D0F80C902868D0F810A02868D0F844
:1048200018B0F00755D55FEAC87018D5012029687F
:1048300088605FEA887003D5280004F00FF90EE065
:104840005FEA487002D554F4006408E05FEA08703B
:1048500002D554F4805402E0280004F000F95FEA25
:10486000C85019D54FF48070296888605FEA885075
:1048700003D5280004F0F4F80EE05FEA485002D5B2
:1048800054F4005408E05FEA085002D554F4804420
:1048900002E0280004F0E5F85FEAC83019D55FF4BB
:1048A0008030296888605FEA883003D5280004F0EA
:1048B000D9F80EE05FEA483002D554F4004408E02D
:1048C0005FEA083002D554F4803402E0280004F096
:1048D000CAF8300707D55FEAC96004D554F40074FC
:1048E00010202968C860700708D55FEA097005D5EF
:1048F00008202968C860280004F0B6F8B00707D57A
:104900002868C06810F0030F02D0280004F0ADF84A
:10491000700607D55FEACA6004D554F4806410209D
:1049200029680861B00608D55FEA0A7005D5082035
:1049300029680861280004F099F8F00607D528686E
:10494000006910F0030F02D0280004F090F8B003C3
:1049500007D5F80605D5102029684860280004F01E
:1049600087F8F00307D5380705D50820296848607F
:10497000280004F07EF830044DD5780748D5F005BE
:1049800006D51BF00100C0B2002801D054F001048C
:10499000B00504D55FEA8B7001D554F002047005B0
:1049A00004D55FEA4B7001D554F0040430052FD5CF
:1049B0001BF0700F2CD01BF0700BBBF1100F0FD041
:1049C000BBF1200F0FD0BBF1300F0FD0BBF1400F68
:1049D0000FD0BBF1500F0FD0BBF1600F0FD011E023
:1049E00054F008040EE054F010040BE054F02004DE
:1049F00008E054F0400405E054F0800402E054F470
:104A00008074FFE72868806930F070002968886149
:104A1000042029684860002C05D0686A04436C6251
:104A2000280004F027F8BDE8F18F000038B5040035
:104A30000D00002C01D1012041E094F83D00002838
:104A400005D1002084F83C002000FDF722FA242044
:104A500084F83D002068C06830F400502168C860C8
:104A6000200000F076FA2068006930F400602168C8
:104A700008612068406930F02A0021684861206898
:104A8000006950F48040216808612068006930F0B6
:104A900020002168086120680069054320680561DD
:104AA0002068C06850F400502168C860002020646D
:104AB000202084F83D00202084F83E00002032BDF4
:104AC00090F83D30202B23D1002903D013009BB256
:104AD000002B01D101201CE090F83C30012B01D1CA
:104AE000022016E0012380F83C3001628284C284F7
:104AF00000210164212180F83D10002180F83C1044
:104B00000168C96851F080010068C160002000E0C0
:104B10000220704780B590F83E30202B16D1002936
:104B200003D013009BB2002B01D101200FE090F8BD
:104B30003C30012B01D1022009E0012380F83C30F8
:104B40000023036392B200F012F900E0022002BDDC
:104B500038B50400206801682068C268206843698D
:104B60000020002011F00F00002807D18D0605D588
:104B7000950603D5200000F07EF9F7E0002872D0FA
:104B8000D80702D412F4907F6DD011F00100C0B2AA
:104B9000002805D0D00503D5206C50F0010020641A
:104BA000480708D513F00100C0B2002803D0206CDC
:104BB00050F002002064880708D513F00100C0B24D
:104BC000002803D0206C50F00400206408070AD5A8
:104BD000900604D413F00103DBB2002B03D0206C49
:104BE00050F008002064206C00283BD0880604D5D3
:104BF000900602D5200000F03EF920684069800947
:104C000010F00100216C090701D4002825D02000F4
:104C100000F0CCF82068406940061AD52068406949
:104C200030F0400021684861A06B00280DD00FF2E1
:104C3000B510A16B4863A06B03F044FF002811D0AE
:104C4000A06BA16B496B88470CE0200003F0A0FF2C
:104C500008E0200003F09CFF04E0200003F098FF30
:104C60000020206482E0206B01286FD1C8066DD53A
:104C7000D0066BD500200090206800680090206866
:104C800040680090009820684069400638D5A06BC5
:104C900000684168080080B2002830D00800A28D6A
:104CA00080B290422BD2E185A06B806920281FD072
:104CB0002068C06830F480702168C860206840694E
:104CC00040084000216848612068406930F0400099
:104CD00021684861202084F83E000020206320687D
:104CE000C06830F010002168C860A06B03F0C4FEFB
:104CF000A18DE08D091A89B2200003F04AFF35E04A
:104D0000A08DE18D411AE08D00281ED0080080B2F0
:104D100000281AD02068C06830F490702268D060F3
:104D2000206840694008400022685061202084F8D3
:104D30003E00002020632068C06830F01000226828
:104D4000D06089B2200003F024FF0FE0080605D5EB
:104D5000100603D5200000F04FF807E0480605D5FF
:104D6000500603D5200000F078F8FFE731BD8162DE
:104D70008285C28500210164222180F83E10002135
:104D800080F83C100168C96851F480710268D160F4
:104D90000168496951F00101026851610168C968FF
:104DA00051F020010068C160002070470168C968A7
:104DB00031F490710268D16001684969490849007D
:104DC00002685161016B012905D10168C96831F0A0
:104DD00010010268D160202180F83E10002101639B
:104DE0007047000080B5406A0021C1850021C18460
:104DF00003F0CEFE01BD000090F83D1021292AD11C
:104E00008168B1F5805F0CD10169002909D1016A7F
:104E10000988C905C90D02685160016A891C0162CF
:104E200005E0016A4A1C0262097802685160C18C7F
:104E3000491EC18489B200290BD10168C96831F0CB
:104E400080010268D1600168C96851F040010068C2
:104E5000C160002000E00220704780B50168C96889
:104E600031F040010268D160202180F83D1003F04C
:104E700091FE002002BD80B590F83E10222966D137
:104E80008168B1F5805F0DD1016900290AD1002147
:104E9000816A02685268D205D20D0A80816A891C33
:104EA000816217E0826A00218168B1F5805F05D0D8
:104EB0008168002906D10169002903D10168496888
:104EC000117004E00168496811F07F011170816A76
:104ED000491C8162C18D491EC18589B2002934D126
:104EE0000168C96831F020010268D1600168C968B1
:104EF00031F480710268D16001684969490849004C
:104F000002685161202180F83E10016B012918D1FF
:104F1000002101630168C96831F010010268D160A5
:104F200001680968C90608D500210091016809686F
:104F300000910168496800910099818D03F029FE74
:104F400001E0FCF7F2FF002002E0002000E0022078
:104F500002BD38B504002068016931F44051E068B1
:104F6000014320680161A168206901436069014330
:104F70002068C2682D48024011432068C160206843
:104F8000416931F44071A0690143206841612068A2
:104F90002749884202D1FFF71DF801E0FFF70FF81B
:104FA000192101FB00F162689200B1FBF2F1642269
:104FB000B1FBF2F2192101FB00F163689B00B1FB28
:104FC000F3F3192101FB00F16568AD00B1FBF5F1C8
:104FD0006425B1FBF5F5642101FB1533190132316C
:104FE0006423B1FBF3F313F0F00313EB0213192165
:104FF00001FB00F162689200B1FBF2F21921484313
:1050000061688900B0FBF1F06421B0FBF1F164202C
:1050100000FB1122100132306421B0FBF1F010F0DE
:105020000F00C3182068836031BD0000F3E9FFFF63
:10503000003801401CB50400002C07D1502080F33B
:105040001188BFF34F8FBFF36F8FFEE720200090D2
:105050000098202807D0502080F31188BFF34F8F8D
:10506000BFF36F8FFEE7002C06D000202060201DCC
:1050700003F091FD01202077200016BD10B52020FF
:1050800003F0D6FD0400002C06D000202060201D77
:1050900003F081FD00202077200010BD2DE9F047AE
:1050A000070014001E005FF0000A0020002F07D147
:1050B000502080F31188BFF34F8FBFF36F8FFEE74F
:1050C000884618F07F4F07D0502080F31188BFF337
:1050D0004F8FBFF36F8FFEE7B8F1000F07D150205D
:1050E00080F31188BFF34F8FBFF36F8FFEE7089DEA
:1050F00002F0CCFF002801D1002D01D1012000E0F9
:105100000020C0B2002807D1502080F31188BFF3DF
:105110004F8FBFF36F8FFEE702F08AFCD7F8009045
:1051200032004146484600F0A7F8002807D0002585
:10513000002C19D0386830EA0800386014E0002DDF
:1051400001D1012010E0002C01D05AF0807A002E0D
:1051500001D05AF0806A2A005AEA080A5146381DDE
:1051600002F0CEFD5FF0000902F06AFC002D26D0AF
:10517000002807D15FF080504A490860BFF34F8F85
:10518000BFF36F8F02F0E2FF81465FEA891014D40B
:1051900003F0F2FED7F8009032004146484600F096
:1051A0006BF8002806D0002C04D0386830EA0808D4
:1051B000C7F80080012003F0FCFE29F07F49484633
:1051C000BDE8F0872DE9F04104000F000025002024
:1051D000002C07D1502080F31188BFF34F8FBFF30D
:1051E0006F8FFEE717F07F4F07D0502080F31188B4
:1051F000BFF34F8FBFF36F8FFEE714F1040818F170
:10520000080602F015FCD8F80C2020680743276038
:1052100023E0D4F800C01CEA010C8C4511D1012018
:105220000FE057681168002011F07F4321F07F41A3
:105230005FEA431CEDD4D4F800C011EA0C0F00D093
:105240000120002808D0D80100D50D43216851F075
:105250000071100002F0E8FD3A00B242E1D120688E
:1052600030EA0505256002F0EBFB2068BDE8F0811F
:1052700080B5FFF7A7FF01BD03000020002A03D17E
:105280000B4205D0012003E00B408B4200D10120EE
:10529000704780B513000A000100034804F022F9AA
:1052A00002BD000004ED00E07152000880B5FF204F
:1052B000DFF8501A08700020DFF84C1A0870002040
:1052C000DFF8481A08700020DFF8441A0870002040
:1052D000DFF8401A08700020DFF83C1A0860002050
:1052E000DFF8381A08600020DFF8341A0880002040
:1052F000DFF82C1A48800420DFF8281A0870FF20F5
:10530000DFF8241A08700020DFF8201A0870DFF890
:10531000281B0920FDF742FF01BDDFF8140A0078C1
:10532000002803D0022817D005D327E00120DFF89A
:10533000001A087022E00220DFF8F4190870DFF884
:10534000FC0A01880A204143DFF8D00901600120EE
:10535000DFF8D819087011E0DFF8D00900780028CC
:1053600004D0DFF8C8090078042807D10020DFF84E
:10537000C01908700020DFF8C81A0870704780B59F
:10538000DFF884090078002803D0022840D030D309
:105390005AE0DFF870090078092825DADFF8A42A36
:1053A000DFF8A41ADFF85C090078FDF7B8FEDFF833
:1053B000980A00884FF6FF71884204D10020DFF878
:1053C0005019087014E0DFF8800A01880A20414370
:1053D000DFF8740A01800120DFF82C190870002022
:1053E000DFF8681A087003E00020DFF8241908705D
:1053F0002AE0DFF8540A0088DFF82019086001204D
:10540000DFF8281908700220DFF8FC1808701BE08C
:10541000DFF818090078002804D0DFF810090078B8
:10542000042811D10020DFF8E01808700020DFF810
:10543000E01808700020DFF8141A0870DFF8C408BC
:105440000078DFF8E418087001BD80B5DFF8B8080F
:105450000078002807D002286AD043D3042800F03F
:105460009E8078D3B7E0DFF89C080078092834DA0A
:10547000DFF8DC29DFF8DC19DFF888080078FDF7B1
:105480004EFEDFF8D00900884FF6FF71884206D043
:10549000DFF8BC0900884FF6FF71884204D1002074
:1054A000DFF86C1808701CE0DFF8A80901880A20F2
:1054B0004143DFF8A0090180DFF8940901880A2040
:1054C0004143DFF88C0901800120DFF83C180870A7
:1054D0000020DFF87819087003E00020DFF83018AA
:1054E000087078E0DFF86C09008800F529405F302B
:1054F000DFF828180860DFF824080168DFF81808CA
:105500000068091A4AF65F10814208D2DFF80C08D9
:10551000006800F529405F30DFF8001808600120BE
:10552000DFF8081808700220DFF8DC17087052E076
:10553000DFF8F8070078002804D0DFF8F0070078DB
:10554000042807D10320DFF8C01708700120DFF816
:10555000FC1808703FE0DFF8F8080088DFF8BC1797
:105560000860DFF8B40700686430DFF8B017096836
:1055700001F529415F31884208D3DFF8A0070068B0
:1055800000F529405F30DFF8941708600120DFF84C
:105590009C1708700420DFF8701708701BE0DFF814
:1055A0008C070078002804D0DFF8800700780428F2
:1055B00011D10020DFF8501708700020DFF85017D5
:1055C00008700020DFF884180870DFF838070078CA
:1055D000DFF85417087001BD80B5DFF82C0700789C
:1055E000002813D0022800F08F8067D3042800F031
:1055F000C280C0F09C80062800F0DF80C0F0CE8022
:10560000082800F00E81C0F0EB801CE1DFF848288C
:10561000DFF848180020FDF782FDDFF84428DFF8A6
:1056200044180120FDF77BFDDFF8300800884FF6B5
:10563000FF71884214D0DFF8200800884FF6FF7110
:1056400088420DD0DFF81C0800884FF6FF718842B1
:1056500006D0DFF80C0800884FF6FF71884204D1AD
:105660000020DFF8AC16087027E0DFF8F0070188AB
:105670000A204143DFF8E4070180DFF8DC070188F6
:105680000A204143DFF8D0070180DFF8D8070188FE
:105690000A204143DFF8CC070180DFF8C407018806
:1056A0000A204143DFF8B80701800120DFF85816CF
:1056B00008700020DFF894170870C4E0DFF89C073A
:1056C000008800F5A930BE30DFF850160860DFF81A
:1056D0004C060168DFF840060068091A4AF65F10B8
:1056E000814208D2DFF83406006800F529405F30B7
:1056F000DFF8281608600120DFF830160870022055
:10570000DFF8041608709EE0DFF820060078002815
:1057100004D0DFF818060078042807D10320DFF84A
:10572000E81508700120DFF8241708708BE0DFF817
:1057300028070088DFF8E4150860DFF8DC0500685A
:105740006430DFF8D815096801F529415F318842D6
:1057500008D3DFF8C805006800F529405F30DFF89E
:10576000BC1508600120DFF8C41508700420DFF8BC
:105770009815087067E0DFF8B4050078002804D0B9
:10578000DFF8A8050078042807D10520DFF8781590
:1057900008700220DFF8B416087054E0DFF8C40681
:1057A0000088DFF8781508600120DFF880150870A0
:1057B0000620DFF85415087045E0DFF87005007822
:1057C000002804D0DFF864050078042807D10720FA
:1057D000DFF8341508700020DFF87016087032E02A
:1057E000DFF874060088DFF834150860DFF8280554
:1057F00000686430DFF824150968884208D3DFF8B0
:105800001C05006800F529405F30DFF810150860BE
:105810000120DFF8181508700820DFF8EC14087074
:1058200011E0DFF808050078002804D0DFF8FC0458
:105830000078042807D10120DFF8CC14087000207C
:10584000DFF80816087001BD80B5DFF81C06007887
:10585000002840F07181DFF8B4040078002809D0F6
:10586000022800F0D08053D3042800F05881C0F003
:10587000438167E100220121DFF8F005FEF72AFEEF
:1058800000220221DFF8E405FEF724FE0020DFF805
:10589000E0150880DFF894040078012837D1DFF89C
:1058A000780400686430DFF874140968884210D204
:1058B0000020DFF86C1408806420DFF8641448804E
:1058C0000120DFF8481408700220DFF86014087027
:1058D0001DE0DFF8480400686430DFF83C14096814
:1058E000884210D26420DFF8381408800020DFF8E6
:1058F000301448800220DFF8141408700220DFF80A
:105900002C14087003E00420DFF80014087019E17B
:10591000DFF860050088DFF80014096888420AD2C1
:10592000DFF8F4030168DFF84C050088091ADFF896
:105930004805018009E0DFF83C050188DFF8D8035D
:105940000068091ADFF830050180DFF82C050088AF
:10595000642857DA002010E0DFF820150200D2B2E8
:10596000524201EB4201098FDFF810250300DBB240
:105970005B4202EB43025187401C0100C9B21D2962
:10598000EAD3DFF8F4040088DFF8F0140880002080
:10599000DFF8EC14088000210DE0DFF8E404028851
:1059A000DFF8D8040B00DBB230F813008218DFF800
:1059B000D0040280491C0800C0B21E28EDD3DFF8D5
:1059C000C00400881E21B0FBF1F0DFF8B414088099
:1059D000DFF848030168DFF840030268DFF8A0043D
:1059E00003880F2000FB032291420BD20320DFF833
:1059F0001C1308706420DFF8281308806420DFF887
:105A0000201348809EE0DFF86C040088DFF808135C
:105A1000096888420AD2DFF800030168DFF85404FD
:105A20000088091ADFF85004018008E0DFF8440418
:105A30000188B9480068091ADFF83C040180DFF8E2
:105A400038040088642856DA002010E0DFF82C14AF
:105A50000200D2B2524201EB4201098FDFF81C244E
:105A60000300DBB25B4202EB43025187401C0100A2
:105A7000C9B21D29EAD3DFF800040088DFF8FC135F
:105A800008800020DFF8F813088000210DE0DFF81F
:105A9000F0030288DFF8E4030B00DBB230F81300F8
:105AA0008218DFF8DC030280491C0800C0B21E28FF
:105AB000EDD3DFF8CC0300881E21B0FBF1F0DFF856
:105AC000C01308809448016894480268DFF8B00366
:105AD00003880F2000FB032291420CD203208B4944
