:020000040800F2
:10000000A83900206D960008E1920008E3920008EC
:10001000E5920008E7920008E9920008000000005D
:100020000000000000000000000000009B9100089C
:10003000EB9200080000000055910008ED920008C6
:10004000FD96000801970008059700080997000829
:100050000D970008119700081597000819970008D8
:100060001D97000821970008259700082997000888
:100070002D97000831970008359700083997000838
:100080003D97000841970008459700080193000834
:100090001193000821930008499700084D97000824
:1000A0005197000855970008599700082B930008AE
:1000B0005D97000861970008659700086997000838
:1000C0006D970008719700087597000879970008E8
:1000D0007D970008359300088197000885970008F0
:1000E000899700088D9700089197000818B585B08A
:1000F0000400002C01D10120BFE094F8A9020028DF
:1001000005D1002084F8A802200000F076FE03202C
:1001100084F8A902206800F09DFE211D83B0684686
:10012000202201F06FFB0EBC206800F08FFE00283B
:1001300004D0022084F8A90201209EE0002120685A
:1001400000F092FE00213BE001220B00DBB22820F0
:10015000434304EB030080F829200A00D2B2282090
:10016000424304EB020080F828100A00D2B20B00D0
:10017000DBB22820434304EB0300C28600220B00BD
:10018000DBB22820434304EB030080F82B2000223D
:100190000B00DBB22820434304EB03008263002200
:1001A0000B00DBB22820434304EB0300C2630022B0
:1001B0000B00DBB22820434304EB03000264491C1C
:1001C0000800C0B262689042BED3002135E0002230
:1001D0000B00DBB22820434304EB030080F86921C5
:1001E0000A00D2B22820424304EB020080F86811D2
:1001F00000220B00DBB22820434304EB030080F80D
:100200006B2100220B00DBB22820434304EB0300E8
:10021000C0F8782100220B00DBB22820434304EB16
:100220000300C0F87C2100220B00DBB228204343EE
:1002300004EB0300C0F88021491C0800C0B26268CA
:100240009042C4D3211D83B06846202201F0DAFA1F
:100250000EBC206800F00AFE002804D0022084F8BA
:10026000A902012009E0002084F82400012084F87C
:10027000A902206801F07CFA002006B010BD1FB56D
:100280000400206801F076FA000402D5200000F096
:10029000ECF8206801F06EFA40050FD52068B0F840
:1002A00044104FF6FF3001402068A0F844102000B1
:1002B00001F0EBFA0021200000F0C1F8206801F005
:1002C00059FA400408D52068B0F844104BF6FF7086
:1002D00001402068A0F84410206801F04BFA800427
:1002E00008D52068B0F844104DF6FF700140206832
:1002F000A0F84410206801F03DFAC0041DD5206824
:10030000B0F840104FF6FB7001402068A0F8401094
:100310002068B0F840104FF6F77001402068A0F850
:100320004010200001F0B2FA2068B0F844104EF6F8
:10033000FF7001402068A0F84410206801F01AFA0C
:1003400000055CD500200AE021680200D2B231F835
:1003500022106A460300DBB222F81310401C010091
:10036000C9B20829F0D32068B0F8400050F001006D
:100370002168A1F840002068B0F840104FF6FE70E8
:1003800001402068A0F840102068B0F84400400503
:10039000FAD52068B0F844104FF6FF3001402068CD
:1003A000A0F8441000200AE069460200D2B231F8F9
:1003B000121022680300DBB222F82310401C010057
:1003C000C9B20829F0D32068B0F8400050F0080006
:1003D0002168A1F840002068B0F844104FF2FF7087
:1003E00001402068A0F844102068B0F8400050F0A8
:1003F00004002168A1F84000200001F048FA2068BC
:1004000001F0B8F980050BD52068B0F844104FF61C
:10041000FF5001402068A0F84410200001F038FA95
:10042000206801F0A7F9C00508D52068B0F844108D
:100430004FF6FF6001402068A0F844101FBD10B5C2
:10044000040094F8A802012801D102200CE0012048
:1004500084F8A80284F82410C9B2206801F080F959
:10046000002084F8A802002010BD2DE9F04104000E
:1004700033E02068018848F60F70014051F40041D4
:100480002068018014F128052068B0F85000297810
:1004900010EBC100216811EB400101F20441088812
:1004A00080B28005800DE8616869E9690844686187
:1004B0000021200001F0EDF994F8240000280CD070
:1004C000A869002809D194F8240050F08000216820
:1004D000A1F84C00002084F824002068B0F8440003
:1004E000000440F1B3812068B0F8441011F00F050A
:1004F0002800C0B2002840F09C80C806B9D514F589
:10050000B47520680088010524D52068B0F8500033
:10051000297810EBC100216811EB400101F20C4178
:10052000088880B28005800DE861EB699BB2EA889B
:1005300014F52C71206801F039F92068018840F623
:100540008F70014051F0800120680180200001F08F
:10055000A1F9C2E70004C0D52068018840F68F7079
:10056000014051F08001206801802068B0F85000FF
:10057000297810EBC100216811EB400101F20C4118
:10058000088880B28005800DE861E869002811D0F4
:10059000686900280ED0EB699BB2EA886969206817
:1005A00001F004F96869E9690844686100212000E4
:1005B00001F071F92068008800058ED42168206858
:1005C000B0F85000411801F20C412869002809D107
:1005D0000A8848F2FF3002400A80088850F4004040
:1005E000088016E028693F2808D2286940082A7C3C
:1005F000D20700D5401C800208800AE02869400923
:100600002A7C12F01F0F00D1401E800250F40040DF
:100610000880206801884BF68F70014091F480516A
:1006200091F4005141F4004151F0800120680180B3
:1006300053E720682900C9B230F82160300440F146
:10064000AB8020682900C9B230F8211040F68F70C5
:10065000014051F0800120682A00D2B220F8221017
:100660002900C9B22820414304EB010010F5B477FA
:10067000387B00281CD12068B0F85000397810EB86
:10068000C100216811EB400101F20C41B1F800807A
:100690005FEA88585FEA9858404680B2002860D0E8
:1006A00043469BB2FA887969206801F07FF858E0E8
:1006B000F878022807D1320092B23900200000F009
:1006C000C8F880464DE02068397830F8211048F6A7
:1006D0008F70014041F4004151F0C00120683A7828
:1006E00020F822102068397830F8210040041CD509
:1006F0002068B0F85000397810EBC100216811EB88
:10070000400101F20441B1F800805FEA88585FEAD5
:100710009858404680B2002823D043469BB23A897D
:100720007969206801F042F81BE02068B0F85000B9
:10073000397810EBC100216811EB400101F20C4146
:10074000B1F800805FEA88585FEA9858404680B266
:10075000002806D043469BB27A897969206801F067
:1007600025F8F969404680B24118F9617869414637
:1007700089B208447861B869002804D01FFA88F863
:100780003869804504D23978200001F084F803E00C
:100790003900206800F07AFB30067FF59EAE290014
:1007A000C9B22820414304EB010010F12801206860
:1007B0002A00D2B230F8222048F60F70024052F4DC
:1007C00000422068EDB220F82520C878032807D021
:1007D000C878002804D0C878022831D1F0052FD479
:1007E0002068B0F850000A7810EBC200226812EBC3
:1007F000400202F2044212889205920D100080B26B
:100800008B69984205D28B69100080B21B1A8B61EC
:1008100001E0002088618869002804D1097820005F
:1008200001F037F859E6486913009BB21844486153
:10083000C86992B21218CA61206800F027FB4CE622
:10084000320092B2200000F0A1F846E60020BDE898
:10085000F08170B553044BD50368B3F850300C7871
:1008600013EBC403046814EB430404F20444248827
:10087000A405A40D8B692500ADB2AB4205D38D69EB
:1008800023009BB2ED1A8D6101E000238B618B691F
:10089000002B10D103680D7833F825504BF68F7379
:1008A0001D4095F4005545F4004555F0800503685A
:1008B0000E7823F8265052060ED502680B7832F8CF
:1008C000233048F68F72134043F4004353F0C003C3
:1008D00002680D7822F82530220092B2002A52D008
:1008E00023009BB20A894969006800F05FFF4AE073
:1008F0000368B3F850300C7813EBC403046814EBAE
:10090000430404F20C442488A405A40D8B6925003B
:10091000ADB2AB4205D38D6923009BB2ED1A8D6158
:1009200001E000238B618B69002B10D103680D78E7
:1009300033F825504BF68F731D4095F4005545F460
:10094000004555F0800503680E7823F826505206BE
:100950000ED402680B7832F8233048F68F721340B9
:1009600043F4004353F0C00302680D7822F82530A9
:10097000220092B2002A06D023009BB24A8949691C
:10098000006800F013FF200080B270BD70B5040055
:100990000D001600700640F101812068B0F850008B
:1009A000297810EBC100216811EB400101F20441EC
:1009B0000B889B059B0D180080B2A969884205D25F
:1009C000A969180080B2091AA96101E00020A86194
:1009D000A869002866D16878002814D121682068A9
:1009E000B0F8500041182878C00011EB400101F226
:1009F00004410A8848F2FF3002400A80088850F417
:100A0000004008800FE0687801280CD12168206838
:100A1000B0F8500041182878C00011EB400101F2F5
:100A200004410020088021686878002814D12168DA
:100A30002068B0F8500041182878C00011EB400140
:100A400001F20C410A8848F2FF3002400A8008880F
:100A500050F4004008800EE0687801280BD120682F
:100A6000B0F8500041182878C00011EB400101F2A5
:100A70000C41002008802978200000F00AFF700453
:100A800040F18B812068297830F8211048F68F706A
:100A9000014041F4404151F0800120682A7820F85B
:100AA00022107AE170040ED52068297830F82110E0
:100AB00048F68F70014041F4404151F080012068B8
:100AC0002A7820F8221095F82400012840F065814A
:100AD0006869190089B208446861E969180080B240
:100AE0004118E961286A2969884204D32B69286A78
:100AF000C01A28620DE0286A002804D19BB20020A9
:100B000085F8240005E0002085F824002B6A0020E9
:100B10002862687800282BD121682068B0F850003E
:100B200041182878C00011EB400101F20441002B6C
:100B300009D10A8848F2FF3002400A80088850F440
:100B40000040088013E03F2B07D218004008DA0766
:100B500000D5401C8002088009E01800400913F00D
:100B60001F0F00D1401E800250F4004008800EE0AC
:100B7000687801280BD121682068B0F8500041182E
:100B80002878C00011EB400101F204410B809BB2B8
:100B90002A896969206800F0F0FDFEE02068B0F85D
:100BA0005000297810EBC100216811EB400101F2DF
:100BB0000C410B889B059B0DA869190089B28842DE
:100BC00005D3A969180080B2091AA96101E00020C3
:100BD000A861A869002866D16878002814D1216826
:100BE0002068B0F8500041182878C00011EB40018F
:100BF00001F204410A8848F2FF3002400A80088866
:100C000050F4004008800FE0687801280CD121687A
:100C10002068B0F8500041182878C00011EB40015E
:100C200001F204410020088021686878002814D16E
:100C300021682068B0F8500041182878C00011EBF6
:100C4000400101F20C410A8848F2FF3002400A805C
:100C5000088850F4004008800EE0687801280BD125
:100C60002068B0F8500041182878C00011EB40010E
:100C700001F20C41002008802978200000F009FED4
:100C8000700400F18A802068297830F8211048F635
:100C90008F70014041F4404151F0800120682A7872
:100CA00020F8221079E070040ED42068297830F8FA
:100CB000211048F68F70014041F4404151F080010D
:100CC00020682A7820F8221095F82400012864D1A1
:100CD0006869190089B208446861E969180080B23E
:100CE0004118E961286A2969884204D32B69286A76
:100CF000C01A28620DE0286A002804D19BB20020A7
:100D000085F8240005E02B6A00202862002085F881
:100D100024002168687800282BD121682068B0F869
:100D2000500041182878C00011EB400101F20C413D
:100D3000002B09D10A8848F2FF3002400A80088857
:100D400050F40040088013E03F2B07D21800400801
:100D5000DA0700D5401C8002088009E0180040092D
:100D600013F01F0F00D1401E800250F40040088095
:100D70000DE0687801280AD12068B0F850004118C9
:100D80002878C00011EB400101F20C410B809BB2AE
:100D90006A896969206800F0F0FC2068297830F8D9
:100DA000211048F6BF70014091F0100191F0200130
:100DB00041F4004151F0800120682A7820F8221087
:100DC000002070BD80B51E481E49086008201D49DE
:100DD000486002201B49886000201A498861002071
:100DE0001849C8610020174908621648FFF77EF9C4
:100DF000002801D000F0B9FD01BD80B500681049A0
:100E000088421BD11048006850F400000E49086069
:100E10000D48006810F400000090009800220521A1
:100E2000132000F020FE132000F02EFE00220521EA
:100E3000142000F018FE142000F026FE01BD000072
:100E4000005C0040642900201C1002400EB4002009
:100E500003B070474FF43F41B0F8402032EA01013F
:100E6000A0F8401000207047002070470EB4012108
:100E7000A0F840100021A0F840100021A0F8441074
:100E80000021A0F85010002003B0704770B5040096
:100E90000E007078012840F0E5823069B16988421F
:100EA00001D2356900E0B569307B002812D12B00F2
:100EB0009BB2F2887169200000F05FFC2100B4F859
:100EC000500041183078C00011EB400101F204419C
:100ED0000D80B5E2F078022840F06A813069316A0D
:100EE000884280F04481307834F8201048F68F70C2
:100EF000014041F4014151F08001307824F8201084
:100F0000306A401B3062307834F82000400640F1EF
:100F100097802100707800282AD12100B4F8500071
:100F200041183078C00011EB400101F20C41002D56
:100F300009D10A8848F2FF3002400A80088850F43C
:100F40000040088013E03F2D07D228004008EA0740
:100F500000D5401C8002088009E02800400915F0F7
:100F60001F0F00D1401E800250F4004008800CE0AA
:100F70007078012809D1B4F8500041183078C000C9
:100F800011EB400101F20C410D8072892B009BB2E4
:100F900092B27169200000F0F0FB70692844706122
:100FA0003069316A884203D2306A401B306202E005
:100FB000356A00203062707800282AD12100B4F808
:100FC000500041183078C00011EB400101F204419B
:100FD000002D09D10A8848F2FF3002400A800888B3
:100FE00050F40040088013E03F2D07D2280040084D
:100FF000EA0700D5401C8002088009E0280040096B
:1010000015F01F0F00D1401E800250F400400880F0
:101010000DE0707801280AD12100B4F85000411881
:101020003078C00011EB400101F204410D8032899B
:101030002B009BB292B27169200000F09EFBFFE191
:10104000707800282AD12100B4F850004118307877
:10105000C00011EB400101F20441002D09D10A88C2
:1010600048F2FF3002400A80088850F400400880AF
:1010700013E03F2D07D228004008EA0700D5401CA6
:101080008002088009E02800400915F01F0F00D1F8
:10109000401E800250F4004008800DE07078012866
:1010A0000AD12100B4F8500041183078C00011EB8B
:1010B000400101F204410D8032892B009BB292B2B3
:1010C0007169200000F059FB706928447061306933
:1010D000316A884203D2306A401B306202E0356ACE
:1010E000002030622100707800282AD12100B4F855
:1010F000500041183078C00011EB400101F20C4162
:10110000002D09D10A8848F2FF3002400A80088881
:1011100050F40040088013E03F2D07D2280040081B
:10112000EA0700D5401C8002088009E02800400939
:1011300015F01F0F00D1401E800250F400400880BF
:101140000CE07078012809D1B4F8500041183078CB
:10115000C00011EB400101F20C410D8072892B009F
:101160009BB292B27169200000F007FB68E1336A1C
:10117000307834F8201048F68F60014041F4004187
:1011800051F08001307824F820102100B4F850008C
:1011900041183078C00011EB400101F204410B808E
:1011A00032899BB292B27169200000F0E6FA47E101
:1011B000307834F8201048F68F70014041F4014136
:1011C00051F08001307824F82010306A401B3062E2
:1011D000307834F82000400640F19A802100707881
:1011E00000282AD12100B4F8500041183078C000FE
:1011F00011EB400101F20C41002D09D10A8848F29F
:10120000FF3002400A80088850F40040088013E054
:101210003F2D07D228004008EA0700D5401C800275
:10122000088009E02800400915F01F0F00D1401E7A
:10123000800250F4004008800CE07078012809D149
:10124000B4F8500041183078C00011EB400101F2B1
:101250000C410D8072892B009BB292B27169200003
:1012600000F08BFA7069284470613069316A8842F5
:1012700003D2306A401B306202E0356A00203062DF
:10128000002D00F0DD80707800282AD12100B4F80C
:10129000500041183078C00011EB400101F20441C8
:1012A000002D09D10A8848F2FF3002400A800888E0
:1012B00050F40040088013E03F2D07D2280040087A
:1012C000EA0700D5401C8002088009E02800400998
:1012D00015F01F0F00D1401E800250F4004008801E
:1012E0000DE0707801280AD12100B4F850004118AF
:1012F0003078C00011EB400101F204410D803289C9
:101300002B009BB292B27169200000F036FA97E090
:10131000707800282AD12100B4F8500041183078A4
:10132000C00011EB400101F20441002D09D10A88EF
:1013300048F2FF3002400A80088850F400400880DC
:1013400013E03F2D07D228004008EA0700D5401CD3
:101350008002088009E02800400915F01F0F00D125
:10136000401E800250F4004008800DE07078012893
:101370000AD12100B4F8500041183078C00011EBB8
:10138000400101F204410D8032892B009BB292B2E0
:101390007169200000F0F1F97069284470613069CA
:1013A000316A884203D2306A401B306202E0356AFB
:1013B00000203062002D43D02100707800282AD10F
:1013C0002100B4F8500041183078C00011EB400102
:1013D00001F20C41002D09D10A8848F2FF30024089
:1013E0000A80088850F40040088013E03F2D07D29F
:1013F00028004008EA0700D5401C8002088009E068
:101400002800400915F01F0F00D1401E800250F443
:10141000004008800CE07078012809D1B4F8500031
:1014200041183078C00011EB400101F20C410D80F1
:1014300072892B009BB292B27169200000F09DF975
:10144000307834F8201048F6BF70014091F0100158
:1014500091F0200141F4004151F08001307824F8EE
:10146000201049E0307B002848D13069B1698842BA
:1014700004D23069B169091AB16102E0B069002192
:10148000B1612200B4F850108A183178C90012EB0B
:10149000410202F20C42002809D1118848F2FF30C3
:1014A00001401180108850F40040108013E03F2864
:1014B00007D201004908C00700D5491C88021080E6
:1014C00009E00100490910F01F0F00D1491E8802F0
:1014D00050F400401080307834F820104BF68F70B4
:1014E000014091F4805191F4005141F4004151F0D8
:1014F0008001307824F82010002070BDF078022898
:1015000040F0A380707800282ED12100B4F850005C
:1015100041183078C00011EB400101F204413069FC
:10152000002809D10A8848F2FF3002400A80088862
:1015300050F40040088016E030693F2808D2306936
:101540004008327CD20700D5401C800208800AE0A7
:1015500030694009327C12F01F0F00D1401E80021A
:1015600050F4004008800EE0707801280BD1210073
:10157000B4F8500041183078C00011EB400101F27E
:101580000441306908802100707800282ED12100A4
:10159000B4F8500041183078C00011EB400101F25E
:1015A0000C413069002809D10A8848F2FF30024016
:1015B0000A80088850F40040088016E030693F280F
:1015C00008D230694008327CD20700D5401C800226
:1015D00008800AE030694009327C12F01F0F00D108
:1015E000401E800250F4004008800DE07078012811
:1015F0000AD1B4F8500041183078C00011EB400116
:1016000001F20C4130690880F06900283FF463AFB3
:10161000307834F8200044F24001014044F24002A6
:10162000914204D044F2400108427FF454AF307834
:1016300034F8201048F68F70014041F4004151F019
:10164000C001307824F8201045E7F078012840F0F8
:1016500085803069B169884204D23069B169091A5C
:10166000B16102E0B0690021B161717800292AD12D
:101670002200B4F850108A183178C90012EB4102E8
:1016800002F20442002809D1138848F2FF310B40CE
:101690001380118851F40041118013E03F2807D2D4
:1016A00001004908C30700D5491C8902118009E0DF
:1016B0000100490910F01F0F00D1491E890251F4A1
:1016C000004111800DE0717801290AD12200B4F89F
:1016D00050108A183178C90012EB410202F204421C
:1016E00010802200717800292AD12200B4F850100D
:1016F0008A183178C90012EB410202F20C4200282C
:1017000009D1118848F2FF3001401180108850F44F
:101710000040108013E03F2807D201004908C007AD
:1017200000D5491C8802108009E00100490910F029
:101730001F0F00D1491E880250F4004010800CE0B9
:101740007178012909D1B4F850108A183178C9008C
:1017500012EB410202F20C421080BCE60120CCE602
:10176000C9B2002902D18021A0F84C100020704796
:1017700000207047B0F84400704710B49BB25B1C67
:101780005B0892B210EB420010F580600AE00A7824
:10179000491C0C782402A4B222430280801C801CC5
:1017A000491C5B1E002BF2D110BC704710B41C000A
:1017B000A4B2640892B210EB420010F5806008E019
:1017C0000288801C0A70491C120A0A70491C801C7D
:1017D000641E002CF4D1DA0701D50088087010BC13
:1017E0007047010262B38B0708D0521E11F8013B0B
:1017F00000F8013B00F024808B07F6D1830740F00E
:10180000208000BF103A07D330B4B1E83810103A46
:10181000A0E83810F9D230BC530724BFB1E8081053
:10182000A0E8081044BF51F8043B40F8043BD2073D
:1018300024BF31F8022B20F8022B44BF0B78037031
:101840007047121F17D35B0009D151F8043B20F8F1
:10185000023B1B0C121F20F8023BF6D20BE051F8A2
:10186000043B00F8013B1B0A20F8023B1B0C121F33
:1018700000F8013BF3D238BF121D521E24BF11F8ED
:10188000013B00F8013BF8D870477047704770473C
:10189000704770477047704780B500F015F900F049
:1018A00019F800F025F900F0AFF9FFF78BFA00F016
:1018B000C7FA01F0C5F801F0F7F801F05DF901F0A1
:1018C000AEF901F0BDFB01F069FD01F09BFF01F0F5
:1018D00087FDFEE700B593B009A8282102F02EF895
:1018E00004A8142102F02AF86846102102F026F814
:1018F000092009905FF480300A9000200B900120AD
:101900000D9001200F90022010905FF48030119014
:101910005FF4E010129009A802F014F8002801D03A
:1019200000F023F80F20049002200590002006907C
:101930004FF48060079000200890022104A802F074
:101940003EFA002801D000F010F8112000904FF46A
:101950000070019000200390684602F069FB0028A7
:1019600001D000F002F813B000BD72B6FEE701022C
:1019700010F007004B490A684FF6FF010A404A4938
:1019800051EA00210A434748026070474548006811
:10199000C0F302207047010049B2002908D4012297
:1019A00010F01F018A40414940B2400941F820200F
:1019B0007047020052B2002A04D409013C4A40B2E6
:1019C000115407E009013B4A40B210F00F001044E7
:1019D00000F8041C704710B410F00700D0F10703A2
:1019E000052B01D3042301E0D0F10703041D072CCC
:1019F00001D2002000E0C01E012414FA03F35B1E94
:101A000019408140012313FA00F0401E10400843A2
:101A100010BC7047BFF34F8F2248016811F4E0619A
:101A2000254801431F480160BFF34F8F00BFFDE70A
:101A300080B5411EB1F1807F01D301200EE0401E30
:101A40001E4908600F215FF0FF30FFF7B2FF002052
:101A50001B49086007201B490860002002BD80B5B3
:101A6000FFF786FF01BD70B504000D0016000020D1
:101A7000FFF78CFF32002900FFF7ADFF01002000C7
:101A800040B2FFF796FF70BD80B540B2FFF783FF0D
:101A900001BD80B5FFF7BEFF01BD80B5FFF7C8FFF0
:101AA00002BD00000CED00E00000FA0500E100E0DE
:101AB00000E400E018ED00E00400FA0514E000E0A6
:101AC00018E000E010E000E080B50848006850F041
:101AD0001000064908600320FFF7C1FF0F2002F045
:101AE000AFFB02F0D3FB002002BD0000002002404B
:101AF00000B585B06846102101F020FF3E4800681F
:101B000050F010003C4908603B48006810F010009D
:101B1000049004983848006850F020003649086066
:101B20003548006810F0200004900498324800689E
:101B300050F00400304908602F48006810F004009D
:101B4000049004982C48006850F008002A49086066
:101B50002948006810F0080004900498002240F220
:101B60000331264802F0A2FC002248F20201244878
:101B700002F09CFC00220821224802F097FC40F26F
:101B80000330009001200190002002900220039079
:101B900069461A4802F0A8FB1C2000900020019022
:101BA000002002906946154802F09EFB48F20200B0
:101BB00000900120019000200290022003906946CD
:101BC0000F4802F091FB08200090012001900020B6
:101BD00002900220039069460A4802F085FBC0206B
:101BE000009012200190032003906946054802F0FE
:101BF0007BFB05B000BD00BF181002400010014083
:101C000000080140000C014080B58248824908600C
:101C100004208149486000207F4988605FF040705F
:101C20007D49C8605FF400207B4908615FF4E000F3
:101C3000794948610020784908760020764948763D
:101C400000207549887600207349C87600207249C3
:101C500008770020704948776F4802F051FC00284F
:101C600001D0FFF782FE01BD18B585B0040001A8C0
:101C7000102101F063FE2068664988424FD1674811
:101C8000006850F00070654908606448006810F012
:101C90000070009000986248006850F008006049A9
:101CA00008605F48006810F00800009000984FF44A
:101CB00080700190002002900020039001A95948F3
:101CC00002F012FB4FF400700190022002900320FA
:101CD000049001A9534802F007FB5348006830F410
:101CE000C04050F0E06050F480404F49086000224E
:101CF00005211320FFF7B7FE1320FFF7C5FE0022D2
:101D000005211420FFF7AFFE1420FFF7BDFE0022CF
:101D100005211520FFF7A7FE1520FFF7B5FE06B039
:101D200010BD10B592B002A84049D1E90023C0E926
:101D3000002340F2016168463D4AD2E90034C0E91F
:101D4000003440F2026000220F9200220E920C91A9
:101D500000218DF8441008211091002109910021E3
:101D60000891069000208DF82C0008200A902A483F
:101D700002F07CFC9DF80F00401C8DF80F002D48F0
:101D8000008880B2000A8DF808002A4800888DF883
:101D90000900294800888DF80A002848C0798DF884
:101DA0000B002648007A8DF80C002448407A8DF804
:101DB0000D00224800788DF80000204840788DF80A
:101DC00001001E4880788DF802001C48C0788DF80C
:101DD00003001A4800798DF80400184840798DF8FE
:101DE0000500164880798DF806001448C0798DF8F2
:101DF000070005AB02AA0CA9074802F065FC04AB7A
:101E00006A4606A9044802F05FFC012001F09EFB2F
:101E1000B0E7000000640040603300201C10024066
:101E200018100240000C0140040001409496000884
:101E30009C96000882350020843500204434002020
:101E400080B5DFF8940BDFF8941B08604FF49640E0
:101E5000DFF8881B48600020DFF8801B88600020C6
:101E6000DFF8781BC8600020DFF8701B08610C20C9
:101E7000DFF8681B48610020DFF8601B88610021E3
:101E8000DFF8580B02F0BEFD002801D0FFF76DFD12
:101E900001BD18B585B0040001A8102101F04EFD68
:101EA0002068DFF8341B88423DD1DFF8340B00682E
:101EB00050F48040DFF8281B0860DFF8240B00682E
:101EC00010F4804000900098DFF8140B006850F088
:101ED0000400DFF80C1B0860DFF8040B006810F04A
:101EE0000400009000984FF40070019002200290CE
:101EF0000320049001A9DFF8EC0A02F0F5F94FF491
:101F000080600190002002900120039001A9DFF879
:101F1000D40A02F0E9F9002206212520FFF7A3FDEB
:101F20002520FFF7B1FD06B010BD80B50068DFF8D1
:101F3000A81A884218D10122DFF8AC1ADFF89C0AEF
:101F400002F0D4FDDFF8A00A0078DFF8A01ADFF86D
:101F50009C2A127B8854DFF8940A007B401CDFF82F
:101F60008C1A087300F024F801BD10B40200507BF5
:101F70003C2802D0507B3D2801D1002000E0907B1E
:101F800000230BE01900C9B21144097C08180100B4
:101F900089B210EB112000F0FF005B1C1900D47B0C
:101FA000C9B2A142EED3C0B2C043C0B210BC7047A8
:101FB00080B500200090DFF8380A007800280AD0A9
:101FC00001281AD002282BD0032800F0B38205285C
:101FD00000F0DF82EBE20020DFF8101A0873DFF870
:101FE0000C0A0078002807D10120DFF8041A0870D5
:101FF0000120DFF8F8190873DDE2DFF8F009407816
:10200000552804D10220DFF8E819087007E0002005
:10201000DFF8DC1908700020DFF8D0190873CAE275
:10202000DFF8C8098078032869D10420DFF8C019D7
:1020300008700820DFF8B419C8730320DFF8AC1962
:102040004873DFF8A809407B10F00100012190FBE4
:10205000F1F1DFF89809407B10F00200022290FBBA
:10206000F2F04140DFF88409407B10F004000422C4
:1020700090FBF2F04140DFF87409407B10F0100053
:10208000102290FBF2F0414040204143DFF85C0910
:10209000407B10F00200022290FBF2F2DFF84C09C4
:1020A000407B10F00800082390FBF3F04240DFF87B
:1020B0003C09407B10F01000102390FBF3F04240ED
:1020C000DFF82809407B10F02000202390FBF3F07C
:1020D000424092F00102802000FB0211DFF80C095F
:1020E000407B10F03F004118DFF8000981736A4619
:1020F0000121DFF80009006803F0B7F819E2DFF802
:10210000EC088078F52869D10420DFF8E41808701D
:102110000820DFF8D818C8733520DFF8D0184873C6
:10212000DFF8C808407B10F00100012190FBF1F1BD
:10213000DFF8B808407B10F00200022290FBF2F0BA
:102140004140DFF8A808407B10F00400042290FB17
:10215000F2F04140DFF89408407B10F010001022AC
:1021600090FBF2F0414040204143DFF88008407B83
:1021700010F00200022290FBF2F2DFF87008407BC0
:1021800010F00800082390FBF3F04240DFF85C08F1
:10219000407B10F01000102390FBF3F04240DFF87A
:1021A0004C08407B10F02000202390FBF3F04240CD
:1021B00092F00102802000FB0211DFF83008407B22
:1021C00010F03F004118DFF8240881736A460121AE
:1021D000DFF82008006803F048F8AAE1DFF80C08EF
:1021E0008078E22869D10420DFF8041808700820FC
:1021F000DFF8F817C8732220DFF8F0174873DFF80C
:10220000EC07407B10F00100012190FBF1F1DFF8B9
:10221000DC07407B10F00200022290FBF2F041400C
:10222000DFF8C807407B10F00400042290FBF2F0B6
:102230004140DFF8B807407B10F01000102290FBFF
:10224000F2F0414040204143DFF8A007407B10F00E
:102250000200022290FBF2F2DFF89007407B10F0C0
:102260000800082390FBF3F04240DFF88007407B32
:1022700010F01000102390FBF3F04240DFF86C07E1
:10228000407B10F02000202390FBF3F0424092F0BE
:102290000102802000FB0211DFF85007407B10F0A4
:1022A0003F004118DFF8440781736A460121DFF8D7
:1022B0004407006802F0D9FF3BE1DFF8300780787F
:1022C000C42862D10320DFF8281708700420DFF843
:1022D0001C174873DFF81407407B10F00100012140
:1022E00090FBF1F1DFF80407407B10F002000222BE
:1022F00090FBF2F04140DFF8F406407B10F0040060
:10230000042290FBF2F04140DFF8E006407B10F041
:102310001000102290FBF2F0414040204143DFF8D2
:10232000CC06407B10F00200022290FBF2F2DFF8B4
:10233000BC06407B10F00800082390FBF3F04240FD
:10234000DFF8A806407B10F01000102390FBF3F09C
:102350004240DFF89806407B10F02000202390FBDD
:10236000F3F0424092F00102802000FB0211DFF8FE
:102370007C06407B10F03F004118DFF87006817347
:102380000820DFF86816C873D3E0DFF860068078AD
:10239000B42862D10320DFF8581608703420DFF823
:1023A0004C164873DFF84406407B10F00100012111
:1023B00090FBF1F1DFF83406407B10F002000222BE
:1023C00090FBF2F04140DFF82406407B10F004005F
:1023D000042290FBF2F04140DFF81006407B10F041
:1023E0001000102290FBF2F0414040204143DFF802
:1023F000FC05407B10F00200022290FBF2F2DFF8B5
:10240000EC05407B10F00800082390FBF3F04240FD
:10241000DFF8D805407B10F01000102390FBF3F09C
:102420004240DFF8C805407B10F02000202390FBDD
:10243000F3F0424092F00102802000FB0211DFF82D
:10244000AC05407B10F03F004118DFF8A005817318
:102450000820DFF89815C8736BE0DFF890058078E6
:10246000612862D10320DFF8881508702120DFF889
:102470007C154873DFF87405407B10F001000121E2
:1024800090FBF1F1DFF86405407B10F002000222BE
:1024900090FBF2F04140DFF85405407B10F004005F
:1024A000042290FBF2F04140DFF84005407B10F041
:1024B0001000102290FBF2F0414040204143DFF831
:1024C0002C05407B10F00200022290FBF2F2DFF8B4
:1024D0001C05407B10F00800082390FBF3F04240FD
:1024E000DFF80805407B10F01000102390FBF3F09C
:1024F0004240DFF8F804407B10F02000202390FBDE
:10250000F3F0424092F00102802000FB0211DFF85C
:10251000DC04407B10F03F004118DFF8D0048173E9
:102520000820DFF8C814C87303E00520DFF8C014E2
:10253000087040E0DFF8B404007BDFF8B014C97B1A
:10254000091D884224DB00200CE0DFF8A014020003
:10255000D2B21144C978DFF894240300DBB21A44E4
:102560001174401C0100DFF88424D27BC9B291426F
:10257000EBD36A460221DFF87C04006802F075FEA6
:102580000020DFF86C1408700020DFF86014087376
:1025900011E0DFF85804007B0C2807DB0020DFF88F
:1025A000501408700020DFF84414087303E0002082
:1025B000DFF83C14087001BD80B500F005F800F0AC
:1025C0005AF800F0A5F801BD80B5DFF82004407B83
:1025D00004284FD100200BE0DFF810140200D2B223
:1025E0001144097CDFF810240300DBB2D154401CF5
:1025F0000100DFF8F823D27BC9B29142ECD3DFF8B7
:10260000F80300788DF80000DFF8EC03B0F8010063
:10261000ADF80200DFF8E003C078C0B2012806D1AF
:10262000DFF8D403B0F80100ADF8020003E04FF684
:10263000FF70ADF80200002300226946DFF8BC03FA
:10264000006801F032F8002300220DF10201DFF8EA
:10265000B003006801F029F8DFF89C030079012835
:1026600004D1012080F31388FFF713FA0120DFF86B
:102670009413087001BD80B5DFF87003407B3428E7
:1026800033D100200BE0DFF864130200D2B2114412
:10269000097CDFF874230300DBB2D154401C010035
:1026A000DFF84823D27BC9B29142ECD3DFF858035C
:1026B000007810F00F00DFF8541308700023002298
:1026C000DFF84813DFF83403006800F0EEFFDFF8AE
:1026D00038034078012804D1012080F31388FFF7E4
:1026E000D8F90120DFF82813087001BDDFF82003B6
:1026F00000780021DFF818231170C0B27047DFF8AE
:10270000040300780021DFF8FC221170C0B270478A
:1027100080B5B648407B212832D1002009E0B3497A
:102720000200D2B21144097CBA4A0300DBB2D15490
:10273000401C0100AD4AD27BC9B29142EFD3B548EB
:10274000407901281CD1B348B0F801008DF8000091
:10275000B048B0F8010080B2000A8DF80100AD4821
:10276000B0F803008DF80200AA48B0F8030080B268
:10277000000A8DF803006946A648007800F0CAFCFC
:1027800001BD80B50023A449A448006800F0D6FF2D
:10279000A148018840F64850414349F6F67091FB44
:1027A000F0F09F4908609C4800889E4908709A484C
:1027B000008880B2000A9B4948709948006899498E
:1027C000887097480068000A9649C87001BD80B5B6
:1027D00003F09FF89449087003F095F892494978FE
:1027E00060F303019048417003F090F88E494978F6
:1027F00060F304118C48417013208B49C87101BDEE
:1028000080B58A480078082805DA88480078401C96
:102810008649087002E000208449087069468348B0
:10282000007800F0A7FC81480078814908709DF885
:1028300000109DF801204FF4807000FB02117C48CD
:10284000A0F801109DF802109DF803204FF480704D
:1028500000FB02117648A0F8031001BDE0B501228B
:102860000821744801F022FE012201A95B4802F010
:102870006AFA02F0EFFB5F49086002215D480068D8
:1028800002F08CFC29E067490200D2B2895C574A09
:102890000300DBB21A441174401C0100534AD27B7E
:1028A000C9B29142EFD35148FFF75FFB4F49087619
:1028B0004E48C27B92B26049484802F0EDF80028C9
:1028C000F6D101225D49454802F0E6F80028F8D12A
:1028D000012201A9414802F036FA012000900023AC
:1028E000012203214348006802F0C4FBC1076DD5F3
:1028F0003E48407B032803D1FFF743FF0020CCE78D
:102900003A48407B35282ED1FFF761FF002009E0CF
:1029100045490200D2B2895C344A0300DBB21A4452
:102920001174401C0100314AD27BC9B29142EFD3ED
:102930002E48FFF71AFB2D4908762C48C27B92B22D
:102940003D49264802F0A8F80028F6D101223B496B
:10295000224802F0A1F80028F8D1012201A91F485D
:1029600002F0F1F9B9E72148407B2228B5D1FFF701
:1029700047FF002009E02E490200D2B2895C1B4AC1
:102980000300DBB21A441174401C0100174AD27BC9
:10299000C9B29142EFD31548FFF7E7FA1349087619
:1029A0001248C27B92B224490C4802F075F8002804
:1029B000F6D101222149094802F06EF80028F8D129
:1029C000012201A9054802F0BEF986E7800784D5F7
:1029D000FFF7F2FD81E7000000380140743200206B
:1029E0001810024000080140A23500208833002062
:1029F000A13500206435002078340020CC3400203C
:102A0000C83400209F35002088340020A3350020E2
:102A1000A0350020A03400208C350020C4340020D4
:102A2000683500208034002090340020A435002038
:102A300098340020000C014098330020A03300207F
:102A400080B51548154908605FF0FF3013494860AC
:102A50004FF4807011498860104803F00DF8002889
:102A600001D0FEF782FF01BD80B500680A498842A7
:102A700010D103F0CDF80A48006850F00060084912
:102A800008600748006810F000600090009801207E
:102A90000449086001BD000000280040A433002064
:102AA0001C1002403C04424280B52F482F49086068
:102AB0004FF482702D4948604FF400402B498860E4
:102AC00000202A49C86000202849086100202749C1
:102AD00048614FF400702549886120202349C8616E
:102AE00000202249086200202049486200201F4936
:102AF00088620A201D49C8621C4803F08FF800282C
:102B000001D0FEF732FF01BD18B585B0040001A861
:102B1000102100F013FF20681349884221D1144886
:102B2000006850F48050124908601148006810F4A1
:102B30008050009000980E48006850F004000C4946
:102B400008600B48006810F0040000900098E02036
:102B50000190022002900320049001A9054801F091
:102B6000C3FB06B010BD000000300140A82F0020BC
:102B7000181002400008014080B586B0DFF850040C
:102B8000D0E90023CDE9002302A8102100F0D6FEF1
:102B9000DFF84004DFF8401408604720DFF83814FD
:102BA00048600020DFF8301488604FF6FF70DFF8CF
:102BB0002814C8600020DFF8201408610120DFF825
:102BC000181448610020DFF810148861DFF8080449
:102BD00003F026F9002801D0FEF7C7FE0020009080
:102BE000002001906946DFF8F00303F037FD00286C
:102BF00001D0FEF7BAFE02200290012003900020CF
:102C0000049000200590002202A9DFF8CC0303F015
:102C1000B2FA002801D0FEF7A8FE07B000BD00B54B
:102C200089B0DFF8B803D0E90023CDE9002302A87A
:102C30001C2100F083FEDFF8A803DFF8A81308606A
:102C40002320DFF8A01348600020DFF89813886085
:102C50006320DFF89013C8600020DFF88813086154
:102C60000020DFF880138861DFF8780303F038F87C
:102C7000002801D0FEF779FE00200090002001908E
:102C80006946DFF8600303F0E9FC002801D0FEF795
:102C90006CFE602002900020039000200490002031
:102CA0000690002202A9DFF83C0303F0C8FA0028CE
:102CB00001D0FEF75AFE042202A9DFF8280303F030
:102CC000BEFA002801D0FEF750FEDFF8180300F02E
:102CD00054F809B000BD18B585B0040001A8102152
:102CE00000F02CFE2068DFF8EC12884230D1DFF8CB
:102CF000F802006850F40060DFF8EC120860DFF8BA
:102D0000E802006810F4006000900098DFF8D80234
:102D1000006850F00400DFF8D0120860DFF8C80245
:102D2000006810F00400009000984FF4807001904B
:102D3000002002900220039001A9AC4801F0D4FACF
:102D4000002205211B20FEF78EFE1B20FEF79CFEB5
:102D500006B010BD81B00068A14988420BD1A448DB
:102D6000006850F00200A2490860A148006810F015
:102D700002000090009801B0704718B585B00400BB
:102D800001A8102100F0DAFD2068954988421FD182
:102D90009548006850F01000934908609248006818
:102DA00010F0100000900098C020019002200290C6
:102DB0000220049001A98F4801F096FA8E4800681D
:102DC00030F4406050F0E06050F440608A490860A0
:102DD00006B010BD38B584B004000D0068468749C0
:102DE0001022FEF70FFD03200021002207E0110052
:102DF000C9B2615C48406946C0B2085C521C11000F
:102E00002B00C9B2DBB29942F1D3C0B205B030BDDC
:102E100080B500686F49884240F0AE8000216E485E
:102E200003F085FA764908607548006875490968B5
:102E3000884207D37248016872480068091A7248CC
:102E4000016008E06E48016811F580316D48006846
:102E5000091A6D4801606C480068A738032802D23F
:102E600000206A49087068480068801E0321B0FB92
:102E7000F1F0401C6649654A1278885464486349F9
:102E80000978405C0D2809DB614860490978405C9D
:102E90000C385F495D4A1278885404E000205C4990
:102EA0005A4A1278885459480078082857D1062180
:102EB0005848FFF78FFF5849087057480078544921
:102EC000097A88424BD152488078102847DA504816
:102ED000C078102843DA4E48007910283FDA4C4871
:102EE00081784FF480724A48C07880B2000102FBBA
:102EF0000101474800794118484801804748008847
:102F000047490988884207D24548018843480088D4
:102F1000091A4448018006E040480188404800887A
:102F2000091A404801803F48008803280ADA3B48D4
:102F300001880A2041433C4801803C480088401CED
:102F40003A4908800023002237493948006800F0D8
:102F5000ACFB00F0DCFA31480088314908802B488E
:102F60000078092804DA29480078401C27490870AD
:102F7000234800682349086001BD80B50021194835
:102F800002F0E5FE0421174802F0E1FE002112489C
:102F900002F080FF5FF0FF30009001230122012149
:102FA0002448006802F066F80023002222492348E2
:102FB000006800F0C3FB204800880A49096848639C
:102FC0001D484088074909688863E3E7000000005E
:102FD000CC960008002C0140E4310020D496000873
:102FE000000400402C32002018100240000801406C
:102FF0001C10024000100140040001405C960008D3
:1030000044350020483500204C3500209D350020F7
:103010005C3400205E3400209E3500208635002080
:10302000883500208A350020823500208435002034
:10303000C4340020D834002040350020D034002093
:1030400080B5DFF81803DFF8181308606420DFF894
:10305000101348600020DFF8081388600020DFF8B4
:103060000013C8604FF48040DFF8F41208610020BC
:10307000BB4948610020BA4988610020B849C8614D
:103080000020B7490862B64803F026FB002801D0AB
:10309000FEF76BFC01BD18B585B0040001A8102136
:1030A00000F04CFC2068AD49884222D1AD48006850
:1030B00050F00800AB490860AA48006810F008000A
:1030C000009000984FF4406001901220029003207D
:1030D000049001A9A44801F007F9A448006850F43D
:1030E0008000A2490860A148006810F480000090A8
:1030F000009806B010BD10B49D4B0400E4B233F844
:1031000024300B809A49C0B201EB800040881080C7
:1031100010BC704770B40022964BC0B20001184436
:1031200000230AE01C00E4B20C5D45681E00F6B204
:10313000AD5DAC4200D001225B1C1C00E4B285896D
:10314000A4B2AC42EED3D2B2002A11D00222427015
:10315000002207E01300DBB2CB5C44681500EDB23F
:103160006355521C1300DBB284899BB2A342F1D396
:1031700070BC704710B47F4AC0B2000110440022F6
:1031800007E043681400E4B21B5D1400E4B20B5581
:10319000521C1300DBB284899BB2A342F1D310BC52
:1031A00070477FB504000D001600FF20029030002C
:1031B00080B2019000950123220092B2A1216848BB
:1031C00003F036FC0028F0D10A2000F0BFF97FBDE3
:1031D0007FB504000D00160040F6FF70029030002D
:1031E00080B2019000950123220092B2A0215C4898
:1031F00003F06AFB0028EFD10A2000F0A7F97FBD99
:1032000030B402000020002405E02300DBB2D35CD0
:103210001818C0B2641C2300DBB20D009BB2ADB223
:10322000AB42F2D3D0F1FF00C0B2C0B230BC7047A5
:103230001FB52C225049F020FFF7B3FF00241EE0F9
:103240004E49096889680200D2B2895C4B4A12680B
:1032500052680300DBB2D1540221484A126851700F
:10326000401C0100C9B2454A1268928989B2914254
:10327000E6D342480068103040490860641C2000D2
:10328000C0B20C282CDA3D480068828969463B4868
:103290000068C089FFF785FF384800688189684663
:1032A000FFF7AEFF34492200D2B2895CC0B2884237
:1032B00014D100200100C9B2304A1268928989B243
:1032C0009142D6D269460200D2B2895C2B4A12687A
:1032D00052680300DBB2D154401CEBE70020C0E78A
:1032E0001FBD80B5264800780C2830DA25480068D4
:1032F0004078022820D1234800688189214800684D
:103300004068FFF77DFF8DF800001E480068828945
:103310001C48006841681B480068C089FFF758FFD7
:10332000002018490968487001226946144800784D
:10333000F03080B2FFF74CFF11480078401C104974
:1033400008701048006810300E49086005E0002041
:103350000B49087007480B49086001BD0058004040
:103360000030002018100240000C01401C100240E8
:10337000343300202C00002050340020EC000020CA
:103380008F350020F000002080B5FFF751FFFFF7D8
:10339000A8FF642000F0DAF8F9E70000EFF30580F9
:1033A00000280CD1EFF31080002808D1DFF8D401F9
:1033B0000068022806D1EFF31180002802D07FF0C8
:1033C00005000CE0DFF8BC010068002805D10120F1
:1033D000DFF8B0110860002001E05FF0FF307047B7
:1033E00080B5EFF3058000280CD1EFF310800028A2
:1033F00008D1DFF890010068022806D1EFF31180B0
:10340000002802D07FF005000EE0DFF878010068A8
:10341000012807D10220DFF86C11086004F08FF852
:10342000002001E05FF0FF3002BDF0B585B0002361
:103430000493EFF30583002B66D1EFF31083002B89
:1034400062D1DFF840311B68022B03D1EFF3118307
:10345000002B59D10300002B56D0802518230024BF
:103460008DF80C4003AC5FF0FF36002A2ED01768B1
:10347000002F00D014689769002F00D09369002BAB
:1034800004D0392B02D21779FF0701D500203CE088
:103490005769002F01D05569AD089768002F0AD0F1
:1034A000D7685C2F07D31769002F04D05769002F06
:1034B00001D001260BE09768002F08D1D768002FB4
:1034C00005D11769002F02D1002600E00026012E49
:1034D0000BD1966802961269019200930B002A00A4
:1034E000210003F0CFFE04900EE0002E0CD104AAC0
:1034F000019200930B002A0092B2210003F003FF17
:10350000012801D000200490049805B0F0BDEFF32D
:10351000058000280CD1EFF31080002808D1DFF8D7
:1035200064000068022806D1EFF31180002802D061
:103530007FF0050009E000205FF08051DFF8B42043
:103540001160BFF34F8FBFF36F8F704710B5EFF36C
:10355000058100290CD1EFF31081002908D1DFF893
:1035600098100968022906D1EFF31181002902D0D1
:103570007FF0050404E00024002801D003F0B9FF27
:10358000200010BDA834002080B50021EFF3058293
:10359000002A2DD1EFF31082002A29D1DFF84C2226
:1035A0001268022A03D1EFF31182002A20D15FF0C2
:1035B000FF3300280FD08268002A04D0C268202A76
:1035C00001D3012308E08268002A05D1C268002ADD
:1035D00002D1002300E00023012B04D1806801F018
:1035E00015FD010004E0002B02D101F033FD0100C4
:1035F000080002BD04ED00E0A83400207CB51400F2
:103600000025EFF30582002A4DD1EFF31082002A46
:1036100049D1DFF8D8211268022A03D1EFF31182D1
:10362000002A40D100283ED000293CD05FF0FF3373
:10363000002C1DD0A268002A0CD0E268502A09D3C1
:103640002269002A06D0626901FB00F6B24201D36A
:1036500001230EE0A268002A0BD1E268002A08D1FB
:103660002269002A05D16269002A02D1002300E004
:103670000023012B07D100220092A368226904F0E5
:10368000EEFB050005E0002B03D1002204F03AFC1C
:103690000500002D07D0002C01D0216800E000219A
:1036A000280004F055FF280076BD38B51C00002521
:1036B000EFF30582002A0BD1EFF31082002A07D125
:1036C0004A4A1268022A23D1EFF31182002A1FD03E
:1036D000002803D0002901D0002C02D07FF0030580
:1036E0002AE00022009200236A4604F00FFD012820
:1036F00002D07FF002051FE0009800281CD05FF088
:1037000080503B490860BFF34F8FBFF36F8F13E0CA
:10371000002801D0002902D17FF003050CE000232E
:10372000220004F028FC012806D0002C02D07FF0F3
:10373000010501E07FF00205280032BD38B51C000C
:103740000025EFF30582002A0BD1EFF31082002A47
:1037500007D1264A1268022A22D1EFF31182002AE9
:103760001ED0002803D0002901D0002C02D07FF009
:10377000030528E0002200926A4604F0E5FD0128D6
:1037800002D07FF002051EE0009800281BD05FF0F9
:10379000805017490860BFF34F8FBFF36F8F12E05F
:1037A000002801D0002902D17FF003050BE02200A0
:1037B00004F01AFD012806D0002C02D07FF001058C
:1037C00001E07FF00205280032BD0000094B0360D4
:1037D00009480860802010607047084B0360084863
:1037E00008604FF48070106070470000A83400201B
:1037F00004ED00E0F02E0020502C00204C2F002083
:103800006425002080B5314A02210120FFF7F6FE31
:103810002F4908602F4A02210120FFF7EFFE2E49B1
:1038200008602E4A01210120FFF7E8FE2C490860BC
:103830002C4A04210120FFF7E1FE2B4908602B4AA6
:1038400000210FF25D00FFF7F0FD29490860294AC9
:1038500000212948FFF7E9FD28490860284A00218E
:103860002848FFF7E2FD28490860284A0021284837
:10387000FFF7DBFD27490860274A00212748FFF7AB
:10388000D4FD27490860274A00212748FFF7CDFDCE
:10389000264908602648FFF777FE2649086001BDE3
:1038A00080B501224FF48071234800F0FFFD4FF4F2
:1038B000FA70FFF74BFE00224FF480711E4800F0B3
:1038C000F5FD4FF4FA70FFF741FEEAE7989500081E
:1038D000C4340020B0950008C8340020C895000802
:1038E000CC340020E0950008D0340020FC93000880
:1038F000AC34002020940008231D0008B0340020C0
:10390000449400085D280008B4340020689400083E
:103910007B2F0008B83400208C9400081959000847
:10392000BC340020B094000889330008C034002063
:103930001C960008D834002000100140002204F03A
:1039400041BE00007CB50400002C01D1012035E20D
:103950002078C00740F18480DFF89006006810F0FE
:103960000C0004280BD0DFF88406006810F00C006F
:1039700008280ED1DFF874060068C00309D5DFF807
:103980006806006880036BD56068002868D1012054
:1039900014E26068B0F5803F08D1DFF84C0600689B
:1039A00050F48030DFF84016086038E06068002886
:1039B00010D1DFF83406006830F48030DFF82816C4
:1039C0000860DFF82406006830F48020DFF818165D
:1039D000086024E06068B0F5A02F10D1DFF8080679
:1039E000006850F48020DFF800160860DFF8F80562
:1039F000006850F48030DFF8F01508600FE0DFF861
:103A0000E805006830F48030DFF8DC150860DFF886
:103A1000D805006830F48020DFF8CC1508606068B5
:103A200000280ED004F0E8FD0500DFF8BC050068B2
:103A3000800315D404F0E0FD401B6528F5D3032076
:103A4000BCE104F0D9FD0500DFF89C0500688003A7
:103A500006D504F0D1FD401B6528F5D30320ADE168
:103A60002078800726D5DFF88405006810F00C0F59
:103A70000BD0DFF87805006810F00C00082833D16F
:103A8000DFF868050068C0032ED4DFF85C05006825
:103A9000800704D52069012801D001208EE1DFF8DC
:103AA0004805006830F0F800616950EAC100DFF8AD
:103AB00038150860207800074ED5A069002800F06E
:103AC00081800120DFF83815086004F095FD0500BD
:103AD000DFF82805006880073BD404F08DFD401B0B
:103AE0000328F5D3032069E1206900281ED00120B6
:103AF000DFF81015086004F07FFD0500DFF8E8042A
:103B00000068800706D404F077FD401B0328F5D336
:103B1000032053E1DFF8D004006830F0F800616959
:103B200050EAC100DFF8C0140860C3E70020DFF8E6
:103B3000D414086004F060FD0500DFF8AC040068F0
:103B40008007B7D504F058FD401B0328F5D30320A8
:103B500034E1012000F035FA2078400740F1B980C7
:103B60000025DFF8A4040068C0000FD4DFF8980433
:103B7000006850F08050DFF890140860DFF8880487
:103B8000006810F08050009000980125DFF87C0458
:103B90000068C00529D4DFF87404006850F4807010
:103BA000DFF86814086004F027FD0600DFF85C0405
:103BB0000068C00519D404F01FFD801B6528F5D3EB
:103BC0000320FBE00020DFF83814086004F014FD47
:103BD0000500DFF8280400688007BDD504F00CFD5F
:103BE000401B0328F5D30320E8E0E068012808D152
:103BF000DFF81C04006850F00100DFF814140860BE
:103C000037E0E068002810D1DFF8040400684008BD
:103C10004000DFF8FC130860DFF8F403006830F0C0
:103C20000400DFF8EC13086023E0E068052810D1F9
:103C3000DFF8DC03006850F00400DFF8D4130860FC
:103C4000DFF8CC03006850F00100DFF8C41308600F
:103C50000FE0DFF8BC03006840084000DFF8B01355
:103C60000860DFF8AC03006830F00400DFF8A01350
:103C70000860E068002810D004F0BEFC0600DFF801
:103C800090030068800719D404F0B6FC801B41F251
:103C900089318842F3D3032090E004F0ADFC0600A4
:103CA000DFF86C030068800708D504F0A5FC801BD2
:103CB00041F289318842F3D303207FE0EDB2012D38
:103CC00007D1DFF84403006830F08050DFF8381384
:103CD0000860E069002870D0DFF81003006810F079
:103CE0000C00082855D0E06902283FD10020DFF8F9
:103CF0002413086004F080FC0500DFF8EC02006883
:103D0000800106D504F078FC401B0328F5D303207E
:103D100054E0206AB0F5803F09D1DFF8D002016895
:103D200031F40031A0680143DFF8C0020160DFF820
:103D3000BC02016831F47411206A0143606A0143D6
:103D4000DFF8A80201600120DFF8C812086004F063
:103D500053FC0400DFF89002006880012DD404F0C9
:103D60004BFC001B0328F5D3032027E00020DFF8DD
:103D7000A412086004F040FC0400DFF86C02006844
:103D800080011AD504F038FC001B0328F5D303206A
:103D900014E0E069012801D101200FE0DFF84C02B6
:103DA000006810F48031226A914204D110F470103E
:103DB000616A884201D0012000E0002076BD70B524
:103DC00004000D00002C01D10120AEE0DFF8480214
:103DD000006810F00700A84211D2DFF83C0200682A
:103DE000C008C0002843DFF830120860DFF828025E
:103DF000006810F00700A84201D0012095E020786B
:103E000080071FD52078400707D5DFF8E00100685C
:103E100050F4E060DFF8D41108602078000707D57F
:103E2000DFF8C801006850F46050DFF8C011086086
:103E3000DFF8B801016831F0F001A0680143DFF854
:103E4000AC0101602078C00733D56068012805D136
:103E500065480068800310D4012066E0606802288D
:103E600005D161480068800107D401205DE05E480B
:103E70000068800701D4012057E05C480168890888
:103E80008900606801435948016004F0B5FB0600F1
:103E90005648006810F00C006168B0EB810F08D044
:103EA00004F0AAFB801B41F289318842F0D3032041
:103EB0003BE05948006810F0070085420ED2564892
:103EC0000068C008C0002843534908605248006891
:103ED00010F00700A84201D0012026E0207840071A
:103EE00007D54248016831F4E061E06801433F488A
:103EF00001602078000708D53C48006830F4605025
:103F0000216950EAC1003949086000F00FF84349BF
:103F1000364A1268C2F30312895CC840354908600A
:103F20003548006800F08CF9002070BD00B585B000
:103F300001A83B491022FDF765FC3A480088ADF81E
:103F400000000020002000200020002027480168F9
:103F500011F00C00042802D0082802D015E02448F3
:103F600014E001A8C1F38342805CC9030AD5694605
:103F70001E4A1268C2F340428A5C1D494843B0FBA6
:103F8000F2F001E02849484300E0194805B000BDBF
:103F900018480068704780B5FFF7FAFF2349134AB5
:103FA0001268C2F30222895CC84002BD80B5FFF7E7
:103FB000EFFF1E490D4A1268C2F3C222895CC84055
:103FC00002BD81B00B490968C9084FF47A72B1FB90
:103FD000F2F14843009000BF0098411E0091002874
:103FE000F9D101B0704700000010024004100240F7
:103FF00000127A00FC000020F8000020241002408B
:1040000080044242000042421C1002400070004006
:104010002010024060004242002002404C960008FE
:104020002C960008E217000800093D00BC96000825
:104030007CB50400002000202078C00763D500254F
:1040400074480068C0000CD47248006850F080507A
:10405000704908606F48006810F080500090009828
:1040600001256D480068C00513D46B48006850F402
:1040700080706949086004F0BFFA0600664800686D
:10408000C00506D404F0B8FA801B6528F6D30320D7
:1040900050E06248006810F44070002822D0616847
:1040A00011F4407188421DD05C48006830F44070C3
:1040B00001215B4A11600021594A1160574908608B
:1040C000C0070FD504F098FA06005448006880072E
:1040D00008D404F091FA801B41F289318842F4D36C
:1040E000032027E04D48016831F4407160680143C6
:1040F0004A480160EDB2012D05D14648006830F014
:104100008050444908602078800707D545480168F9
:1041100031F44041A0680143424801602078C00664
:1041200007D54048016831F48001E06801433D480B
:104130000160002076BD18B585B0040001A83A4999
:104140001022FDF75FFB39480088ADF80000002021
:104150000021002000200020012C2AD0022C4BD06E
:10416000102C54D12F4A1268314B1B68DB011FD52C
:1041700001A8C2F38343C35CD0030CD56846294C25
:104180002468C4F34044005DD20307D52949B1FB3C
:10419000F0F1594302E019002748414321480068E3
:1041A000400201D5080003E048000321B0FBF1F014
:1041B0002DE01A49096840F202320A40B2F5817FC7
:1041C00002D14FF4004016E011F44072B2F5007FC6
:1041D00006D11A4A1268920702D549F640400AE011
:1041E00011F44071B1F5407F05D111490968890387
:1041F00001D54FF224400AE0FFF7D8FE09490968CB
:10420000C1F38131491C4900B0FBF1F0FFE706B072
:1042100010BD00001C100240007000402010024041
:1042200040044242041002403C9600086E19000807
:104230000010024000127A0000093D0024100240E4
:1042400010B504004FF47A700D490978B0FBF1F015
:104250000C490968B1FBF0F0FDF71FFC002801D004
:1042600001200CE0102C09D2002221005FF0FF3069
:10427000FDF7F9FB04480460002000E0012010BDB8
:1042800002010020FC000020F800002080B5134847
:10429000006850F00100114908601048006810F0F3
:1042A0000100009000980E48006850F080500C49C2
:1042B00008600B48006810F08050009000980022C1
:1042C0000F217FF00100FDF7CEFB0648006830F0BB
:1042D000E06050F000700349086001BD1810024012
:1042E0001C10024004000140F8B402000023002525
:1042F0001AE0DFF8CC01006830EA0404DFF8C001FE
:10430000046010E0DFF8BC010068A043DFF8B4618E
:10431000306048688002ECD5DFF8A40100680443EF
:10432000DFF89C0104605B1C0868D840002800F09E
:10433000BB8001269E400C683440B442F3D14868EB
:10434000002827D001281AD002281DD003282FD0FA
:10435000112816D012281AD05B4FB8421AD05B4FE2
:10436000B84217D05A4FB84214D05A4FB84211D061
:10437000594FB8420ED0594FB8420BD01AE0CD6811
:1043800018E0CD682D1D15E0CD68083512E0CD6828
:104390000C350FE08868002801D1042507E0886803
:1043A000012802D10825166101E00825566101E0C7
:1043B0000025FFE7B4F5807F01D2100000E0101D5A
:1043C000B4F5807F01D29E0002E0B3F10806B6008A
:1043D00007685FF00F0C1CFA06FC37EA0C0715FAA9
:1043E00006F63E4306604868C0009CD53C4800681D
:1043F00050F001003A4E30603948006810F001007A
:104400000090009837481E00B60850F826600F2725
:1044100013F00300C0B280008740BE43324882429E
:1044200001D100270FE03148824201D101270AE083
:104430002F48824201D1022705E02E48824201D155
:10444000032700E0042713F00300C0B28000874078
:104450003E4324481F00BF0840F827604868C00357
:1044600005D5254800682043234E306004E02248EB
:104470000068A043204E30604868800305D51F487F
:10448000006820431D4E306004E01C480068A043D3
:104490001A4E30604868C0027FF534AF09480068A2
:1044A0002043084E306034E7F1BC7047D2B2002A96
:1044B00002D089B2016102E089B20904016170474A
:1044C0000C0401400804014000001110000012100B
:1044D00000002110000022100000311000003210F6
:1044E000181002400800014000080140000C014083
:1044F0000010014000140140000401400404014088
:1045000038B50400002C01D10120AEE094F8200061
:10451000002802D12000FDF7A7FB2068006850F0BA
:1045200001002168086004F067F805002068406811
:10453000C0070DD404F060F8401B0B28F6D3606A66
:1045400050F400306062052084F8200001208CE0E7
:104550002068006830F002002168086004F04CF820
:1045600005002068406880070DD504F045F8401B21
:104570000B28F6D3606A50F400306062052084F89E
:104580002000012071E0207E012806D1206800680B
:1045900050F080002168086005E02068006830F075
:1045A000800021680860607E012806D120680068CC
:1045B00050F040002168086005E02068006830F095
:1045C000400021680860A07E012806D120680068AC
:1045D00050F020002168086005E02068006830F095
:1045E000200021680860E07E012806D1206800686C
:1045F00030F010002168086005E02068006850F085
:10460000100021680860207F012806D1206800681A
:1046100050F008002168086005E02068006830F06C
:10462000080021680860607F012806D120680068C2
:1046300050F004002168086005E02068006830F050
:10464000040021680860A168E06801432069014313
:10465000606901436068401E01432068C161002019
:104660006062012084F82000002032BD38B50400CB
:1046700094F82000012821D1022084F8200020682D
:104680000068400840002168086003F0B5FF05009D
:1046900020684068C0070DD503F0AEFF401B0B2813
:1046A000F6D3606A50F400306062052084F8200080
:1046B000012008E000206062002004E0606A50F4FD
:1046C00000206062012032BD70B490F82050046870
:1046D000A6688C68002CFFD02C00E4B2012C02D01C
:1046E000EDB2022D6ED116F0E05F65D0C6F3016425
:1046F000032C05D3416A51F400014162012066E0B8
:104700000125A5401D608B68002B09D10B68CD6881
:1047100055EA4355036826013344C3F880510AE043
:104720004B688D6855EAC305CB681D4303682601B5
:104730003344C3F880510B69056826013544C5F838
:104740008431097D01290BD1016823011944D1F875
:10475000841151F48071036825012B44C3F884113E
:10476000D17993791B0453EA0163517953EA012308
:1047700011790B43016825012944C1F88C31D178A6
:1047800093781B0453EA0163517853EA01231178AB
:104790000B43016822011144C1F8883101682201EC
:1047A0001144D1F8801151F0010100682201104438
:1047B000C0F8801100200AE0416A51F40011416202
:1047C000012004E0416A51F480214162012070BC63
:1047D00070472DE9F84F05000024286846692868CD
:1047E00047682868D0F808802868D0F80C902868B6
:1047F000D0F810A02868D0F818B0F00755D55FEAB7
:10480000C87018D50120296888605FEA887003D5D0
:10481000280003F0F7FE0EE05FEA487002D554F47A
:10482000006408E05FEA087002D554F4805402E0A6
:10483000280003F0E8FE5FEAC85019D54FF48070F5
:10484000296888605FEA885003D5280003F0DCFE01
:104850000EE05FEA485002D554F4005408E05FEAE5
:10486000085002D554F4804402E0280003F0CDFE45
:104870005FEAC83019D55FF48030296888605FEA44
:10488000883003D5280003F0C1FE0EE05FEA48300F
:1048900002D554F4004408E05FEA083002D554F42D
:1048A000803402E0280003F0B2FE300707D55FEA4B
:1048B000C96004D554F4007410202968C8607007DA
:1048C00008D55FEA097005D508202968C860280066
:1048D00003F09EFEB00707D52868C06810F0030FEC
:1048E00002D0280003F095FE700607D55FEACA6083
:1048F00004D554F48064102029680861B00608D5F6
:104900005FEA0A7005D5082029680861280003F0CD
:1049100081FEF00607D52868006910F0030F02D069
:10492000280003F078FEB00307D5F80605D510205F
:1049300029684860280003F06FFEF00307D53807A8
:1049400005D5082029684860280003F066FE300479
:104950004DD5780748D5F00506D51BF00100C0B24B
:10496000002801D054F00104B00504D55FEA8B7033
:1049700001D554F00204700504D55FEA4B7001D5EF
:1049800054F0040430052FD51BF0700F2CD01BF011
:10499000700BBBF1100F0FD0BBF1200F0FD0BBF18C
:1049A000300F0FD0BBF1400F0FD0BBF1500F0FD025
:1049B000BBF1600F0FD011E054F008040EE054F08A
:1049C00010040BE054F0200408E054F0400405E02B
:1049D00054F0800402E054F48074FFE72868806992
:1049E00030F0700029688861042029684860002C34
:1049F00005D0686A04436C62280003F00FFEBDE82E
:104A0000F18F000038B504000D00002C01D1012009
:104A100041E094F83D00002805D1002084F83C00D6
:104A20002000FDF736FA242084F83D002068C06895
:104A300030F400502168C860200000F076FA206849
:104A4000006930F40060216808612068406930F036
:104A50002A00216848612068006950F4804021687C
:104A600008612068006930F0200021680861206832
:104A700000690543206805612068C06850F4005053
:104A80002168C86000202064202084F83D00202098
:104A900084F83E00002032BD90F83D30202B23D119
:104AA000002903D013009BB2002B01D101201CE090
:104AB00090F83C30012B01D1022016E0012380F850
:104AC0003C3001628284C28400210164212180F88B
:104AD0003D10002180F83C100168C96851F0800148
:104AE0000068C160002000E00220704780B590F8A7
:104AF0003E30202B16D1002903D013009BB2002B8F
:104B000001D101200FE090F83C30012B01D10220AF
:104B100009E0012380F83C300023036392B200F0E7
:104B200012F900E0022002BD38B5040020680168D7
:104B30002068C268206843690020002011F00F003F
:104B4000002807D18D0605D5950603D5200000F075
:104B50007EF9F7E0002872D0D80702D412F4907FD3
:104B60006DD011F00100C0B2002805D0D00503D5EA
:104B7000206C50F001002064480708D513F00100B4
:104B8000C0B2002803D0206C50F0020020648807D7
:104B900008D513F00100C0B2002803D0206C50F0FB
:104BA0000400206408070AD5900604D413F001031A
:104BB000DBB2002B03D0206C50F008002064206C86
:104BC00000283BD0880604D5900602D5200000F0CE
:104BD0003EF920684069800910F00100216C090746
:104BE00001D4002825D0200000F0CCF820684069CE
:104BF00040061AD52068406930F0400021684861BD
:104C0000A06B00280DD00FF2B510A16B4863A06B0C
:104C100003F02CFD002811D0A06BA16B496B8847D5
:104C20000CE0200003F088FD08E0200003F084FD84
:104C300004E0200003F080FD0020206482E0206B6F
:104C400001286FD1C8066DD5D0066BD50020009025
:104C500020680068009020684068009000982068F4
:104C60004069400638D5A06B00684168080080B2F2
:104C7000002830D00800A28D80B290422BD2E1856E
:104C8000A06B806920281FD02068C06830F4807035
:104C90002168C86020684069400840002168486178
:104CA0002068406930F0400021684861202084F885
:104CB0003E00002020632068C06830F010002168AA
:104CC000C860A06B03F0ACFCA18DE08D091A89B21D
:104CD000200003F032FD35E0A08DE18D411AE08D1A
:104CE00000281ED0080080B200281AD02068C068B2
:104CF00030F490702268D06020684069400840001D
:104D000022685061202084F83E0000202063206843
:104D1000C06830F010002268D06089B2200003F033
:104D20000CFD0FE0080605D5100603D5200000F0A5
:104D30004FF807E0480605D5500603D5200000F0DF
:104D400078F8FFE731BD81628285C2850021016468
:104D5000222180F83E10002180F83C100168C968CB
:104D600051F480710268D1600168496951F0010114
:104D7000026851610168C96851F020010068C16092
:104D8000002070470168C96831F490710268D160F1
:104D9000016849694908490002685161016B0129AC
:104DA00005D10168C96831F010010268D160202185
:104DB00080F83E10002101637047000080B5406A12
:104DC0000021C1850021C18403F0B6FC01BD0000B3
:104DD00090F83D1021292AD18168B1F5805F0CD16E
:104DE0000169002909D1016A0988C905C90D02684C
:104DF0005160016A891C016205E0016A4A1C026275
:104E0000097802685160C18C491EC18489B20029A9
:104E10000BD10168C96831F080010268D160016876
:104E2000C96851F040010068C160002000E0022024
:104E3000704780B50168C96831F040010268D160EF
:104E4000202180F83D1003F079FC002002BD80B5E0
:104E500090F83E10222966D18168B1F5805F0DD1AE
:104E6000016900290AD10021816A02685268D205CD
:104E7000D20D0A80816A891C816217E0826A002152
:104E80008168B1F5805F05D08168002906D101698C
:104E9000002903D101684968117004E0016849687C
:104EA00011F07F011170816A491C8162C18D491E18
:104EB000C18589B2002934D10168C96831F0200167
:104EC0000268D1600168C96831F480710268D160FC
:104ED000016849694908490002685161202180F848
:104EE0003E10016B012918D1002101630168C968D6
:104EF00031F010010268D16001680968C90608D55F
:104F000000210091016809680091016849680091D9
:104F10000099818D03F011FC01E0FDF706F80020F7
:104F200002E0002000E0022002BD38B50400206845
:104F3000016931F44051E068014320680161A168D2
:104F400020690143606901432068C2682D4802401E
:104F500011432068C1602068416931F44071A06943
:104F600001432068416120682749884202D1FFF748
:104F70001DF801E0FFF70FF8192101FB00F162684D
:104F80009200B1FBF2F16422B1FBF2F2192101FBB4
:104F900000F163689B00B1FBF3F3192101FB00F101
:104FA0006568AD00B1FBF5F16425B1FBF5F5642151
:104FB00001FB1533190132316423B1FBF3F313F014
:104FC000F00313EB0213192101FB00F16268920058
:104FD000B1FBF2F21921484361688900B0FBF1F09E
:104FE0006421B0FBF1F1642000FB1122100132308A
:104FF0006421B0FBF1F010F00F00C318206883604B
:1050000031BD0000F3E9FFFF003801401CB504008A
:10501000002C07D1502080F31188BFF34F8FBFF3CE
:105020006F8FFEE7202000900098202807D05020A6
:1050300080F31188BFF34F8FBFF36F8FFEE7002C13
:1050400006D000202060201D03F079FB012020778E
:10505000200016BD10B5202003F0BEFB0400002C7C
:1050600006D000202060201D03F069FB002020777F
:10507000200010BD2DE9F047070014001E005FF06E
:10508000000A0020002F07D1502080F31188BFF3C1
:105090004F8FBFF36F8FFEE7884618F07F4F07D022
:1050A000502080F31188BFF34F8FBFF36F8FFEE75F
:1050B000B8F1000F07D1502080F31188BFF34F8F54
:1050C000BFF36F8FFEE7089D02F0B4FD002801D109
:1050D000002D01D1012000E00020C0B2002807D13E
:1050E000502080F31188BFF34F8FBFF36F8FFEE71F
:1050F00002F072FAD7F8009032004146484600F0BC
:10510000A7F8002807D00025002C19D0386830EA0D
:105110000800386014E0002D01D1012010E0002CBF
:1051200001D05AF0807A002E01D05AF0806A2A000D
:105130005AEA080A5146381D02F0B6FB5FF0000932
:1051400002F052FA002D26D0002807D15FF08050DF
:105150004A490860BFF34F8FBFF36F8F02F0CAFD5B
:1051600081465FEA891014D403F0DAFCD7F8009086
:1051700032004146484600F06BF8002806D0002C6B
:1051800004D0386830EA0808C7F80080012003F02E
:10519000E4FC29F07F494846BDE8F0872DE9F0415D
:1051A00004000F0000250020002C07D1502080F3C0
:1051B0001188BFF34F8FBFF36F8FFEE717F07F4F5C
:1051C00007D0502080F31188BFF34F8FBFF36F8F4C
:1051D000FEE714F1040818F1080602F0FDF9D8F80A
:1051E0000C2020680743276023E0D4F800C01CEAA5
:1051F000010C8C4511D101200FE057681168002087
:1052000011F07F4321F07F415FEA431CEDD4D4F8D5
:1052100000C011EA0C0F00D00120002808D0D801EE
:1052200000D50D43216851F00071100002F0D0FB51
:105230003A00B242E1D1206830EA0505256002F06B
:10524000D3F92068BDE8F08180B5FFF7A7FF01BD65
:1052500003000020002A03D10B4205D0012003E007
:105260000B408B4200D10120704780B513000A002B
:105270000100034803F00AFF02BD000004ED00E056
:1052800049520008FF20DFF8641708700020DFF89B
:10529000601708700020DFF85C1708700020DFF846
:1052A000581708600020DFF8541708600020DFF866
:1052B000501708800020DFF8481748800420DFF8E6
:1052C00044170870FF20DFF8401708700020DFF84F
:1052D0003C1708707047DFF838070078002803D0C3
:1052E000022817D005D327E00120DFF82417087023
:1052F00022E00220DFF818170870DFF8180701888D
:105300000A204143DFF8F40601600120DFF8FC16B3
:10531000087011E0DFF8F4060078002804D0DFF808
:10532000EC060078042807D10020DFF8E4160870A6
:105330000020DFF8BC160870704780B5DFF8D8068B
:105340000078002807D002286AD043D3042800F050
:105350009E8078D3B7E0DFF894060078092834DA25
:10536000DFF8B826DFF8B816DFF880060078FDF71A
:10537000C2FEDFF8AC0600884FF6FF71884206D007
:10538000DFF8980600884FF6FF71884204D10020AC
:10539000DFF85C1608701CE0DFF8840601880A203C
:1053A0004143DFF87C060180DFF8700601880A209F
:1053B0004143DFF8680601800120DFF85C160870C1
:1053C0000020DFF83016087003E00020DFF8201618
:1053D000087078E0DFF84806008800F529405F3063
:1053E000DFF818160860DFF814060168DFF8080611
:1053F0000068091A4AF65F10814208D2DFF8FC05FE
:10540000006800F529405F30DFF8F01508600120E2
:10541000DFF8F81508700220DFF8FC15087052E07C
:10542000DFF8E8050078002804D0DFF8E005007810
:10543000042807D10320DFF8E01508700120DFF809
:10544000B41508703FE0DFF8D4050088DFF8AC152C
:105450000860DFF8A40500686430DFF8A01509686B
:1054600001F529415F31884208D3DFF890050068D3
:1054700000F529405F30DFF8841508600120DFF86F
:105480008C1508700420DFF8901508701BE0DFF819
:105490007C050078002804D0DFF870050078042827
:1054A00011D10020DFF8701508700020DFF84015DA
:1054B00008700020DFF83C150870DFF83005007830
:1054C000DFF84415087001BD80B5DFF85805007895
:1054D000002809D0022800F0D08053D3042800F01F
:1054E0005881C0F0468160E100220121DFF83805D3
:1054F000FEF7DCFF00220221DFF82C05FEF7D6FFC5
:105500000020DFF828150880DFF800050078012862
:1055100037D1DFF8E40400686430DFF8E01409688C
:10552000884210D20020DFF8D81408806420DFF809
:10553000D01448800120DFF8EC1408700220DFF856
:10554000CC1408701DE0DFF8B40400686430DFF8A4
:10555000A8140968884210D26420DFF8A4140880D7
:105560000020DFF89C1448800220DFF8B81408708F
:105570000220DFF89814087003E00420DFF8A41478
:10558000087012E1DFF8A8040088DFF86C140968DD
:1055900088420AD2DFF860040168DFF894040088CA
:1055A000091ADFF89004018009E0DFF8840401881B
:1055B000DFF844040068091ADFF878040180DFF896
:1055C00074040088642857DA002010E0DFF86814BB
:1055D0000200D2B2524201EB4201098FDFF8582497
:1055E0000300DBB25B4202EB43025187401C010027
:1055F000C9B21D29EAD3DFF83C040088DFF838146B
:1056000008800020DFF83414088000210DE0DFF866
:105610002C040288DFF820040B00DBB230F8130002
:105620008218DFF818040280491C0800C0B21E2846
:10563000EDD3DFF8080400881E21B0FBF1F0DFF89D
:10564000FC130880DFF8B4030168DFF8AC030268DC
:10565000DFF8E80303880F2000FB032291420BD2FE
:105660000320DFF8C01308706420DFF8941308806B
:105670006420DFF88C13488097E0DFF8B4030088DB
:10568000DFF87413096888420AD2DFF86C030168F6
:10569000DFF89C030088091ADFF89803018009E00D
:1056A000DFF88C030188DFF850030068091ADFF87F
:1056B00084030180DFF87C030088642858DA002026
:1056C00010E0DFF874130200D2B2524201EB420143
:1056D000098FDFF864230300DBB25B4202EB430275
:1056E0005187401C0100C9B21D29EAD3DFF84403E9
:1056F0000088DFF8441308800020DFF8401308809A
:1057000000210DE0DFF834030288DFF82C030B00E2
:10571000DBB230F813008218DFF820030280491C46
:105720000800C0B21E28EDD3DFF8100300881E2148
:10573000B0FBF1F0DFF804130880DFF8BC02016869
:10574000AE480268DFF8F40203880F2000FB032252
:1057500091420DD20320DFF8CC1208700020DFF850
:10576000CC1208806420A64908806420A44948809F
:105770001BE0AE48008840F2F511884203D30420B4
:10578000A849087004E0A9480088401CA74908807F
:105790000BE000209A4908800020994948800020A9
:1057A000A0490870042099490870A54800889449C8
:1057B0000988884205D1A248408891494988884291
:1057C00013D08F4800889F4908608D4840889D49C4
:1057D0004860002300228A499B480068FDF765FF66
:1057E00001219A480068FFF7D9FC83480068904976
:1057F0000880834800889249088081484088904901
:10580000488001BD38B5FCF77AFF0500FCF76EFF54
:1058100077490978002937D1EDB2012D02D0C0B205
:10582000012831D10023220089498A480068FDF708
:1058300085FF00232200774987480068FDF77EFF37
:105840007148007882490978884207D080480078FA
:105850006649087001206649087015E07F48008895
:105860006C49098888420CD06A4800884FF6FF715D
:10587000884206D0FF205D49087002205C4908700C
:1058800002E0FF205949087059480078002806D0E6
:10589000022808D004D3042809D007D308E007E081
:1058A000FFF74BFD04E0FFF716FD01E000E0FFE726
:1058B0004F480078002817D0FFF706FE0320514913
:1058C00008706748008847F23151884203DB0120A5
:1058D000644908700EE062480088401C60490880F6
:1058E00000206049087005E0042046490870002047
:1058F0005B490880564800785B4908704548008835
:105900005649088031BD3F480078704755480078B7
:1059100070473D480078704710B5FFF7B3FC4FF46F
:105920007A70FDF713FE514804885148008849F603
:105930009271884208D3200080B2652804D22D4895
:105940000078401C2B490870200080B249F6927103
:1059500088420CD346480088652808D2254800783C
:10596000002804D023480078401E224908702148AE
:1059700001784AF65F12200080B202FB01011E4846
:105980000160FFF73FFF3A48048019480078394921
:1059900008701E4800783749487022480078354919
:1059A00088701D4800783349C87014480068314930
:1059B000087112480068000A2E4948710F480068B3
:1059C000000C2C4988710C4800682A49C8710A48A3
:1059D0000068000A2749087207480068000C25493A
:1059E00048720120FDF7B2FD9DE7000091350020CF
:1059F0009435002093350020EC340020F034002052
:105A0000F434002097350020923500209635002090
:105A10009935002070350020903500207435002025
:105A200072350020953500200010014076350020A9
:105A30007C35002078350020F83200207A350020AF
:105A4000F834002070340020D0340020D8340020F6
:105A50009A350020CC340020C834002000010020FA
:105A60007E350020983500209B35002082350020AF
:105A7000803500204434002010B504000020002CA4
:105A800001D1012068E0607C002804D1002020744E
:105A90002000FCF7E9FF02206074200000F062F8AB
:105AA000002803D004206074012055E0200000F09D
:105AB00078F8002803D00420607401204CE02068AE
:105AC0004068C008C00021684860A068002807D06E
:105AD000DFF88800006840084000DFF880100860A8
